:100000000C943F020C945C020C945C020C94C52886
:100010000C945C020C945C020C945C020C945C02E8
:100020000C945C020C945C020C947C2E0C94502F6B
:100030000C94C7250C945C020C945C020C945C023A
:100040000C945C020C945C020C945C020C945C02B8
:100050000C945C020C946A260C945C020C945C0276
:100060000C945C020C945C020C945C020C945C0298
:100070000C945C020C945C020C945C020C945C0288
:100080000C945C020C945C020C945C020C945C0278
:100090000C945C020C945C020C945C020C945C0268
:1000A0000C945C020C945C020C945C02DA00D900A3
:1000B000DA00D900DA00D900DA00D9000000000027
:1000C000000000000000000000000000A900AA00DD
:1000D000AA00A900AA00A900AA00A9000000000027
:1000E00000000000000000000000000050004F0071
:1000F0001F001E001F001E001F001E000000000049
:1001000000000000000000000000000014001A00C1
:1001100008001500170004001600070009000A0077
:100120001D001B00060019000500E100E000E300CF
:10013000E2002C410000000000000000000013005D
:1001400012000C0018001C0028000F000E000D000B
:100150000B00370052003600100011004F00510014
:1001600050002A002C4200000000000000000000A7
:100170001E001F002000210022001E021F0220027C
:1001800021022202570056005500540067002B0040
:1001900049002C002C002C41000000000000000051
:1001A0000000270026002500240023002702260245
:1001B0002502240223022D1230122F1200003500D6
:1001C0002A00E200E300E0002C42000000000000F2
:1001D000000000003A003B003C003D003E001F02D2
:1001E00031003300331234002078217823782478CA
:1001F00025782B0049002C002C002C410000000029
:1002000000000000000043004200410040003F00A9
:100210002E004F00520051005000310030002F00DE
:10022000277826782A00E200E300E0002C42000054
:10023000000000000000000000AE00AF00DA028104
:10024000FFD9F1DB20A4A62EAF00A0C0D30000A1EF
:10025000C8D30000AED580A81F408D142000000038
:100260000000000000002A2B280000000000000011
:1002700000000000000000000029000000002C1E0B
:100280003420212224342627252E362D3738271EC8
:100290001F202122232425263333362E37381F04EE
:1002A00005060708090A0B0C0D0E0F101112131486
:1002B00015161718191A1B1C1D2F3130232D350444
:1002C00005060708090A0B0C0D0E0F101112131466
:1002D00015161718191A1B1C1D2F3130354C00002C
:1002E000000000000000000000000000000000000E
:1002F00000000000000000000000000000000000FE
:1003000000007E0F00D4FFFFFFC70000007810033D
:1003100063006F006F006C00360034003400000092
:100320000A036D002E006B0069000000040309043D
:1003300009025B00030100A0FA09040000010301A7
:100340000100092111010001224400070581030871
:10035000000109040100020300000009211101004D
:100360000122220007058203200001070503032064
:10037000000109040200010300000009211101002D
:1003800001227B0007058403200001120100020006
:10039000000008434D45060001010200010660FF10
:1003A0000961A1010962150026FF009520750881E9
:1003B000020963150026FF00952075089102C0050B
:1003C000010902A10185020901A1000509190129FC
:1003D00008150025019508750181020501093009FC
:1003E000311581257F95027508810609381581250B
:1003F0007F950175088106050C0A38021581257F55
:10040000950175088106C0C005010980A101850319
:1004100019012AB700150126B70095017510810052
:10042000C0050C0901A101850419012AA0021501CA
:1004300026A002950175108100C005010906A101E1
:10044000050719E029E715002501950875018102C6
:100450009501750881010507190029FF150026FF80
:100460000095067508810005081901290515002564
:1004700001950575019102950175039101C0112443
:100480001FBECFEFDAE0DEBFCDBF12E0A0E0B1E0EB
:10049000E6E6F4E602C005900D92AA30B107D9F75E
:1004A00025E0AAE0B2E001C01D92AC37B207E1F747
:1004B0000E9435150C94DD310C9400008330B8F4A3
:1004C0006A30A8F4453098F450E095E0699F400DFB
:1004D000511D1124FA0192E3899FE00DF11D1124B1
:1004E000EE0FFF1FE45FFE4F85919491089581E028
:1004F00090E008958330B8F46830A8F428E0829F33
:10050000C0011124680F792F711D660F771FE1E07C
:10051000E427E60FF72FF11DEE0FFF1FE455FF4F05
:1005200085919491089581E090E0089581E0089587
:100530000E949602089581E008950E94960208950F
:100540000E949D02089508950E94A3020895A6E0C6
:10055000B0E0EDEAF2E00C944D3149835A839E837A
:100560003091110289819A8131111AC03E81332361
:1005700099F0222389F00E943F08182F682F898163
:100580009A810E940C0869817A81812F0E94710FE3
:100590002696E3E00C9469310E942608182FF3CFC9
:1005A0000E943F0869817A81F1CFFC01262F4081AA
:1005B000518162817381848195810E94A70208958F
:1005C000CF93DF93EC0161E00E94D502BE010E944F
:1005D0009802DF91CF910895CF93DF93EC0160E013
:1005E0000E94D502BE010E94A402DF91CF9108951E
:1005F00081E008950E94F8020895CF93C82F0E94C9
:1006000008078C2F0E94FA022FEF84E39CE0215010
:1006100080409040E1F700C00000CF91089581E054
:100620000E94FD020E948E26089580E00E94FD0235
:100630000E949F2608950F931F93CF93DF938C0101
:1006400061E00E94D502EC01B8010E946E23811185
:1006500006C080E0DF91CF911F910F910895B801FE
:10066000CE010E94A0028823A1F3B801CE010E940E
:100670007B22882371F3B801CE010E94C71D882315
:1006800041F3B801CE010E949D1D882311F3B801EA
:10069000CE010E94BF228823E1F2F80185818823E0
:1006A00061F0C330FCE7DF07E9F058F4C115ECE76F
:1006B000DE07A9F0C130DC47B9F0C8010E949B02F7
:1006C000C9CFCB358CE7D807A9F0CC35ECE7DE07EE
:1006D00071F0CA35DC4789F70E94780CEECF0E9492
:1006E0000F03B7CF0E94800C0E941503B2CF0E9467
:1006F0006E0CE3CF0E947C0CE0CF0E94A4250E94E8
:10070000A8030E944C190E94DB1508950E94AC03B7
:100710000E94A9250895089581E008950895CF9332
:10072000DF93D82F0E948C03C82F882319F08D2FB8
:100730000E948E038C2FDF91CF9108950895CF935F
:10074000C82F0E948B038C2F0E948F03CF91089596
:1007500080E00E949F0308950E9473240E949F03DB
:100760000895CF930E947324C82F80910C028C1798
:1007700079F0C0930C020E94332660930D027093AF
:100780000E0280930F02909310028C2F0E949F0301
:10079000CF910895ADE0B0E0E0EDF3E00C944E3180
:1007A000488759876A877B878C879D8791110E942C
:1007B000AE0B1F8286E0FE013896DE011196019095
:1007C0000D928A95E1F78D8181110DC029813A81C1
:1007D0004B815C816D817E818F810E94F80A2D960C
:1007E000E2E00C946A31CE0101960E94E002811190
:1007F000EDCFF5CFFC012481213021F4808191815E
:100800000E946C080895CF93DF93C82FD62F6623DC
:1008100081F00E94281F8C2F90E09C01215D3109FE
:100820002830310548F46D2F0E943D16DF91CF919D
:1008300008950E94941FEFCF0E940D20F7CFCF9311
:10084000C82F882399F08CEF8C0F813A88F48C2F75
:100850000E94FF24882329F08C2F0E9442250E94A9
:100860001D0C8C2F0E943A250E941D0CCF910895DB
:1008700080E28C0F883048F4C77081E001C0880F97
:10088000CA95EAF70E94910BEFCFEBE5EC0FE3304E
:1008900040F4F0E0EC56FE4F808190E00E94A024EE
:1008A000E5CFE8E5EC0FEB3150F4F0E0EE0FFF1F81
:1008B000E25AFE4F808191810E94C524D7CF83E305
:1008C0008C0F833198F661E08C2F0E940304CECF09
:1008D000882381F19CEF980F913A28F40E944225D9
:1008E0000E941D0C089590E2980F983050F4877084
:1008F00091E001C0990F8A95EAF7892F0E94970B22
:10090000EFCF9BE5980F933028F490E080E00E94B1
:10091000A024089598E5980F9B3128F490E080E09A
:100920000E94C524089593E3980F933118F460E072
:100930000E94030408951F93CF93DF93182FEB01B8
:100940000E941F04209739F4812F0E946804DF91D0
:10095000CF911F9108958FE99FE00197F1F700C0B3
:1009600000002197EFCF70E060E0893311F460E57B
:1009700070E00E949B040895882321F00E94910B4F
:100980000E941D0C0895882321F00E94970B0E945D
:100990001D0C0895B0E0A0E0E0EDF4E00C944731C8
:1009A0006C01D62FC72FFC011581068102950F70AF
:1009B0000E94870BE82E8823F9F0E12E1123E1F045
:1009C0008C2F807F803461F080E28D0F883008F1B9
:1009D0008C2F807E803221F4D230D8F00023C9F0F1
:1009E00080914C0382FF15C082E00E94420C0E945D
:1009F000870B91E0E82EE926BC2EB2949FE0B92245
:100A0000FBE0FB15B8F1EB2DF0E0E152FE4C0C944D
:100A10003131E12CF1CF0C2F0F70C07F11F0029516
:100A2000007F112399F0002359F080E28D0F883068
:100A300010F0D11107C0802F0E94910B0E941D0C55
:100A40008D2F5AC0802F0E94A10BF8CF8D2F0E94AE
:100A50006804002379F080E28D0F883010F0D11106
:100A600004C0802F0E94970B03C0802F0E94A70B09
:100A70000E941D0CEB2DE850FF0B349720F40E94D0
:100A800073240E949F03EE2089F00E94830B80FD57
:100A90000DC0F60115820E947D0B0E948007C601E1
:100AA0000E94CF060E947D0B0E948C07CDB7DEB757
:100AB000E9E00C9463312C2F2F70F22EC07FC032EE
:100AC00019F0F29480EFF822DD2341F0D130D1F11A
:100AD000112309F444C00023F1F0B2CF80914C03FC
:100AE00082FD15C0112359F0FF2029F08F2D0E949F
:100AF000910B0E941D0C80E00E941F04BBCF80E080
:100B00000E946804FF2009F4B5CF8F2DABCF1123CD
:100B100069F0011104C08F2D0E94BC04ABCF0130DD
:100B200009F0A8CF8F2D0E94C50BA4CF0111A2CF31
:100B30008F2D0E94C3048F2D0E94D10B8F2D0E94F8
:100B4000B50B98CF112321F0063008F093CFE3CFF7
:100B5000053008F08FCF8F2D0E94C3048BCF002368
:100B6000D1F3D93349F43FEF87EE93E03150804021
:100B70009040E1F700C000008D2F0E9468047ACFFA
:100B80008C2F86958695837069F0813009F072CF3D
:100B90008D2F9C2F9370111102C080E090E00E9475
:100BA000C52468CF8D2F9C2F9370111102C080E057
:100BB00090E00E94A0245ECF612F8D2F0E9403043D
:100BC00059CF8C2F837079F5111154CF4D2F429549
:100BD00046954770440F440F8D2F8F70042E01C02F
:100BE000880F0A94EAF72D2F2071D4FF07C02FE059
:100BF00030E001C0220F4A95EAF72095C695C695C8
:100C0000C370822BC23049F058F4C13019F00E94F1
:100C10005C0730CF0E9456072DCF0E9462072ACF73
:100C20000E94530727CF8695112311F08C2F8170D6
:100C3000882309F41FCF4D2F429546954770440FE6
:100C4000440F8D2F8F70042E01C0880F0A94EAF78D
:100C50002D2F2071D4FF07C02FE030E001C0220FFC
:100C60004A95EAF72095C695C695C370822BC23087
:100C700049F058F4C13019F00E94AB07FBCE0E9436
:100C8000A507F8CE0E94B107F5CE0E946E07F2CEFE
:100C9000CF70112329F08C2F0E9480078D2F3CCF1D
:100CA0008D2F0E94C3048C2F0E948C07E3CED23F6D
:100CB00041F160F4D03FB9F0D13F81F0112309F444
:100CC00046C00111BDCE8C2F8F711FC0D33F01F1E3
:100CD000D43FA1F780914C0382FD24C08C2F8F71EB
:100CE000112311F312C0112341F0053008F0C2CED8
:100CF0008C2F8F710E949907BDCE063008F0BACEB6
:100D0000F7CF8C2F8F711111CFCF0E948007B2CEF9
:100D1000112329F08C2F8F710E947707ABCE0E9490
:100D20007307A8CE112349F0CF718C2F0E94800742
:100D300063E08C2F0E94240C9DCE81E00E94420C27
:100D4000023008F497CE82E00E94420C93CE00233A
:100D500059F0D93309F010CFEFEFF7EE23E0E1506F
:100D6000F0402040E1F706CF8C2F8F719DCF0F937D
:100D70001F93CF93DF93EC01688179818D810E946D
:100D800077088C010E94B7070E945207B801CE0174
:100D90000E94CA04DF91CF911F910F910895CF93C4
:100DA000DF93EC018C81882399F0CE010E941B0314
:100DB000811111C00E94870B882351F08D818823F7
:100DC00039F080914C0382FF03C082E00E94420C04
:100DD000DF91CF910895CE010E94B706CE010E9407
:100DE000EC02F6CF90E080E00E94A02490E080E04A
:100DF0000E94C5240E94AE0B0E941D0C0E94292057
:100E00000E940D2008950E944A250E94F20608952E
:100E10000E949E0B0E940307089592959F70963042
:100E200091F058F4925F9F70923058F4803F19F01F
:100E300030F4883E30F481E008959A5FF4CF843F27
:100E4000D1F380E00895883EB0F3813FD1F7F3CF2E
:100E5000FC012481222339F0808191810E946C0859
:100E60000E940D07089580E00895A6E0B0E0EBE34E
:100E7000F7E00C944E312696E2E00C946A31A7E03C
:100E8000B0E0E5E4F7E00C944E312796E2E00C94F4
:100E90006A3108950E94490708950E944A07809385
:100EA0002B02089508950E944D07089590912B02FA
:100EB000892B0E944D07089590912B0289230E944F
:100EC0004D07089590912B0289270E944D070895A0
:100ED0000E94490708950E94680708950E946B07C1
:100EE00080932A02089580E00E946E07089591E0A1
:100EF00001C0990F8A95EAF7892F0E946E0708951D
:100F000021E030E001C0220F8A95EAF780912A02A1
:100F1000822B0E946E07089521E030E001C0220F6D
:100F20008A95EAF7209580912A0282230E946E0713
:100F3000089521E030E001C0220F8A95EAF7809100
:100F40002A0282270E946E07089590912A02892B17
:100F50000E946E07089590912A0289230E946E07CD
:100F6000089590912A0289270E946E070895089596
:100F7000262F277091E001C0990F2A95EAF723E008
:100F8000769567952A95E1F7FB01EE0FFF1FE60FB7
:100F9000F71FE40FF51F50E040E0682F70E08191EB
:100FA000DF0111979B01042E02C0369527950A9404
:100FB000E2F7217021952827292328272C934F5FBA
:100FC0005F4F4330510559F70895A82FA77023E0CC
:100FD000969587952A95E1F7FC01EE0FFF1FE80F24
:100FE000F91FE60FF71F50E040E080E0219130E06C
:100FF0000A2E02C0369527950A94E2F7217033270E
:10100000042E01C0220F0A94EAF7822B4F5F5F4F34
:101010004330510559F70895282F862F9A3070F4E0
:10102000253058F4622F70E025E0929F600D711D0D
:10103000112445E152E00E94B80708959C5F923068
:10104000E0F7622F70E042E152E0F5CF292F9A30AD
:1010500068F4853090F490E065E172E035E0239F1C
:10106000800D911D11240E94E50708952C5F223008
:1010700020F462E172E090E0F6CF80E00895CF9234
:10108000DF92FF920F931F93CF93DF936C01009138
:101090002A0280912B02082BC3E0D0E010E0FC2E46
:1010A000C8010C2E02C0959587950A94E2F780FD41
:1010B0000CC02197A0F7F12C8F2DDF91CF911F91BC
:1010C0000F91FF90DF90CF900895B6018C2F0E9472
:1010D0008A0F019771F3F0CFCF93DF93EC010E9459
:1010E0003F08BE010E948A0FDF91CF9108951F93A0
:1010F000CF93DF93EB0190911102992339F0CB014B
:101100000E946C08DF91CF911F910895882369F0A8
:10111000CB010E943F08182F682FCE010E940C08B7
:10112000BE01812F0E948A0FEDCFCB010E942608BD
:10113000182FF6CFE1E0F0E0DF0102C0AA0FBB1FDD
:101140006A95E2F7BD01DF0102C0AA0FBB1F4A95F5
:10115000E2F76A2B01C0EE0F2A95EAF7962F982343
:10116000961302C08E2B0895E0958E230895242FA8
:10117000462F682F80912A020E949A080E946E07CB
:1011800008951F93CF93DF93C0912C0217E08091B5
:101190002D028C1304C0DF91CF911F910895D0E0F0
:1011A0001C9FF0011D9FF00D1124E25DFD4F208179
:1011B0003181428153816481758186810E943F071C
:1011C0002196C770E4CF209166023091670240916A
:1011D00068025091690260916A0270916B0280917D
:1011E0006C020E943F070895CF93DF9380916C02B9
:1011F000807F09F04DC080916B02882309F448C0BC
:10120000E0912C0250912D02C0916702D0916602AC
:10121000609168027091690247E05E17C9F18E2FF4
:1012200090E0E49FF0011124E25DFD4F2481222330
:1012300091F1489FF001499FF00D1124DF01A25D5B
:10124000BD4F11962C9111972C1325C02C912D1365
:1012500022C015962C91159721111DC012962D9123
:101260003C91261B370B283C3105A8F480916C0279
:101270008F70806180936C02EC5CFD4F80818F7079
:101280008061808386E692E00E94CF060E94C108BA
:10129000DF91CF910895FC013196E770BECF482FC2
:1012A00020912C0290912D0257E0291302C080E07A
:1012B000089530E0529FF001539FF00D1124E25D3C
:1012C000FD4F8181681306C08081481303C085816A
:1012D0008111EECF2F5F3F4F2770E7CFA4E1B0E041
:1012E000E4E7F9E00C9444318C0186E0F801DE017A
:1012F0001F9601900D928A95E1F7F8018481E580AF
:1013000096E6A92E92E0B92E90916A0291111FC023
:101310008823D1F0EE20A9F0C8010E942807F82EFA
:10132000882379F087E0F801D50101900D928A9524
:10133000E1F7C5010E94FA030E94F4080E94E30845
:101340005FC0C8010E94CF06FF24F39459C0C0803B
:10135000D18082809380F0906B022091680230915E
:101360006902A401421B530BFF2009F4F9C0483C59
:10137000510508F0A7C0882309F442C09091670284
:1013800080916C02282F207F09F05CC09D1116C04F
:1013900090916602C91212C0E1104EC08F70806138
:1013A00080936C020E94E30886E692E00E94CF06DA
:1013B00080916C02F8018683F12C22C0E1103CC0C0
:1013C0006D2D8C2D0E944F096D2D8C2D0E944F0983
:1013D000E82E8111F1CFCF86D88A8F8598890E9417
:1013E0006C08292F22952F70243078F49F702230BA
:1013F000A8F09923B9F0F8019681907F99F4FE2C1A
:101400008F2D6496ECE00C9460312A5F2F702230AF
:1014100068F0C8010E94CF06EF2CF1CF992311F09C
:10142000882369F3805E883050F3F3CF803F38F330
:10143000815F833070F7E3CF80916C02816080938D
:101440006C02BACF9D1113C090916602C9120FC0F1
:10145000E1100DC08683C8010E94CF0687E0F80125
:10146000A6E6B2E001900D928A95E1F767CFC80138
:101470000E942807882309F464CFEE2009F461CF85
:1014800080916C02803288F0209166023091670270
:10149000398728879B868A8690916A029C871D8659
:1014A0008E87CE0108960E94CF0687E0F801A6E657
:1014B000B2E001900D928A95E1F70E94F4080E9433
:1014C000E30842CF90916C02292F207FA1F4682D70
:1014D0009A8A898AA6017A899E2D0E94350786E616
:1014E00092E00E94CF0687E0F50111928A95E9F714
:1014F0000E94E30861CF882309F482CF80916702BC
:101500008D1110C080916602C8120CC0E1100AC093
:101510009683C8010E94CF0687E0F50111928A9553
:10152000E9F76ECFC8010E942807882309F409CF84
:10153000EE2009F406CF80916C02803208F4B5CF1A
:1015400020916602309167023A8329839C828B82C4
:1015500090916A029D831E828F83CE010196A3CF54
:10156000483C5105B8F5882309F4EECEFE2CEE2058
:1015700009F4E7CE809167028D111EC0809166024A
:10158000C8121AC080916C0280FD0DC0982F907F08
:1015900051F08683903F09F45ECF982F907F905F43
:1015A0008F70892B57CF87E0F801A6E6B2E0019053
:1015B0000D928A95E1F724CFC8010E942807811176
:1015C00074CF80916C02816080936C02C8010E948C
:1015D000CF0616CF682D9A8A898AA6017A899E2D10
:1015E0000E94350787E0F50111928A95E9F7A6CEAA
:1015F000AEE0B0E0EEEFFAE00C944D312887398789
:101600004A875B876C877D878E87CE0108960E940C
:101610006E098823B1F06C85662341F028853985F1
:101620004A855B857D858E850E943F0717E0809106
:101630002C0290912D0289133DC02E96E3E00C946C
:10164000693187E0FE013896DE01119601900D9216
:101650008A95E1F78C85882349F320912D0230E0AB
:10166000C90101968770992740912C0248171906E5
:1016700099F097E0929FD001939FB00D1124A25D45
:10168000BD4FFE01319601900D929A95E1F780933E
:101690002D020E94C108CACF0E94080710922D0295
:1016A00010922C0287E0E6E6F2E0DF011D928A95B7
:1016B000E9F7BCCF819FC0011124825D9D4F0E943C
:1016C0006E09882309F4B9CFE0912C021E9FF00126
:1016D0001124E25DFD4F208131814281538164817B
:1016E000758186810E943F0780912C0290E00196CF
:1016F0008770992780932C029ACF809175028695E6
:1017000086958695089580917502877008959091C9
:101710007502977081E009F480E00895809181025C
:10172000089590918102892B80938102089580957C
:1017300090918102982390938102089510928102E2
:10174000089590918002892B80938002089580955E
:1017500090918002982390938002089510928002C5
:10176000089508950E94B10B089590917602292F53
:10177000282331F080958923809376020E94B20B52
:10178000089508950E94C10B089590917702292F22
:101790002823281729F0982B909377020E94C20BD8
:1017A000089590917702292F282331F0809589237D
:1017B000809377020E94C20B08958091770288235C
:1017C00029F01092770280E00E94C20B08950F93D7
:1017D0001F93CF93DF930091000110910101C091FD
:1017E000810280918002C82B80917702882331F09A
:1017F000C82B0E94EA2481110E94DD0BF801C083EE
:10180000C0910001D091010148E050E06DE672E026
:10181000CE010E947531892B59F088E0FE01ADE6BA
:10182000B2E001900D928A95E1F7CE010E948724E3
:10183000DF91CF911F910F9108950E94E70B0895BA
:1018400008950E94200C089590914C0392FF11C0BE
:1018500098E0899F90011124622B609375020E9489
:101860008007809175028695869586950E94210C49
:1018700008950E94800708951092750280E00E94EA
:10188000210C0895909175028095892380937502AB
:10189000282F277069F4891759F090914C0392FF13
:1018A00007C08695869586950E948C070E943C0C01
:1018B000089590914C0392FB222720F9281769F094
:1018C00080FB92F990934C0380914B0390914C03D1
:1018D0000E94A20C82E00E94420C089580914C0369
:1018E00082FB882780F991E089270E94590C08958E
:1018F00081E00E94590C089580E00E94590C0895DF
:101900006FEF7FEF90E080E00E94C731089590E094
:1019100080E00E949331863E9E4F19F40E94082376
:10192000089580E0089582E090E00E948B31089550
:1019300083E090E00E948B31089584E090E00E9463
:1019400093310895BC0184E090E00E94C73108956E
:10195000AB01BC018FE090E00E94BB310895AB0168
:10196000BC0183E190E00E94BB31089560E070E02B
:10197000CB010E94AF0C089560E070E0CB010E94A3
:10198000A80C0E94B60C0895A8E0B0E0EAECFCE0D8
:101990000C944E3166EE7EEF90E080E00E94C731FD
:1019A00060E082E090E00E94A93181E080932B0208
:1019B00061E083E090E00E94A93160E074E184E09E
:1019C00090E00E94C73160E086E090E00E94A9317B
:1019D0006FEF87E090E00E94A93140E050E0BA014B
:1019E00088E090E00E94BB3160E084E290E00E94D9
:1019F000A93160E087E190E00E94A93160E08CE0CD
:101A000090E00E94A93160E08DE090E00E94A93151
:101A100019821A821B821C821D821E821F821886D6
:101A200048E050E068E170E0CE0101960E949931F3
:101A300040E050E0BA0180E290E00E94BB3180E0DB
:101A40000E9421230E9450230E94BC0C2896E2E0B1
:101A50000C946A310E94C40C0895682F8EE090E0C7
:101A60000E94A9310895A6E0B0E0E9E3FDE00C94FE
:101A70004C310E9427268C01809182029091830232
:101A80008017910781F019821A820E942726682FF9
:101A900049815A81792F80E090E00E94CA03109317
:101AA0008302009382022696E4E00C9468310E943F
:101AB000A61060939A0270939B0280939C0290936D
:101AC0009D02609396027093970280939802909380
:101AD000990208950E94A61060939A0270939B0247
:101AE00080939C0290939D02609392027093930264
:101AF000809394029093950208950E94A61060939B
:101B00009A0270939B0280939C0290939D02609333
:101B10008E0270938F0280939002909391020895A9
:101B2000089508950E94900D089508950E94950DBE
:101B3000089581E0089580EC90E10E9442150E9492
:101B4000910D0E94920D08950E94F112089508953A
:101B500008950E94A70D0E94A80D08950E94DF100D
:101B60000E949E0308950E941E260E9480100E94DB
:101B700060230E94F9120E94F6190E9409120E9425
:101B8000AE0D0E94571B80E00E94CF170E940B13DE
:101B90000E9485150E94960D0895A6E0B0E0E3ED41
:101BA000FDE00C9444310E94990D082F811119C059
:101BB0000E94330D00E00E94F1120E94781A182F43
:101BC000882319F00E946A0D012F0E94DB158823DB
:101BD00009F45DC00E947D0D0E946C190E943218AC
:101BE0005AC00E94671284E8A82E82E0B82E6501D0
:101BF00010E0F601F1906F01812F0E9402111F5F2A
:101C00001A3009F441C0F816A1F380919E0281FDBB
:101C10000E9408110E94A40D982E10E0882483943D
:101C2000812F0E940211F82EF50181915F01F816B3
:101C300029F1CF2CC826E12CDD24D3948C2D8D21C5
:101C4000A9F0992099F0E9821A830E9427269C83A3
:101C50008B838D8291E08F2D8D2109F490E0498155
:101C60005A816B817C818D810E94CA03E394DD0CD3
:101C7000F5E0EF12E3CFF5013197F0821F5F1A30E4
:101C800079F60E94570D97CFF812BFCF91CF0E94DF
:101C90006C190111A3CF0E9466200E94B103269601
:101CA000ECE00C9460311F93CF93DF930E948F0F71
:101CB000EC01C11580E5D807F0F5C11580E4D8071F
:101CC00008F09CC0C03ED10520F5CD3CD10508F000
:101CD00082C0C83AD10578F4C53AD10508F073C07E
:101CE000C130D10519F1209709F1C430D105F0F4C4
:101CF000D0E0C0E01BC0C33CD105D0F7C85AD0E04B
:101D0000CC0FDD1FC956DE4F0990D881C02DD46499
:101D10000DC0C11580E2D80708F0D1C0C11581E01F
:101D2000D80708F05AC0C83ED10510F7CE01DF91A0
:101D3000CF911F910895C03682E5D80718F5C034B9
:101D400082E5D80708F06BC0C03282E5D80708F0FA
:101D50005FC0C11582E5D80708F497C02C2F2695DF
:101D6000269580E2289F900111248C2F8370C1E07A
:101D7000D0E002C0CC0FDD1F8A95E2F7C22BD32B37
:101D8000DD68D4CFC03A82E5D80760F4C03882E578
:101D9000D80708F459C0CF71D0E0DC2FCC27C46F2E
:101DA000D06AC4CFC03C82E5D80708F462C0C03E08
:101DB00082E5D80708F09CCFDC2FCC27CC27DF7139
:101DC000C06FD06AB3CFC55AD0E0C353DE4FC881CD
:101DD000D0E0D064ABCFD065A9CF8D2F0E94311059
:101DE000182FCE0199270E948F0FC12FD0E0DC2F32
:101DF000CC27CC27DF71C82BD92B98CFCE019927C0
:101E00000E948F0FCC27DF70C82BD92BD06A8ECFC2
:101E1000CF71D0E0DC2FCC27C16FD06A87CF2C2FB9
:101E200026952695277080E2289F900111248C2FFB
:101E30008370C1E0D0E002C0CC0FDD1F8A95E2F7CD
:101E4000C22BD32BDC6872CF2C2F269526952770BA
:101E500080E2289F900111248C2F8370C1E0D0E094
:101E600002C0CC0FDD1F8A95E2F7C22BD32BDA68B4
:101E70005DCF8C2F8F710E943110C82FD0E0DC2FE6
:101E8000CC27CC27DF71D06251CF8C2F8F710E946D
:101E9000311055E0D695C7955A95E1F7CF70D0E04F
:101EA000DC2FCC27282F30E084FF05C044E0220F30
:101EB000331F4A95E1F7C22BD32BD06937CF8D2F33
:101EC0008F710E943110182FCE0199270E948F0F19
:101ED000C12FD0E0DC2FCC27CC27DF71C82BD92B2A
:101EE000D2CF7A3038F4653050F4462F672F0E94F5
:101EF000AB1C08957D3F31F441E0683040F090E044
:101F000080E008957C3FD9F76830C8F740E00E9430
:101F1000B71C08950E94710F0E94530E08958238D5
:101F20009105B9F1B0F48133910509F47DC048F40D
:101F30008932910509F46DC08A32910509F47BC09C
:101F400008958533910509F45FC08933910509F13E
:101F50000895833E9105D9F138F4803E910529F129
:101F6000823E910579F10895863E9105D9F1873E2B
:101F7000910509F43EC0843E910541F520914C0342
:101F800021FF24C080914B0384FD19C087EE90E0AF
:101F9000089520914B03237009F05AC020914C03FF
:101FA00023FF14C089E290E0089520914B0320FDA7
:101FB00038C030914C0330FF09C024FF43C090E08B
:101FC00080E0089520914B0322FDF7CF08952091E2
:101FD0004B0322FD3AC030914C0330FD39C024FF41
:101FE000F5CFEDCF20914B0323FFF0CF24FDE7CFBA
:101FF000CDCF20914B0323FD2EC030914C0331FFF8
:10200000EECF84EE90E0089520914B0325FFDECFC4
:10201000C9CF20914B0325FD21C020914C0323FF04
:10202000D5CF89E390E0D2CF20914B0326FFCECFCE
:102030008AE290E0089520914B0326FFC7CF81E309
:1020400090E0089583EE90E0089582EE90E0089588
:1020500080EE90E0089586EE90E0089585E390E0AC
:10206000089590914B0392FF10C041E0282F2471F6
:10207000243009F040E031E0282F2871283009F0A1
:1020800030E0431711F02CE0822793FF10C041E0AD
:10209000282F2471243109F040E031E0282F2871E5
:1020A000283109F030E0431711F02CE082273091FD
:1020B0004C0330FF10C051E0282F2171213009F06E
:1020C00050E041E0282F2871283009F040E05417F3
:1020D00011F029E0822731FF10C041E0282F217143
:1020E000213109F040E031E0282F2871283109F032
:1020F00030E0431711F029E0822794FD877E089590
:1021000010924703109248031092490310924A0319
:102110000895CF92DF92EF92FF926B017C010E94B3
:10212000F11281110EC00E943326C61AD70AE80A9E
:10213000F90AC0924703D0924803E0924903F09213
:102140004A03FF90EF90DF90CF9008950F931F9375
:102150000E94F112882329F00E9433261F910F91CB
:1021600008950E943326009147031091480320915F
:10217000490330914A03600F711F821F931FEECFF6
:1021800080E008950E94800C08950E9467122FEF4E
:1021900086E791E0215080409040E1F700C00000C8
:1021A0000E94671280E00E94021180FF04C00E941A
:1021B000C2100E948E2608950E94C51008950E94A4
:1021C000870C811102C00E942A0D0E94930C8093FB
:1021D0009E020E949D0C90934C0380934B030E949F
:1021E000DC100E94980C0E94530780912A020E94E2
:1021F0006B07089508950E94FA10089508950E94AB
:10220000FE100895E82FF0E0E85AFC4F8081089511
:10221000089580EA8A95F1F7089500C008950E9414
:102220000911089508950E9412110895A5E0B0E0E3
:10223000ECE1F1E10C944A310E94F112F82E609128
:102240006203882309F440C085E0E82E8E010F5F09
:102250001F4FF8018E2D11928A95E9F7862F90E095
:10226000B801885A9C4F0E9419138823B9F08091B5
:102270004D0390E045E050E0B801885A9C4F0E9421
:10228000753121E020939F02892B91F4F12C0E945B
:10229000FF108F2D2596E6E00C94663180919F0209
:1022A0008823A1F3F8011192EA94E9F710929F02B2
:1022B000A0914D03B0E0A85ABC4F85E0F801019011
:1022C0000D928A95E1F7E3CF70E0685A7C4F8091D8
:1022D0004D0390E0885A9C4F0E94A0130E94131156
:1022E000D8CFF894E82FE295EF70F0E031A1282FD5
:1022F0002F7081E090E001C0880F2A95EAF7982FAF
:102300009095932391A392A1892B82A37894089509
:10231000CF93DF93C2E0D1E089918F3F11F00E940B
:10232000711181E0C730D807B9F7C7E0D1E08991D2
:102330008F3F11F00E94711181E0CC30D807B9F7BE
:10234000DF91CF910895B0E0A0E0E9EAF1E10C94CB
:1023500048317C01162F042FC62FD0E0CE5FDE4F10
:1023600028812F3F09F44CC0F894E22FE295EF70DA
:10237000F0E031A12F7081E090E001C0880F2A9534
:10238000EAF7932F982B91A392A18095892382A39A
:1023900078940E940D1187E0C82E81E0D82EF701B5
:1023A000A7014B5F5F4FF12CE02EE094D6019D9189
:1023B0006D0181919F01215031099F3F31F1692FBA
:1023C00062956F7070E0DB0190966C9170E09F7089
:1023D00002C0759567959A95E2F760FD16C0802B4F
:1023E000D9018C93FF24F394E417F507F9F688815B
:1023F0008F3F11F00E9471116F2D812F0E940F11DC
:10240000CDB7DEB7E8E00C9464318E21D9018C930E
:10241000EBCFAAE0B0E0EFE0F2E10C944E31809116
:102420000C01811130C085E0E4E5F1E0DE01169693
:1024300001900D928A95E1F78E81809307018F813B
:1024400080930801888580930901898580930A011A
:102450008A8580930B0185E0E9E5F1E0DE011196C4
:1024600001900D928A95E1F78981809302018A811A
:10247000809303018B81809304018C8180930501FB
:102480008D818093060180910C0195E0811190E08F
:102490009093620385E0891B80934D030E9488110D
:1024A0008AE0E8E5F3E0DF01982F1D929A95E9F7BD
:1024B000EEE4F3E0DF011D928A95E9F785E00E94E2
:1024C000A9120E94FB102A96E2E00C946A31AAE05D
:1024D000B0E0EDE6F2E10C944A318E010F5F1F4F40
:1024E0008AE0F80111928A95E9F7F12CEE24E39441
:1024F0004E2D6F2DC8010E94A311F394EE0CF5E050
:10250000FF12F6CF4AE050E0B8018EE493E00E945B
:10251000753121E0009709F420E0892B41F08AE031
:10252000F801AEE4B3E001900D928A95E1F7609175
:10253000620370E0685A7C4F45E08EE493E00E94AD
:10254000AA12182F0E941611812B2A96E6E00C94ED
:1025500066310895B0E0A0E0E0EBF2E10C94483180
:102560006C017B01042FC22F222379F081E080933C
:10257000A2020E9427269093A1028093A00280E0ED
:10258000CDB7DEB7E8E00C946431D091A202DD2330
:10259000B1F38091A0029091A1020E943F2605977D
:1025A00070F310E0A801B601C7010E947531892BB4
:1025B00031F0A801B601C7010E948231CD2F1092DF
:1025C000A2028C2FDDCFCF930E94FC30C82F811147
:1025D00002C00E94F7308C2FCF9108958091A602FF
:1025E00008958091A50208950E94F11291E0892733
:1025F00008950E94E3128093A5020E94F412809332
:10260000A6020E94EE1280930C010E94F112811129
:102610000E944F1308950E94F112811102C00E947E
:102620005213089581E09091A7029A3008F080E05B
:1026300008950F931F93CF93DF93EC018B0180914B
:10264000A7028A30B8F4B801CE010E949D13C82FAA
:10265000811122C08091A7028F3FB9F40E942726E2
:102660009093A4028093A3028C2FDF91CF911F91AE
:102670000F9108958091A3029091A4020E943F2699
:10268000843F914000F7C0E0EFCF8F5F8093A702B7
:102690008A3020F7C1E0E8CF1092A702E5CF0E9470
:1026A0007F2808950E9482280895B0E0A0E0EBE51D
:1026B000F3E10C9449317901C82F880FDD0B4115E6
:1026C0005105A9F0FE0193E0EE0FFF1F9A95E1F787
:1026D000E35FFE4F8181928188559D4F208130E0DC
:1026E0004217530708F49A01A9010E948231CE01D2
:1026F0000E946B29D82E8823D1F001151105B9F05D
:1027000083E0CC0FDD1F8A95E1F7FE01E35FFE4F0A
:10271000438150E00417150708F4A801C35FDE4F9A
:102720006C817D8168557D4FC7010E9482318D2D5E
:10273000CDB7DEB7E7E00C9465310E94B914089577
:102740000E94DA140895A4E0B0E0E9EAF3E10C9401
:102750004C316091C8027091C9028091CA02909177
:10276000CB020E944E2611E0643671058105910569
:1027700018F10E94A6106E5F7F4F8F4F9F4F6983A5
:102780007A838B839C8310E000E030E020E044E01B
:1027900050E0BE016F5F7F4F84E00E945513182FF9
:1027A000882351F00E9433266093C8027093C902B7
:1027B0008093CA029093CB02812F2496E4E00C947C
:1027C0006831A1E0B0E0E7EEF3E10C944331762EFE
:1027D0004A015901680101E010E09E012F5F3F4F5F
:1027E00050E040E070E060E00E945513182F88230D
:1027F00099F1F40160817181828193810E944E265A
:10280000643671058105910500F18701950150E05D
:1028100040E070E060E0872D0E945513B82EB701AC
:10282000C6010E94581B11E09981981310E01B21EA
:1028300039F00E943326F40160837183828393838D
:10284000812F2196EDE00C945F31B701C6010E9403
:10285000581B99818913D9CFA701B601C5010E94E0
:102860008231EECFA4E0B0E0E8E3F4E10C944A3129
:102870000091D0011091D101095F1F4F84E0E82E33
:10288000F12C9E012F5F3F4F44EC52E063E082E069
:102890000E94E113182F882321F0CE0101960E9497
:1028A000131B812F2496E6E00C946631A5E0B0E07E
:1028B000ECE5F4E10C9448316B010091D0011091EA
:1028C000D1010F5F1F4F85E0E82EF12C9E012F5F95
:1028D0003F4F40EC52E061E080E00E94E11388232A
:1028E00049F095E0FE013196ABEBB2E001900D921C
:1028F0009A95E1F795E0EBEBF2E0D60101900D92AD
:102900009A95E1F72596E8E00C946431B0E0A0E0F8
:10291000ECE8F4E10C9446317C015B016A010E9411
:10292000121301E010E0882311F00AE010E0C1E08A
:10293000D0E0B501C701F6010995811104C02196C7
:102940000C171D072CF4CDB7DEB7EAE00C9462310A
:10295000CC9F9001CD9F300D300D112490E080E090
:1029600045E34A95F1F70000019682179307C1F7F6
:10297000E0CF0F931F93CF93DF93EC018B0146E5DC
:1029800054E10E948614811106C080E0DF91CF914E
:102990001F910F91089542E354E1B801CE010E94C6
:1029A0008614882391F343EA53E1B801CE010E94D3
:1029B0008614ECCFA4E0B0E0E0EEF4E10C944C31EE
:1029C0000091D0011091D101C801019625E0FB01D1
:1029D000DC0101900D922A95E1F765E070E00E941C
:1029E000581BF8018083CE0101960E94081B898143
:1029F0009A81AB81BC81F80187839087A187B287D8
:102A000064E070E0CE0101960E94581BF8018683B5
:102A100063857485858596850091B7021091B8020B
:102A20002091B9023091BA026017710782079307AB
:102A300051F06093B7027093B8028093B9029093FB
:102A4000BA020E9489102496E4E00C9468310E9436
:102A5000512B0E94B30D0E945E2B08950E94632BA0
:102A60000E94CD0D0E947D2B08950E94C0250E94DA
:102A7000372B0E949B0D0E9427150E942E150E9445
:102A8000A90DFBCF90930B0280930A02089508953D
:102A90000895ACE0B0E0EFE4F5E10C944E314F83E3
:102AA000588769877A878B879C8786E0FE013796EF
:102AB000DE01119601900D928A95E1F729813A8104
:102AC0004B815C816D817E8180E090E02C96E2E01C
:102AD0000C946A31ACE0B0E0E0E7F5E10C944E31E3
:102AE0000E94491580E090E02C96E2E00C946A3157
:102AF00021E030E001C0220F4A95EAF7662311F089
:102B0000822B0895209582230895E091D201F091BF
:102B1000D30109950E9447150E9448150895CF9347
:102B20006CEC72E083ED92E00E945525C82F88235B
:102B300021F083ED92E00E9492249091D40286E0ED
:102B4000E3EDF2E0DF01282F1D922A95E9F790933B
:102B5000D402ACECB2E001900D928A95E1F781E0ED
:102B6000C11103C0911101C080E08170CF9108951F
:102B7000ACE0B0E0EEEBF5E10C944E314F835887BA
:102B80008B879C877195619569877A8786E0FE01BE
:102B90003796DE01119601900D928A95E1F7298111
:102BA0003A814B815C816D817E8180E090E02C9642
:102BB000E2E00C946A31A6E0B0E0E1EEF5E10C94BD
:102BC0004E31E091D401F091D5014091D302509162
:102BD000D4026091D5027091D6028091D702909173
:102BE000D8020995F42FE52FCB012093D30230931F
:102BF000D402F093D502E093D6026093D70290936B
:102C0000D802A9016F2F7E2F0E94B815F42FE52F4F
:102C1000CB012093D3023093D402F093D502E093FA
:102C2000D6026093D7029093D802A9016F2F7E2F0E
:102C30000E946A152093D3023093D4024093D502A8
:102C40005093D6026093D7027093D8020E94372027
:102C50008091D402832B8093D4020E948F1581111E
:102C600009C08091D2021092D20281702696E2E0D1
:102C70000C946A3181E090E0F6CF9C01215D31092E
:102C80002830310550F44FE2480F8091D4020E9461
:102C900078158093D4020E948F150895FC0120813D
:102CA00031812038310534F02F57310931832083A9
:102CB0008FE7089520388FEF380734F421583F4FBD
:102CC0003183208380E80895822F11821082089535
:102CD000A1E1B0E0EEE6F6E10C944B314C87888B35
:102CE000998B152FF62E072FCE01079625E0FC01B4
:102CF00011922A95E9F72091DF022A3008F03FC0AF
:102D00000E942C17892B09F060C01092DF028B857E
:102D100040E087FD52C060E0812F0E947815182F97
:102D20008091DD029091DE02009709F040C044E1FD
:102D30006F8188850E9443172091DB023091DC026D
:102D4000820F931F9093DC028093DB0244E169853C
:102D50008A850E9443172091D9023091DA02820FAE
:102D6000931F9093DA028093D9028BED92E00E9438
:102D70004E16F82E89ED92E00E944E16082F1D8700
:102D8000FE860F8786E0FE013C96DE0111960190DB
:102D90000D928A95E1F729813A814B815C816D81A1
:102DA0007E8180E090E06196E5E00C9467310197C8
:102DB0009093DE028093DD02E2CF61E0812F0E94DA
:102DC0007815182F84E190E0F3CF8091DF028F5FB8
:102DD0008093DF02D4CF80913501909136012DE7A9
:102DE000AC01249FC001259F900D112408959C01E2
:102DF000893F910538F481E090E09093360180930B
:102E000035010895EDE7F0E0BF010E940931A90105
:102E1000481B590BCA01BF010E940931709336014A
:102E2000609335010895A4E0B0E0E9E1F7E10C9486
:102E30004C3189836A834B832C8304E610E024E0C1
:102E400030E0AE014F5F5F4F60E084E10E94B12748
:102E50002496E4E00C9468310F931F9304E610E08D
:102E600025E030E0AC0164E084E10E94D8271F91A6
:102E70000F9108950E94AA2620E040E060E080E0E3
:102E80000E9413170895681708F5861B682F21E024
:102E9000469FA0011124649FF001659FF00D11244D
:102EA0004091350150913601E49FC001E59F900D9E
:102EB000F49F900D1124880F892F881F990B9195ED
:102EC000222319F09195819591090895681B20E0BE
:102ED000DFCFAB0124E630E0BC0188E70E949027F9
:102EE00021E0892B09F020E0822F0895B0E0A0E0D6
:102EF000ECE7F7E10C9448316C017B0164E670E08B
:102F000088E70E94B0268C01E601EC0CFD1CCE1572
:102F1000DF0561F40E94212881E00115110509F007
:102F200080E0CDB7DEB7E8E00C94643117FDF2CF56
:102F3000FE01849164E670E00E941C278C012196BA
:102F4000E6CF0F931F939B0104E610E0AC0160E411
:102F500088E70E94B12721E0892B09F020E0822F29
:102F60001F910F9108950E94AA26089508950E9426
:102F7000B6170895E3E6F3E080E092E0DF019C01FC
:102F80001D9221503040E1F7F0936A05E093690506
:102F90008FEF9FEF90930603809305030895CF93DF
:102FA0000E94B6170E94B7178093010380FD11C0DD
:102FB00080E8809300030E94B3176BE070E083E524
:102FC00092E00E947617811106C0C0E08C2FCF914D
:102FD000089580E2EECF8091010365E070E081FD0D
:102FE00027C08EE492E00E947617882371F36DE08B
:102FF00070E08CE392E00E947617C82F882329F3B3
:103000000E943326605A75418F4F9F4F609365052C
:103010007093660580936705909368050E94BA17C0
:1030200081E0809304038093030310920203CECFC8
:1030300089E492E0D8CF2091000336E0839FC0015D
:103040001124629F800D911D1124811522E09207A9
:1030500014F090E080E08D599C4F90936A05809326
:103060006905089580910403811103C080910303D1
:1030700008950E943326605A75418F4F9F4F609389
:103080006505709366058093670590936805809148
:1030900003038111EBCF62E070E08AE392E00E94CB
:1030A0007617882319F381E080930303DFCFA6E02E
:1030B000B0E0EDE5F8E10C943E31182F8091050366
:1030C00090910603892B09F1809104038823E9F08C
:1030D00080910203811119C00E9432181C821B8248
:1030E00022242394312C03E062EEE62E61E0F62EDA
:1030F00077E0672E8091050390910603009729F0F1
:10310000BC81BB2349F0111107C02696E2E10C9463
:103110005A312B812F5F2B833B81C32ED12C210170
:1031200002C0440C551C3A95E2F79201282339233A
:10313000232B79F38091010380FD3EC08B81829522
:10314000880F8076809339019601369527953695BC
:10315000279520933C01815E80933A0120933D01A5
:1031600067E070E087E391E00E946917882369F2C5
:10317000C60135E0880F991F3A95E1F720910103C8
:1031800020FD28C060E270E08D599C4F0E94A1177D
:10319000882309F4BACFC201809590954090050329
:1031A000509006034822592250920603409205038C
:1031B0004C814F5F4C839ECF8B81880F880F880F87
:1031C0008093390110923C01895F80933A0100930A
:1031D0003D01C6CFA0EEB2E0E0E21D92EA95E9F72C
:1031E0002EED31E03E832D832AEDC22E21E0D22E3A
:1031F000AD81BE816D91BE83AD83F60121916F01DA
:10320000280F392F311DA9014D595C4F5A8349832D
:10321000E62FF0E0E052FD4F30E020E0762C721A0D
:10322000922C022E01C0990C0A94EAF769817A81E6
:10323000A12CDB01BD90BD01B920472D4A19477073
:10324000842E042E000C550BBB2D01C0BB0F8A949D
:10325000EAF78B2E5195419551094770552701C0CA
:10326000B6944A95EAF78B28B0808B288082A39485
:1032700048E0A412DECF2F5F3F4F31962830310552
:1032800069F6AD81BE81EA16FB0609F0B1CF60E2B6
:1032900070E080EE92E07ACF809103039091040376
:1032A000911103C091E089270895882369F062E0B5
:1032B00070E088E392E00E947617811103C080914C
:1032C000030308951092030380910303EBCF81E081
:1032D00008950E94671908950F931F938091040326
:1032E000882381F180916305909164050E943F26B7
:1032F000C29760F00E94272690936405809363052F
:1033000060E080E00E941B180E94691980E00E9422
:103310005718809103038823A9F00E943326009157
:103320006505109166052091670530916805601B61
:10333000710B820B930B6F3F7F4F8F4F9F4710F4A2
:103340000E944C191F910F910895ACE0B0E0EBEA98
:10335000F9E10C944C31182F062F662359F10E9485
:1033600027261F832DEF28879A87898782E08B87FE
:1033700081E08C874F81588569857A858B859C850E
:103380000E94CA030023F9F00E94272619832DEF1B
:103390002A839C838B8382E08D831E8249815A819C
:1033A0006B817C818D819E810E94CA032C96E4E012
:1033B0000C9468310E9427261F832CEF28879A8758
:1033C000898783E0D4CF0E94272619832CEF2A8394
:1033D0009C838B8383E0E0CF8FE891E00197F1F746
:1033E00000C0000008950E94F1120895FF920F930B
:1033F0001F93CF93DF9380910C0194E0811190E0B3
:103400009093110384E0282F291B2093100390919F
:103410000C018093120390910C0180930F0306EF2F
:1034200011E0C2EFD1E0AE01D80121E030E08D9192
:10343000E82FE295EF70F0E0F1A08F70B90101C0C4
:10344000660F8A95EAF7962F90959F2191A382A106
:10345000862B82A3FA018191AF01E82FE295EF70EC
:10346000F0E0F1A08F70B90101C0660F8A95EAF70C
:10347000962F90959F2191A382A1862B82A3F1E0A4
:10348000AA3FBF07A1F60E94EC19609112034BE11D
:1034900053E0FA018E2F841B861728F0CDB7DEB7D4
:1034A000E5E00C946731D8012D918D01A22FA295F2
:1034B000AF70B0E090968C9190E02F7002C095951F
:1034C00087952A95E2F781709991A92FA295AF70FF
:1034D000B0E090962C9130E09F7002C03595279512
:1034E0009A95E2F790E020FD92E0892B8193D2CF6C
:1034F000B0E0A0E0EEE7FAE10C94483110E000E023
:1035000084E0C82ED12C80911203181730F0802F40
:10351000CDB7DEB7E8E00C946431C12FD0E0FE01F6
:10352000EA50FE4F8081E82FE295EF70F0E0E0A1D5
:10353000F0E08F7002C0F595E7958A95E2F7E170AB
:10354000DE01AE50BE4F4C91A42FA295AF70B0E0FB
:1035500090968C9190E04F7002C0959587954A9512
:10356000E2F780FD4DC080E08E2BDE01A55EBC4FF2
:10357000EC919E2F9370981709F440C0EE0FEE0F58
:10358000E82BEC93E0901103E10EEF70F0E0EE51C8
:10359000FE4FCD5EDC4F80819881890F8883F12CAE
:1035A000843084F0EE2DF0E0E95FFC4F80818F5F86
:1035B00080830E94F319F82E882321F160E08E2D7C
:1035C0000E94A51988818D3F84F4EE2DF0E0E95F1B
:1035D000FC4F8081815080830E94F319F82E88234C
:1035E000A1F061E08E2D0E94A5198881082E000CA3
:1035F000990BB6010E941D3188830F291F5F83CF6D
:1036000082E0B2CFFF24F394DDCFFF24F394EDCF1B
:103610004091120350E06091110370E0695F7C4FAC
:103620000E9482310895B0E0A0E0E9E1FBE10C9452
:1036300048316C01D0E080E090910F03D91740F041
:1036400081110E946A0DCDB7DEB7E8E00C946431B9
:10365000F0901003FD0E0F2D10E0095F1C4FF601D6
:10366000ED0FF11DC081F8019081C91BEC2E1E14D5
:1036700044F09C2FC7FD90E0C91BC1110DC0DF5F56
:10368000DBCFEA94F80180818F5F808360E08F2D2B
:103690000E94A51981E0EBCFCF5FF80180818150B6
:1036A000808361E08F2D0E94A51981E0E6CF089507
:1036B000FC01680F791F8FEF91E36E177F0709F404
:1036C00008952191822728E030E087FF06C0880F07
:1036D000892721503109C9F7F0CF880FFACF84E04C
:1036E000089550E0440F551F9AE0699F400D511D09
:1036F000112494E6899F400D511D1124CA01899619
:1037000008950F931F93CF93DF938430C8F46A30EA
:10371000B8F44530A8F40E94711B8C010E948B31D3
:10372000C82FD0E0DC2FCC27C80101960E948B3136
:103730009E01282BC901DF91CF911F910F91089510
:1037400090E080E0F8CF0F931F93CF93DF93122F79
:10375000032F843078F46A3068F4453058F40E94BE
:10376000711BEC01602F0E94A931612FCE010196DF
:103770000E94A931DF91CF911F910F910895FF927F
:103780000F931F93CF93DF93F42E843070F568303E
:1037900060F520E2829F8001112434E0639FB00134
:1037A0001124060F171F07541E4F82E090E0442398
:1037B00011F090E080E0800F911F0E948B31C82FA4
:1037C000D0E0DC2FCC2783E090E0FF2011F081E0F7
:1037D00090E0800F911F0E948B319E01282BC90120
:1037E000CDB7DEB7E5E00C94673190E080E0F8CF2C
:1037F0000F931F93CF93DF93142F022F843020F564
:10380000683010F590E2899FE001112484E0689F00
:10381000B0011124C60FD71FC754DE4F82E090E0DD
:10382000442311F090E080E0632F8C0F9D1F0E94D5
:10383000A93183E090E0112311F081E090E0602F46
:103840008C0F9D1F0E94A931DF91CF911F910F9185
:1038500008951F93CF93DF93C0E0D0E011C0412FB4
:103860006D2F8C2F0E945E029C01412F6D2F8C2F9B
:103870000E94A31B1F5F153091F7DF5FDA3011F054
:1038800010E0EDCFD0E041E06D2F8C2F0E947A0246
:103890009C0141E06D2F8C2F0E94F81B40E06D2FA2
:1038A0008C2F0E947A029C0140E06D2F8C2F0E9489
:1038B000F81BDF5FD83039F7CF5FC43071F6DF9186
:1038C000CF911F910895EF92FF920F931F93CF9383
:1038D000DF93EC018A017C01E60EF71ECE0189968A
:1038E000CE15DF0529F4CDB7DEB7E6E00C946631DE
:1038F000C03921E0D20740F40E948B31F801808367
:103900000F5F1F4F2196EACFF8011082F9CFB0E088
:10391000A0E0EDE8FCE10C9448317C016A018C01E7
:10392000060F171FEC01CE018996C017D10729F4A5
:10393000CDB7DEB7E8E00C946431C03921E0D2079E
:1039400040F4FE01EE19FF09EC0DFD1D60810E949F
:10395000A9312196E8CF843038F46A3028F4453014
:1039600018F40E94811B089590E080E0089584304F
:1039700028F4683018F40E94BF1B089590E080E09E
:10398000089580E1089587EC91E00895EF92FF9209
:103990000F931F93CF93DF93EC018A017C01E60E16
:1039A000F71ECE01875C9D4FCE15DF0529F4CDB7FC
:1039B000DEB7E6E00C946631C73C21E0D20740F464
:1039C0000E948B31F80180830F5F1F4F2196E9CF52
:1039D000F8011082F9CFB0E0A0E0E1EFFCE10C9437
:1039E00048317C016A018C01060F171FEC01CE01E2
:1039F000875C9D4FC017D10729F4CDB7DEB7E8E04B
:103A00000C946431C73C21E0D20740F4FE01EE196A
:103A1000FF09EC0DFD1D60810E94A9312196E7CFC1
:103A2000CF93DF93C9E3D2E060E0CE010E94A931D9
:103A30002196C11584E0D807B9F7DF91CF91089599
:103A4000A8E0B0E0E6E2FDE10C944631F82E8FE00C
:103A50008F1508F46EC08FEF93E00E948B318111B7
:103A600068C009E312E0F11035C0FE0131966F0124
:103A700088E011928A95E9F77801FFEFEF1AFF0AC3
:103A8000C8010E948B3189831A82882309F451C0AE
:103A90008130D1F4580182E0A80EB11CC7010E9408
:103AA0008B318A83882309F444C09FEF980F9330A9
:103AB000F0F4780193E0E90EF11CC5010E948B310E
:103AC0008B838823B1F11C8260E0C6010E94B12182
:103AD0008701D2CF011594E0190759F1C8010E945E
:103AE0008B31811101C0FA940F5F1F4FBCCF75015C
:103AF000843051F702E010E07501EFEFEE1AFE0A94
:103B0000C5010E948B31F601E00FF11F80838823ED
:103B100081F08C3741F4E2E0F0E0EC0FFD1FE00FA4
:103B2000F11F1082D1CF0F5F1F4F570107301105D2
:103B300019F72896EAE00C946231CF93DF93EB01FA
:103B400086319C4711F50E948E0B9D81992399F037
:103B50008A7A91E009F490E090932303811109C0DF
:103B600089E20E943A250E941D0C80E0DF91CF91EE
:103B7000089585E3F6CF80912303811104C089E283
:103B80000E944225F0CF85E3FBCF81E0EFCFCF93BA
:103B9000DF93EC01FB018581882309F4D2C09E01EB
:103BA00030572332310508F0B2C00E949D0C90932B
:103BB0004C0380934B03FE01E150F047E232F105E4
:103BC00020F4E551FE4C0C94313180914B0381601F
:103BD00080934B0393C080914C03886080934C0387
:103BE0008DC080914B038260F3CF80914B03846042
:103BF000EFCF80914B038860EBCF80914C038160C5
:103C0000EDCF80914C038260E9CF80914B038061BE
:103C1000DFCF80914B038062DBCF80914B038064C8
:103C2000D7CF0E94080780914B038068D1CF809145
:103C30004B038C60CDCF80914C038360CFCF8091BC
:103C40004B038E7FC5CF80914C03877FC7CF809178
:103C50004B038D7FBDCF80914B038B7FB9CF80917C
:103C60004B03877FB5CF80914C038E7FB7CF809178
:103C70004C038D7FB3CF80914B038F7EA9CF809172
:103C80004B038F7DA5CF80914B038F7BA1CF0E94EB
:103C9000080780914B038F779BCF80914B03837FE5
:103CA00097CF80914C038C7F99CF80914B0382FBFF
:103CB000992790F921E0922790FB82F990FB83F9F4
:103CC00087CF80914C03982F909591708E7F892B90
:103CD00090FB81F983CF90914B03892F8F7B96FFC7
:103CE000806476CF0E94080790914B03892F97FB41
:103CF00087F980586DCF81E00E942D0D80914B0394
:103D000090914C030E94A20C0E94080780E0DF9172
:103D1000CF91089580E0F0CF90914B03892F8F7E53
:103D200094FF806155CF90914B03892F8E7F90FF38
:103D300081604ECF90914C03892F877F93FF8860DD
:103D40004DCF81E0E4CF282F35EB2303C0011124B0
:103D500097FF04C080589109892F089580589F4F7C
:103D6000FBCF80912A0380FF0DC06091430170E07A
:103D7000660F771F6038710570F56115710569F17F
:103D8000862F089581FF07C06091430184E0689FFA
:103D9000B0011124EFCF6091430182FD0AC08091F0
:103DA00029038823A9F020914201609143018217E1
:103DB00010F088E0ECCF869FC001112433E0880F1B
:103DC000991F3A95E1F7622F70E00E941D31D2CF22
:103DD00068E070E0D5CF8FE7089581E00895809185
:103DE0002A0380FF0CC060913F0170E075956795D4
:103DF000759567956115710549F1862F089581FFC5
:103E000006C060913F0170E075956795F3CF6091B2
:103E10003F0182FD0BC0909128039923A1F060918E
:103E20003E0180913F01961738F0682F70E06038AE
:103E3000710500F38FE70895899FC001112470E098
:103E40000E941D31F4CF61E070E0D7CF81E008958A
:103E500090912D0320912E03922B20913003922BD1
:103E600020912F03922B31F098E09093290391E059
:103E7000909328038D3C31F40E94B11E819580936C
:103E80002E0308958E3C19F40E94B11EF8CF8F3C8A
:103E900031F40E94B11E819580932D030895803DD9
:103EA00019F40E94B11EF8CF893D29F40E94EF1E3B
:103EB00080932F0308958A3D21F40E94EF1E81957F
:103EC000F7CF8B3D31F40E94EF1E81958093300334
:103ED00008958C3D19F40E94EF1EF8CF9FE2980FD1
:103EE000983070F4815D990B21E030E001C0220F21
:103EF0008A95EAF780912C03822B80932C030895F6
:103F00008D3D31F480912A03816080932A030895C6
:103F10008E3D21F480912A038260F7CF8F3DB9F75F
:103F200080912A038460F1CF40912D038D3C59F498
:103F300080912E0387FF0DC010922E0341110BC0FC
:103F40001092290308C08E3C81F480912E0318162C
:103F50009CF3442381F080912F0390913003892BAF
:103F600009F05AC01092280308958F3C49F447FF86
:103F7000F0CF10922D0380912E038111ECCFE0CF72
:103F8000803D19F41416ACF3E4CF90912F03893DD2
:103F900029F41916F4F610922F03DBCF8A3D19F499
:103FA00097FFD7CFF8CF909130038B3D29F497FF3F
:103FB000D0CF10923003CDCF8C3D19F41916CCF32D
:103FC000C8CF9FE2980F983090F4815D990B21E063
:103FD00030E0B90102C0660F771F8A95E2F7CB0186
:103FE000809590912C03892380932C03B2CF8D3D33
:103FF00031F480912A038E7F80932A03AACF8E3DCD
:1040000021F480912A038D7FF7CF8F3D09F0A1CF56
:1040100080912A038B7FF0CF08950E9427269C0170
:1040200090912D0380912E03982B21F0309327033C
:104030002093260390912F0380913003982B21F039
:1040400030932503209324038BE293E00E94922473
:10405000089586E0EBE2F3E0DF011D928A95E9F72F
:10406000109229031092280310922A030895A6E0C3
:10407000B0E0EDE3F0E20C944E3186E0EBE2F3E0E9
:10408000DE01119601900D928A95E1F729813A811E
:104090004B815C816D817E8180E090E02696E2E03C
:1040A0000C946A31FC01828181110EC083818111DF
:1040B0000BC08481811108C091E08581811101C00C
:1040C00090E0892F8170089581E0FCCFA6E0B0E0F8
:1040D000ECE6F0E20C944D3186E0EBE2F3E0DE0139
:1040E000119601900D928A95E1F710922D0310928E
:1040F0002E0310922F03109230038B819C81892B09
:1041000089F080912603909127030E943F26AC01FD
:10411000909129039923C9F18091440184171506D0
:1041200008F440C08D819E81892B91F080912403F9
:10413000909125030E943F26AC019091280399237A
:1041400009F46AC0809140018417150608F472C012
:10415000BE016F5F7F4F8BE293E00E945525811176
:1041600005C08BE293E00E94522081110E940D2035
:1041700086E0FE013196ABE2B3E001900D928A95A4
:10418000E1F72696E3E00C946931209145018AE03D
:10419000289F900111242417350720F69F5F9093E4
:1041A000290302C09F3FD1F71B81112359F00E94C0
:1041B000B11E9FEF11160CF491E0899F802D112400
:1041C00080932D031C81112359F00E94B11E9FEF93
:1041D00011160CF491E0899F802D112480932E03F9
:1041E00080912D03882309F49DCF10912E03112374
:1041F00009F498CF0E94A31E882351F080932D03C9
:10420000812F0E94A31E882329F080932E038ACF3A
:1042100081E0F4CF81E0F9CF209141018AE0289F2D
:10422000900111242417350708F092CF9F5F9093D7
:10423000280302C09F3FD1F71D81112359F00E942E
:10424000EF1E9FEF11160CF491E0899F802D112431
:1042500080932F031E81112359F00E94EF1E9FEFC0
:1042600011160CF491E0899F802D11248093300366
:1042700080912F03882309F46BCF10913003112311
:1042800009F466CF0E94A31E882351F080932F0368
:10429000812F0E94A31E882329F08093300358CFDA
:1042A00081E0F4CF81E0F9CFB0E0A0E0EAE5F1E20F
:1042B0000C944931E82FF0E0E25AFD4FD490282FBA
:1042C00026952695269530E0F901E250FD4F0491A0
:1042D000877010E0082E02C0159507950A94E2F742
:1042E00001701127F901E251FD4FE490F12C082EE5
:1042F00002C0F594E7940A94E2F791E0E922FF24E2
:10430000F901E252FD4FC491D0E002C0D595C795A6
:104310008A95E2F7C170DD270115110519F081EECC
:104320000E941F04E114F10419F086EE0E941F049C
:104330008D2D0E94B304E114F10419F086EE0E9461
:1043400068040115110519F081EE0E946804CD2B57
:1043500019F08CE20E94B304CDB7DEB7E7E00C940D
:104360006531EF92FF920F931F93CF93DF93EC0190
:10437000162F0AE08881882309F454C0813009F09F
:104380004EC08981813099F47E0122E0E20EF11C59
:104390008A810E94B304E7012196812F815050F356
:1043A000EFE9FFE03197F1F700C00000F7CF82306E
:1043B00041F47E0182E0E80EF11C8A810E941F0414
:1043C000EACF833041F47E01E2E0EE0EF11C8A81F7
:1043D0000E946804E0CF843011F02196DDCF2A815D
:1043E000229690E080E0AE014F5F5F4F2053330B89
:1043F0002A30310548F0019778F2EFE9FFE0319774
:10440000F1F700C00000F7CF089FB001099F700DC1
:104410001124C901860F971F2981EA01E4CF0E9468
:104420005421BACFCDB7DEB7E6E00C9466310F93D6
:104430001F93CF93DF93C42FD22FFC018581882354
:10444000C9F0409333030E94272690933203809350
:10445000310380E28C0F883040F4C77081E001C0E6
:10446000880FCA95EAF70E94BC04DF91CF911F9193
:104470000F91089510913303141332C080913103CA
:10448000909132030E943F26883C910548F5C0E296
:10449000CD0F1D17B9F080E2810F883040F41770FE
:1044A00081E001C0880F1A95EAF70E94C304C83062
:1044B00048F481E09D2F977001C0880F9A95EAF724
:1044C0000E94BC04802F0E94B304C83070F6D770DD
:1044D00081E001C0880FDA95EAF70E94C304C5CFD6
:1044E00080E28C0F883008F6C77081E001C0880F29
:1044F000CA95EAF7F2CF0F93DB0188519C478730CA
:104500009105A0F5FC01E35FFD4C0C94313106E20E
:1045100021EE41EE6AE17CE7CD010E94172280E0A6
:104520000F91089507E225EE45EE6BE17CE7F4CFAD
:1045300006E221EE40EE68E17CE7EECF07E225EEF1
:1045400044EE69E17CE7E8CF06E221EE42EE6CE161
:104550007CE7E2CF07E225EE46EE6DE17CE7DCCFBB
:1045600008E221E045EE6EE17CE7D6CF15968C910E
:10457000882319F010923303D3CF81E0D1CF1F935A
:10458000CF93DF9387372CE7920759F0C1E0883744
:104590009C47E1F4FB01C581CC2371F10E94022309
:1045A00006C0FB01C581CC23B1F00E94FF220E940E
:1045B00080070E940523D82F0E940223C82F0E9443
:1045C000FF224D2F6C2F0E94B708C0E08C2FDF9187
:1045D000CF911F9108950E94FF220E948C070E9494
:1045E0000523182F0E940223D82F0E94FF22412F5B
:1045F0006D2F0E94B708EACF0E940223EECF809170
:1046000048010895809147010895809146010895D9
:1046100085E290E00E948B31843289F486E290E05A
:104620000E948B31813059F487E290E00E948B31F7
:1046300091E0873009F090E0892F8170089580E043
:10464000FCCFCF93C82F6FEF811164E285E290E039
:104650000E94A9316FEFC11161E086E290E00E94F3
:10466000A9316FEFC11167E087E290E00E94A931A4
:10467000CF910895089588E290E00E948B31682FD1
:1046800070E090E080E008950895CF93C62F0E94D7
:1046900044236C2F88E290E00E94A931CF910895C5
:1046A00080E00E94212360E070E0CB010E9445235E
:1046B0000E94291C0E94101D81E00E942123089560
:1046C0000E943A230E943B230E9444230E94082315
:1046D000811102C00E945023089508959C01FB019E
:1046E0008581882351F0A90157574038510530F48E
:1046F000822F0E94201D80E0089581E008952FEF11
:10470000FC01208308950E947F23089580E008958E
:10471000B0E0A0E0EEE8F3E20C944831EC01E62EC4
:104720000E948623811110C0E881E150E531B8F480
:10473000F0E0EC5EFD4C0C94313119828CE08A8300
:104740006E2DCE010E942B2ACDB7DEB7E8E00C9487
:10475000643189818230C1F028F4813061F08FEFBB
:104760008883EECF833099F08430C9F71A821B8298
:104770001C821D82E5CF0E9433260E9437316A8356
:104780007B838C839D83DCCF0E943B23F6CF8A8181
:10479000082F10E06E0193E0C90ED11C9CE1F92EA8
:1047A000F80E0A30110560F6802F0E940211F60102
:1047B00081936F010F5F1F4FF012F3CFC1CF89813B
:1047C000823031F0853059F68A810E946D23B8CF4E
:1047D0006A817B818C819D810E9437310E944523B3
:1047E000AFCF4B816A8189810E94811B98278927DD
:1047F00098279D838C83A4CF2C813D81322723274A
:1048000032274B816A8189810E94A31B99CF0E9424
:10481000291C96CF6E2DCE010E94832391CF0E943A
:10482000C11C89838DCF0E94C31C98278927982794
:104830009A83898385CF6B8170E089819A81AE01EB
:104840004C5F5F4F9827892798270E94C61C78CF16
:104850006B8170E089819A81AE014C5F5F4F982730
:10486000892798270E94EB1C6BCF0E94101D68CFF0
:104870000E946F1BD6CF6B8170E089819A81AE0157
:104880004C5F5F4F9827892798270E94631C58CF59
:104890006B8170E089819A81AE014C5F5F4F9827F0
:1048A000892798270E94871C4BCF41E08B8181117B
:1048B00001C040E06A8189810E94BF1B97CF2C8193
:1048C0003D8132272327322741E08B81811101C0AE
:1048D00040E06A8189810E94F81B32CF90933A03AD
:1048E0008093390308950E94F112811103C08091D1
:1048F00034030895E0913903F0913A03309729F099
:104900000190F081E02D0995089580E00895E091EF
:104910003903F0913A03309721F00280F381E02DC2
:1049200009950895E0913903F0913A03309739F0F1
:1049300022E0DC012C930680F781E02D0995089593
:10494000A3E0B0E0E6EAF4E20C944E3120913703A4
:104950003091380328173907A1F0909338038093DA
:104960003703E0913903F0913A03309751F023E097
:1049700029839B838A830084F185E02DCE010196F3
:1049800009952396E2E00C946A31A3E0B0E0EBECE9
:10499000F4E20C944E312091350330913603281700
:1049A0003907A1F09093360380933503E0913903E2
:1049B000F0913A03309751F024E029839B838A8356
:1049C0000084F185E02DCE01019609952396E2E061
:1049D0000C946A3140910001509101019A012E5FBF
:1049E0003F4F485F5F4F80E02417350709F4089573
:1049F000F90191919F019923B9F38F5FF5CF882336
:104A000071F02091000130910101F9013296285F87
:104A10003F4F9191981729F0E217F307D1F780E003
:104A2000089581E008959C01FC0132969FEF80E09B
:104A30004191461751F09F3F19F4411101C0982F41
:104A40008F5F8630A9F79F3F09F40895290F311D24
:104A500097FD3A95F90162830895FC013296089614
:104A60002191261303C0DF0111971C92E817F90763
:104A7000B9F70895682F80910001909101010E947B
:104A800013250895682F80910001909101010E94E3
:104A90002D250895E0910001F0910101329686E004
:104AA000DF011D928A95E9F70895DC01FB0111965B
:104AB0009C9111978181981322C012968C91129724
:104AC000882319F0928189131AC013968C91139739
:104AD000882319F09381891312C015968C9115972C
:104AE000882319F0958189130AC014969C91992303
:104AF00021F081E02481291303C080E001C081E01E
:104B00008170089508950E9482250895811106C03C
:104B100081E080933B030E948325089582E0F9CFD2
:104B200083E080933B030E94832508950E9486259D
:104B3000089581E080933B030E94832508950E949D
:104B400099250895089508950E94A325089508952C
:104B500008950E94A2250895CF930E94A7250E9440
:104B600067120E94A825C0E08C2F0E9402118111BB
:104B700005C0CF5FCA30C1F7CF91089581E0FCCF67
:104B800085B7806885BF85B7806885BF08951F9207
:104B90001FB61F9211248F939F93AF93BF93809161
:104BA0003C03811113C080916B0590916C05A0911D
:104BB0006D05B0916E054196A11DB11D80936B05E9
:104BC00090936C05A0936D05B0936E05BF91AF9166
:104BD0009F918F911F901FBE1F9018958091730514
:104BE000843031F10E947D0310923C0388E190E013
:104BF00020E40FB6F894A895809360000FBE209330
:104C0000600083B7817F846083BF83B7816083BF87
:104C10007894889583B78E7F83BF0FB6F894A89554
:104C200080916000886180936000109260000FBEE8
:104C300008950E9408070E948603089582E084BDBB
:104C400093E095BD9AEF97BD80936E0008952FB7BE
:104C5000F89480916B0590916C05A0916D05B091D1
:104C60006E052FBF08952FB7F89460916B05709172
:104C70006C0580916D0590916E052FBF08959C0184
:104C80004FB7F89480916B0590916C05A0916D05DC
:104C9000B0916E054FBF821B930B0895CF92DF92A8
:104CA000EF92FF922FB7F894C0906B05D0906C05EF
:104CB000E0906D05F0906E052FBFA7019601261BB1
:104CC000370B480B590BCA01B901FF90EF90DF90E9
:104CD000CF90089578941F921FB61F9211248F933E
:104CE0009F93AF93BF9380916B0590916C05A091BA
:104CF0006D05B0916E050196A11DB11D80936B05E8
:104D000090936C05A0936D05B0936E05BF91AF9124
:104D10009F918F911F901FBE1F90189587E797E76F
:104D2000909301088093000888E19AE00FB6F89408
:104D3000A895809360000FBE90936000FFCF88E13C
:104D40009AE00FB6F894A895809360000FBE9093F8
:104D50006000FFCF1092B9008CE08093B8000895F6
:104D6000B0E0A0E0E6EBF6E20C944531B82EEB01A2
:104D70000E9427266C01EE24E394F12CC431D10566
:104D800060F025E0E22EF12CCF3FDC0731F0CE01C0
:104D900064E170E00E9409317B0184EAA82E94E866
:104DA000992E1092BC00A092BC000E9427268C0174
:104DB0008091BC0087FF0DC08091B900887F88304A
:104DC000F9F08091B900887F8031D1F00FEF1FEFAB
:104DD00008C0C8010E943F26E816F90648F70EEF02
:104DE0001FEFCF3FDC07E9F2C6010E943F26C8173C
:104DF000D907B8F6C801CDB7DEB7EBE00C94613146
:104E0000B092BB009092BC000E9427268C0180913A
:104E1000BC0087FF0AC08091B900887F883111F0FB
:104E20008034A1F610E000E0E5CFC8010E943F26E3
:104E3000E816F90660F7D3CF0F931F93CF93DF9354
:104E4000EB018093BB0084E88093BC000E9427267E
:104E50008C018091BC0087FF11C02091B900287F90
:104E600081E090E0283211F490E080E09195819506
:104E70009109DF91CF911F910F910895CF3FDC07EA
:104E800041F3C8010E943F26C817D90710F78EEFDB
:104E90009FEFEFCF0F931F93CF93DF93EC0184EC41
:104EA0008093BC000E9427268C018091BC0087FF64
:104EB00008C08091BB0090E0DF91CF911F910F91CE
:104EC0000895CF3FDC0789F3C8010E943F26C81729
:104ED000D90758F78EEF9FEFEFCF0F931F93CF9324
:104EE000DF93EC0184E88093BC000E9427268C01AC
:104EF0008091BC0087FF08C08091BB0090E0DF91EB
:104F0000CF911F910F910895CF3FDC0789F3C8011E
:104F10000E943F26C817D90758F78EEF9FEFEFCFB3
:104F2000B0E0A0E0E6E9F7E20C9448316B018A01B9
:104F30007901B9010E94B026E6010C0D1D1DC017B4
:104F4000D10711F097FF08C024E92093BC00CDB72A
:104F5000DEB7E8E00C946431B70189910E941C2708
:104F6000EECFB0E0A0E0E7EBF7E20C944831C62FBB
:104F70006A017901B8010E94B02697FD0CC0B80102
:104F80008C2F0E941C27E601EC0CFD1CCE15DF05C2
:104F900011F097FF08C024E92093BC00CDB7DEB71D
:104FA000E8E00C946431B80189910E941C27EECF8F
:104FB000B0E0A0E0EEEDF7E20C944831F82EE62EDA
:104FC000EA016901B8010E94B02697FD15C0B80139
:104FD0008E2D0E941C2797FD0FC0B8018F2D816078
:104FE0000E94B026F12CE12C21E0C21AD108EC1469
:104FF000FD04E0F497FF0DC024E92093BC001816CF
:10500000190614F490E080E0CDB7DEB7E8E00C9428
:105010006431C8010E944A2797FD04C0FE01EE0DCD
:10502000FF1D80832FEFE21AF20AE1CF97FDE4CF54
:10503000C8010E946D2797FDDFCFCC0DDD1D888351
:10504000DBCF84E98093BC0008958EE14A9B02C0C7
:105050008150E1F74A9BFECF08955A9880E28A95E5
:10506000F1F75A9A0895FC013BE03A95F1F798E080
:1050700020E080E031E040E14A95F1F7880F4A9B5B
:1050800002C08160232742E04A95F1F7000040E129
:105090004A95F1F7915079F790E19A95F1F799B126
:1050A00032E03A95F1F7000040E14A95F1F792FBC2
:1050B000992790F992272081920F90830895A1E07B
:1050C000B0E0E5E6F8E20C944A3119828C017C01EB
:1050D000E60EF11C0E151F0541F481E09981911136
:1050E00080E02196E6E00C9466310E942528CE01EE
:1050F00001960E943328F80181938F01EBCF529AD9
:105100005A9A089552985A9AEA9AE9E6F0E080810C
:105110008F7C808308956150770B91E001C0990FD7
:105120006A95EAF720E031E0911108C0222391F05E
:105130005A9A80E28A95F1F75A980895492F4823A0
:1051400039F05A9A232740E24A95F1F79695ECCF29
:105150005A98F9CF5A98EDCFFF920F931F93CF93A0
:10516000DF93EC018C01060F111DC017D10729F444
:10517000CDB7DEB7E5E00C946731F9900E942D2899
:1051800068E08F2D0E948B28F0CF1F920F920FB6F0
:105190000F9211240F931F932F933F934F935F937D
:1051A0006F937F938F939F93AF93BF93EF93FF93EF
:1051B000CF93DF930F92CDB7DEB719820E942528D7
:1051C000CE0101960E943328082F06950695069574
:1051D000282F22952570902F9570290F922F93706C
:1051E00026952695920F982797708981982B09F01C
:1051F0005CC0063008F059C080E18A95F1F75A9AF0
:10520000529A82E08A95F1F700C05A9888E0089F88
:1052100080011124D801A35FBE4F1696ED91FC9139
:1052200017973097A9F06091D0017091D101149631
:105230002D913C911597260F371F11968D919C91BA
:105240001297680F791F13964C9113978C910995BB
:10525000F801E35FFE4F6381662351F02091D00196
:105260003091D10184819581820F931F0E94AC28D7
:105270000E942D2880E18A95F1F75A9852985A9AFF
:1052800080E18A95F1F7F801E35FFE4F60816623C4
:1052900051F02091D0013091D10181819281820F12
:1052A000931F0E945F280E9425280F90DF91CF91C5
:1052B000FF91EF91BF91AF919F918F917F916F91EE
:1052C0005F914F913F912F911F910F910F900FBEC2
:1052D0000F901F9018950F931F93CF93DF93EC01BE
:1052E00006970CF04CC0F894529A5A9885E08A952B
:1052F000F1F700009C2F969595708C2F8570980F74
:10530000892F83709695969523E0CC0FDD1F2A9503
:10531000E1F7980F8E01092B0E942D2800C068E04C
:10532000802F0E948B2880E18A95F1F752985A9A33
:105330004A9B1EC087E090E04A991CC0FE01E35FD3
:10534000FE4F63816623F9F02091D0013091D101A5
:1053500084819581820F931F0E945F28811113C061
:10536000529A5A9A7894DF91CF911F910F91089594
:1053700000C0DECF019729F4529A5A9A789480E0BF
:10538000F2CF00C0D9CF0E94252880E28A95F1F79C
:105390005A98529A80E18A95F1F7C35FDE4F68818F
:1053A000662351F02091D0013091D10189819A81F9
:1053B000820F931F0E94AC280E942D28789481E0D0
:1053C000D2CF80914503089508959B01BA01909131
:1053D00073059430E9F48F708093E9009FEF80911A
:1053E000E800915085FD06C085ED8A95F1F7000033
:1053F0009111F5CF8091E80085FF0AC050E040E0B0
:10540000C9010E94212C8091E8008E778093E800EA
:10541000089543E050E0BC0184E00E94E52908952E
:1054200046E050E0BC0184E00E94E5290895CF9356
:10543000DF93EC0148E050E0BC0181E00E94E529E7
:1054400088E0FE01ADE3B3E001900D928A95E1F7AB
:10545000DF91CF910895603231F440E250E0BC0119
:1054600082E00E94E529089580917205811109C0AA
:105470000E94002E0E945D2E8091E2008460809345
:10548000E20008951092720508950E9499250895EA
:1054900060916F0581E0611101C080E00E9490255C
:1054A00008959091730581E0943009F080E0609157
:1054B0006F050E949625089542E061EC81E00E940C
:1054C0007C2D42E261EC84E00E947C2D42E261ECA2
:1054D00082E00E947C2D42E260EC83E00E947C2D01
:1054E0009091730581E0943009F080E060916F0540
:1054F0000E948625089580917505833009F463C064
:1055000030F48130E1F1823009F4A0C008958A308E
:1055100009F48CC08B3009F471C0893009F052C095
:1055200080917405813209F04DC080917805909189
:105530007905009719F0029709F044C08091E800BE
:10554000877F8093E8008091E80082FF37C09091C8
:10555000F3008091F200029731F48091F1008130E4
:1055600011F0863021F48091F10080934503809101
:10557000E8008B778093E8000E94B02D23C08091D3
:105580007405813AF9F48091E800877F8093E80000
:105590008091780590917905892B61F468E08DE31D
:1055A00093E070E00E94BF2C8091E8008B7780939D
:1055B000E800089560E090E080E0F3CF809173050B
:1055C0008111C1CF089580917405813AD9F78091F6
:1055D000780590917905892BA9F78091E800877F5C
:1055E0008093E8008091E80080FFFCCF8091530118
:1055F0008093F1008091E8008E77BCCF8091740594
:10560000813201F78091780590917905892BD1F647
:105610008091E800877F8093E8000E94B02D809100
:105620007605809353010E940807089580917405C0
:10563000813241F68091E800877F8093E8000E94E4
:10564000B02D80917705809346030895809174056D
:10565000813A09F0B7CF8091E800877F8093E80016
:105660008091E80080FFFCCF80914603C1CF84B7D2
:10567000877F84BF0FB6F894A895809160008861F9
:1056800080936000109260000FBE80E890E00FB63B
:10569000F89480936100909361000FBE0E949F2553
:1056A00008950E94002E0E945D2EE2EEF0E08081BF
:1056B0008460808378940E94DC30089589E491E0CE
:1056C0000E946E24089580917305853031F4809195
:1056D0007305853019F00E94192608950E94EE2561
:1056E00080917105882399F30E94AC25882379F372
:1056F0000E940B2C0E940807EACFA0E2B0E0E3E88A
:10570000FBE20C944E3180917305843009F583E0FF
:105710008093E9008091E80082FF1AC08091E80040
:1057200090E085FF09C050E040E060E270E0CE010B
:1057300001960E94702C91E08091E8008B77809315
:10574000E800992329F060E2CE0101960E948823A7
:10575000A096E2E00C946A319A0140917A0550914A
:105760007B050E94B42B0895492F552743305105DE
:1057700021F168F44130510509F443C0423051052C
:1057800009F444C090E080E050E040E026C041329F
:10579000510551F142325105A9F76330710590F777
:1057A000FB01EE0FFF1FE350FE4F40815181665019
:1057B0007E4FFB01808190E010C0992781309105D8
:1057C00081F0009729F00297E9F6EEE0F3E002C0DD
:1057D000ECE2F3E0849190E0AF01F9015183408362
:1057E0000895E0E2F3E0F6CF6330710558F6660FF6
:1057F000771FFB01ED5FFD4F4081518189E090E013
:10580000ECCF82E190E04BE853E0E7CF8BE590E00E
:1058100040E353E0E2CF80E189BD82E189BD09B474
:1058200000FEFDCF8091D8008F7D8093D8008091BD
:10583000E00082608093E0008091E00081FDFCCF79
:105840000895AF92BF92CF92DF92FF920F931F9372
:10585000CF93DF936C01EB018A010E94CF2DF82ECC
:10586000811123C00115110539F0F8018081918162
:10587000C81BD90BC80ED91EB12CA12C2097A9F09A
:105880008091E80085FD22C08091E8008E778093AA
:10589000E80001151105A1F0F80180819181A80EA1
:1058A000B91EB182A08285E0F82E8F2DDF91CF91B5
:1058B0001F910F91FF90DF90CF90BF90AF90089510
:1058C0000E94CF2D8823D1F2F82EEFCFF6018191DF
:1058D0006F018093F1002197FFEFAF1ABF0ACECF7F
:1058E000AF92BF92CF92DF92FF920F931F93CF930D
:1058F000DF936C01EB018A010E94CF2DF82E8111FC
:1059000023C00115110539F0F80180819181C81B70
:10591000D90BC80ED91EB12CA12C2097A9F08091CB
:10592000E80085FD22C08091E8008B778093E80035
:1059300001151105A1F0F80180819181A80EB91E11
:10594000B182A08285E0F82E8F2DDF91CF911F913B
:105950000F91FF90DF90CF90BF90AF9008950E947D
:10596000CF2D8823D1F2F82EEFCF8091F100F601F0
:1059700081936F012197FFEFAF1ABF0ACECFFC01D1
:1059800080917A0590917B0586179707A0F06115A5
:10599000710529F49091E8009E779093E80090E0DB
:1059A0006115710551F4911108C08091E80082FFE2
:1059B00034C080E00895BC01F2CF80917305882344
:1059C000C1F18530C1F18091E80083FD30C0809144
:1059D000E80082FDEACF8091E80080FFE1CF80916E
:1059E000F3002091F200382F6115710519F028306D
:1059F000310558F091E02830310509F090E0209110
:105A0000E8002E772093E800CBCF81918093F100BE
:105A1000615071092F5F3F4FE7CF80917305882355
:105A200041F0853041F08091E80083FFBECF81E0F6
:105A3000089582E0089583E00895FC0180917A053D
:105A400090917B0586179707A0F06115710529F4E1
:105A50008091E8008E778093E80090E061157105F1
:105A600051F4911108C08091E80082FF35C080E0B8
:105A70000895BC01F2CF809173058823C9F1853068
:105A8000C9F18091E80083FD31C08091E80082FD7A
:105A9000EACF8091E80080FFE1CF8091F300209170
:105AA000F200382F6115710519F02830310558F0D2
:105AB00091E02830310509F090E08091E8008E7780
:105AC0008093E800CBCF84918093F10031966150B0
:105AD00071092F5F3F4FE6CF80917305882341F016
