:100000000C942D020C944A020C944A020C94A127E1
:100010000C944A020C944A020C944A020C944A0230
:100020000C944A020C944A020C94582D0C942C2ED9
:100030000C94A3240C944A020C944A020C944A0295
:100040000C944A020C944A020C944A020C944A0200
:100050000C944A020C9446250C944A020C944A02D1
:100060000C944A020C944A020C944A020C944A02E0
:100070000C944A020C944A020C944A020C944A02D0
:100080000C944A020C944A020C944A020C944A02C0
:100090000C944A020C944A020C944A020C944A02B0
:1000A0000C944A020C944A020C944A02000000008C
:1000B0000000000000000000000000000000000040
:1000C0000000000000000000000000000000000030
:1000D00000000041000000000000000000002100BE
:1000E00020001F001E0000000000000000000000B3
:1000F0000000000000000000000000000000000000
:1001000000000000000000000000000000000042AD
:100110000000000000000000000025002400230073
:1001200022000000000000000000000000000000AD
:1001300000000000000000000000000000000000BF
:10014000000000000000000000000041000000006E
:10015000000000000000210020001F001E00000021
:10016000000000000000000000000000000000008F
:10017000000000000000000000000000000000007F
:10018000000000000000004200000000000000002D
:1001900000002500240023002200000000000000D1
:1001A000000000000000000000000000000000004F
:1001B000000000000000000000000000000000003F
:1001C00000000041000000000000000000002100CD
:1001D00020001F001E0000000000000000000000C2
:1001E000000000000000000000000000000000000F
:1001F00000000000000000000000000000000042BD
:100200000000000000000000000025002400230082
:100210002200000000AE00AF00DA0281FFD9F1DB5E
:1002200020A4A62EAF00A0C0D30000A1C8D3000018
:10023000AED580A81F408D142000000000000000F3
:1002400000002A2B28000000000000000000000031
:10025000000000000029000000002C1E3420212294
:1002600024342627252E362D3738271E1F202122FD
:10027000232425263333362E37381F040506070876
:10028000090A0B0C0D0E0F10111213141516171866
:10029000191A1B1C1D2F3130232D350405060708A4
:1002A000090A0B0C0D0E0F10111213141516171846
:1002B000191A1B1C1D2F3130354C000000000000A6
:1002C000000000000000000000000000000000002E
:1002D00000000000000000000000000000007E0F91
:1002E00000D4FFFFFFC700000078100363006F0019
:1002F0006F006C0036003400340000000A036D000B
:100300002E006B00690000000403090409025B0071
:10031000030100A0FA090400000103010100092102
:1003200011010001224400070581030800010904AE
:100330000100020300000009211101000122220036
:1003400007058203200001070503032000010904BB
:1003500002000103000000092111010001227B00BD
:100360000705840320000112010002000000084379
:100370004D44060001010200010660FF0961A10170
:100380000962150026FF0095207508810209631592
:100390000026FF00952075089102C005010902A101
:1003A0000185020901A10005091901290815002587
:1003B0000195087501810205010930093115812572
:1003C0007F95027508810609381581257F9501758D
:1003D000088106050C0A38021581257F95017508EC
:1003E0008106C0C005010980A101850319012AB752
:1003F00000150126B700950175108100C0050C0994
:1004000001A101850419012AA002150126A0029567
:100410000175108100C005010906A101050719E059
:1004200029E71500250195087501810295017508D8
:1004300081010507190029FF150026FF00950675A3
:100440000881000508190129051500250195057584
:10045000019102950175039101C011241FBECFEFD8
:10046000DAE0DEBFCDBF12E0A0E0B1E0EAE1F2E603
:1004700002C005900D92A830B107D9F725E0A8E099
:10048000B2E001C01D92A437B207E1F70E94E31465
:100490000C94B9300C9400008330B8F46C30A8F49C
:1004A000453098F450E095E0699F400D511D1124AE
:1004B000FA019CE3899FE00DF11D1124EE0FFF1F4F
:1004C000E455FF4F85919491089581E090E008955F
:1004D00081E008950E946802089581E008950E94D5
:1004E000680208950E946F02089508950E9475029F
:1004F0000895A6E0B0E0EFE7F2E00C9429304983DC
:100500005A839E8330910F0289819A8131111AC0DA
:100510003E81332399F0222389F00E940208182F8C
:10052000682F89819A810E94DE0769817A81812FF3
:100530000E94340F2696E3E00C9445300E94F007A9
:10054000182FF3CF0E94020869817A81F1CFFC0154
:10055000262F4081518162817381848195810E941F
:1005600079020895CF93DF93EC0161E00E94A70226
:10057000BE010E946A02DF91CF910895CF93DF936D
:10058000EC0160E00E94A702BE010E947602DF91AA
:10059000CF91089581E008950E94CA020895CF93F3
:1005A000C82F0E94DA068C2F0E94CC022FEF84E322
:1005B0009CE0215080409040E1F700C00000CF91C6
:1005C000089581E00E94CF020E946A25089580E08C
:1005D0000E94CF020E947B2508950F931F93CF9313
:1005E000DF938C0161E00E94A702EC01B8010E9438
:1005F0006322811106C080E0DF91CF911F910F919E
:100600000895B801CE010E9472028823A1F3B801B7
:10061000CE010E947021882371F3B801CE010E949F
:10062000BC1C882341F3B801CE010E94921C882390
:1006300011F3B801CE010E94B4218823E1F2F80140
:100640008581882361F0C330FCE7DF07E9F058F4C7
:10065000C115ECE7DE07A9F0C130DC47B9F0C801ED
:100660000E946D02C9CFCB358CE7D807A9F0CC35F5
:10067000ECE7DE0771F0CA35DC4789F70E943B0CD6
:10068000EECF0E94E102B7CF0E94430C0E94E70226
:10069000B2CF0E94310CE3CF0E943F0CE0CF0E940A
:1006A00080240E947A030E94ED180E946615089526
:1006B0000E947E030E9485240895089581E0089594
:1006C0000895CF93DF93D82F0E945E03C82F88230D
:1006D00019F08D2F0E9460038C2FDF91CF91089528
:1006E0000895CF93C82F0E945D038C2F0E94610351
:1006F000CF91089580E00E94710308950E944F23D6
:100700000E9471030895CF930E944F23C82F8091B8
:100710000A028C1779F0C0930A020E940F25609399
:100720000B0270930C0280930D0290930E028C2F9B
:100730000E947103CF910895ADE0B0E0E2EAF3E0EA
:100740000C942A30488759876A877B878C879D87D6
:1007500091110E94710B1F8286E0FE013896DE0126
:10076000119601900D928A95E1F78D8181110DC04E
:1007700029813A814B815C816D817E818F810E94CC
:10078000BB0A2D96E2E00C944630CE0101960E9401
:10079000B2028111EDCFF5CFFC012481213021F48B
:1007A000808191810E942F080895CF93DF93C82FF5
:1007B000D62F662381F00E941D1E8C2F90E09C0195
:1007C000215D31092830310548F46D2F0E94DE1576
:1007D000DF91CF9108950E94891EEFCF0E94021FE2
:1007E000F7CFCF93C82F882399F08CEF8C0F813AE5
:1007F00088F48C2F0E94DB23882329F08C2F0E9401
:100800001E240E94E00B8C2F0E9416240E94E00BF5
:10081000CF91089580E28C0F883048F4C77081E052
:1008200001C0880FCA95EAF70E94540BEFCFEBE5A1
:10083000EC0FE33040F4F0E0E656FE4F808190E0AC
:100840000E947C23E5CFE8E5EC0FEB3150F4F0E0BB
:10085000EE0FFF1FEC59FE4F808191810E94A12372
:10086000D7CF83E38C0F833198F661E08C2F0E9401
:10087000D503CECF882381F19CEF980F913A28F4CD
:100880000E941E240E94E00B089590E2980F983079
:1008900050F4877091E001C0990F8A95EAF7892F8B
:1008A0000E945A0BEFCF9BE5980F933028F490E00D
:1008B00080E00E947C23089598E5980F9B3128F4EE
:1008C00090E080E00E94A123089593E3980F933174
:1008D00018F460E00E94D50308951F93CF93DF932F
:1008E000182FEB010E94F103209739F4812F0E9409
:1008F0003A04DF91CF911F9108958FE99FE001970E
:10090000F1F700C000002197EFCF70E060E089337D
:1009100011F460E570E00E946D040895882321F0D1
:100920000E94540B0E94E00B0895882321F00E943E
:100930005A0B0E94E00B0895B0E0A0E0E2EAF4E078
:100940000C9423306C01D62FC72FFC011581068132
:1009500002950F700E944A0BE82E8823F9F0E12ED1
:100960001123E1F08C2F807F803461F080E28D0FC5
:10097000883008F18C2F807E803221F4D230D8F07C
:100980000023C9F08091400382FF15C082E00E94DD
:10099000050C0E944A0B91E0E82EE926BC2EB29489
:1009A0009FE0B922FBE0FB15B8F1EB2DF0E0E55438
:1009B000FF4C0C940D30E12CF1CF0C2F0F70C07F49
:1009C00011F00295007F112399F0002359F080E285
:1009D0008D0F883010F0D11107C0802F0E94540B6A
:1009E0000E94E00B8D2F5AC0802F0E94640BF8CF1D
:1009F0008D2F0E943A04002379F080E28D0F883019
:100A000010F0D11104C0802F0E945A0B03C0802F18
:100A10000E946A0B0E94E00BEB2DE850FF0B34970D
:100A200020F40E944F230E947103EE2089F00E945F
:100A3000460B80FD0DC0F60115820E94400B0E94FE
:100A40005207C6010E94A1060E94400B0E945E0749
:100A5000CDB7DEB7E9E00C943F302C2F2F70F22E8B
:100A6000C07FC03219F0F29480EFF822DD2341F00C
:100A7000D130D1F1112309F444C00023F1F0B2CFF9
:100A80008091400382FD15C0112359F0FF2029F009
:100A90008F2D0E94540B0E94E00B80E00E94F10316
:100AA000BBCF80E00E943A04FF2009F4B5CF8F2D20
:100AB000ABCF112369F0011104C08F2D0E948E0469
:100AC000ABCF013009F0A8CF8F2D0E94880BA4CFA7
:100AD0000111A2CF8F2D0E9495048F2D0E94940B9F
:100AE0008F2D0E94780B98CF112321F0063008F04B
:100AF00093CFE3CF053008F08FCF8F2D0E94950460
:100B00008BCF0023D1F3D93349F43FEF87EE93E045
:100B1000315080409040E1F700C000008D2F0E94CE
:100B20003A047ACF8C2F86958695837069F0813050
:100B300009F072CF8D2F9C2F9370111102C080E0AD
:100B400090E00E94A12368CF8D2F9C2F93701111EC
:100B500002C080E090E00E947C235ECF612F8D2F49
:100B60000E94D50359CF8C2F837079F5111154CF82
:100B70004D2F429546954770440F440F8D2F8F702F
:100B8000042E01C0880F0A94EAF72D2F2071D4FF9C
:100B900007C02FE030E001C0220F4A95EAF7209508
:100BA000C695C695C370822BC23049F058F4C13047
:100BB00019F00E942E0730CF0E9428072DCF0E94E7
:100BC00034072ACF0E94250727CF8695112311F0DD
:100BD0008C2F8170882309F41FCF4D2F42954695A5
:100BE0004770440F440F8D2F8F70042E01C0880F63
:100BF0000A94EAF72D2F2071D4FF07C02FE030E0D0
:100C000001C0220F4A95EAF72095C695C695C37094
:100C1000822BC23049F058F4C13019F00E947D0790
:100C2000FBCE0E947707F8CE0E948307F5CE0E9484
:100C30004007F2CECF70112329F08C2F0E9452076B
:100C40008D2F3CCF8D2F0E9495048C2F0E945E0724
:100C5000E3CED23F41F160F4D03FB9F0D13F81F013
:100C6000112309F446C00111BDCE8C2F8F711FC016
:100C7000D33F01F1D43FA1F78091400382FD24C00E
:100C80008C2F8F71112311F312C0112341F0053005
:100C900008F0C2CE8C2F8F710E946B07BDCE06303C
:100CA00008F0BACEF7CF8C2F8F711111CFCF0E94E1
:100CB0005207B2CE112329F08C2F8F710E94490761
:100CC000ABCE0E944507A8CE112349F0CF718C2FDF
:100CD0000E94520763E08C2F0E94E70B9DCE81E0BB
:100CE0000E94050C023008F497CE82E00E94050CA9
:100CF00093CE002359F0D93309F010CFEFEFF7EE80
:100D000023E0E150F0402040E1F706CF8C2F8F71B7
:100D10009DCF0F931F93CF93DF93EC01688179816F
:100D20008D810E943A088C010E9489070E94240745
:100D3000B801CE010E949C04DF91CF911F910F91C9
:100D40000895CF93DF93EC018C81882399F0CE0135
:100D50000E94ED02811111C00E944A0B882351F0BC
:100D60008D81882339F08091400382FF03C082E0A7
:100D70000E94050CDF91CF910895CE010E94890653
:100D8000CE010E94BE02F6CF90E080E00E947C235C
:100D900090E080E00E94A1230E94710B0E94E00B72
:100DA0000E941E1F0E94021F08950E9426240E9476
:100DB000C40608950E94610B0E94D506089592957D
:100DC0009F70963091F058F4925F9F70923058F473
:100DD000803F19F030F4883E30F481E008959A5F46
:100DE000F4CF843FD1F380E00895883EB0F3813F93
:100DF000D1F7F3CFFC012481222339F08081918146
:100E00000E942F080E94DF06089580E00895A6E062
:100E1000B0E0EDE0F7E00C942A302696E2E00C9486
:100E20004630A7E0B0E0E7E1F7E00C942A302796DF
:100E3000E2E00C94463008950E941B0708950E943A
:100E40001C0780932902089508950E941F070895A2
:100E500090912902892B0E941F07089590912902E1
:100E600089230E941F0708959091290289270E94D3
:100E70001F0708950E941B0708950E943A070895CE
:100E80000E943D0780932802089580E00E94400759
:100E9000089591E001C0990F8A95EAF7892F0E9481
:100EA0004007089521E030E001C0220F8A95EAF75B
:100EB00080912802822B0E944007089521E030E0B3
:100EC00001C0220F8A95EAF720958091280282239B
:100ED0000E944007089521E030E001C0220F8A956A
:100EE000EAF78091280282270E9440070895909196
:100EF0002802892B0E944007089590912802892397
:100F00000E94400708959091280289270E94400777
:100F100008950895262F277091E001C0990F2A9512
:100F2000EAF723E0769567952A95E1F7FB01EE0F46
:100F3000FF1FE60FF71FE40FF51F50E040E0682F9A
:100F400070E08191DF0111979B01042E02C036955C
:100F500027950A94E2F7217021952827292328272D
:100F60002C934F5F5F4F4330510559F70895A82FD9
:100F7000A77023E0969587952A95E1F7FC01EE0F7F
:100F8000FF1FE80FF91FE60FF71F50E040E080E079
:100F9000219130E00A2E02C0369527950A94E2F797
:100FA00021703327042E01C0220F0A94EAF7822B06
:100FB0004F5F5F4F4330510559F70895262F9C30FE
:100FC00070F4853060F4682F70E085E0989F600DC4
:100FD000711D112440E152E0822F0E948A0708957A
:100FE000292F9C3068F4853058F490E060E172E07D
:100FF00035E0239F800D911D11240E94B7070895AD
:1010000080E00895CF92DF92FF920F931F93CF93CA
:10101000DF936C010091280280912902082BC3E024
:10102000D0E010E0FC2EC8010C2E02C095958795EB
:101030000A94E2F780FD0CC02197A0F7F12C8F2DC8
:10104000DF91CF911F910F91FF90DF90CF90089586
:10105000B6018C2F0E94400F019771F3F0CFCF9310
:10106000DF93EC010E940208BE010E94400FDF9155
:10107000CF9108951F93CF93DF93EB0190910F02CF
:10108000992339F0CB010E942F08DF91CF911F9156
:101090000895882369F0CB010E940208182F682F59
:1010A000CE010E94DE07BE01812F0E94400FEDCFCE
:1010B000CB010E94F007182FF6CFE1E0F0E0DF014E
:1010C00002C0AA0FBB1F6A95E2F7BD01DF0102C093
:1010D000AA0FBB1F4A95E2F76A2B01C0EE0F2A95B3
:1010E000EAF7962F9823961302C08E2B0895E09569
:1010F0008E230895242F462F682F809128020E9466
:101100005D080E94400708951F93CF93DF93C0911D
:101110002A0217E080912B028C1304C0DF91CF913B
:101120001F910895D0E01C9FF0011D9FF00D112428
:10113000E45DFD4F2081318142815381648175815D
:1011400086810E9411072196C770E4CF2091640226
:101150003091650240916602509167026091680289
:101160007091690280916A020E9411070895CF93DD
:10117000DF9380916A02807F09F04DC080916902FF
:10118000882309F448C0E0912A0250912B02C091B3
:101190006502D0916402609166027091670247E037
:1011A0005E17C9F18E2F90E0E49FF0011124E45DF9
:1011B000FD4F2481222391F1489FF001499FF00DBA
:1011C0001124DF01A45DBD4F11962C9111972C13B2
:1011D00025C02C912D1322C015962C911597211105
:1011E0001DC012962D913C91261B370B283C3105D2
:1011F000A8F480916A028F70806180936A02EE5C2D
:10120000FD4F80818F708061808384E692E00E9430
:10121000A1060E948408DF91CF910895FC013196C8
:10122000E770BECF482F20912A0290912B0257E001
:10123000291302C080E0089530E0529FF001539FCF
:10124000F00D1124E45DFD4F8181681306C080819B
:10125000481303C085818111EECF2F5F3F4F277068
:10126000E7CFA4E1B0E0E7E3F9E00C9420308C0193
:1012700086E0F801DE011F9601900D928A95E1F754
:10128000F8018481E58094E6A92E92E0B92E909130
:10129000680291111FC08823D1F0EE20A9F0C80187
:1012A0000E94FA06F82E882379F087E0F801D5012C
:1012B00001900D928A95E1F7C5010E94CC030E942E
:1012C000B7080E94A6085FC0C8010E94A106FF24BB
:1012D000F39459C0C080D18082809380F0906902DD
:1012E0002091660230916702A401421B530BFF203C
:1012F00009F4F9C0483C510508F0A7C0882309F457
:1013000042C09091650280916A02282F207F09F0E7
:101310005CC09D1116C090916402C91212C0E11008
:101320004EC08F70806180936A020E94A60884E696
:1013300092E00E94A10680916A02F8018683F12C56
:1013400022C0E1103CC06D2D8C2D0E9412096D2D24
:101350008C2D0E941209E82E8111F1CFCF86D88AF8
:101360008F8598890E942F08292F22952F7024306D
:1013700078F49F702230A8F09923B9F0F801968193
:10138000907F99F4FE2C8F2D6496ECE00C943C3009
:101390002A5F2F70223068F0C8010E94A106EF2C4E
:1013A000F1CF992311F0882369F3805E883050F3E0
:1013B000F3CF803F38F3815F833070F7E3CF8091C4
:1013C0006A02816080936A02BACF9D1113C0909126
:1013D0006402C9120FC0E1100DC08683C8010E94CB
:1013E000A10687E0F801A4E6B2E001900D928A958B
:1013F000E1F767CFC8010E94FA06882309F464CF99
:10140000EE2009F461CF80916A02803288F0209149
:10141000640230916502398728879B868A8690917D
:1014200068029C871D868E87CE0108960E94A106C1
:1014300087E0F801A4E6B2E001900D928A95E1F709
:101440000E94B7080E94A60842CF90916A02292FF5
:10145000207FA1F4682D9A8A898AA6017A899E2D17
:101460000E94070784E692E00E94A10687E0F5014A
:1014700011928A95E9F70E94A60861CF882309F4A2
:1014800082CF809165028D1110C080916402C812D4
:101490000CC0E1100AC09683C8010E94A10687E033
:1014A000F50111928A95E9F76ECFC8010E94FA06FC
:1014B000882309F409CFEE2009F406CF80916A024F
:1014C000803208F4B5CF20916402309165023A83EE
:1014D00029839C828B82909168029D831E828F83D8
:1014E000CE010196A3CF483C5105B8F5882309F4F5
:1014F000EECEFE2CEE2009F4E7CE809165028D1130
:101500001EC080916402C8121AC080916A0280FDD8
:101510000DC0982F907F51F08683903F09F45ECFE5
:10152000982F907F905F8F70892B57CF87E0F801BD
:10153000A4E6B2E001900D928A95E1F724CFC801AC
:101540000E94FA06811174CF80916A0281608093B3
:101550006A02C8010E94A10616CF682D9A8A898A5C
:10156000A6017A899E2D0E94070787E0F501119256
:101570008A95E9F7A6CEAEE0B0E0E1ECFAE00C9493
:101580002930288739874A875B876C877D878E87D4
:10159000CE0108960E9431098823B1F06C8566233C
:1015A00041F0288539854A855B857D858E850E9439
:1015B000110717E080912A0290912B0289133DC0F8
:1015C0002E96E3E00C94453087E0FE013896DE016C
:1015D000119601900D928A95E1F78C85882349F345
:1015E00020912B0230E0C901019687709927409124
:1015F0002A024817190699F097E0929FD001939F0D
:10160000B00D1124A45DBD4FFE01319601900D92E5
:101610009A95E1F780932B020E948408CACF0E941A
:10162000DA0610922B0210922A0287E0E4E6F2E03A
:10163000DF011D928A95E9F7BCCF819FC00111247B
:10164000845D9D4F0E943109882309F4B9CFE09150
:101650002A021E9FF0011124E45DFD4F208131819B
:10166000428153816481758186810E941107809136
:101670002A0290E001968770992780932A029ACFD8
:101680008091730286958695869508958091730260
:101690008770089590917302977081E009F480E05B
:1016A000089580917F02089590917F02892B809305
:1016B0007F020895809590917F02982390937F02F6
:1016C000089510927F02089590917E02892B809355
:1016D0007E020895809590917E02982390937E02D9
:1016E000089510927E02089508950E94740B089543
:1016F00090917402292F282331F0809589238093BB
:1017000074020E94750B089508950E94840B089539
:1017100090917502292F2823281729F0982B909350
:1017200075020E94850B089590917502292F282338
:1017300031F080958923809375020E94850B08956E
:1017400080917502882329F01092750280E00E9432
:10175000850B08950F931F93CF93DF9300910001A2
:1017600010910101C0917F0280917E02C82B80916F
:101770007502882331F0C82B0E94C62381110E9474
:10178000A00BF801C083C0910001D091010148E095
:1017900050E06BE672E0CE010E945130892B59F087
:1017A00088E0FE01ABE6B2E001900D928A95E1F788
:1017B000CE010E946323DF91CF911F910F91089575
:1017C0000E94AA0B089508950E94E30B089590913A
:1017D000400392FF11C098E0899F90011124622B71
:1017E000609373020E9452078091730286958695DA
:1017F00086950E94E40B08950E9452070895109266
:10180000730280E00E94E40B08959091730280952A
:10181000892380937302282F277069F4891759F060
:101820009091400392FF07C08695869586950E9409
:101830005E070E94FF0B08959091400392FB2227C0
:1018400020F9281769F080FB92F99093400380916A
:101850003F03909140030E94650C82E00E94050CBA
:1018600008958091400382FB882780F991E08927C1
:101870000E941C0C089581E00E941C0C089580E0D9
:101880000E941C0C08956FEF7FEF90E080E00E94B3
:10189000A330089590E080E00E946F30863E9E4F16
:1018A00019F40E94FD21089580E0089582E090E0FF
:1018B0000E946730089583E090E00E9467300895A9
:1018C00084E090E00E946F300895BC0184E090E0D5
:1018D0000E94A3300895AB01BC018FE090E00E940C
:1018E00097300895AB01BC0183E190E00E949730EE
:1018F000089560E070E0CB010E94720C089560E0F2
:1019000070E0CB010E946B0C0E94790C0895A8E056
:10191000B0E0EDE8FCE00C942A3066EE7EEF90E05B
:1019200080E00E94A33060E082E090E00E94853079
:1019300081E08093290261E083E090E00E9485309D
:1019400060E074E184E090E00E94A33060E086E013
:1019500090E00E9485306FEF87E090E00E94853034
:1019600040E050E0BA0188E090E00E94973060E0EB
:1019700084E290E00E94853060E087E190E00E9480
:10198000853060E08CE090E00E94853060E08DE082
:1019900090E00E94853019821A821B821C821D826F
:1019A0001E821F82188648E050E068E170E0CE0198
:1019B00001960E94753040E050E0BA0180E290E06C
:1019C0000E94973080E00E9416220E9445220E94C9
:1019D0007F0C2896E2E00C9446300E94870C089514
:1019E000682F8EE090E00E9485300895A6E0B0E078
:1019F000ECEFFCE00C9428300E9403258C018091D0
:101A00008002909181028017910781F019821A82D9
:101A10000E940325682F49815A81792F80E090E048
:101A20000E949C0310938102009380022696E4E0BA
:101A30000C9444300E945C1060939A0270939B0255
:101A400080939C0290939D026093960270939702FC
:101A5000809398029093990208950E945C1060937D
:101A60009A0270939B0280939C0290939D026093D4
:101A7000920270939302809394029093950208953A
:101A80000E945C1060939A0270939B0280939C0268
:101A900090939D0260938E0270938F0280939002C8
:101AA000909391020895089508950E94530D08950A
:101AB00008950E94580D089581E0089586E790E109
:101AC0000E94F0140E94540D0E94550D08950E942A
:101AD000A3120895089508950E946A0D0E946B0D47
:101AE00008950E9495100E94700308950E94FA24A0
:101AF0000E9436100E9455220E94AB120E94661965
:101B00000E94BF110E94710D0E94DA1A80E00E94AB
:101B100070170E94BD120E9433150E94590D08953E
:101B2000A6E0B0E0E6E9FDE00C9420300E945C0DF8
:101B3000082F811119C00E94F60C00E00E94A31228
:101B40000E94FB19182F882319F00E942D0D012FD8
:101B50000E946615882309F45DC00E94400D0E9412
:101B60000D190E94D3175AC00E94191282E8A82E9C
:101B700082E0B82E650110E0F601F1906F01812F2F
:101B80000E94B8101F5F1C3009F441C0F816A1F381
:101B900080919E0281FD0E94BE100E94670D982ECA
:101BA00010E088248394812F0E94B810F82EF5014C
:101BB00081915F01F81629F1CF2CC826E12CDD2494
:101BC000D3948C2D8D21A9F0992099F0E9821A8364
:101BD0000E9403259C838B838D8291E08F2D8D2124
:101BE00009F490E049815A816B817C818D810E944A
:101BF0009C03E394DD0CF5E0EF12E3CFF5013197A0
:101C0000F0821F5F1C3079F60E941A0D97CFF812F0
:101C1000BFCF91CF0E940D190111A3CF0E945B1F6E
:101C20000E9483032696ECE00C943C301F93CF93E4
:101C3000DF930E94450FEC01C11580E5D807F0F550
:101C4000C11580E4D80708F09CC0C03ED10520F53E
:101C5000CD3CD10508F082C0C83AD10578F4C53A28
:101C6000D10508F073C0C130D10519F1209709F1F1
:101C7000C430D105F0F4D0E0C0E01BC0C33CD105B6
:101C8000D0F7C85AD0E0CC0FDD1FC356DE4F099005
:101C9000D881C02DD4640DC0C11580E2D80708F0EA
:101CA000D1C0C11581E0D80708F05AC0C83ED1059F
:101CB00010F7CE01DF91CF911F910895C03682E5D4
:101CC000D80718F5C03482E5D80708F06BC0C032D9
:101CD00082E5D80708F05FC0C11582E5D80708F48F
:101CE00097C02C2F2695269580E2289F90011124DD
:101CF0008C2F8370C1E0D0E002C0CC0FDD1F8A952D
:101D0000E2F7C22BD32BDD68D4CFC03A82E5D807E7
:101D100060F4C03882E5D80708F459C0CF71D0E02C
:101D2000DC2FCC27C46FD06AC4CFC03C82E5D80773
:101D300008F462C0C03E82E5D80708F09CCFDC2FD3
:101D4000CC27CC27DF71C06FD06AB3CFC55AD0E0A3
:101D5000CD52DE4FC881D0E0D064ABCFD065A9CFE3
:101D60008D2F0E94E70F182FCE0199270E94450F53
:101D7000C12FD0E0DC2FCC27CC27DF71C82BD92B8B
:101D800098CFCE0199270E94450FCC27DF70C82B32
:101D9000D92BD06A8ECFCF71D0E0DC2FCC27C16F8A
:101DA000D06A87CF2C2F26952695277080E2289F12
:101DB000900111248C2F8370C1E0D0E002C0CC0FC1
:101DC000DD1F8A95E2F7C22BD32BDC6872CF2C2F54
:101DD00026952695277080E2289F900111248C2F4C
:101DE0008370C1E0D0E002C0CC0FDD1F8A95E2F71E
:101DF000C22BD32BDA685DCF8C2F8F710E94E70F37
:101E0000C82FD0E0DC2FCC27CC27DF71D06251CF98
:101E10008C2F8F710E94E70F55E0D695C7955A9584
:101E2000E1F7CF70D0E0DC2FCC27282F30E084FF03
:101E300005C044E0220F331F4A95E1F7C22BD32B94
:101E4000D06937CF8D2F8F710E94E70F182FCE01E9
:101E500099270E94450FC12FD0E0DC2FCC27CC273B
:101E6000DF71C82BD92BD2CF462F7C3030F46530B0
:101E700020F4672F0E94AA1B089590E080E0089547
:101E80000E94340F0E94160E089582389105B9F110
:101E9000B0F48133910509F47DC048F4893291058D
:101EA00009F46DC08A32910509F47BC00895853329
:101EB000910509F45FC08933910509F10895833EC6
:101EC0009105D9F138F4803E910529F1823E9105C2
:101ED00079F10895863E9105D9F1873E910509F47F
:101EE0003EC0843E910541F52091400321FF24C06E
:101EF00080913F0384FD19C087EE90E00895209102
:101F00003F03237009F05AC02091400323FF14C0FF
:101F100089E290E0089520913F0320FD38C0309180
:101F2000400330FF09C024FF43C090E080E00895E3
:101F300020913F0322FDF7CF089520913F0322FD1A
:101F40003AC03091400330FD39C024FFF5CFEDCFCA
:101F500020913F0323FFF0CF24FDE7CFCDCF209189
:101F60003F0323FD2EC03091400331FFEECF84EEBE
:101F700090E0089520913F0325FFDECFC9CF209147
:101F80003F0325FD21C02091400323FFD5CF89E3E6
:101F900090E0D2CF20913F0326FFCECF8AE290E09F
:101FA000089520913F0326FFC7CF81E390E0089575
:101FB00083EE90E0089582EE90E0089580EE90E048
:101FC000089586EE90E0089585E390E0089590915D
:101FD0003F0392FF10C041E0282F2471243009F004
:101FE00040E031E0282F2871283009F030E0431715
:101FF00011F02CE0822793FF10C041E0282F2471BC
:10200000243109F040E031E0282F2871283109F00F
:1020100030E0431711F02CE082273091400330FF6D
:1020200010C051E0282F2171213009F050E041E02B
:10203000282F2871283009F040E0541711F029E0CA
:10204000822731FF10C041E0282F2171213109F092
:1020500040E031E0282F2871283109F030E04317A3
:1020600011F029E0822794FD877E089510923B03AA
:1020700010923C0310923D0310923E030895CF92BC
:10208000DF92EF92FF926B017C010E94A3128111FB
:102090000EC00E940F25C61AD70AE80AF90AC09294
:1020A0003B03D0923C03E0923D03F0923E03FF904D
:1020B000EF90DF90CF9008950F931F930E94A3128B
:1020C000882329F00E940F251F910F9108950E94E7
:1020D0000F2500913B0310913C0320913D0330916B
:1020E0003E03600F711F821F931FEECF80E00895A3
:1020F0000E94430C08950E9419122FEF86E791E089
:10210000215080409040E1F700C000000E94191269
:1021100080E00E94B81080FF04C00E9478100E94E6
:102120006A2508950E947B1008950E944A0C81112F
:1021300002C00E94ED0C0E94560C80939E020E94E9
:10214000600C9093400380933F030E9492100E9482
:102150005B0C0E942507809128020E943D0708958C
:1021600008950E94B010089508950E94B410089533
:10217000E82FF0E0E25BFC4F80810895089580EA4B
:102180008A95F1F7089500C008950E94BF10089540
:1021900008950E94C8100895A6E0B0E0E2EDF0E1D5
:1021A0000C9426300E94A312F82E60915A038823C3
:1021B00009F440C086E0E82E8E010F5F1F4FF80142
:1021C0008E2D11928A95E9F7862F90E0B801825BF7
:1021D0009C4F0E94CB128823B9F08091410390E07C
:1021E00046E050E0B801825B9C4F0E94513021E0F4
:1021F00020939F02892B91F4F12C0E94B5108F2D12
:102200002696E6E00C94423080919F028823A1F349
:10221000F8011192EA94E9F710929F02A09141030C
:10222000B0E0A25BBC4F86E0F80101900D928A9568
:10223000E1F7E3CF70E0625B7C4F8091410390E077
:10224000825B9C4F0E9452130E94C910D8CFF89411
:10225000E82FE295EF70F0E031A1282F2F7081E098
:1022600090E001C0880F2A95EAF7982F9095932364
:1022700091A392A1892B82A378940895CF93DF93A1
:10228000C2E0D1E089918F3F11F00E94271181E0D7
:10229000C730D807B9F7C7E0D1E089918F3F11F077
:1022A0000E94271181E0CD30D807B9F7DF91CF9197
:1022B0000895B0E0A0E0EFE5F1E10C9424307C015A
:1022C000162F042FC62FD0E0CE5FDE4F28812F3F80
:1022D00009F44CC0F894E22FE295EF70F0E031A1E0
:1022E0002F7081E090E001C0880F2A95EAF7932FC4
:1022F000982B91A392A18095892382A378940E9420
:10230000C31087E0C82E81E0D82EF701A7014A5FED
:102310005F4FF12CE02EE094D6019D916D018191EB
:102320009F01215031099F3F31F1692F62956F70F4
:1023300070E0DB0190966C9170E09F7002C0759523
:1023400067959A95E2F760FD16C0802BD9018C93B2
:10235000FF24F394E417F507F9F688818F3F11F015
:102360000E9427116F2D812F0E94C510CDB7DEB7B7
:10237000E8E00C9440308E21D9018C93EBCFABE098
:10238000B0E0E5ECF1E10C942A3080910D0181116F
:102390002CC086E0E9E5F1E0DE01119601900D9296
:1023A0008A95E1F7FE013196A7E0B1E0CE010796EC
:1023B00021912D93E817F907D9F785E0EFE5F1E0D2
:1023C000DE01179601900D928A95E1F78F81809337
:1023D00002018885809303018985809304018A85A1
:1023E000809305018B858093060180910D0196E015
:1023F000811190E090935A0386E0891B80934103FA
:102400000E943E118CE0EEE4F3E0DF01982F1D9274
:102410009A95E9F7E2E4F3E0DF011D928A95E9F786
:1024200086E00E945B120E94B1102B96E2E00C94B1
:102430004630ACE0B0E0EFE1F2E10C9426308E01E2
:102440000F5F1F4F8CE0F80111928A95E9F7F12C8C
:10245000EE24E3944E2D6F2DC8010E945911F39480
:10246000EE0CF5E0FF12F6CF4CE050E0B80182E44C
:1024700093E00E94513021E0009709F420E0892B7D
:1024800041F08CE0F801A2E4B3E001900D928A954E
:10249000E1F760915A0370E0625B7C4F46E082E4B2
:1024A00093E00E945C12182F0E94CC10812B2C9676
:1024B000E6E00C9442300895B0E0A0E0E2E6F2E1FC
:1024C0000C9424306C017B01042FC22F222379F05D
:1024D00081E08093A2020E9403259093A102809341
:1024E000A00280E0CDB7DEB7E8E00C944030D09198
:1024F000A202DD23B1F38091A0029091A1020E947B
:102500001B25059770F310E0A801B601C7010E94D2
:102510005130892B31F0A801B601C7010E945E300D
:10252000CD2F1092A2028C2FDDCFCF930E94D82FF7
:10253000C82F811102C00E94D32F8C2FCF910895F4
:102540008091A60208958091A50208950E94A31289
:1025500091E0892708950E9495128093A5020E9418
:10256000A6128093A6020E94A01280930D010E94E1
:10257000A31281110E94011308950E94A3128111D8
:1025800002C00E940413089581E09091A7029A303E
:1025900008F080E008950F931F93CF93DF93EC0131
:1025A0008B018091A7028A30B8F4B801CE010E9455
:1025B0004F13C82F811122C08091A7028F3FB9F419
:1025C0000E9403259093A4028093A3028C2FDF9195
:1025D000CF911F910F9108958091A3029091A40231
:1025E0000E941B25843F914000F7C0E0EFCF8F5F32
:1025F0008093A7028A3020F7C1E0E8CF1092A702AB
:10260000E5CF0E945B2708950E945E270895B0E001
:10261000A0E0EDE0F3E10C9425307901C82F880F9C
:10262000DD0B41155105A9F0FE0193E0EE0FFF1FF0
:102630009A95E1F7E25FFE4F8181928188559D4F27
:10264000208130E04217530708F49A01A9010E9443
:102650005E30CE010E944728D82E8823D1F0011584
:102660001105B9F083E0CC0FDD1F8A95E1F7FE017B
:10267000E25FFE4F438150E00417150708F4A801FC
:10268000C25FDE4F6C817D8168557D4FC7010E941E
:102690005E308D2DCDB7DEB7E7E00C9441300E945F
:1026A0006B1408950E948C140895A4E0B0E0EBE54B
:1026B000F3E10C9428306091C8027091C9028091B6
:1026C000CA029091CB020E942A2511E0643671055E
:1026D0008105910518F10E945C106E5F7F4F8F4F4E
:1026E0009F4F69837A838B839C8310E000E030E006
:1026F00020E044E050E0BE016F5F7F4F84E00E9425
:102700000713182F882351F00E940F256093C802E9
:102710007093C9028093CA029093CB02812F2496B2
:10272000E4E00C944430A1E0B0E0E9E9F3E10C947A
:102730001F30762E4A015901680101E010E09E0128
:102740002F5F3F4F50E040E070E060E00E940713D1
:10275000182F882399F1F40160817181828193811E
:102760000E942A25643671058105910500F18701D3
:10277000950150E040E070E060E0872D0E94071373
:10278000B82EB701C6010E94DB1A11E09981981397
:1027900010E01B2139F00E940F25F4016083718342
:1027A00082839383812F2196EDE00C943B30B70117
:1027B000C6010E94DB1A99818913D9CFA701B601FE
:1027C000C5010E945E30EECFA2E0B0E0EAEEF3E198
:1027D0000C9426300091D6011091D701085F1F4F4D
:1027E00082E0E82EF12C9E012F5F3F4F44EC52E037
:1027F00063E082E00E949313182F882321F0CE011A
:1028000001960E94961A812F2296E6E00C9442309F
:10281000A6E0B0E0EEE0F4E10C9424306B0100910E
:10282000D6011091D7010F5F1F4F86E0E82EF12CE3
:102830009E012F5F3F4F40EC52E061E080E00E943C
:102840009313882349F096E0FE013196AAEBB2E09B
:1028500001900D929A95E1F796E0EAEBF2E0D6014D
:1028600001900D929A95E1F72696E8E00C9440309D
:10287000B0E0A0E0EEE3F4E10C9422307C015B01D7
:102880006A010E94C41201E010E0882311F00AE0FE
:1028900010E0C1E0D0E0B501C701F6010995811152
:1028A00004C021960C171D072CF4CDB7DEB7EAE063
:1028B0000C943E30CC9F9001CD9F300D300D1124F3
:1028C00090E080E045E34A95F1F700000196821719
:1028D0009307C1F7E0CF0F931F93CF93DF93EC01E2
:1028E0008B0148E054E10E943814811106C080E059
:1028F000DF91CF911F910F91089544EE53E1B801FC
:10290000CE010E943814882391F345E553E1B801C4
:10291000CE010E943814ECCFA2E0B0E0E2E9F4E18D
:102920000C9428300091D6011091D701C80101966E
:1029300026E0FB01DC0101900D922A95E1F766E0AB
:1029400070E00E94DB1AF8018083CE0101960E949C
:102950008B1A89819A81F8019187808762E070E003
:10296000CE0101960E94DB1AF80187836285738588
:10297000848595850091B6021091B7022091B80226
:102980003091B902601771078207930751F0609385
:10299000B6027093B7028093B8029093B9020E9476
:1029A0003F102296E4E00C9444300E942D2A0E94AD
:1029B000760D0E943A2A08950E943F2A0E94900DA7
:1029C0000E94592A08950E949C240E94132A0E9462
:1029D0005E0D0E94D5140E94DC140E946C0DFBCF8A
:1029E0009093090280930802089508950895ACE039
:1029F000B0E0EDEFF4E10C942A304F8358876987FB
:102A00007A878B879C8786E0FE013796DE011196D8
:102A100001900D928A95E1F729813A814B815C8181
:102A20006D817E8180E090E02C96E2E00C9446304F
:102A3000ACE0B0E0EEE1F5E10C942A300E94F7142E
:102A400080E090E02C96E2E00C94463021E030E00B
:102A500001C0220F4A95EAF7662311F0822B0895F0
:102A6000209582230895E091D801F091D90109952C
:102A70000E94F5140E94F6140895CF936CEC72E056
:102A800083ED92E00E943124C82F882321F083ED4A
:102A900092E00E946E239091D40286E0E3EDF2E092
:102AA000DF01282F1D922A95E9F79093D402ACEC10
:102AB000B2E001900D928A95E1F781E0C11103C067
:102AC000911101C080E08170CF910895A2E1B0E042
:102AD000ECE6F5E10C942A30E091DA01F091DB01AB
:102AE0004091D3025091D4026091D5027091D602E8
:102AF0008091D7029091D80209952093D302309308
:102B0000D4024093D5025093D6026093D7027093BB
:102B1000D80286E0E3EDF2E0DE011D9601900D9211
:102B20008A95E1F786E0FE013D96DE01119601905F
:102B30000D928A95E1F786E0FE013196DE01179647
:102B400001900D928A95E1F786E0FE013796A3ED9C
:102B5000B2E001900D928A95E1F74091D302509135
:102B6000D4026091D5027091D6028091D7029091E3
:102B7000D8020E9418152093D3023093D4024093B8
:102B8000D5025093D6026093D7027093D8020E9468
:102B90002C1F8091D402832B8093D4020E943D1578
:102BA000811109C08091D2021092D2028170629686
:102BB000E2E00C94463081E090E0F6CF9C01215D8C
:102BC00031092830310550F44FE2480F8091D4028A
:102BD0000E9426158093D4020E943D150895FC01A1
:102BE000208131812038310534F02F57310931836C
:102BF00020838FE7089520388FEF380734F4215869
:102C00003F4F3183208380E80895822F1182108204
:102C10000895A1E1B0E0EFE0F6E10C9427304C8795
:102C2000888B998B152FF62E072FCE01079625E05E
:102C3000FC0111922A95E9F72091DF022A3008F071
:102C40003FC00E94CD16892B09F060C01092DF02B0
:102C50008B8540E087FD52C060E0812F0E942615E1
:102C6000182F8091DD029091DE02009709F040C09C
:102C700045E06F8188850E94E4162091DB02309147
:102C8000DC02820F931F9093DC028093DB0245E00D
:102C900069858A850E94E4162091D9023091DA0272
:102CA000820F931F9093DA028093D9028BED92E00A
:102CB0000E94EF15F82E89ED92E00E94EF15082F83
:102CC0001D87FE860F8786E0FE013C96DE01119689
:102CD00001900D928A95E1F729813A814B815C81BF
:102CE0006D817E8180E090E06196E5E00C94433058
:102CF00001979093DE028093DD02E2CF61E0812FA5
:102D00000E942615182F84E190E0F3CF8091DF0216
:102D10008F5F8093DF02D4CF80913601909137018D
:102D20002DE7AC01249FC001259F900D112408952B
:102D30009C01893F910538F481E090E09093370140
:102D4000809336010895EDE7F0E0BF010E94E52F82
:102D5000A901481B590BCA01BF010E94E52F7093BE
:102D60003701609336010895A4E0B0E0EAEBF6E1A4
:102D70000C94283089836A834B832C8304E610E00B
:102D800024E030E0AE014F5F5F4F60E084E10E94DD
:102D90008D262496E4E00C9444300F931F9304E6B0
:102DA00010E025E030E0AC0164E084E10E94B4264C
:102DB0001F910F9108950E94862520E040E060E079
:102DC00080E00E94B4160895681708F5861B682FE6
:102DD00021E0469FA0011124649FF001659FF00D42
:102DE00011244091360150913701E49FC001E59FC5
:102DF000900DF49F900D1124880F892F881F990B37
:102E00009195222319F09195819591090895681B58
:102E100020E0DFCFAB0124E630E0BC0188E70E9470
:102E20006C2621E0892B09F020E0822F0895B0E084
:102E3000A0E0EDE1F7E10C9424306C017B0164E645
:102E400070E088E70E948C258C01E601EC0CFD1CEB
:102E5000CE15DF0561F40E94FD2681E00115110504
:102E600009F080E0CDB7DEB7E8E00C94403017FD04
:102E7000F2CFFE01849164E670E00E94F8258C0197
:102E80002196E6CF0F931F939B0104E610E0AC015F
:102E900060E488E70E948D2621E0892B09F020E07C
:102EA000822F1F910F9108950E94862508950895FD
:102EB0000E9457170895EBE5F3E080E092E0DF0110
:102EC0009C011D9221503040E1F7F0936205E093A0
:102ED00061058FEF9FEF909306038093050308959C
:102EE000CF930E9457170E9458178093010380FDCB
:102EF00011C080E8809300030E9454176BE070E0DB
:102F00008FE292E00E941717811106C0C0E08C2F5B
:102F1000CF91089580E2EECF8091010365E070E0EB
:102F200081FD27C08AE292E00E941717882371F37F
:102F30006DE070E088E192E00E941717C82F8823A7
:102F400029F30E940F25605A75418F4F9F4F609360
:102F50005D0570935E0580935F05909360050E9408
:102F60005B1781E0809304038093030310920203B4
:102F7000CECF85E292E0D8CF2091000336E0839F48
:102F8000C0011124629F800D911D1124811522E042
:102F9000920714F090E080E0855A9C4F9093620570
:102FA00080936105089580910403811103C080918D
:102FB000030308950E940F25605A75418F4F9F4F5C
:102FC00060935D0570935E0580935F059093600547
:102FD000809103038111EBCF62E070E086E192E023
:102FE0000E941717882319F381E080930303DFCF32
:102FF000A6E0B0E0EEEFF7E10C941A30182F8091C4
:10300000050390910603892B09F18091040388231D
:10301000E9F080910203811119C00E94D3171C822C
:103020001B8222242394312C03E068EEE62E61E01B
:10303000F62E77E0672E80910503909106030097A6
:1030400029F0BC81BB2349F0111107C02696E2E1AB
:103050000C9436302B812F5F2B833B81C32ED12CD8
:10306000210102C0440C551C3A95E2F79201282335
:103070003923232B79F38091010380FD3EC08B819E
:103080008295880F807680933A0196013695279530
:103090003695279520933D01815E80933B012093D7
:1030A0003E0167E070E088E391E00E940A17882300
:1030B00069F2C60135E0880F991F3A95E1F7209132
:1030C000010320FD28C060E270E0855A9C4F0E94F9
:1030D0004217882309F4BACFC20180959095409099
:1030E000050350900603482259225092060340924D
:1030F00005034C814F5F4C839ECF8B81880F880FD7
:10310000880F80933A0110923D01895F80933B01C3
:1031100000933E01C6CFA0EEB2E0E0E21D92EA9538
:10312000E9F724EE31E03E832D8320EEC22E21E02C
:10313000D22EAD81BE816D91BE83AD83F60121910A
:103140006F01280F392F311DA901455A5C4F5A8351
:103150004983E62FF0E0E052FD4F30E020E0762C8E
:10316000721A922C022E01C0990C0A94EAF7698116
:103170007A81A12CDB01BD90BD01B920472D4A19F0
:103180004770842E042E000C550BBB2D01C0BB0FC5
:103190008A94EAF78B2E519541955109477055272E
:1031A00001C0B6944A95EAF78B28B0808B288082BC
:1031B000A39448E0A412DECF2F5F3F4F3196283012
:1031C000310569F6AD81BE81EA16FB0609F0B1CF83
:1031D00060E270E080EE92E07ACF809103039091FC
:1031E0000403911103C091E089270895882369F0B1
:1031F00062E070E084E192E00E941717811103C041
:103200008091030308951092030380910303EBCF91
:1032100081E008950E94081908950F931F938091EB
:103220000403882381F180915B0590915C050E94E5
:103230001B25C29760F00E94032590935C05809344
:103240005B0560E080E00E94BC170E940A1980E0E4
:103250000E94F817809103038823A9F00E940F258C
:1032600000915D0510915E0520915F05309160052C
:10327000601B710B820B930B6F3F7F4F8F4F9F47EC
:1032800010F40E94ED181F910F9108958FE891E0BE
:103290000197F1F700C00000089581E00895CF93F1
:1032A000DF93D62F0E944D19C82F882341F06AE082
:1032B00070E089EAD11101C08AEA0E946D048C2F66
:1032C000DF91CF9108950E94A3120895B0E0A0E08D
:1032D000ECE6F9E10C94253080910D0192E081112A
:1032E00090E090930D0382E0282F291B20930C037C
:1032F00090910D0180930E0390910D0180930B032B
:1033000080910D0181110CC087E98093410186EC09
:1033100080933F0184E98093420186E680934001D7
:1033200001E411E0CFE3D1E063E471E0AE01D80144
:1033300021E030E08D91E82FE295EF70F0E0D1A030
:103340008F70790101C0EE0C8A95EAF79E2D909559
:103350009D2191A382A18E2982A3FA018191AF01BF
:10336000E82FE295EF70F0E0D1A08F70790102C0F4
:10337000EE0CFF1C8A95E2F79E2D90959D2191A35E
:1033800082A18E2982A36A177B07A1F60E944619A3
:1033900060910E0343E153E0FA018E2F841B8617E0
:1033A00028F0CDB7DEB7E7E00C944130D8012D917D
:1033B0008D01A22FA295AF70B0E090968C9190E015
:1033C0002F7002C0959587952A95E2F781709991A3
:1033D000A92FA295AF70B0E090962C9130E09F702D
:1033E00002C0359527959A95E2F790E020FD92E08E
:1033F000892B8193D2CFB0E0A0E0E1E0FAE10C9418
:10340000243010E000E084E0C82ED12C80910E031F
:10341000181730F0802FCDB7DEB7E8E00C944030BD
:10342000C12FD0E0FE01EF5BFE4F8081E82FE295D7
:10343000EF70F0E0E0A1F0E08F7002C0F595E79545
:103440008A95E2F7E170DE01A15CBE4F4C91A42F9A
:10345000A295AF70B0E090968C9190E04F7002C052
:10346000959587954A95E2F780FD4DC080E08E2BBB
:10347000DE01AD5EBC4FEC919E2F9370981709F45E
:1034800040C0EE0FEE0FE82BEC93E0900D03E10E41
:10349000EF70F0E0E851FE4FC15FDC4F8081988112
:1034A000890F8883F12C843084F0EE2DF0E0E95F01
:1034B000FC4F80818F5F80830E946319F82E8823E0
:1034C00021F160E08E2D0E944F1988818D3F84F498
:1034D000EE2DF0E0E95FFC4F8081815080830E94F7
:1034E0006319F82E8823A1F061E08E2D0E944F19F8
:1034F0008881082E000C990BB6010E94F92F888351
:103500000F291F5F83CF82E0B2CFFF24F394DDCF7A
:10351000FF24F394EDCF40910E0350E060910D0332
:1035200070E0695F7C4F0E945E300895B0E0A0E0DB
:10353000ECE9FAE10C9424306C01D0E080E0909149
:103540000B03D91740F081110E942D0DCDB7DEB7C6
:10355000E8E00C944030F0900C03FD0E0F2D10E0CD
:10356000095F1C4FF601ED0FF11DC081F80190813C
:10357000C91BEC2E1E1444F09C2FC7FD90E0C91B04
:10358000C1110DC0DF5FDBCFEA94F80180818F5F4E
:10359000808360E08F2D0E944F1981E0EBCFCF5FD9
:1035A000F80180818150808361E08F2D0E944F1946
:1035B00081E0E6CF0895FC01680F791F8FEF91E35A
:1035C0006E177F0709F408952191822728E030E0E3
:1035D00087FF06C0880F892721503109C9F7F0CF2E
:1035E000880FFACF84E0089550E0440F551F9AE009
:1035F000699F400D511D112498E7899F400D511D71
:103600001124CA01899608950F931F93CF93DF93D6
:103610008430C8F46C30B8F44530A8F40E94F41A31
:103620008C010E946730C82FD0E0DC2FCC27C80166
:1036300001960E9467309E01282BC901DF91CF912E
:103640001F910F91089590E080E0F8CF0F931F93A2
:10365000CF93DF93122F032F843078F46C3068F40B
:10366000453058F40E94F41AEC01602F0E94853016
:10367000612FCE0101960E948530DF91CF911F917D
:103680000F9108951F93CF93DF93D0E0C0E011C056
:10369000412F6C2F8D2F0E944C029C01412F6C2FCB
:1036A0008D2F0E94261B1F5F153091F7CF5FCC3006
:1036B00011F010E0EDCFDF5FD43041F7DF91CF9113
:1036C0001F910895EF92FF920F931F93CF93DF9373
:1036D000EC018A017C01E60EF71ECE018996CE151B
:1036E000DF0529F4CDB7DEB7E6E00C944230C03EEA
:1036F00021E0D20740F40E946730F80180830F5F19
:103700001F4F2196EACFF8011082F9CFB0E0A0E078
:10371000ECE8FBE10C9424307C016A018C01060F7B
:10372000171FEC01CE018996C017D10729F4CDB738
:10373000DEB7E8E00C944030C03E21E0D20740F410
:10374000FE01EE19FF09EC0DFD1D60810E94853020
:103750002196E8CF843038F46C3028F4453018F4E2
:103760000E94041B089590E080E0089580E1089590
:1037700087EF91E00895EF92FF920F931F93CF93FD
:10378000DF93EC018A017C01E60EF71ECE01875F14
:103790009D4FCE15DF0529F4CDB7DEB7E6E00C94DA
:1037A0004230C73F21E0D20740F40E946730F80161
:1037B00080830F5F1F4F2196E9CFF8011082F9CF68
:1037C000B0E0A0E0E6EEFBE10C9424307C016A015D
:1037D0008C01060F171FEC01CE01875F9D4FC017AC
:1037E000D10729F4CDB7DEB7E8E00C944030C73FED
:1037F00021E0D20740F4FE01EE19FF09EC0DFD1D9A
:1038000060810E9485302196E7CFCF93DF93C9E096
:10381000D2E060E0CE010E9485302196C11584E09F
:10382000D807B9F7DF91CF910895A8E0B0E0EBE1B8
:10383000FCE10C942230F82E8FE08F1508F46EC056
:103840008FEF93E00E946730811168C009E012E0B9
:10385000F11035C0FE0131966F0188E011928A9512
:10386000E9F77801FFEFEF1AFF0AC8010E946730FD
:1038700089831A82882309F451C08130D1F4580118
:1038800082E0A80EB11CC7010E9467308A8388239A
:1038900009F444C09FEF980F9330F0F4780193E05F
:1038A000E90EF11CC5010E9467308B838823B1F1BA
:1038B0001C8260E0C6010E94A6208701D2CF0115BC
:1038C00094E0190759F1C8010E946730811101C0C5
:1038D000FA940F5F1F4FBCCF7501843051F702E09F
:1038E00010E07501EFEFEE1AFE0AC5010E94673085
:1038F000F601E00FF11F8083882381F08C3741F4BB
:10390000E2E0F0E0EC0FFD1FE00FF11F1082D1CFDD
:103910000F5F1F4F57010730110519F72896EAE08E
:103920000C943E30CF93DF93EB0186319C4711F529
:103930000E94510B9D81992399F08A7A91E009F4B4
:1039400090E090931703811109C089E20E94162428
:103950000E94E00B80E0DF91CF91089585E3F6CFE0
:1039600080911703811104C089E20E941E24F0CFC8
:1039700085E3FBCF81E0EFCFCF93DF93EC01FB0139
:103980008581882309F4D2C09E0130572332310546
:1039900008F0B2C00E94600C9093400380933F03F4
:1039A000FE01E150F047E232F10520F4E953FF4C0B
:1039B0000C940D3080913F03816080933F0393C04E
:1039C000809140038860809340038DC080913F03C5
:1039D0008260F3CF80913F038460EFCF80913F03FB
:1039E0008860EBCF809140038160EDCF80914003F0
:1039F0008260E9CF80913F038061DFCF80913F03F8
:103A00008062DBCF80913F038064D7CF0E94DA06CB
:103A100080913F038068D1CF80913F038C60CDCFF0
:103A2000809140038360CFCF80913F038E7FC5CFCD
:103A300080914003877FC7CF80913F038D7FBDCFAB
:103A400080913F038B7FB9CF80913F03877FB5CFB4
:103A5000809140038E7FB7CF809140038D7FB3CF9D
:103A600080913F038F7EA9CF80913F038F7DA5CFAB
:103A700080913F038F7BA1CF0E94DA0680913F03A4
:103A80008F779BCF80913F03837F97CF80914003B7
:103A90008C7F99CF80913F0382FB992790F921E099
:103AA000922790FB82F990FB83F987CF80914003A6
:103AB000982F909591708E7F892B90FB81F983CF01
:103AC00090913F03892F8F7B96FF806476CF0E9471
:103AD000DA0690913F03892F97FB87F980586DCFC5
:103AE00081E00E94F00C80913F03909140030E947E
:103AF000650C0E94DA0680E0DF91CF91089580E0A6
:103B0000F0CF90913F03892F8F7E94FF806155CF36
:103B100090913F03892F8E7F90FF81604ECF9091CF
:103B20004003892F877F93FF88604DCF81E0E4CFEA
:103B3000282F35EB2303C001112497FF04C08058C0
:103B40009109892F089580589F4FFBCF80911E03C4
:103B500080FF0DC06091480170E0660F771F6038EC
:103B6000710570F56115710569F1862F089581FF62
:103B700007C06091480184E0689FB0011124EFCF35
:103B80006091480182FD0AC080911D038823A9F03D
:103B90002091470160914801821710F088E0ECCF36
:103BA000869FC001112433E0880F991F3A95E1F7F1
:103BB000622F70E00E94F92FD2CF68E070E0D5CF7D
:103BC0008FE7089581E0089580911E0380FF0CC067
:103BD0006091440170E075956795759567956115DD
:103BE000710549F1862F089581FF06C06091440157
:103BF00070E075956795F3CF6091440182FD0BC02D
:103C000090911C039923A1F060914301809144019C
:103C1000961738F0682F70E06038710500F38FE771
:103C20000895899FC001112470E00E94F92FF4CFFC
:103C300061E070E0D7CF81E0089590912103209159
:103C40002203922B20912403922B20912303922B69
:103C500031F098E090931D0391E090931C038D3C0C
:103C600031F40E94A61D81958093220308958E3C15
:103C700019F40E94A61DF8CF8F3C31F40E94A61DB6
:103C80008195809321030895803D19F40E94A61D1B
:103C9000F8CF893D29F40E94E41D80932303089501
:103CA0008A3D21F40E94E41D8195F7CF8B3D31F4CC
:103CB0000E94E41D81958093240308958C3D19F49E
:103CC0000E94E41DF8CF9FE2980F983070F4815D58
:103CD000990B21E030E001C0220F8A95EAF780912C
:103CE0002003822B8093200308958D3D31F4809131
:103CF0001E03816080931E0308958E3D21F4809100
:103D00001E038260F7CF8F3DB9F780911E03846058
:103D1000F1CF409121038D3C59F48091220387FF1C
:103D20000DC01092220341110BC010921D0308C058
:103D30008E3C81F48091220318169CF3442381F079
:103D40008091230390912403892B09F05AC010928B
:103D50001C0308958F3C49F447FFF0CF10922103D4
:103D6000809122038111ECCFE0CF803D19F414162D
:103D7000ACF3E4CF90912303893D29F41916F4F6AE
:103D800010922303DBCF8A3D19F497FFD7CFF8CFEA
:103D9000909124038B3D29F497FFD0CF10922403F8
:103DA000CDCF8C3D19F41916CCF3C8CF9FE2980FF4
:103DB000983090F4815D990B21E030E0B90102C0A8
:103DC000660F771F8A95E2F7CB01809590912003CB
:103DD000892380932003B2CF8D3D31F480911E035F
:103DE0008E7F80931E03AACF8E3D21F480911E0307
:103DF0008D7FF7CF8F3D09F0A1CF80911E038B7F80
:103E0000F0CF08950E9403259C0190912103809199
:103E10002203982B21F030931B0320931A039091D7
:103E2000230380912403982B21F0309319032093CE
:103E300018038FE193E00E946E23089586E0EFE17E
:103E4000F3E0DF011D928A95E9F710921D031092AD
:103E50001C0310921E030895A6E0B0E0E2E3FFE128
:103E60000C942A3086E0EFE1F3E0DE011196019038
:103E70000D928A95E1F729813A814B815C816D81B0
:103E80007E8180E090E02696E2E00C944630FC01D2
:103E9000828181110EC0838181110BC084818111C7
:103EA00008C091E08581811101C090E0892F817067
:103EB000089581E0FCCFA6E0B0E0E1E6FFE10C94DC
:103EC000293086E0EFE1F3E0DE01119601900D92DA
:103ED0008A95E1F710922103109222031092230396
:103EE000109224038B819C81892B89F080911A0385
:103EF00090911B030E941B25AC0190911D039923F7
:103F0000C9F1809149018417150608F440C08D81DC
:103F10009E81892B91F080911803909119030E9442
:103F20001B25AC0190911C03992309F46AC0809170
:103F300045018417150608F472C0BE016F5F7F4FFC
:103F40008FE193E00E943124811105C08FE193E05D
:103F50000E94471F81110E94021F86E0FE013196D8
:103F6000AFE1B3E001900D928A95E1F72696E3E088
:103F70000C94453020914A018AE0289F9001112439
:103F80002417350720F69F5F90931D0302C09F3FC3
:103F9000D1F71B81112359F00E94A61D9FEF111626
:103FA0000CF491E0899F802D1124809321031C81C2
:103FB000112359F00E94A61D9FEF11160CF491E0F9
:103FC000899F802D112480932203809121038823CF
:103FD00009F49DCF10912203112309F498CF0E9478
:103FE000981D882351F080932103812F0E94981DF2
:103FF000882329F0809322038ACF81E0F4CF81E0E7
:10400000F9CF209146018AE0289F900111242417BE
:10401000350708F092CF9F5F90931C0302C09F3F2B
:10402000D1F71D81112359F00E94E41D9FEF111655
:104030000CF491E0899F802D1124809323031E812D
:10404000112359F00E94E41D9FEF11160CF491E02A
:10405000899F802D1124809324038091230388233A
:1040600009F46BCF10912403112309F466CF0E9449
:10407000981D882351F080932303812F0E94981D5F
:10408000882329F08093240358CF81E0F4CF81E086
:10409000F9CFB0E0A0E0EFE4F0E20C942530E82F97
:1040A000F0E0E65CFD4FD490282F269526952695C6
:1040B00030E0F901E652FD4F0491877010E0082EC0
:1040C00002C0159507950A94E2F701701127F901CE
:1040D000E653FD4FE490F12C082E02C0F594E794CE
:1040E0000A94E2F791E0E922FF24F901E654FD4F3A
:1040F000C491D0E002C0D595C7958A95E2F7C1700A
:10410000DD270115110519F081EE0E94F103E1147C
:10411000F10419F086EE0E94F1038D2D0E948504B2
:10412000E114F10419F086EE0E943A04011511051C
:1041300019F081EE0E943A04CD2B19F08CE20E9416
:104140008504CDB7DEB7E7E00C944130EF92FF92E3
:104150000F931F93CF93DF93EC01162F0AE0888112
:10416000882309F454C0813009F04EC08981813020
:1041700099F47E0122E0E20EF11C8A810E948504FE
:10418000E7012196812F815050F3EFE9FFE031974D
:10419000F1F700C00000F7CF823041F47E0182E0E9
:1041A000E80EF11C8A810E94F103EACF833041F4CA
:1041B0007E01E2E0EE0EF11C8A810E943A04E0CF1B
:1041C000843011F02196DDCF2A81229690E080E0A4
:1041D000AE014F5F5F4F2053330B2A30310548F05B
:1041E000019778F2EFE9FFE03197F1F700C00000A6
:1041F000F7CF089FB001099F700D1124C901860FE8
:10420000971F2981EA01E4CF0E944920BACFCDB798
:10421000DEB7E6E00C9442300F931F93CF93DF9309
:10422000C42FD22FFC0185818823C9F04093270336
:104230000E940325909326038093250380E28C0F30
:10424000883040F4C77081E001C0880FCA95EAF752
:104250000E948E04DF91CF911F910F9108951091CC
:104260002703141332C080912503909126030E94E6
:104270001B25883C910548F5C0E2CD0F1D17B9F00C
:1042800080E2810F883040F4177081E001C0880F10
:104290001A95EAF70E949504C83048F481E09D2FF2
:1042A000977001C0880F9A95EAF70E948E04802FBC
:1042B0000E948504C83070F6D77081E001C0880F75
:1042C000DA95EAF70E949504C5CF80E28C0F88301A
:1042D00008F6C77081E001C0880FCA95EAF7F2CFEF
:1042E0000F93DB0188519C4787309105A0F5FC01B5
:1042F000E751FF4C0C940D3006E221EE41EE6AE1ED
:104300007CE7CD010E940C2180E00F91089507E227
:1043100025EE45EE6BE17CE7F4CF06E221EE40EEC0
:1043200068E17CE7EECF07E225EE44EE69E17CE749
:10433000E8CF06E221EE42EE6CE17CE7E2CF07E255
:1043400025EE46EE6DE17CE7DCCF08E221E045EEAC
:104350006EE17CE7D6CF15968C91882319F01092E8
:104360002703D3CF81E0D1CF1F93CF93DF9387373C
:104370002CE7920759F0C1E088379C47E1F4FB0134
:10438000C581CC2371F10E94F72106C0FB01C581D4
:10439000CC23B1F00E94F4210E9452070E94FA211E
:1043A000D82F0E94F721C82F0E94F4214D2F6C2F87
:1043B0000E947A08C0E08C2FDF91CF911F91089561
:1043C0000E94F4210E945E070E94FA21182F0E9489
:1043D000F721D82F0E94F421412F6D2F0E947A08D7
:1043E000EACF0E94F721EECF80914D010895809190
:1043F0004C01089580914B01089585E290E00E9460
:104400006730843289F486E290E00E946730813020
:1044100059F487E290E00E94673091E0863009F01D
:1044200090E0892F8170089580E0FCCFCF93C82F52
:104430006FEF811164E285E290E00E9485306FEFBA
:10444000C11161E086E290E00E9485306FEFC111FA
:1044500066E087E290E00E948530CF91089508954C
:1044600088E290E00E946730682F70E090E080E082
:1044700008950895CF93C62F0E9439226C2F88E2A9
:1044800090E00E948530CF91089580E00E9416222E
:1044900060E070E0CB010E943A220E94421B0E9421
:1044A000051C81E00E94162208950E942F220E947E
:1044B00030220E9439220E94FD21811102C00E94F7
:1044C0004522089508959C01FB018581882351F0C0
:1044D000A90157574038510530F4822F0E94151C0E
:1044E00080E0089581E008952FEFFC012083089576
:1044F0000E947422089580E00895B0E0A0E0E3E80F
:10450000F2E20C942430EC01E62E0E947B22811111
:1045100010C0E881E150E331B8F4F0E0E051FF4C25
:104520000C940D3019828CE08A836E2DCE010E948E
:104530000729CDB7DEB7E8E00C944030898182309E
:10454000C1F028F4813061F08FEF8883EECF8330A3
:1045500099F08430C9F71A821B821C821D82E5CF34
:104560000E940F250E9413306A837B838C839D8376
:10457000DCCF0E943022F6CF8A81082F10E06E0136
:1045800093E0C90ED11C9CE1F92EF80E0C301105F8
:1045900060F6802F0E94B810F60181936F010F5FC3
:1045A0001F4FF012F3CFC1CF8981823031F08530B7
:1045B00059F68A810E946222B8CF6A817B818C8100
:1045C0009D810E9413300E943A22AFCF4B816A81B5
:1045D00089810E94041B9827892798279D838C83B3
:1045E000A4CF2C813D813227232732274B816A813A
:1045F00089810E94261B99CF0E94421B96CF6E2D67
:10460000CE010E94782291CF0E94B61B89838DCF64
:104610000E94B81B9827892798279A83898385CF7A
:104620006B8170E089819A81AE014C5F5F4F982762
:10463000892798270E94BB1B78CF6B8170E0898106
:104640009A81AE014C5F5F4F9827892798270E9477
:10465000E01B6BCF0E94051C68CF0E94F21AD6CFD8
:104660006B8170E089819A81AE014C5F5F4F982722
:10467000892798270E94621B58CF6B8170E089813F
:104680009A81AE014C5F5F4F9827892798270E9437
:10469000861B4BCF90932E0380932D0308950E9489
:1046A000A312811103C0809128030895E0912D0386
:1046B000F0912E03309729F00190F081E02D0995BB
:1046C000089580E00895E0912D03F0912E03309736
:1046D00021F00280F381E02D09950895E0912D03EA
:1046E000F0912E03309739F022E0DC012C93068004
:1046F000F781E02D09950895A3E0B0E0E2E8F3E248
:104700000C942A3020912B0330912C032817390761
:10471000A1F090932C0380932B03E0912D03F09153
:104720002E03309751F023E029839B838A830084F2
:10473000F185E02DCE01019609952396E2E00C94D7
:104740004630A3E0B0E0E7EAF3E20C942A3020918F
:10475000290330912A0328173907A1F090932A03DF
:1047600080932903E0912D03F0912E03309751F0AF
:1047700024E029839B838A830084F185E02DCE0188
:10478000019609952396E2E00C9446304091000191
:10479000509101019A012E5F3F4F485F5F4F80E0CB
:1047A0002417350709F40895F90191919F01992380
:1047B000B9F38F5FF5CF882371F02091000130911C
:1047C0000101F9013296285F3F4F9191981729F026
:1047D000E217F307D1F780E0089581E008959C0186
:1047E000FC0132969FEF80E04191461751F09F3FC8
:1047F00019F4411101C0982F8F5F8630A9F79F3FB0
:1048000009F40895290F311D97FD3A95F901628346
:104810000895FC01329608962191261303C0DF010A
:1048200011971C92E817F907B9F70895682F80913E
:104830000001909101010E94EF230895682F80915B
:104840000001909101010E9409240895E091000166
:10485000F0910101329686E0DF011D928A95E9F719
:104860000895DC01FB0111969C91119781819813A9
:1048700022C012968C911297882319F09281891385
:104880001AC013968C911397882319F0938189137A
:1048900012C015968C911597882319F0958189136C
:1048A0000AC014969C91992321F081E02481291358
:1048B00003C080E001C081E08170089508950E94E6
:1048C0005E240895811106C081E080932F030E9429
:1048D0005F24089582E0F9CF83E080932F030E9444
:1048E0005F2408950E946224089581E080932F033D
:1048F0000E945F2408950E947524089508950895E4
:104900000E947F240895089508950E947E240895AA
:10491000CF930E9483240E9419120E948424C0E035
:104920008C2F0E94B810811105C0CF5FCC30C1F729
:10493000CF91089581E0FCCF85B7806885BF85B7AA
:10494000806885BF08951F921FB61F9211248F9310
:104950009F93AF93BF9380913003811113C08091D7
:10496000630590916405A0916505B0916605419637
:10497000A11DB11D8093630590936405A093650507
:10498000B0936605BF91AF919F918F911F901FBE0D
:104990001F90189580916B05843031F10E944F0370
:1049A0001092300388E190E020E40FB6F894A895C7
:1049B000809360000FBE2093600083B7817F846086
:1049C00083BF83B7816083BF7894889583B78E7FD8
:1049D00083BF0FB6F894A89580916000886180939A
:1049E0006000109260000FBE08950E94DA060E94D7
:1049F0005803089582E084BD93E095BD9AEF97BD7A
:104A000080936E0008952FB7F8948091630590917C
:104A10006405A0916505B09166052FBF08952FB775
:104A2000F89460916305709164058091650590919B
:104A300066052FBF08959C014FB7F89480916305D8
:104A400090916405A0916505B09166054FBF821BEA
:104A5000930B0895CF92DF92EF92FF922FB7F894C5
:104A6000C0906305D0906405E0906505F090660500
:104A70002FBFA7019601261B370B480B590BCA0104
:104A8000B901FF90EF90DF90CF90089578941F9236
:104A90001FB61F9211248F939F93AF93BF93809162
:104AA000630590916405A0916505B0916605019636
:104AB000A11DB11D8093630590936405A0936505C6
:104AC000B0936605BF91AF919F918F911F901FBECC
:104AD0001F90189587E797E7909301088093000847
:104AE00088E19AE00FB6F894A895809360000FBE15
:104AF00090936000FFCF88E19AE00FB6F894A895F4
:104B0000809360000FBE90936000FFCF1092B900B9
:104B10008CE08093B8000895B0E0A0E0E2E9F5E20F
:104B20000C942130B82EEB010E9403256C01EE2479
:104B3000E394F12CC431D10560F025E0E22EF12C94
:104B4000CF3FDC0731F0CE0164E170E00E94E52F39
:104B50007B0184EAA82E94E8992E1092BC00A092C2
:104B6000BC000E9403258C018091BC0087FF0DC012
:104B70008091B900887F8830F9F08091B900887FF2
:104B80008031D1F00FEF1FEF08C0C8010E941B2534
:104B9000E816F90648F70EEF1FEFCF3FDC07E9F202
:104BA000C6010E941B25C817D907B8F6C801CDB7A2
:104BB000DEB7EBE00C943D30B092BB009092BC00AD
:104BC0000E9403258C018091BC0087FF0AC0809160
:104BD000B900887F883111F08034A1F610E000E040
:104BE000E5CFC8010E941B25E816F90660F7D3CF70
:104BF0000F931F93CF93DF93EB018093BB0084E867
:104C00008093BC000E9403258C018091BC0087FF2B
:104C100011C02091B900287F81E090E0283211F482
:104C200090E080E0919581959109DF91CF911F915E
:104C30000F910895CF3FDC0741F3C8010E941B2567
:104C4000C817D90710F78EEF9FEFEFCF0F931F9381
:104C5000CF93DF93EC0184EC8093BC000E9403258A
:104C60008C018091BC0087FF08C08091BB0090E060
:104C7000DF91CF911F910F910895CF3FDC0789F30A
:104C8000C8010E941B25C817D90758F78EEF9FEF60
:104C9000EFCF0F931F93CF93DF93EC0184E88093C2
:104CA000BC000E9403258C018091BC0087FF08C0D6
:104CB0008091BB0090E0DF91CF911F910F910895FB
:104CC000CF3FDC0789F3C8010E941B25C817D9070D
:104CD00058F78EEF9FEFEFCFB0E0A0E0E2E7F6E20B
:104CE0000C9424306B018A017901B9010E948C2552
:104CF000E6010C0D1D1DC017D10711F097FF08C06C
:104D000024E92093BC00CDB7DEB7E8E00C94403036
:104D1000B70189910E94F825EECFB0E0A0E0E3E969
:104D2000F6E20C942430C62F6A017901B8010E9482
:104D30008C2597FD0CC0B8018C2F0E94F825E60148
:104D4000EC0CFD1CCE15DF0511F097FF08C024E91F
:104D50002093BC00CDB7DEB7E8E00C944030B8013A
:104D600089910E94F825EECFB0E0A0E0EAEBF6E2F0
:104D70000C942430F82EE62EEA016901B8010E9455
:104D80008C2597FD15C0B8018E2D0E94F82597FD42
:104D90000FC0B8018F2D81600E948C25F12CE12C71
:104DA00021E0C21AD108EC14FD04E0F497FF0DC015
:104DB00024E92093BC001816190614F490E080E052
:104DC000CDB7DEB7E8E00C944030C8010E9426263B
:104DD00097FD04C0FE01EE0DFF1D80832FEFE21A48
:104DE000F20AE1CF97FDE4CFC8010E94492697FD62
:104DF000DFCFCC0DDD1D8883DBCF84E98093BC0041
:104E000008958EE14A9B02C08150E1F74A9BFECF94
:104E100008955A9880E28A95F1F75A9A0895FC010C
:104E20003BE03A95F1F798E020E080E031E040E1A6
:104E30004A95F1F7880F4A9B02C08160232742E020
:104E40004A95F1F7000040E14A95F1F7915079F762
:104E500090E19A95F1F799B132E03A95F1F70000B7
:104E600040E14A95F1F792FB992790F9922720812A
:104E7000920F90830895A1E0B0E0E1E4F7E20C9492
:104E8000263019828C017C01E60EF11C0E151F05DF
:104E900041F481E09981911180E02196E6E00C9443
:104EA00042300E940127CE0101960E940F27F8018F
:104EB00081938F01EBCF529A5A9A089552985A9A39
:104EC000EA9AE9E6F0E080818F7C80830895615062
:104ED000770B91E001C0990F6A95EAF720E031E085
:104EE000911108C0222391F05A9A80E28A95F1F735
:104EF0005A980895492F482339F05A9A232740E2B7
:104F00004A95F1F79695ECCF5A98F9CF5A98EDCF8C
:104F1000FF920F931F93CF93DF93EC018C01060F49
:104F2000111DC017D10729F4CDB7DEB7E5E00C9409
:104F30004330F9900E94092768E08F2D0E9467276F
:104F4000F0CF1F920F920FB60F9211240F931F9361
:104F50002F933F934F935F936F937F938F939F9381
:104F6000AF93BF93EF93FF93CF93DF930F92CDB7A0
:104F7000DEB719820E940127CE0101960E940F27F9
:104F8000082F069506950695282F22952570902FB7
:104F90009570290F922F937026952695920F98273A
:104FA00097708981982B09F05CC0063008F059C0D1
:104FB00080E18A95F1F75A9A529A82E08A95F1F740
:104FC00000C05A9888E0089F80011124D801A25F90
:104FD000BE4F1696ED91FC9117973097A9F060910E
:104FE000D6017091D70114962D913C911597260FFB
:104FF000371F11968D919C911297680F791F139608
:105000004C9113978C910995F801E25FFE4F6381F3
:10501000662351F02091D6013091D701848195818A
:10502000820F931F0E9488270E94092780E18A959A
:10503000F1F75A9852985A9A80E18A95F1F7F80157
:10504000E25FFE4F6081662351F02091D6013091DE
:10505000D70181819281820F931F0E943B270E947A
:1050600001270F90DF91CF91FF91EF91BF91AF9109
:105070009F918F917F916F915F914F913F912F9170
:105080001F910F910F900FBE0F901F9018950F93C7
:105090001F93CF93DF93EC0106970CF04CC0F8946C
:1050A000529A5A9885E08A95F1F700009C2F9695C0
:1050B00095708C2F8570980F892F83709695969593
:1050C00023E0CC0FDD1F2A95E1F7980F8E01092B05
:1050D0000E94092700C068E0802F0E94672780E1B6
:1050E0008A95F1F752985A9A4A9B1EC087E090E041
:1050F0004A991CC0FE01E25FFE4F63816623F9F00E
:105100002091D6013091D70184819581820F931F20
:105110000E943B27811113C0529A5A9A7894DF91CA
:10512000CF911F910F91089500C0DECF019729F410
:10513000529A5A9A789480E0F2CF00C0D9CF0E9458
:10514000012780E28A95F1F75A98529A80E18A9570
:10515000F1F7C25FDE4F6881662351F02091D601DE
:105160003091D70189819A81820F931F0E948827ED
:105170000E940927789481E0D2CF80913903089565
:1051800008959B01BA0190916B059430E9F48F70FA
:105190008093E9009FEF8091E800915085FD06C063
:1051A00085ED8A95F1F700009111F5CF8091E80027
:1051B00085FF0AC050E040E0C9010E94FD2A8091AD
:1051C000E8008E778093E800089543E050E0BC014A
:1051D00084E00E94C128089546E050E0BC0184E0CC
:1051E0000E94C1280895CF93DF93EC0148E050E07E
:1051F000BC0181E00E94C12888E0FE01A1E3B3E088
:1052000001900D928A95E1F7DF91CF910895603278
:1052100031F440E250E0BC0182E00E94C1280895D0
:1052200080916A05811109C00E94DC2C0E94392DF1
:105230008091E20084608093E200089510926A05F4
:1052400008950E94752408956091670581E06111B9
:1052500001C080E00E946C24089590916B0581E06C
:10526000943009F080E0609167050E9472240895EF
:1052700042E061EC81E00E94582C42E261EC84E063
:105280000E94582C42E261EC82E00E94582C42E2DB
:1052900060EC83E00E94582C90916B0581E0943083
:1052A00009F080E0609167050E9462240895809172
:1052B0006D05833009F463C030F48130E1F1823050
:1052C00009F4A0C008958A3009F48CC08B3009F429
:1052D00071C0893009F052C080916C05813209F0AB
:1052E0004DC08091700590917105009719F002975B
:1052F00009F044C08091E800877F8093E8008091A6
:10530000E80082FF37C09091F3008091F20002978D
:1053100031F48091F100813011F0863021F48091D8
:10532000F100809339038091E8008B778093E80047
:105330000E948C2C23C080916C05813AF9F48091F5
:10534000E800877F8093E800809170059091710557
:10535000892B61F468E081E393E070E00E949B2B6D
:105360008091E8008B778093E800089560E090E0FA
:1053700080E0F3CF80916B058111C1CF08958091BA
:105380006C05813AD9F78091700590917105892B50
:10539000A9F78091E800877F8093E8008091E8007A
:1053A00080FFFCCF809158018093F1008091E8004C
:1053B0008E77BCCF80916C05813201F780917005AA
:1053C00090917105892BD1F68091E800877F8093B9
:1053D000E8000E948C2C80916E05809358010E94F9
:1053E000DA06089580916C05813241F68091E800DB
:1053F000877F8093E8000E948C2C80916F058093BA
:105400003A03089580916C05813A09F0B7CF8091F5
:10541000E800877F8093E8008091E80080FFFCCF60
:1054200080913A03C1CF84B7877F84BF0FB6F894C9
:10543000A895809160008861809360001092600060
:105440000FBE80E890E00FB6F894809361009093CF
:1054500061000FBE0E947B2408950E94DC2C0E94F4
:10546000392DE2EEF0E080818460808378940E94A0
:10547000B82F08958EE491E00E944A230895809108
:105480006B05853031F480916B05853019F00E94F1
:10549000F52408950E94CA2480916905882399F310
:1054A0000E948824882379F30E94E72A0E94DA0662
:1054B000EACFA0E2B0E0EFE5FAE20C942A30809166
:1054C0006B05843009F583E08093E9008091E80062
:1054D00082FF1AC08091E80090E085FF09C050E08B
:1054E00040E060E270E0CE0101960E944C2B91E01A
:1054F0008091E8008B778093E800992329F060E29F
:10550000CE0101960E947D22A096E2E00C944630E6
:105510009A0140917205509173050E94902A089556
:10552000492F55274330510521F168F44130510589
:1055300009F443C04230510509F444C090E080E0D2
:1055400050E040E026C04132510551F14232510550
:10555000A9F76330710590F7FB01EE0FFF1FE550CF
:10556000FE4F4081518168507E4FFB01808190E069
:1055700010C099278130910581F0009729F002979A
:10558000E9F6EAEEF2E002C0E8E0F3E0849190E0B0
:10559000AF01F901518340830895ECEFF2E0F6CFBB
:1055A0006330710558F6660F771FFB01EF5FFD4F03
:1055B0004081518189E090E0ECCF82E190E047E6C4
:1055C00053E0E7CF8BE590E04CE053E0E2CF80E1A1
:1055D00089BD82E189BD09B400FEFDCF8091D8006C
:1055E0008F7D8093D8008091E00082608093E000FE
:1055F0008091E00081FDFCCF0895AF92BF92CF92E1
:10560000DF92FF920F931F93CF93DF936C01EB0117
:105610008A010E94AB2CF82E811123C001151105BF
:1056200039F0F80180819181C81BD90BC80ED91EB1
:10563000B12CA12C2097A9F08091E80085FD22C013
:105640008091E8008E778093E80001151105A1F0A4
:10565000F80180819181A80EB91EB182A08285E0F7
:10566000F82E8F2DDF91CF911F910F91FF90DF903A
:10567000CF90BF90AF9008950E94AB2C8823D1F2B9
:10568000F82EEFCFF60181916F018093F100219701
:10569000FFEFAF1ABF0ACECFAF92BF92CF92DF9289
:1056A000FF920F931F93CF93DF936C01EB018A015D
:1056B0000E94AB2CF82E811123C00115110539F081
:1056C000F80180819181C81BD90BC80ED91EB12C5D
:1056D000A12C2097A9F08091E80085FD22C080913F
:1056E000E8008B778093E80001151105A1F0F8011F
:1056F00080819181A80EB91EB182A08285E0F82E2A
:105700008F2DDF91CF911F910F91FF90DF90CF9060
:10571000BF90AF9008950E94AB2C8823D1F2F82E51
:10572000EFCF8091F100F60181936F012197FFEF98
:10573000AF1ABF0ACECFFC0180917205909173051C
:1057400086179707A0F06115710529F49091E8007C
:105750009E779093E80090E06115710551F49111E6
:1057600008C08091E80082FF34C080E00895BC0149
:10577000F2CF80916B058823C1F18530C1F1809112
:10578000E80083FD30C08091E80082FDEACF80917F
:10579000E80080FFE1CF8091F3002091F200382FE4
:1057A0006115710519F02830310558F091E0283065
:1057B000310509F090E02091E8002E772093E80071
:1057C000CBCF81918093F100615071092F5F3F4FE2
:1057D000E7CF80916B05882341F0853041F08091BF
:1057E000E80083FFBECF81E0089582E0089583E062
:1057F0000895FC01809172059091730586179707B3
:10580000A0F06115710529F48091E8008E778093EE
:10581000E80090E06115710551F4911108C0809184
:10582000E80082FF35C080E00895BC01F2CF80918E
:105830006B058823C9F18530C9F18091E80083FDAB
:1058400031C08091E80082FDEACF8091E80080FFBE
:10585000E1CF8091F3002091F200382F611571059E
:1058600019F02830310558F091E02830310509F061
:1058700090E08091E8008E778093E800CBCF849110
:105880008093F1003196615071092F5F3F4FE6CF51
:1058900080916B05882341F0853041F08091E800CC
:1058A00083FFBDCF81E0089582E0089583E00895ED
:1058B000982F973028F08F708093E90081E0089549
:1058C0009093E900242F762F50E0981731F07091D3
:1058D000EC002091ED005091F00021FD02C09F5F8F
:1058E000E8CF3091EB003E7F3093EB003091ED003C
:1058F0003D7F3093ED003091EB0031603093EB0051
:105900007093EC002093ED005093F0002091EE0096
:1059100027FDE5CF80E0089580916C0587FF13C0D7
:105920008091E80082FF06C08091E8008B77809329
:10593000E80004C080916B058111F2CF0895809139
:105940006B058823D9F38091E80080FFF8CF809120
:10595000E8008E77ECCF2091E4003091E50095E6E9
:10596000A9012091EC00822F817020FF06C0809158
:10597000E80080FF06C080E008952091E80022FD45
:105980001AC080916B05882389F0853089F0809159
:10599000EB0085FD0FC02091E4003091E500421737
:1059A0005307F9F29150E1F684E0089582E00895FA
:1059B00083E0089581E008950E944B2D0E94532DAD
:1059C000E0EEF0E0808181608083E8EDF0E08081AE
:1059D0008F77808319BCA7EDB0E08C918E7F8C937C
:1059E00080818F7E808310926A0508950F931F93A4
:1059F000CF93DF930E944B2D0E94532DC8EDD0E032
:105A000088818F77888388818068888388818F7D6B
:105A1000888319BC10926B05109267051092690576
:105A20001092680500EE10E0F80180818B7F808382
:105A300088818160888342E060E080E00E94582C89
:105A4000E1EEF0E080818E7F8083E2EEF0E0808105
:105A500081608083808188608083F80180818E7F6F
:105A60008083888180618883DF91CF911F910F911E
:105A70000895E8EDF0E080818F7E8083E7EDF0E02F
:105A800080818160808384E082BF81E080936A05A9
:105A90000E94F62C0895E8EDF0E080818E7F8083EF
:105AA0001092E20008951092DA001092E100089539
:105AB0001F920F920FB60F9211242F933F934F9383
:105AC0005F936F937F938F939F93AF93BF93EF9366
:105AD000FF938091E10082FF0BC08091E20082FF82
