:100000000C9424030C9441030C9441030C94EF2BA7
:100010000C9441030C9441030C9441030C94410350
:100020000C9441030C9441030C94A0310C94723253
:100030000C9410290C9441030C9441030C9441033B
:100040000C9441030C9441030C9441030C94410320
:100050000C9441030C94B5290C9441030C94410376
:100060000C9441030C9441030C9441030C94410300
:100070000C9441030C9441030C9441030C944103F0
:100080000C9441030C9441030C9441030C944103E0
:100090000C9441030C9441030C9441030C944103D0
:1000A0000C9441030C9441030C9441039906990666
:1000B000C506C50672085307720872085807C207BA
:1000C000D407D4078F1BB21BBA1BF61B101C2F1CA6
:1000D0004B1C5E1CA81CAD1CB81CC31CD01CD31C24
:1000E000DA320133F9330133F9334D337033F933F5
:1000F000C733D633DA00D900DA00D900DA00D900E4
:10010000DA00D9000000000000000000000000003C
:1001100000000000A900AA00AA00A900AA00A900E6
:10012000AA00A9000000000000000000000000007C
:100130000000000050004F001F001E001F001E00A6
:100140001F001E0000000000000000000000000072
:100150000000000014001A00080015001700040039
:100160001600070009000A001D001B000600190008
:100170000500E100E000E300E2002C410000000087
:10018000000000000000130012000C0018001C000A
:1001900028000F000E000D000B0037005200360043
:1001A000100011004F00510050002A002C420000A6
:1001B00000000000000000001E001F0020002100C1
:1001C00022001E021F0220022102220257005600B6
:1001D0005500540067002B0049002C002C002C41D6
:1001E000000000000000000000002700260025009D
:1001F00024002300270226022502240223022D12B6
:1002000030122F12000035002A00E200E300E00067
:100210002C42000000000000000000003A003B00FB
:100220003C003D003E001F02310033003312340019
:10023000207821782378247825782B0049002C0019
:100240002C002C41000000000000000000004300D2
:100250004200410040003F002E004F00520051007C
:100260005000310030002F00277826782A00E20065
:10027000E300E0002C42000000000000000000004D
:10028000FD377A585A000004E6D6B4460200210130
:1002900016000000742FE5A3E0023E00EB5D003D78
:1002A0008889C65436C3174FE4EFB08749EF03225D
:1002B0004C001C6CCEB93465490575D91A4FC3AAD8
:1002C000D4A067B452A7850FC41A5ABDC933089F7A
:1002D0001917F0C5CF0EB2A95E2DEFEE3E50CA97AA
:1002E000E0210548882210D54760FE4D78B8689F08
:1002F0003E5E6CA7FE4B021D59656B006BA80DD4CA
:10030000FD5A6014D0A34E1D0B6602EDB241D622F9
:1003100069D18DAF5FB757BC4C5A6172F329A8CA37
:1003200027729EC53F041704E4397D168FC658BB5B
:1003300029B06C85BB0F68E9782BC63D29932C92B8
:10034000A22AC7D09810C7C464E8BF7F5B9A9D0EED
:100350000298DFC01A5AB8509AA00F5233869159AA
:100360005AEB64C5EF6D57EACDC2F870D7B3060BF0
:10037000002C0C6AD25EF34D795E14B09B9146401E
:1003800031F325F8638040DE9CF20000A5A9A44467
:1003900018408E2B00018702BF040000CD5538F8AD
:1003A000B1C467FB020000000004595A01000100BB
:1003B000F102491E7B1E000002000200ED02491EF0
:1003C0007B1E000003000100F202491E7B1E00009C
:1003D00004000200D702491E7B1E421E05000100D8
:1003E000F302491E7B1E000006000200D902491ECE
:1003F0007B1E000007000200EF02491E7B1E00006A
:1004000008000100F402491E7B1E000012000200D9
:10041000F502491E7B1E000013000200F702491E70
:100420007B1E000014000100F902491E7B1E000023
:10043000150000000000471DC41D00000000000062
:10044000000000002A2B280000000000000000002F
:100450000000000000000029000000002C1E3420D5
:10046000212224342627252E362D3738271E1F20FB
:100470002122232425263333362E37381F04050640
:100480000708090A0B0C0D0E0F1011121314151684
:100490001718191A1B1C1D2F3130232D3504050682
:1004A0000708090A0B0C0D0E0F1011121314151664
:1004B0001718191A1B1C1D2F3130354C0000000075
:1004C000000000000000000000000000000000002C
:1004D000000000000000000000000000000000001C
:1004E0007E0F00D4FFFFFFC7000000781C037600DA
:1004F000690061006C003A00660036003400630059
:1005000032006200330063000000100363006F00DC
:100510006F006C0036003400350000000A036D00E7
:100520002E006B00690000000403090409025B004F
:10053000030100A0FA0904000001030101000921E0
:10054000110100012244000705810308000109048C
:100550000100020300000009211101000122220014
:100560000705820320000107050303200001090499
:1005700002000103000000092111010001224900CD
:100580000705840320000112010002000000084357
:100590004D45060001010203010660FF0961A1014A
:1005A0000962150026FF0095207508810209631570
:1005B0000026FF00952075089102C005010902A1DF
:1005C0000185020901A10005091901290815002565
:1005D0000195087501810205010930093115812550
:1005E0007F95027508810609381581257F9501756B
:1005F000088106050C0A38021581257F95017508CA
:100600008106C0C005010906A101050719E029E717
:100610001500250195087501810295017508810174
:100620000507190029FF150026FF009506750881AA
:100630000005081901290515002501950575019189
:1006400002950175039101C011241FBECFEFDAE0BE
:10065000DEBFCDBF11E0A0E0B1E0EEE3FAE602C0FC
:1006600005900D92A038B107D9F723E0A0E8B1E0DA
:1006700001C01D92AC30B207E1F70E94A9170C949B
:100680001D350C9400008330B0F46A30A0F445307E
:1006900090F492E3899FF001112485E0689FE00DBA
:1006A000F11D1124E40FF11DEE0FFF1FEC5AFE4F58
:1006B00085919491089581E090E008958330B0F49D
:1006C0006830A0F4E62FF0E098E0899FE00DF11D7E
:1006D0001124EE0FFF1F81E04827E40FF11DEE0FFC
:1006E000FF1FEC50FF4F85919491089581E090E0B9
:1006F00008959C013A9521153F4130F5BC016627CC
:100700007270AC01442754709C012227387094FF0A
:100710000FC090FF02C080E101C080E0672B09F0AC
:100720008062452B09F08064232B79F0806808955E
:10073000892F8170672B09F08260452B09F0846056
:10074000232B19F08860089580E00895CF93DF93FC
:10075000EB010E947903FE010995DF91CF91089585
:10076000CF93DF93EC01805E9109089710F02097FA
:1007700019F464E076E002C062E176E0CE010E9406
:10078000A6038C2F0E947D05DF91CF910895CF9312
:10079000DF93EC010E94B805CE01805E91090897B5
:1007A00010F0209719F46BE076E002C069E176E082
:1007B000CE010E94A603DF91CF91089581E00895B4
:1007C00081E008950E94E00308950E94E2030895E5
:1007D0000E94E003089508950E94EB030895A6E0A7
:1007E000B0E0E5EFF3E00C947D3449835A839E83B7
:1007F0003091870189819A81311115C03E8133235F
:1008000059F0222349F00E94070A182F682F898186
:100810009A810E94CF0903C00E94EA09182F6981BA
:100820007A81812F04C00E94070A69817A810E941F
:10083000F6112696E3E00C949934FC01262F4081B2
:10084000518162817381848195810E94EF030895B3
:10085000CF93DF93EC0161E00E941D04BE010E9472
:10086000E503DF91CF910895CF93DF93EC0160E032
:100870000E941D04BE010E94EC03DF91CF910895F8
:1008800008950E942E060E9440042FEF84E39CE00E
:10089000215080409040E1F700C0000008950E9480
:1008A00041040E94DB2908950E9441040E94EC2922
:1008B00008950F931F93CF93DF93EC018B010E9458
:1008C000391A882309F449C0B801CE010E94451D98
:1008D000882309F442C0B801CE010E94E8038823AE
:1008E000E1F1B801CE010E94EF218823B1F1B801F6
:1008F000CE010E94CB27882381F1F80185818823CE
:1009000041F1C3308CE7D807D1F040F4C115FCE7C2
:10091000DF0791F0C130DC47A1F01BC0CB35ECE71D
:10092000DE07A9F0CC35FCE7DF0771F0CA35DC47FC
:1009300081F40E942F0F0DC00E944F040EC00E9430
:10094000370F0E94540409C00E94250F02C00E9464
:10095000330FC8010E94DE0301C080E0DF91CF9118
:100960001F910F910895CF93DF93EC0161E00E94F6
:100970001D04BE010E945904DF91CF9108950E9489
:10098000E9280E94E8040E94511808950E94EC048E
:100990000E94F2280895089581E008950895CF9364
:1009A000DF93D82F0E94CC04C82F882319F08D2FF5
:1009B0000E94CE048C2FDF91CF9108950895CF939C
:1009C000C82F0E94CB048C2F0E94CF04CF91089592
:1009D00080E00E94DF0408950E941B280E94DF042B
:1009E0000895CF930E941B28C82F80918201C817B9
:1009F00079F0C09382010E947E29609383017093F5
:100A0000840180938501909386018C2F0E94DF04DE
:100A1000CF910895009741F0EFE9FFE03197F1F7AA
:100A200000C000000197F6CF0895ADE0B0E0EBE123
:100A3000F5E00C947C34488759876A877B878C87DC
:100A40009D87882349F080918801909189010196C2
:100A500090938901809388018D8581110E94000EF9
:100A60008E010F5F1F4F87E0F80111928A95E9F719
:100A700086E0FE013896D80101900D928A95E1F743
:100A80008091BE0282FF12C08091D9029091DA0259
:100A9000892B61F00E94BF0D882319F082E00E942B
:100AA000F90E0E949B0D81110E94540E8D818111BF
:100AB0000AC029813A814B815C816D817E818F8161
:100AC0000E94160D05C0C8010E9428048111F1CFB3
:100AD0002D96E4E00C949834FC012481213021F41B
:100AE000808191810E94340A089593E3980F933195
:100AF00018F490E00E94A3180895CF938823B1F1D1
:100B0000C82F8CEF8C0F813AD0F46C2F80910001AC
:100B1000909101010E945428882349F06C2F809104
:100B20000001909101010E948D280E94620E6C2F9D
:100B300080910001909101010E948A280CC080E2FE
:100B40008C0F883058F4C77081E001C0880FCA95B7
:100B5000EAF70E94E30D0E94620E08C083E38C0F47
:100B6000833120F461E08C2F0E947505CF910895A8
:100B7000882319F19CEF980F913A40F4682F8091E7
:100B80000001909101010E948D280DC090E2980F04
:100B9000983060F4877091E001C0990F8A95EAF768
:100BA000892F0E94E90D0E94620E089593E3980F29
:100BB000933118F460E00E94750508951F93CF9358
:100BC000DF93182FEB010E947D05209741F08FE9FC
:100BD0009FE00197F1F700C000002197F6CF812F29
:100BE0000E94B805DF91CF911F910895893329F4B0
:100BF0006091F7027091F80204C06091F502709163
:100C0000F6020E94DE050895882321F00E94E30D7C
:100C10000E94620E0895882321F00E94E90D0E942F
:100C2000620E0895882321F00E94F30D0E94620E47
:100C30000895882321F00E94F90D0E94620E089504
:100C40000E94000E0E94620E089580910001909112
:100C500001010E9490280E94200608950E94F00D34
:100C60000E942506089592959F70963079F010F4B1
:100C7000925001C09A50923068F4803F69F018F4A5
:100C8000883E40F409C0843F29F406C0883E20F025
:100C9000813F11F080E0089581E00895FC012481F6
:100CA000222339F0808191810E94340A0E94330608
:100CB000089580E00895A0E0B0E0E1E6F6E00C944D
:100CC00077347C01EB01FC01D580068102950F7021
:100CD0000E94D90D8823E9F0DD20D9F08D2F807F87
:100CE000803451F080E28C0F883098F0011104C0FC
:100CF0008D2F807E803269F08091BE0282FF09C014
:100D000082E00E94F90E0E94D90D91E0C82EC926FA
:100D100001C0C12CBD2EB2948FE0B8228B2D90E083
:100D20008C30910508F0DEC1FC01EA5AFF4F0C94AB
:100D300061341D2F1F708D2F807F11F01295107F51
:100D4000DD2099F0112309F4ABC180E28C0F8830CB
:100D500010F0C11104C0812F0E94E30D03C0812F48
:100D60000E94F30D0E94620E9BC18C2F0E94B80559
:100D7000112309F4B7C180E28C0F883048F1CC23ED
:100D800039F1812F0E94F90D26C01D2F1F708D2F64
:100D9000807F803211F01295107FCC2321F0C1307A
:100DA00009F451C05CC08091BE0282FD17C0DD20F5
:100DB00049F0112329F0812F0E94E30D0E94620E59
:100DC00080E06FC180E00E94B805112309F48AC158
:100DD000812F0E94E90D0E94620E84C1DD20D1F0B6
:100DE000002309F456C0013021F4812F0E940D0E1A
:100DF00079C18091F302823008F474C1081372C182
:100E0000812F0E940406812F0E94240E812F0E94B0
:100E1000B60E68C1002369F08091F302823008F4B5
:100E200061C1013009F05EC10E94E00D812309F427
:100E300059C1812F0E940B06812F0E94240E812F01
:100E40000E94C20E4FC18091F902DD2021F080176F
:100E500008F448C11EC0081708F044C120C0DD20B6
:100E6000E1F00023B1F020E0F7014081518162817F
:100E70007381848195810E94EF03B7010E946A1FEC
:100E8000882309F40DC1F701868180FF09C18F70A5
:100E90008683812F0E94040625C101110CC1812F78
:100EA0000E940B061FC16D2D8C2F0E94750522C15B
:100EB0008D2F837081F5D11019C14C2F4295469525
:100EC0004770440F440F2C2F2F70042E01C0220FA7
:100ED0000A94EAF7C4FF08C08FE090E001C0880FD1
:100EE0004A95EAF7809501C080E09D2F96959695EA
:100EF0009370822B923049F058F4913019F00E948F
:100F00002109F4C00E941B09F1C00E942709EEC00C
:100F10000E941809EBC0DD2019F08D2F817001C0EF
:100F20008695882309F4E2C04C2F42954695477078
:100F3000440F440F2C2F2F70042E01C0220F0A944F
:100F4000EAF7C4FF08C08FE090E001C0880F4A951F
:100F5000EAF7809501C080E09D2F96959695937055
:100F6000822B923049F058F4913019F00E946D09AB
:100F7000BDC00E946709BAC00E947309B7C00E9431
:100F80003009B4C01D2F1F70DD2039F0812F0E9461
:100F900042098C2F0E940406A9C08C2F0E940B06C8
:100FA000812F0E944E09A2C0C23FD9F028F4C03F51
:100FB00041F0C13F51F170C0C33FC9F0C43F09F1D6
:100FC0006BC08091F902DD2021F0081708F08AC07B
:100FD00003C0801708F486C08D2F8F710E945B09B3
:100FE00081C08D2F8F71DD2009F460C077C0DD20B6
:100FF00029F08D2F8F710E94390974C00E94350924
:1010000071C08091BE0282FD06C08D2F8F71DD20E0
:1010100009F464C04BC08091F302823040F1DD20BE
:10102000C1F00E94BB0D843039F40E94EF0E8D2F69
:101030008F710E944E0955C08091F302081708F085
:1010400050C01D2F1F71812F0E94420963E0812F24
:1010500007C0081740F00E94EF0E64E08D2F8F71DB
:101060000E94D10E3EC081E00E94F90E3AC0DD2000
:1010700051F01D2F1F71812F0E94420963E0812FC3
:101080000E94D10E2FC081E00E94F90E023050F173
:1010900082E00E94F90E26C0DD2059F0002321F0E5
:1010A0008C2F0E947D051EC08D2F8F710E944209DA
:1010B00019C0002389F0C93329F48091F702909177
:1010C000F80204C08091F5029091F6020E940A0590
:1010D0008C2F0E94B80506C08D2F8F710E944E097B
:1010E00001C0C12C88EF8B0D843020F40E941B2896
:1010F0000E94DF04CE010E943306811105C01092C8
:1011000089011092880120C0DD2019F00111F7CF6C
:101110001BC00111F4CF20E0F701408151816281B1
:101120007381848195810E94EF03B7010E94711F32
:10113000882329F380918801909189010297F9F61B
:101140008C2F0E94F605DBCFCC2089F00E94BB0DCE
:1011500080FD0DC0F70115820E94B50D0E94420965
:10116000C7010E94D4080E94B50D0E944E09CDB758
:10117000DEB7E9E00C9493340F931F93CF93DF9382
:10118000EC01688179818D810E943F0A8C010E9467
:1011900079090E940B09B801CE010E945B06DF911C
:1011A000CF911F910F910895CF93DF93FC0124817C
:1011B0002223D1F0EC010E94B30481110FC00E94E0
:1011C000D90D882389F08D81882371F08091BE022A
:1011D00082FF0AC082E00E94F90E06C0CE010E9482
:1011E000BC08CE010E943404DF91CF910895A6E09F
:1011F000B0E0EDEFF8E00C947E342696E2E00C943B
:101200009A34A7E0B0E0E7E0F9E00C947E3427964A
:10121000E2E00C949A34089508950E940C09089510
:101220000E940D0908950E9410098093A30108955A
:101230000E94130908959091A301892B0E9413091C
:1012400008959091A30189230E9413090895909114
:10125000A30189270E94130908950E940C0908958B
:101260000E942D098093A201089580E00E94300918
:10127000089591E001C0990F8A95EAF7892F0E949D
:101280003009089521E030E001C0220F8A95EAF785
:101290008091A201822B0E943009089521E030E064
:1012A00001C0220F8A95EAF720958091A20182233E
:1012B0000E943009089521E030E001C0220F8A9594
:1012C000EAF78091A20182270E9430090895909147
:1012D000A201892B0E94300908959091A2018923CF
:1012E0000E94300908959091A20189270E94300937
:1012F00008950895962F9770A1E001C0AA0F9A95BE
:10130000EAF793E0769567959A95E1F7FB01EE0F82
:10131000FF1F6E0F7F1FFA01E60FF71F40E050E03E
:10132000682F70E090819B01042E02C036952795AE
:101330000A94E2F72170219529272A23292721934E
:101340004F5F5F4F4330510569F708959B01782F38
:10135000777043E0969587954A95E1F7FC01EE0F8B
:10136000FF1F8E0F9F1FF901E80FF91F40E050E0AB
:1013700080E0219130E0072E02C0369527950A942F
:10138000E2F721703327042E01C0220F0A94EAF7F6
:10139000822B4F5F5F4F4330510559F70895282F37
:1013A000903FB9F0862F622F9A3058F4253048F4D8
:1013B00070E025E0929F600D711D11244DE851E011
:1013C00006C09C5F923028F470E04AE851E00E9429
:1013D0007A090895903FC9F09A3070F4853060F42E
:1013E000282F30E06DE871E0A901E5E09E9F400DF7
:1013F000511D1124CA0106C09C5F923030F46AE886
:1014000071E090E00E94A609089580E00895CF92CF
:10141000DF92FF920F931F93CF93DF936C010091A4
:10142000A2018091A301082BC3E0D0E010E0C80125
:101430000C2E02C0959587950A94E2F780FD04C0B2
:101440002197A8F7F12C07C0FC2EB6018C2F0E9423
:101450001F120197A9F38F2DDF91CF911F910F914B
:10146000FF90DF90CF900895CF93DF93EC010E941F
:10147000070ABE010E941F12DF91CF9108951F93AA
:10148000CF93DF93EB0190918701992321F0CB015A
:101490000E94340A13C0882349F0CB010E94070A36
:1014A000182F682FCE010E94CF0904C0CB010E94E3
:1014B000EA09182FBE01812F0E941F12DF91CF91E0
:1014C0001F910895E1E0F0E0DF0102C0AA0FBB1F09
:1014D0006A95E2F7BD01DF0102C0AA0FBB1F4A9562
:1014E000E2F7AD01462B01C0EE0F2A95EAF7942FE3
:1014F0009823491302C08E2B0895E0958E230895FA
:10150000242F462F682F8091A2010E94620A0E9418
:10151000300908951F93CF93DF93C091A40117E082
:101520008091A501C817A1F0D0E01C9FF0011D9F7C
:10153000F00D1124EA55FE4F208131814281538103
:101540006481758186810E9401092196C770E8CF68
:10155000DF91CF911F9108952091DE013091DF013D
:101560004091E0015091E1016091E2017091E3014D
:101570008091E4010E9401090895CF93DF93809147
:10158000E40182958F7009F04EC08091E3018823B9
:1015900009F449C08091A4014091A5015091DF0157
:1015A0006091DE01C091E001D091E10177E0841704
:1015B000D1F190E0789FF001799FF00D1124DF01C7
:1015C000AA55BE4F14962C911497222349F11196D7
:1015D0002C911197251324C02C91261321C0159608
:1015E0002C91159721111CC012962D913C911397A7
:1015F0002C1B3D0B283C310598F48091E4018F7041
:1016000080618093E401E455FE4F80818F7080619A
:1016100080838EED91E00E94D4080E948A0A03C064
:1016200001968770C4CFDF91CF9108952091A401D6
:101630009091A50157E02917A9F030E0529FF001E1
:10164000539FF00D1124EA55FE4F7181761306C0A9
:101650007081781303C07581741306C02F5F3F4FEC
:101660002770E9CF80E0089581E00895A4E1B0E01B
:10167000ECE3FBE00C9471348C0186E0F801DE01B0
:101680001F9601900D928A95E1F7D80114967C90EF
:1016900014971596EC908EED882E81E0982E80910F
:1016A000E20181111CC0772009F44CC0EE2009F43E
:1016B00046C0C8010E944E06F82E882309F43FC098
:1016C00087E0F801AEEDB1E001900D928A95E1F767
:1016D0008EED91E00E946C050E94BD0A4EC1F8019A
:1016E00050806180C280D38060E08EED91E00E94E6
:1016F0001D045C01F090E3018091E0019091E10113
:10170000FF2009F4D0C09601281B390B283C310575
:1017100008F077C07720B1F08091E401382F307F56
:101720002091DF01D80111969C911197332369F024
:101730002917A9F1C8010E944E0681113AC0C801BB
:101740000E94D408FF24F3946CC1291316C0209181
:10175000DE019C91291311C0E1100FC08F708061D0
:101760008093E4010E94AC0A8EED91E00E94D408BF
:101770008091E401F801868325C1E11001C140E0B8
:10178000662D852D0E94160B882309F413C16EED7A
:1017900071E0C5010E94661F8111FEC00BC120913E
:1017A000DE01F80190812913C5CFE110C3CF8683F4
:1017B000B2C0EE2021F22091E401822F82958F7039
:1017C00090E002978CF08091DE019091DF01998783
:1017D0008887DB86CA868091E2018C871D862E87EA
:1017E000CE0108960E94D40887E0F801AEEDB1E082
:1017F00001900D928A95E1F70E94BD0A0E94AC0A01
:10180000A1CF8091E401982F907F89F46C2DDA8A22
:10181000C98A452D562D7A89872D9E2D0E94F7085D
:101820008EED91E00E94D40887E0D401BDC07720FE
:1018300009F488CF2091DF01F8019181291311C0AB
:101840002091DE01908129130CC0E1100AC086832B
:10185000C8010E94D40887E0D4011D928A95E9F757
:10186000E0C0C8010E944E06882309F468CFEE202C
:1018700009F465CF2091E401822F82958F7090E06A
:1018800002970CF4B1CF8091DE019091DF019A8331
:101890008983DC82CB828091E2018D831E822F833B
:1018A000CE0101969FCFF601E81BF90BE83CF1054C
:1018B00008F054C0772009F445CFFE2CEE2009F43F
:1018C0003ECF9091DF01D80111968C91119798131A
:1018D00037C09091DE018C91981332C09091E40151
:1018E00090FD25C0892F82958F70282F30E021151B
:1018F0003105E9F016969C9316972F30310559F073
:101900008F5F982F9295907F16968C9116978F7077
:10191000892B16968C93C8010E94D40887E0F801A1
:10192000AEEDB1E001900D928A95E1F726C087E017
:10193000F801AEEDB1E001900D928A95E1F771C02A
:10194000C8010E944E0681114FCF8091E401816051
:101950008093E401C8010E94D40863C06C2DDA8A28
:10196000C98A452D562D7A89872D9E2D0E94F7080C
:1019700087E0F40111928A95E9F70E94AC0A51C000
:101980008091E40181608093E4016EED71E0C50116
:101990000E946A1F8823B1F08EED91E00E94D40866
:1019A000EEEDF1E087E0DF011D928A95E9F70E94F4
:1019B000AC0A08C040E0662D852D0E94160BE82E6B
:1019C000882311F0F12C2DC05F86688A8F85988955
:1019D0000E94340A292F22952F70243020F49F7002
:1019E000223028F009C02A50223088F015C09923EF
:1019F00051F0811108C014C0992329F0D80116961E
:101A00009C91907F69F0805E883030F409C0803FFF
:101A100038F0815F833020F0C8010E94D408EF2C99
:101A2000FE2C8F2D6496EFE00C948D34AEE0B0E088
:101A3000ECE1FDE00C947D34288739874A875B8789
:101A40006C877D878E87CE0108960E94360B88238F
:101A500061F06C856623A9F1288539854A855B8507
:101A60007D858E850E9401092CC087E0FE01389695
:101A7000DE01119601900D928A95E1F76C8566233F
:101A800001F12091A50130E0C901019687709927E5
:101A90004091A40150E084179507E1F16D8397E030
:101AA000929FD001939FB00D1124AA55BE4FFE0105
:101AB000319601900D929A95E1F78093A5010E94CD
:101AC0008A0A17E08091A4019091A501891779F104
:101AD000189FC00111248A559E4F0E94360B8823FF
:101AE00031F1E091A4011E9FF0011124EA55FE4F4F
:101AF00020813181428153816481758186810E9478
:101B000001098091A40190E0019687709927809344
:101B1000A401D8CF0E942E061092A5011092A40114
:101B2000EEEDF1E087E0DF011D928A95E9F72E9650
:101B3000E3E00C9499348091D9029091DA02892BD8
:101B400089F00E9472292091F0013091F101AC01DD
:101B5000421B530B81E02091D9023091DA024217E7
:101B6000530708F480E0817008958091EF01869515
:101B70008695869508958091EF01877008950E945B
:101B800072292091ED013091EE01821B930B20917F
:101B9000D9023091DA028217930740F08091EF0169
:101BA00082FB882780F991E0892701C080E081705D
:101BB00008959091EF01977081E009F480E0089515
:101BC0008091FD0108959091FD01892B8093FD0185
:101BD000089580959091FD0189238093FD010895DA
:101BE0001092FD0108959091FC01892B8093FC01D6
:101BF000089580959091FC0189238093FC010895BC
:101C00001092FC0108958091F301089508950E94B7
:101C1000060E08950E94070E0895CF939091F30148
:101C20009823891779F0C82F0E9472299093F101A7
:101C30008093F0018091F3018C2B8093F3018C2F22
:101C40000E940A0ECF9108959091F301292F282325
:101C500099F0809589238093F301882319F00E94DD
:101C6000722902C080E090E09093F1018093F0012E
:101C70008091F3010E940A0E0895CF939091BE02C5
:101C800092FF10C09091F301981761F0C82F0E9445
:101C900072299093F1018093F001C093F3018C2F8E
:101CA0000E940A0ECF9108958091F301882349F094
:101CB0001092F3011092F1011092F00180E00E9465
:101CC0000A0E0895CF93DF93E0910001F091010196
:101CD0008091FD018083E0910001F09101019081EC
:101CE0008091FC01892B80838091F3018823E9F0A6
:101CF0008091D9029091DA02892B29F00E949B0DE4
:101D000081110E94540EE0910001F0910101908137
:101D10008091F301892B80838091000190910101D2
:101D20000E94482881110E94540EC0910001D09158
:101D3000010148E050E065EE71E0CE010E94AE3452
:101D4000892B59F088E0FE01A5EEB1E001900D92DB
:101D50008A95E1F7CE010E942F28DF91CF91089557
:101D60000E94060E08950E94B00E08959091F2010F
:101D7000292F2823821729F0892B8093F2010E94B2
:101D8000B30E08959091F201292F282331F0809508
:101D900089238093F2010E94B30E08950E94060EDB
:101DA00008959091BE0292FF17C098E0899F90011C
:101DB0001124262B2093EF010E9442090E947229D0
:101DC0009093EE018093ED018091EF0186958695C9
:101DD00086950E94CE0E08950E94420908951092A1
:101DE000EF011092EE011092ED0180E00E94CE0E04
:101DF00008959091EF01809589238093EF01282F1A
:101E0000277069F4981759F09091BE0292FF07C0AD
:101E10008695869586950E944E090E94EF0E08953C
:101E20009091BE0292FB222720F9281769F080FBCF
:101E300092F99093BE028091BD029091BE020E94E1
:101E4000590F82E00E94F90E08958091BE0282FB34
:101E5000882780F991E089270E94100F089581E07A
:101E60000E94100F089580E00E94100F08956FEFF8
:101E70007FEF80E090E00E940735089580E090E0D9
:101E80000E94D334863E9E4F19F40E94CE190895C5
:101E900080E0089582E090E00E94CB34089583E0D2
:101EA00090E00E94CB34089584E090E00E94D33407
:101EB0000895BC0184E090E00E9407350895AB01CD
:101EC000BC018FE090E00E94FB340895AB01BC019F
:101ED00083E190E00E94FB34089560E070E0CB0164
:101EE0000E94660F089560E070E0CB010E945F0FD2
:101EF0000E946D0F0895A8E0B0E0E1E8FFE00C94C7
:101F00007E3466EE7EEF80E090E00E94073560E070
:101F100082E090E00E94E93460E083E090E00E947B
:101F2000E9341092A30160E074E184E090E00E9443
:101F3000073560E086E090E00E94E9346FEF87E0CB
:101F400090E00E94E93440E050E0BA0188E090E07F
:101F50000E94FB3460E084E290E00E94E93460E09B
:101F600087E190E00E94E93460E08CE090E00E941C
:101F7000E93460E08DE090E00E94E93419821A8231
:101F80001B821C821D821E821F82188648E050E040
:101F900068E170E0CE0101960E94D93440E050E043
:101FA000BA0180E290E00E94FB3480E00E94E719D1
:101FB0000E941C1A0E94730F2896E2E00C949A3437
:101FC0000E947B0F0895A6E0B0E0E9EEFFE00C94DC
:101FD0007C340E9472298C018091FE019091FF0156
:101FE0000817190781F019821A820E947229682F36
:101FF00049815A81792F80E090E00E941505109365
:10200000FF010093FE012696E4E00C9498340E94B0
:102010003513609316027093170280931802909301
:10202000190260931202709313028093140290932A
:10203000150208950E9435136093160270931702DB
:10204000809318029093190260930E0270930F020E
:10205000809310029093110208950E9435136093AB
:1020600016027093170280931802909319026093DE
:102070000A0270930B0280930C0290930D02089554
:1020800081E008950E945215089508950E94451018
:1020900008950E94451008950E94491008950E94D5
:1020A000451008950E944F1008950E94451008950C
:1020B0008FE493E10E94B6170E94751B0E94961E42
:1020C0000E9455100E94521008950E9446100E94CE
:1020D000451008950E946E130E94DE0408950E9428
:1020E00069290E940F130E942C1A0E946F150E94EA
:1020F00069230E94B1140E946A100E94AD1F0E94C1
:1021000079150E94FB170E944C1008950E945215E9
:1021100081110E94B4210895A6E0B0E0E2E9F0E167
:102120000C9475340E944010811103C00E94E30F8B
:1021300053C00E94D61480E0E82E82E0F82E67019A
:1021400000E0F60111916F01802F0E949E138127FC
:102150000F5F0A3019F08823A1F302C0882331F3FE
:1021600080911A0281FD0E94A4130E944210A82EA1
:1021700010E099249394812F0E949E13B82EF701AA
:10218000C080C82609F100E0DD24D3948C2D8D2178
:10219000A9F0AA2099F009831A830E9472299C83CE
:1021A0008B839D8291E08B2D8D2109F490E04981F4
:1021B0005A816B817C818D810E9415050F5FDD0C3A
:1021C000053021F7F701B0821F5FFFEFEF1AFF0A1A
:1021D0001A3089F60E9407100E9486100E94F3238D
:1021E00081110E941A100E94511881110E942D1015
:1021F0000E94F1042696EBE00C9491341F93CF9348
:10220000DF930E942412EC01C11582E5D807C8F5BE
:10221000C11590E5D90708F0BBC0C83ED105C0F490
:10222000C03ED10508F0DDC0C53AD10550F4C43038
:10223000D10508F0D6C0219709F0D0C081E090E028
:10224000D1C0CD3CD10508F4C9C0CE019065CAC04B
:10225000C11580E4D80708F05AC0C11590E2D9072B
:1022600008F0AFC0C11581E0D80708F4B7C08D2FC2
:102270000E94C012182FCE0199270E9424121F71AC
:10228000ABC0C03892E5D90720F5C03682E5D80743
:1022900008F061C0C03492E5D90708F04AC0C032E6
:1022A00082E5D807F0F54C2F4695469590E2499F78
:1022B000A0011124C37021E030E0C90102C0880FE1
:1022C000991FCA95E2F7EA01C82BD92BCE019D6868
:1022D00089C0C03C92E5D90768F48C2F8F71C03A51
:1022E000D24508F04CC090E0D82FCC27CE01846FA7
:1022F000906A78C0C03E82E5D80708F06FC0CF7101
:10230000DD27DC2FCC27CE01806F906A6BC0CE0119
:1023100099270E942412CC27DF70D06A8C2B9D2B2A
:1023200061C0CF71D0E0DC2FCC27CE01816F906AE5
:1023300059C08C2F8F718695869590E2899F900168
:102340001124C37081E090E002C0880F991FCA95E4
:10235000E2F79C6811C08C2F8F718695869590E26C
:10236000899F90011124C37081E090E002C0880F22
:10237000991FCA95E2F79A68822B932B33C00E946B
:10238000C0128F7190E0D82FCC27CE0190622AC066
:102390008C2F8F710E94C01295E0D695C7959A95A3
:1023A000E1F7CF70D0E0DC2FCC27282F30E084FF7E
:1023B00005C084E0220F331F8A95E1F7D069CE0172
:1023C000DBCF8D2F8F710E94C012182FCE0199275D
:1023D0000E9424121F719062912B04C080E090E053
:1023E00001C0CE01DF91CF911F91089520915F022E
:1023F00030916002232B01F5703F39F4603FE1F426
:102400008091D5029091D60208957A3038F46530E3
:1024100098F4462F672F0E94992608957D3F21F456
:10242000683050F441E005C07C3F31F4683020F45E
:1024300040E00E94A526089580E090E008950E9463
:10244000F6110E94FE1008958238910569F1B0F4EA
:102450008133910509F475C048F48932910509F476
:1024600067C08A32910509F471C0089585339105DA
:1024700009F459C089339105B9F00895833E910557
:1024800089F138F4803E9105D1F0823E910529F121
:102490000895863E9105C9F1873E9105D9F1843EA4
:1024A000910509F06CC027C02091BD0220FD57C0E6
:1024B00021FD55C02091BE0223FD5BC0089580918F
:1024C000BD0280FD48C08091BE0280FF48C080915F
:1024D000BD0284FD46C083EE51C08091BD0282FFE3
:1024E0003CC0F5CF8091BD0282FD37C08091BE0215
:1024F00080FD35C0ECCF8091BE0281FF36C0809157
:10250000BD0284FD2EC087EE39C08091BD0283FFDD
:102510002AC0F5CF8091BD0283FD25C08091BE0207
:1025200081FD23C0ECCF8091BD0285FD22C01FC07C
:102530008091BD0285FD1BC08091BE0283FF19C042
:102540000AC08091BD0286FD16C017C08091BD02F1
:1025500086FD13C010C089E311C082EE0FC080EE6B
:102560000DC080E00BC086EE09C084EE07C085E395
:1025700005C089E203C08AE201C081E390E00895CA
:102580009091BD0292FF10C041E0282F24712430A9
:1025900009F040E031E0282F2871283009F030E0C0
:1025A000431711F02CE0822793FF10C041E0282F41
:1025B0002471243109F040E031E0282F28712831BE
:1025C00009F030E0431711F02CE082273091BE0271
:1025D00030FF10C051E0282F2171213009F050E068
:1025E00041E0282F2871283009F040E0541711F0FD
:1025F00029E0822731FF10C041E0282F21712131CD
:1026000009F040E031E0282F2871283109F030E04E
:10261000431711F029E0822794FD877E08951092D8
:10262000B9021092BA021092BB021092BC02089535
:10263000CF92DF92EF92FF926B017C010E945215C4
:1026400081110EC00E947E29C61AD70AE80AF90A2B
:10265000C092B902D092BA02E092BB02F092BC02E0
:10266000FF90EF90DF90CF9008950F931F930E94FB
:102670005215882319F00E947E290EC00E947E29DF
:102680000091B9021091BA022091BB023091BC02B4
:10269000600F711F821F931F1F910F91089580E09B
:1026A00008950E94370F08950E94D6142FEF86E7F1
:1026B00091E0215080409040E1F700C000000E946E
:1026C000D61480E00E949E1380FF04C00E94511324
:1026D0000E94DB2908950E94541308950E943E0F22
:1026E000811102C00E94E00F0E944A0F80931A02DB
:1026F0000E94540F9093BE028093BD020E946B1300
:102700000E944F0F0E9418098091A2010E942D097A
:102710000895E82FF0E0E653FD4F2081822F90E0EE
:1027200021E030E002C0220F331F6A95E2F7282330
:10273000392381E0232B09F480E00895E82FF0E0AD
:10274000E653FD4F80810895089580EA8A95F1F758
:10275000089500C008950E94A513089508950E9449
:10276000AE1308950E94AF1308950E94AE1308950A
:102770000E94B51308950E94AE130895A5E0B0E03D
:10278000E4ECF3E10C947B340E9452156091D40286
:102790008823E9F185E0F82E8E010F5F1F4FF801C5
:1027A0008F2D11928A95E9F7862F90E0B801865314
:1027B0009D4F0E948715882389F08091BF0290E089
:1027C00045E050E0B80186539D4F0E94AE3421E0B1
:1027D00020931B02892B61F410E016C080911B022C
:1027E0008823D1F3F8011192FA94E9F710921B02B1
:1027F000A091BF02B0E0A653BD4F85E0F801019063
:102800000D928A95E1F711E00E94B2130DC070E0BD
:1028100066537D4F8091BF0290E086539D4F0E948A
:1028200010160E94BB1310E0812F2596E5E00C9452
:102830009734F894E82FE295EF70F0E031A1282F5B
:102840002F7081E090E001C0880F2A95EAF7982F59
:102850009095932391A392A1892B82A378940895B4
:102860000F931F93CF93DF93C4E4D1E089918F3FFF
:1028700011F00E94191481E0C934D807B9F7C9E4EE
:10288000D1E00EE411E089918F3F11F00E941914FC
:102890000C171D07C1F7DF91CF911F910F9108957C
:1028A000EF92FF920F931F93CF93DF93C62FD0E049
:1028B000CC5BDE4F28812F3F09F44EC0042F162F2A
:1028C0007C01F894E22FE295EF70F0E081A1422FB5
:1028D0004F7021E030E001C0220F4A95EAF7822BC9
:1028E00081A382A12095282322A378940E94A91372
:1028F00069E471E0F701A7014B5F5F4FF12C302FC6
:102900003095DB012D91BD012F3FB1F0822F8295D3
:102910008F7090E0DC0190968C9190E02F7002C057
:10292000959587952A95E2F780FD06C08081802BDA
:102930008083FF24F39403C08081832380833196B6
:10294000E417F507F1F688818F3F11F00E94191402
:102950006F2D812F0E94AB13CDB7DEB7E6E00C944C
:1029600096348091020180910201811102C095E0AC
:1029700001C090E09093D40285E0891B8093BF0250
:102980000E9430148AE0EAECF2E0DF01982F1D92F9
:102990009A95E9F7E0ECF2E0DF011D928A95E9F7FC
:1029A00085E00E9418150E94B8130895AAE0B0E0CF
:1029B000ECEDF4E10C947A348E010F5F1F4F8AE046
:1029C000F80111928A95E9F7F12CEE24E3944E2D4B
:1029D0006F2DC8010E945014F394EE0CF5E0FF1225
:1029E000F6CF4AE050E0B80180EC92E00E94AE34AD
:1029F00021E0009709F420E0892B41F08AE0F801FA
:102A0000A0ECB2E001900D928A95E1F76091D402BA
:102A100070E066537D4F45E080EC92E00E9419150E
:102A2000182F0E94BE13812B2A96E6E00C94963450
:102A30000895EF92FF920F931F93CF93DF937C0142
:102A40008B01C42F222349F081E080931E020E9453
:102A5000722990931D0280931C0280911E028111A5
:102A600002C080E01AC080911C0290911D020E9459
:102A70008A290597B0F3D0E0AE01B701C8010E94E2
:102A8000AE34892B39F0AE01B701C8010E94BB34C6
:102A900081E001C080E010921E02CDB7DEB7E6E013
:102AA0000C9496348091210281110DC00E942C3427
:102AB000811102C082E001C081E080932102823056
:102AC00011F40E94273481E090912102913009F0A5
:102AD00080E008950E94521591E0892708950E9490
:102AE0006A15809302010E94521581110E94BF1540
:102AF00008950E945215811102C00E94C2150895C6
:102B000081E0909122029A3008F080E008950F93BE
:102B10001F93CF93DF93EC018B01809122028A30C7
:102B200038F4B801CE010E940D1681111DC00AC0F3
:102B300080911F02909120020E948A29843F914037
:102B400080F715C0809122028F3F19F08F5F80932C
:102B50002202809122028A3060F00E9472299093B2
:102B6000200280931F0203C01092220202C080E064
:102B700001C081E0DF91CF911F910F9108950E94D4
:102B8000AA2B08950E94AD2B0895A0E0B0E0EBECD5
:102B9000F5E10C9479347901C82F880FDD0B4115CC
:102BA0005105A9F0FE0193E0EE0FFF1F9A95E1F7A2
:102BB000ED5FFE4F818192818D5D9D4F208130E0E0
:102BC0004217530708F49A01A9010E94BB34CE01B1
:102BD0000E94952CD82E8823D1F001151105B9F04B
:102BE00083E0CC0FDD1F8A95E1F7FE01ED5FFE4F1C
:102BF000438150E00417150708F4A801CD5FDE4FAC
:102C00006C817D816D5D7D4FC7010E94BB348D2D30
:102C1000CDB7DEB7E7E00C9495340E942D170895E8
:102C20000E944E170895A4E0B0E0E9E1F6E10C94AB
:102C30007C346091430270914402809145029091EE
:102C400046020E949929643671058105910528F193
:102C50000E943513DC01CB010296A11DB11D8983B1
:102C60009A83AB83BC8300E010E020E030E044E0D6
:102C700050E0BE016F5F7F4F84E00E94C515182FA2
:102C8000882361F00E947E2960934302709344027E
:102C9000809345029093460201C011E0812F249653
:102CA000E4E00C949834A1E0B0E0E9E5F6E10C949E
:102CB0007334762E4A015901680101E010E09E014B
:102CC0002F5F3F4F40E050E060E070E00E94C5158C
:102CD000182F882379F1F4016081718182819381B9
:102CE0000E9499296436710581059105E0F08701FC
:102CF000950140E050E060E070E0872D0E94C5152E
:102D0000182FB701C6010E94AE1F91E02981281338
:102D100090E01923A1F00E947E29F4016083718361
:102D2000828393830CC0B701C6010E94AE1F9981B4
:102D30008913DDCFA701B601C5010E94BB34812FE5
:102D40002196EDE00C948F34A4E0B0E0EAEAF6E1DD
:102D50000C947A3400914E0110914F01095F1F4F7E
:102D600084E0E82EF12C9E012F5F3F4F4FE352E0AD
:102D700063E082E00E945316182F882321F0CE01D1
:102D800001960E949624812F2496E6E00C949634B6
:102D9000A5E0B0E0EEECF6E10C9478346B01009124
:102DA0004E0110914F010F5F1F4F85E0E82EF12C6F
:102DB0009E012F5F3F4F4BE352E061E080E00E94B5
:102DC0005316882349F095E0FE013196A6E3B2E060
:102DD00001900D929A95E1F795E0E6E3F2E0D601D5
:102DE00001900D929A95E1F72596E8E00C949434C1
:102DF000A0E0B0E0EEEFF6E10C9476347C015B01EC
:102E00006A010E948015811103C001E010E002C038
:102E10000AE010E0C1E0D0E0B501C701F601099574
:102E2000811115C021960C171D0794F0CC9F9001BD
:102E3000CD9F300D300D112480E090E045E34A95A0
:102E4000F1F70000019682179307C1F7E5CF81E003
:102E5000CDB7DEB7EAE00C9492340F931F93CF9373
:102E6000DF93EC018B0148EC56E10E94F8168111CA
:102E700002C080E00EC044EA56E1B801CE010E94D3
:102E8000F8168823B1F343E156E1B801CE010E9460
:102E9000F816DF91CF911F910F910895A4E0B0E053
:102EA000E4E5F7E10C947C3400914E0110914F0160
:102EB000C801019625E0FB01DC0101900D922A95E5
:102EC000E1F765E070E00E94AE1FF8018083CE015B
:102ED00001960E948B2489819A81AB81BC81F80183
:102EE00087839087A187B28764E070E0CE01019666
:102EF0000E94AE1FF801868363857485858596855B
:102F00000091320210913302209134023091350247
:102F1000601771078207930751F060933202709334
:102F2000330280933402909335020E941813249642
:102F3000E4E00C9498340E947E2E0E946F100E9450
:102F40008B2E08950E94902E0E948C100E94AA2E13
:102F500008950E9409290E94642E0E9458100E9420
:102F60009B170E94A2170E946510FBCF90938101CE
:102F700080938001089508950E94BB170895ACE0E6
:102F8000B0E0E5ECF7E10C947E344F835887698715
:102F90007A878B879C8786E0FE013796DE01119643
:102FA00001900D928A95E1F729813A814B815C81EC
:102FB0006D817E8180E090E02C96E2E00C949A3462
:102FC000ACE0B0E0E6EEF7E10C947E340E94BF176F
:102FD00080E090E02C96E2E00C949A3421E030E01E
:102FE00001C0220F4A95EAF7662311F0822B08955B
:102FF000209582230895E0915001F09151010995A7
:103000000E94BC170E94BB170895CF9367E472E03B
:103010008EE492E00E949728C82F882321F08EE446
:1030200092E00E943A2890914F0286E0EEE4F2E0AE
:10303000DF01282F1D922A95E9F790934F02A7E40C
:10304000B2E001900D928A95E1F781E0C11103C0D1
:10305000911101C080E08170CF910895ACE0B0E0A3
:10306000E4E3F8E10C947E344F8358878B879C8788
:103070007195619569877A8786E0FE013796DE0152
:10308000119601900D928A95E1F729813A814B8141
:103090005C816D817E8180E090E02C96E2E00C9472
:1030A0009A34E0915201F091530140914E025091B7
:1030B0004F026091500270915102809152029091A2
:1030C00053020995F42FE52FCB0120934E02309344
:1030D0004F02F0935002E09351026093520290939A
:1030E0005302A9016F2F7E2F0E942E18F42FE52F77
:1030F000CB0120934E0230934F02F0935002E093A5
:1031000051026093520290935302A9016F2F7E2FB8
:103110000E94E01720934E0230934F0240935002DA
:103120005093510260935202709353020E9405180B
:10313000811103C080914D0202C081E090E01092A5
:103140004D02817008959C01215D310928303105BF
:1031500050F44FE2480F80914F020E94EE17809387
:103160004F020E9405180895FC012081318120380A
:10317000310534F02F573109318320838FE70895CB
:1031800020388FEF380734F421583F4F31832083A4
:1031900080E8089511821082822F0895A1E1B0E0A5
:1031A000E4EDF8E10C947B344C87888B998B152FD8
:1031B000F62E072FCE01079625E0FC0111922A95E5
:1031C000E9F720915A022A3008F052C00E94911962
:1031D000892B09F048C010925A028B8540E087FD88
:1031E00036C060E0812F0E94EE17182F80915802A0
:1031F00090915902009749F544E16F8188850E94BA
:10320000A8192091560230915702820F931F909374
:1032100057028093560244E169858A850E94A81965
:103220002091540230915502820F931F90935502C2
:103230008093540286E592E00E94B418F82E84E54B
:1032400092E00E94B418082F13C0019707C061E0F4
:10325000812F0E94EE17182F84E190E0909359027D
:103260008093580205C080915A028F5F80935A0262
:103270001D87FE860F8786E0FE013C96DE011196D3
:1032800001900D928A95E1F729813A814B815C8109
:103290006D817E8180E090E06196E5E00C9497344A
:1032A00080912B0190912C012DE7AC01249FC0014E
:1032B000259F900D112408959C01893F910538F4B4
:1032C00081E090E090932C0180932B010895EDE72D
:1032D000F0E0BF010E943934A901481B590BCA0113
:1032E000BF010E94393470932C0160932B01089523
:1032F000A4E0B0E0EEE7F9E10C947C3489836A83C2
:103300004B832C8304E610E024E030E0AE014F5FF5
:103310005F4F60E084E10E94E72A2496E4E00C9489
:1033200098340F931F9304E610E025E030E0AC01E1
:1033300064E084E10E940E2B1F910F9108950E947A
:10334000F72920E040E060E080E00E9478190895CD
:10335000681720F4861B682F21E002C0681B20E05C
:10336000469FA0011124649FF001659FF00D112478
:1033700040912B0150912C01E49FC001E59F900DDD
:10338000F49F900D1124880F892F881F990B919518
:10339000222319F0919581959109089585E290E095
:1033A0000E94CB348D3B81F486E290E00E94CB34C6
:1033B000883851F487E290E00E94CB3491E08F3955
:1033C00009F090E0892F01C080E081700895CF93CB
:1033D000C82F811102C06FEF01C06DEB85E290E054
:1033E0000E94E934C11102C06FEF01C068E886E2B3
:1033F00090E00E94E934C11102C06FEF01C06FE993
:1034000087E290E00E94E934CF910895089588E220
:1034100090E00E94CB34682F70E080E090E0089547
:103420000895CF93C62F0E94101A6C2F88E290E067
:103430000E94E934CF91089580E00E94E71960E08E
:1034400070E0CB010E94111A0E94A6250E94F82666
:1034500081E00E94E71908950E94061A0E94071A47
:103460000E94101A0E94CE19811102C00E941C1ADB
:1034700008959C01FB018581882351F0A9015757CC
:103480004038510530F4C9010E94082780E00895B2
:1034900081E008952FEFFC0120830895EF92FF92C1
:1034A0000F931F93CF93DF93EC01162F20915F02B0
:1034B000309160028881232B61F08E3F09F00CC1AE
:1034C0008981833008F4FFC08550833008F004C13F
:1034D000FAC08B3009F4E2C038F5853009F475C0C4
:1034E000B8F48230E9F130F4813009F0F1C019828A
:1034F00089E082C0833009F45BC0843009F0E8C001
:103500004B816A8189810E94ED249C838D83E4C074
:10351000873009F468C008F463C0883009F463C0D8
:10352000893009F460C0D4C0803109F490C060F4DF
:103530008D3009F45EC008F459C08E3009F45EC0C5
:103540008F3009F46CC0C4C0823109F487C008F41C
:1035500081C0833109F492C08E3F09F4B4C0B8C071
:103560008981823041F0833069F0813009F0B0C048
:103570000E947E2902C00E94071A9A838B837C8353
:103580006D83AAC08091610290916202892B09F437
:10359000A3C07E0122E0E20EF11C00E0802F0E9419
:1035A0009E13F70181937F010F5F0A30B9F794C032
:1035B0008981823009F08CC06A817B818C819D81F8
:1035C0000E9467340E94111A87C02C813D813227E6
:1035D000232732274B816A8189810E940E257CC076
:1035E0000E94A62579C08FEF888376C00E94AF26FF
:1035F00033C00E94B12699838A836EC089819A81E3
:103600009827892798276B8170E06D31710508F044
:1036100063C0AE014C5F5F4F0E94B4265DC08091D5
:10362000610290916202892B09F456C089819A81C6
:103630009827892798276B8170E06D31710508F014
:103640004BC0AE014C5F5F4F0E94D72645C00E9421
:10365000F82642C00E94DA2489833EC089819A817B
:103660009827892798276B8170E06D317105A0F547
:10367000AE014C5F5F4F0E94F2252EC089819A8176
:103680009827892798276B8170E06D31710520F5A7
:10369000AE014C5F5F4F0E9414261EC080916102F4
:1036A00090916202892BC1F0CE010E94532DFFEF51
:1036B00021EE84E0F15020408040E1F700C000009E
:1036C0000E94DB2909C0612FCE010E94761B04C035
:1036D000612FCE010E944A1A612FCE010E94532D04
:1036E000CDB7DEB7E6E00C9496340895A8E0B0E0DC
:1036F000ECE7FBE10C947A34603209F05FC1DC0145
:103700001196EC9111974E2F50E04E30510508F074
:1037100055C18C01FA01EE59FF4F0C94613488E0D9
:10372000ECE3F1E0DE01119601900D928A95E1F74C
:1037300080E2F80111928A95E9F786E0D8018C932E
:1037400011961C92119712961C92129713961C9226
:10375000139788E0FE013196149601900D928A9598
:10376000E1F72CC18CE2FD01808381E0818312822C
:10377000138224C1DC0113968C91139790E0982F4B
:10378000882712962C91820F911D092E000CAA0BEE
:10379000BB0B35E0880F991FAA1FBB1F3A95D1F7C5
:1037A000AC01BD01405E5F4F6F4F7F4F4817590717
:1037B0006A077B0708F402C18C32E1E09E07A1058D
:1037C000B10508F0FBC04D32F1E05F0761057105FE
:1037D00020F04CE251E060E070E0481B590BBC0166
:1037E00060587D4FC8010E94A534E8C0DC011296E4
:1037F000FC9012971396EC9040E06E2D8F2D0E9456
:103800002925F8019083818341E06E2D8F2D0E9440
:103810002925D80112969C93129713968C93CEC0AB
:10382000FC01258136813227232732272115FCE729
:103830003F0741F48091610290916202892B11F45B
:1038400020E030E041E0D80114968C91811101C054
:1038500040E0F801638182810E946225AFC040E2AE
:1038600050E06FEF70E00E94C43480916102D80193
:103870008C9380915F0211968C93119712961C92F3
:10388000129713961C92139782E014968C931497B8
:1038900015968C9393C081E090E0909360028093A2
:1038A0005F0282E390E090935E0280935D020E944B
:1038B000722990935C0280935B0280C080915F02CA
:1038C00090916002892BC9F160E080E00E94891329
:1038D000E82E62E082E00E948913F82E80915B025C
:1038E00090915C020E948A298536910500F1EE20B4
:1038F000F1F0FF20E1F00E94722990935C02809326
:103900005B0280915D0290915E02019790935E024E
:1039100080935D02892B89F41092600210925F02FD
:1039200081E090E0909362028093610206C082E39E
:1039300090E090935E0280935D0280916102F801B5
:10394000808380915F02818380915D02828336C093
:10395000109262021092610231C040E250E0BC015C
:10396000DC0112968D919C9113970E94F01E26C047
:10397000BC016F5F7F4F4FE150E0FC01828193817A
:103980000E941F1F0AC0BC016C5F7F4F4CE150E0DA
:10399000FC01828193810E943A1FD8018C930EC052
:1039A0000E94BC1E0BC0FC018281811107C080E215
:1039B0001D928A95E9F71082118212822896E6E01C
:1039C0000C949634A6E0B0E0E8EEFCE10C947E3472
:1039D0009093D6028093D502811520E2920718F4C5
:1039E0000E94B00310C080EF89838A830E947229ED
:1039F0008160682F9C838B8349815A817C8181E01F
:103A000091E00E9415052696E2E00C949A34A6E017
:103A1000B0E0EDE0FDE10C947E349093D60280930B
:103A2000D502811520E2920718F40E94C70310C046
:103A300080EF89838A830E9472298160682F9C832A
:103A40008B8349815A817C8181E090E00E94150539
:103A50002696E2E00C949A34CF93DF93EC010E9417
:103A6000E21C8091F5029091F602009741F0EFE997
:103A7000FFE03197F1F700C000000197F6CFCE01CB
:103A80000E94071DDF91CF91089581E00895A0E085
:103A9000B0E0EDE4FDE10C9476344430510508F4D7
:103AA0006CC04091BD0241FBCC24C0F8D12CCC0CA1
:103AB000DD1C42FB882780F9C82FE0E0DE2FCC0F09
:103AC000DD1FCC0FDD1FCC2ADD2A40FBEE24E0F801
:103AD000F12CEC28FD2843FBAA27A0F9B0E023E055
:103AE000AA0FBB1F2A95E1F7EA2AFB2A44FBEE271F
:103AF000E0F9F0E034E0EE0FFF1F3A95E1F7EE2930
:103B0000FF2945FB222720F930E055E0220F331F23
:103B10005A95E1F72E2B3F2B46FB882780F990E042
:103B2000E6E0880F991FEA95E1F7822B932B47FB7C
:103B3000442740F950E05695542F44275795479510
:103B4000842B952B2091BE02322F3170132F00E071
:103B5000082B192B26952170B22EBB0CA12C0A29FB
:103B60001B29012E000C220B330BFB010083118358
:103B70002283338380E090E002C08FEF9FEFCDB7C8
:103B8000DEB7EAE00C949234CF92DF92EF92FF928C
:103B90004430510508F46FC0FB01C080D180E28041
:103BA000F3800E942E068091BD02C0FA80F9B70111
:103BB000A601769567955795479540FB81F9B70122
:103BC000A60122E076956795579547952A95D1F7F6
:103BD00040FB82F9B701A60133E0769567955795CA
:103BE00047953A95D1F740FB83F9B701A601E4E088
:103BF0007695679557954795EA95D1F740FB84F9F7
:103C0000B701A601F5E07695679557954795FA9522
:103C1000D1F740FB85F9B701A601A6E07695679537
:103C200057954795AA95D1F740FB86F9B701A601AC
:103C3000B7E07695679557954795BA95D1F740FBCC
:103C400087F98093BD028091BE02D0FA80F999E095
:103C5000F694E794D794C7949A95D1F7C0FA81F96E
:103C60008093BE028091BD029091BE020E94590FC6
:103C700080E090E002C08FEF9FEFFF90EF90DF9029
:103C8000CF9008958091D7029091D8020E94EA21A6
:103C900008959C01CA01F901329645915491841707
:103CA000950750F0CB01F9013496659174910E940B
:103CB000BB3480E090E008958FEF9FEF08950F935D
:103CC0001F93CF93DF9307ED12E0C0E0D0E0CE0169
:103CD0000E949425F80161918F01861719F0CE0199
:103CE0000E949E252196C432D10589F7DF91CF919C
:103CF0001F910F910895DA019C012E5F3F4FF9014A
:103D000045915491F90125913491A217B30758F0C8
:103D1000FC013496859194910E94BB340E945F1EF1
:103D200080E090E008958FEF9FEF08950F931F9329
:103D3000CF93DF9307ED12E0C0E0D0E0CE010E9408
:103D40009425F80181938F012196C432D105B1F7F2
:103D5000C0E0D0E0FE01EA54FC4F859194910097B9
:103D600011F0FC0109952C96C039D10599F7DF9126
:103D7000CF911F910F910895E7EDF2E0128E138E0F
:103D80008FEA90E09183808385E0848F28E833E197
:103D90003383228322E330E0378B268B28EC30E01C
:103DA000318F208F158E178E168E20E530E031A3CF
:103DB00020A382A30E945F1E0E942E061092BE02C4
:103DC0001092BD02EEEBF2E08081846080838091EE
:103DD000BD029091BE020E94590F0E94961E089546
:103DE000EF92FF920F931F93CF93DF937C01EB0130
:103DF0008A016FEF70E0CE010E94C4342CEA33E0F8
:103E000080E090E0AC014E5F5F4F0417150790F023
:103E1000F90165917491E616F70630F4FE01E80F9A
:103E2000F91F71836083CA01245F3F4F44E02C3344
:103E3000340741F7CDB7DEB7E6E00C9496349C0129
:103E40008CEA93E0FC01A591B4912A173B0741F05D
:103E50000C96E4E08C339E07A9F78FEF9FEF08954F
:103E6000FC0136962591349121153105B1F3F90104
:103E700009950895CF93DF93CCEAD3E0FE01259115
:103E800034918217930731F02C9624E0CC33D2077B
:103E9000A9F707C0FE013896259134912115310507
:103EA00019F48FEF9FEF0FC0CE01F901099500972C
:103EB00051F4FE013A9685919491009711F0FC011E
:103EC000099580E090E0DF91CF9108958091F40210
:103ED000817008958091F4028695817091E0892720
:103EE00008958091F40283FB882780F90895883231
:103EF000910550F48E319105A0F4049700F1809162
:103F0000F2028295817012C08933910530F48D32AE
:103F1000910578F48B9769F012C08436910549F0C9
:103F20000EC08091F20283FB882780F991E08927F7
:103F300008958091F20282FB882780F9F7CF80E014
:103F400008958091F20285FB882780F90895809179
:103F5000F20286FB882780F908950895FC01680F16
:103F6000791F8FEF91E3E617F70771F02191822710
:103F700028E030E087FF03C0880F892701C0880F41
:103F800021503109B9F7EFCF0895A0E0B0E0EBEC94
:103F9000FFE10C947934E82FF0E0E45CFB4FD4901F
:103FA000282F26952695269530E0F901E452FB4FFF
:103FB0000491877010E0082E02C0159507950A94A9
:103FC000E2F701701127F901E453FB4FE490F12C63
:103FD000082E02C0F594E7940A94E2F791E0E922F2
:103FE000FF24F901E454FB4FC491D0E002C0D59501
:103FF000C7958A95E2F7C170DD270115110519F003
:1040000081EE0E947D05E114F10419F086EE0E9414
:104010007D058D2D0E94F605E114F10419F086EE60
:104020000E94B8050115110519F081EE0E94B8052E
:10403000CD2B19F08CE20E94F605CDB7DEB7E7E094
:104040000C949534EF92FF920F931F93CF93DF93CD
:10405000EC01162F0AE08881882309F455C08130CD
:1040600009F043C08981813041F47E0182E0E80E8D
:10407000F11C8A810E94F60509C0823049F47E0154
:10408000E2E0EE0EF11C8A810E947D05E7012FC05F
:10409000833041F47E01F2E0EF0EF11C8A810E9430
:1040A000B805F4CF843011F0219621C02A812296E0
:1040B00080E090E030E0205331092A30310558F497
:1040C000089FA001099F500D1124C901840F951F5D
:1040D00021962881EFCF009751F0EFE9FFE031976B
:1040E000F1F700C000000197F6CF0E94C51F21968E
:1040F000812F882309F4AFCFEFE9FFE03197F1F783
:1041000000C000008150F5CFCDB7DEB7E6E00C94DB
:10411000963460E00E942220089580912D01877FCF
:1041200080932D0182E00E94F90D80912D0184FF82
:1041300006C08F7E80932D0182E00E94E30D809166
:104140002D0185FF06C08F7D80932D0180E20E94A6
:10415000E30D0E94620E0895CF93DF93EC01662376
:1041600019F082E00E94F30DCE0190528115904328
:1041700018F4CE01992701C0CE010E94B003DF914F
:10418000CF9108959C0130522115304308F49927AE
:104190000E94C7030895FC01FF2724E0F695E795E8
:1041A0002A95E1F79C012F703327EE0FFF1FED5981
:1041B000FD4F81E090E002C0880F991F2A95E2F739
:1041C000662329F020813181822B932B06C08095B4
:1041D0009095208131818223932391838083089558
:1041E000FC0123E0F695E7952A95E1F7EE71FF27AC
:1041F000ED59FD4F8F70992721E030E002C0220F6A
:10420000331F8A95E2F7808191812823392381E049
:10421000232B09F480E00895A0E0B0E0E2E1F1E2B0
:104220000C947934EC017B01D42E890180912D010D
:1042300082FF80C020918A0230918B022C173D07AB
:1042400019F0209709F076C090912D019B7F9093F3
:104250002D0191FD11C080918C0290918D02A701DA
:10426000481B590B61E080912E0190912F01481756
:10427000590718F460E001C061E0617080912D0180
:1042800060FB81F980932D01C9010E94CB200E941F
:10429000E00D81FF08C080912D01806180932D0188
:1042A00082E00E94E90D0E94E00D85FF08C0809128
:1042B0002D01806280932D0180E20E94E90D6091C2
:1042C0002D0166956170A80180918A0290918B0200
:1042D0000E94AC20D11005C08091F5029091F602A9
:1042E00013C0B80180918A0290918B020E94A11F95
:1042F000882391F3B80180918A0290918B020E94E9
:10430000A71F8111E9CF2BC0009741F0EFE9FFE033
:104310003197F1F700C000000197F6CF60912D01B1
:1043200066956170A80180918A0290918B020E942B
:10433000C2200FC0CE010E94F020A801682FCE013C
:104340000E94C22080918A0290918B02C817D907DF
:1043500011F40E948D20F0928D02E0928C02CDB774
:10436000DEB7E7E00C9495348091F20280FF1EC026
:1043700080912D0182FF1AC00E94722920918C0227
:1043800030918D02AC01421B530B20912E013091D4
:104390002F014217530750F023E832E041E0BC01FF
:1043A00080918A0290918B020E940C210895809145
:1043B0002D01982F909590FB80F980932D010E94FC
:1043C0008D20089580912D018E7F80932D010E9474
:1043D0008D20089590932F0180932E010895CF9200
:1043E000DF92EF92FF921F93CF93DF932091F2021F
:1043F00020FF35C07B01EC010E9472296C01F7019E
:104400008581882371F180912D0182FF08C023E806
:1044100032E040E0B60180E090E00E940C21C4311F
:10442000FCE7DF0789F0C5312CE7D20751F0C33133
:104430003CE7D30759F480912D01816080932D01D1
:1044400005C00E94D72102C00E94E221CE019052F5
:104450008115904368F510928B0210928A0211E048
:10446000DEC0C13ED10521F480912D018F7E06C0B2
:10447000C53ED10531F480912D018F7D80932D01B2
:1044800017C0CE0190528115904390F480912D0178
:1044900082FFE5CFB701CE010E946A1F182F882343
:1044A000F1F223E832E040E0B60180E090E0B1C0F4
:1044B00080912D0180FFD3CFB701CE010E94771FDD
:1044C000F7011581882309F4A7C0112309F49DC0C1
:1044D0000E94E00D182F0E94030E812B8D7FB9F0F2
:1044E00010928B0210928A028091F20281FD0FC01D
:1044F00060E0CE010E94CB20A70160E0CE010E94C7
:10450000AC200E94030E8D7F0E943D0E79C087E093
:10451000F701A3E8B2E001900D928A95E1F71092BD
:104520008802109286021092850280918A029091F0
:104530008B02C817D90709F043C0B701CE010E940A
:10454000A11F8823E9F180912D0181FD0BC080918D
:104550008C0290918D029601281B390B283C310565
:1045600078F50AC0B70180918A0290918B020E946F
:10457000A71F8111ECCF24C00E94E00D81FF08C06D
:1045800080912D01806180932D0182E00E94E90DD0
:104590000E94E00D85FF08C080912D01806280930C
:1045A0002D0180E20E94E90D60912D0166956170F8
:1045B000A70180918A0290918B020E94AC2023C0B7
:1045C0000E94E00D182F0E94030E812B86958170AA
:1045D00090912D0180FB91F990932D010E94030E83
:1045E0008D7F0E943D0ED0938B02C0938A02D092A1
:1045F0008D02C0928C0280912D01846080932D01E8
:1046000082E00E94F90E10E00AC0970140E0B60176
:10461000CE010E940C2103C011111DCF20CF812F8C
:10462000DF91CF911F91FF90EF90DF90CF90089591
:10463000ACE0B0E0EEE1F3E20C947C34182F062FEE
:10464000662349F00E9472291F832DEF28879A87DD
:10465000898782E008C00E9472291F832CEF288777
:104660009A87898783E08B8781E08C874F81588583
:1046700069857A858B859C850E941505002349F004
:104680000E94722919832DEF2A839C838B8382E0F9
:1046900008C00E94722919832CEF2A839C838B8384
:1046A00083E08D831E8249815A816B817C818D815B
:1046B0009E810E9415052C96E4E00C9498348FE8B6
:1046C00091E00197F1F700C0000008950E94521593
:1046D0000895EF92FF920F931F93CF93DF938091F2
:1046E0000201811102C094E001C090E09093980211
:1046F00084E0E82EE91AE0929702909102018093FB
:10470000990290910201809396020CE611E0C8E6AE
:10471000D1E0AE01D80121E030E08D91E82FE295A3
:10472000EF70F0E061A18F70790102C0EE0CFF1C08
:104730008A95E2F7C7019E2D9095962391A392A1A9
:10474000892B82A3FA018191AF01E82FE295EF70E6
:10475000F0E061A18F70790102C0EE0CFF1C8A9518
:10476000E2F7C7019E2D9095962391A392A1892BE4
:1047700082A381E0A037B80781F60E945F235091A1
:104780009902E2EAF2E040E0451741F1D8012D91AB
:104790008D01A22FA295AF70B0E090968C9190E021
:1047A0002F7002C0959587952A95E2F781709991AF
:1047B000A92FA295AF70B0E090962C9130E09F7039
:1047C00002C0359527959A95E2F720FD02C090E04A
:1047D00001C092E0892B81934F5FD6CFCDB7DEB772
:1047E000E6E00C949634CF92DF92FF920F931F93E2
:1047F000CF93DF9310E000E084E0C82ED12C8091AD
:104800009902181708F07EC0212F30E0F901E45911
:10481000FE4F8081E82FE295EF70F0E0E0A1F0E03C
:104820008F7002C0F595E7958A95E2F7E170D9019E
:10483000A859BE4F4C91A42FA295AF70B0E09096AE
:104840008C9190E04F7002C0959587954A95E2F75C
:1048500080FD02C080E001C082E08E2BD901AE5500
:10486000BD4FEC914E2F437050E0682F082E000C86
:10487000770B4617570709F443C0EE0FEE0FE82BEE
:10488000EC93F0909802F10EEF70F0E0E85AFE4FD2
:10489000E901C656DD4F90818881890F8883843075
:1048A00084F0EF2DF0E0E257FD4F80818F5F808331
:1048B0000E946623882339F060E08F2D0E94182320
:1048C00002C020E001C021E088818D3F84F4EF2DFB
:1048D000F0E0E257FD4F8081815080830E94662383
:1048E000882321F061E08F2D0E94182321E0888128
:1048F000082E000C990BB6010E944D348883022BC0
:104900001F5F7DCF802FDF91CF911F910F91FF907F
:10491000DF90CF9008954091990250E06091980205
:1049200070E062577D4F0E94BB340895A0E0B0E074
:10493000ECE9F4E20C9478346C01D0E080E09091E2
:104940009602D91778F5F0909702FD0E0F2D10E022
:1049500002571D4FF601ED0FF11DC081F801908146
:10496000C91BEC2E1E145CF4EA94F80180818F5F61
:10497000808360E08F2D0E94182381E0F3CF9C2F6D
:10498000C7FD90E0C91BCC2359F0CF5FF8018081AF
:104990008150808361E08F2D0E94182381E0F3CF46
:1049A000DF5FCDCF81110E941A10CDB7DEB7E8E0EE
:1049B0000C94943484E0089550E0440F551F2AE08D
:1049C000629F400D511D11249A0164E6869F200DBF
:1049D000311D1124C901899608950F931F93CF9318
:1049E000DF938430A0F46A3090F4453080F40E9464
:1049F000DC248C010E94CB3490E0D82FCC27C80156
:104A000001960E94CB349E01282BC90102C080E090
:104A100090E0DF91CF911F910F9108950F931F9315
:104A2000CF93DF93843080F46A3070F4453060F4C3
:104A3000E9010E94DC248C016D2F0E94E9346C2F67
:104A4000C80101960E94E934DF91CF911F910F9127
:104A50000895FF920F931F93CF93DF93843058F5FF
:104A6000683048F524E0629F8001112430E2839F82
:104A7000000D111D112407541E4F411103C082E087
:104A800090E002C080E090E0F42E800F911F0E9421
:104A9000CB3490E0D82FCC27F11003C083E090E016
:104AA00002C081E090E0800F911F0E94CB349E01F4
:104AB000282BC90102C080E090E0CDB7DEB7E5E069
:104AC0000C9497340F931F93CF93DF93843038F572
:104AD000683028F594E0699FE001112490E2899FF5
:104AE000C00DD11D1124C754DE4F411103C082E017
:104AF00090E002C080E090E0632F022F142F8C0F13
:104B00009D1F0E94E934111103C083E090E002C0B0
:104B100081E090E0602F8C0F9D1F0E94E934DF91AF
:104B2000CF911F910F9108958432910528F4875CED
:104B30009D4F0E94CB34089580E008958432910502
:104B400020F4875C9D4F0E94E9340895EF92FF9214
:104B50001F93CF93DF93E0906102F090620281E0B7
:104B600090E09093620280936102C0E0D0E010E098
:104B7000412F6D2F8C2F0E9443039C01412F6D2FDD
:104B80008C2F0E940E251F5F153091F7DF5FDA3002
:104B900071F7D0E041E06D2F8C2F0E945E039C01E5
:104BA00041E06D2F8C2F0E94622540E06D2F8C2FED
:104BB0000E945E039C0140E06D2F8C2F0E946225B5
:104BC000DF5FD83039F7CF5FC43081F60E94BC1E5A
:104BD000F0926202E0926102DF91CF911F91FF900B
:104BE000EF900895EF92FF920F931F93CF93DF936F
:104BF000EA017A01E60EF71E8C01C8018996CE15EE
:104C0000DF0569F0003921E0120720F40E94CB345F
:104C1000888301C0188221960F5F1F4FEECFCDB75A
:104C2000DEB7E6E00C949634A0E0B0E0EAE1F6E20C
:104C30000C947234EC016B017A018039914008F0D8
:104C400073C080E991E08C1B9D0B8617970708F4D1
:104C50006BC03E0139E2630E711C8091610290913C
:104C60006202892B19F0CE0CDF1C59C0C0FF11C0A5
:104C7000CE0188960E94CB3490E0982F8827F701C8
:104C80002081822B81159C4739F48FEFF7018083B7
:104C900003C000E010E002C001E010E0CE018C0D86
:104CA0009D1D560180FF17C0F1E0AF1AB108470102
:104CB0008A0C9B1CC3018C0D9D1D0E94CB34F401FA
:104CC000208130E0322F2227282B21153C4719F470
:104CD0008FEFF4018083F701E00FF11F2FEFCF0179
:104CE0008E199F098A159B0508F0BDCF808190E041
:104CF000982F88273181832B81159C4711F42083BD
:104D000021833296ECCFC039E1E0DE0720F4F701D1
:104D100060810E94E934FFEFEF1AFF0A2196CE016D
:104D20008996EC14FD0479F7CDB7DEB7EEE00C946C
:104D30008E34843038F46A3028F4453018F40E94F8
:104D4000ED24089580E090E00895843028F46830E0
:104D500018F40E942925089580E090E0089580E1EC
:104D6000089583EA91E00895EF92FF920F931F93C5
:104D7000CF93DF93EA017A01E60EF71E8C01C8019A
:104D8000835A9D4FCE15DF0569F0033A21E01207E3
:104D900020F40E94CB34888301C0188221960F5FD3
:104DA0001F4FEDCFCDB7DEB7E6E00C949634EF920F
:104DB000FF920F931F93CF93DF93EA017A01E60EE0
:104DC000F71E8C01C801835A9D4FCE15DF0559F09F
:104DD000033A21E0120718F468810E94E934219611
:104DE0000F5F1F4FEFCFCDB7DEB7E6E00C949634E0
:104DF000CF93DF93CDE5D2E060E0CE010E94E934AD
:104E00002196C11584E0D807B9F7DF91CF910895B5
:104E1000A4E0B0E0EEE0F7E20C947434F82E2FE05A
:104E2000281708F4B4C08FEF93E00E94CB348111AF
:104E3000AEC00DE512E0FF2071F0011584E0180707
:104E400009F4A5C0C8010E94CB34811101C0FA94B5
:104E50000F5F1F4FF0CF19821A821B821C82CC2455
:104E6000CA947801EFEFEE1AFE0AC8010E94CB3413
:104E700089831A82882309F48AC0813009F081C0AD
:104E80005801F2E0AF0EB11CC7010E94CB34D82EFE
:104E90008A83882309F47BC08FEF8D0D833088F4DB
:104EA000780123E0E20EF11CC5010E94CB348B8314
:104EB000811102C08701D5CFCE0101960E948920C1
:104EC000F9CF8BEF8D0D833078F5480183E0880EA4
:104ED000911CC5010E94CB348B83811102C07401E7
:104EE000E9CF7801E4E0EE0EF11CC4010E94CB345E
:104EF0008C838823F9F22B813C812130FFEF3F071F
:104F000018F0922F80E001C0C90126E0D21631F0DE
:104F1000E7E0DE1631F00E942C1DCCCF0E94E21C8F
:104F2000C9CF0E94071DC6CFF4E0DF1611F075014E
:104F3000C1CFC5010E94CB34D82E780124E0E20E07
:104F4000F11CC80103960E94CB34DD2001F18823B7
:104F5000F1F0282F30E021503109C29EA001C39EFC
:104F6000500D11248D2D90E00197840F951F01970E
:104F700008F4A0CFEFE9FFE03197F1F700C000009F
:104F8000F6CF60E0CE0101960E94222093CF2496B6
:104F9000ECE00C9490341F93CF93DF9387372CE78A
:104FA000920721F088379C4759F031C0FB01C58139
:104FB000CC2319F00E940D2809C00E940D2818C0AA
:104FC000FB01C581CC2391F00E9410280E94420968
:104FD0000E941328D82F0E941028C82F0E940D2845
:104FE0004D2F6C2F0E94800AC0E012C00E94102832
:104FF0000E944E090E941328182F0E941028D82FB3
:105000000E940D28412F6D2F0E94800A01C0C1E02F
:105010008C2FDF91CF911F910895809132010895D7
:105020008091310108958091300108959093AC02F0
:105030008093AB0208950E945215811103C08091A4
:10504000AA020895E091AB02F091AC02309729F0EA
:105050000190F081E02D0995089580E00895E09198
:10506000AB02F091AC02309721F00280F381E02D89
:1050700009950895E091AB02F091AC02309739F0B8
:1050800022E0DC012C930480F581E02D0995089540
:10509000FC01329697E080E0915029F02191222383
:1050A000D9F38F5FF9CF0895662349F0FC0132965A
:1050B00008962191621729F0E817F907D1F780E0E7
:1050C000089581E008959C01FC0132969FEF80E0F5
:1050D0004191461789F09F3F19F4411101C0982F63
:1050E0008F5F8630A9F79F3F39F0F901E90FF11D75
:1050F00097FDFA956283089508959C012A5F3F4FBA
:10510000FC014281461301C0128201968217930767
:10511000B9F708950E94632808950E947D28089594
:10512000029626E0FC0111922A95E9F70895DC0128
:10513000FB0111969C9111978181981321C01296C1
:105140008C911297882319F09281891319C01396B4
:105150008C911397882319F09381891311C01596A8
:105160008C911597882319F09581891309C014969D
:105170009C91992339F081E02481291304C002C055
:1051800081E001C080E08170089508950E94C528E3
:10519000089583E08093AD020E94C628089581118E
:1051A00002C081E001C082E08093AD020E94C62867
:1051B00008950E94CF28089581E08093AD020E9457
:1051C000C62808950E94DC28089508950E94E528C5
:1051D00008950E94E62808950E94E52808950E94F7
:1051E000E52808950E94E5280895CF930E94EF28AE
:1051F0000E94D6140E94EC28C0E08C2F0E949E13BF
:10520000811104C0CF5FCA30C1F701C081E0CF91E6
:10521000089585B7806885BF85B7806885BF089584
:105220001F920F920FB60F9211248F939F93AF93FB
:10523000BF938091AE02811113C08091FB029091C7
:10524000FC02A091FD02B091FE024196A11DB11D8C
:105250008093FB029093FC02A093FD02B093FE02A8
:10526000BF91AF919F918F910F900FBE0F901F90A4
:10527000189580910303843031F10E94BF0410928D
:10528000AE0220E488E190E00FB6F894A8958093F0
:1052900060000FBE2093600083B7817F846083BF6E
:1052A00083B7816083BF7894889583B78E7F83BFEF
:1052B0000FB6F894A8958091600088618093600093
:1052C000109260000FBE08950E942E060E94C60430
:1052D000089582E084BD93E095BD9AEF97BD8093D9
:1052E0006E0008952FB7F8948091FB029091FC0214
:1052F000A091FD02B091FE022FBF08952FB7F89440
:105300006091FB027091FC028091FD029091FE027F
:105310002FBF08959C014FB7F8948091FB029091A4
:10532000FC02A091FD02B091FE024FBF821B930BC5
:105330000895CF92DF92EF92FF922FB7F894C0902A
:10534000FB02D090FC02E090FD02F090FE022FBF25
:10535000A7019601261B370B480B590BCA01B9014F
:10536000FF90EF90DF90CF90089578941F920F9266
:105370000FB60F9211248F939F93AF93BF93809199
:10538000FB029091FC02A091FD02B091FE020196F9
:10539000A11DB11D8093FB029093FC02A093FD021E
:1053A000B093FE02BF91AF919F918F910F900FBE6E
:1053B0000F901F90189587E797E7909301088093C7
:1053C00000089AE088E10FB6F894A89580936000F1
:1053D0000FBE90936000FFCF9AE088E10FB6F8947B
:1053E000A895809360000FBE90936000FFCF10924D
:1053F000B9008CE08093B8000895A0E0B0E0E3E04D
:10540000FAE20C947534B82EEB010E9472296C01FB
:10541000C431D10558F0CF3F8FEFD80759F0CE01F6
:1054200064E170E00E9439347B0107C0EE24E3940C
:10543000F12C03C025E0E22EF12C84E8A82E94EA9A
:10544000992E1092BC009092BC000E9472298C018F
:105450008091BC0087FD07C0C8010E948A29E81618
:10546000F906B0F729C08091B900887F883041F0F3
:105470008091B900887F803119F00FEF1FEF1EC0B7
:10548000B092BB00A092BC000E9472298C01809156
:10549000BC0087FD07C0C8010E948A29E816F906EA
:1054A000B0F70AC08091B900887F883111F080344C
:1054B00021F700E010E00EC00EEF1FEFCF3F8FEF9F
:1054C000D80709F4BECFC6010E948A29C817D90798
:1054D00008F0B7CFC801CDB7DEB7EBE00C9491343C
:1054E0000F931F93CF93DF93EB018093BB0084E86E
:1054F0008093BC000E9472298C018091BC0087FDC2
:105500000DC0CF3F8FEFD807C1F3C8010E948A2991
:10551000C817D90790F78EEF9FEF0CC02091B90004
:10552000287F81E090E0283211F480E090E09195AE
:1055300081959109DF91CF911F910F9108950F935C
:105540001F93CF93DF93EC0184EC8093BC000E9407
:1055500072298C018091BC0087FD0DC0CF3F8FEF79
:10556000D807C1F3C8010E948A29C817D90790F744
:105570008EEF9FEF03C08091BB0090E0DF91CF9151
:105580001F910F9108950F931F93CF93DF93EC0119
:1055900084E88093BC000E9472298C018091BC0039
:1055A00087FD0DC0CF3F8FEFD807C1F3C8010E9420
:1055B0008A29C817D90790F78EEF9FEF03C0809113
:1055C000BB0090E0DF91CF911F910F910895A0E073
:1055D000B0E0EDEEFAE20C947834C62F6A0179015E
:1055E000B8010E94FD2997FD11C0B8018C2F0E94BF
:1055F000702AE601EC0CFD1CCE15DF0539F097FD95
:1056000005C0B80189910E94702AF6CF24E9209341
:10561000BC00CDB7DEB7E8E00C949434A0E0B0E075
:10562000E4E1FBE20C947834D82EC62E7A01E9012D
:10563000B8010E94FD2997FD2AC0B8018C2D0E9457
:10564000702A97FD24C0B8018D2D81600E94FD292C
:105650006701219796012E193F092C173D0768F421
:1056600097FD15C0C8010E949F2A97FD02C0F60150
:105670008083FFEFCF1ADF0AEDCF97FD08C0C80186
:105680000E94C32A97FD03C0CE0DDF1D888324E945
:105690002093BC001816190614F480E090E0CDB7F2
:1056A000DEB7E8E00C9494348EE14A9B02C081504E
:1056B000E1F74A9BFECF08955A9880E28A95F1F768
:1056C0005A9A0895FC012AE02A95F1F728E090E023
:1056D00080E031E040E14A95F1F7880F4A9B02C033
:1056E0008160932700C0000040E14A95F1F7215006
:1056F00089F720E12A95F1F729B100C0000030E1D7
:105700003A95F1F722FB222720F992272081920F68
:1057100090830895A1E0B0E0E0E9FBE20C947A34D4
:1057200019828C017C01E60EF11C0E151F0551F04B
:105730000E94542BCE0101960E94622BF8018193A6
:105740008F01F3CF81E09981911180E02196E6E00D
:105750000C949634529A5A9A089552985A9AEA9A00
:10576000E9E6F0E080818F7C80830895615091E0CC
:1057700001C0990F6A95EAF720E031E0992361F0C2
:10578000492F482319F05A9A232701C05A9840E21A
:105790004A95F1F79695F2CF222311F05A9A01C05B
:1057A0005A9880E28A95F1F75A980895FF920F93DC
:1057B0001F93CF93DF93EC018C01060F111DC017CF
:1057C000D10741F0F9900E945C2B68E08F2D0E9478
:1057D000B62BF5CFCDB7DEB7E5E00C9497341F922A
:1057E0000F920FB60F9211240F931F932F933F9395
:1057F0004F935F936F937F938F939F93AF93BF93D9
:10580000EF93FF93CF93DF931F92CDB7DEB719824B
:105810000E94542BCE0101960E94622B082F069500
:1058200006950695902F96959570202F2570920FCE
:10583000292F237096959695920F877089135FC0D4
:10584000898181115CC0063008F059C080E18A95D9
:10585000F1F75A9A529A82E08A95F1F700C05A9865
:1058600088E0089F80011124D801AD5FBE4F1696D5
:10587000ED91FC9117973097A9F060914E017091CE
:105880004F0114962D913C911597260F371F1196B5
:105890008D919C911297680F791F13964C911397D5
:1058A0008C910995F801ED5FFE4F6381662351F0FD
:1058B00080914E0190914F0124813581820F931F79
:1058C0000E94D62B0E945C2B80E18A95F1F75A98B2
:1058D00052985A9A80E18A95F1F7F801ED5FFE4FF0
:1058E0006081662351F080914E0190914F0121819A
:1058F0003281820F931F0E948A2B0E94542B0F909B
:10590000DF91CF91FF91EF91BF91AF919F918F91D7
:105910007F916F915F914F913F912F911F910F91C7
:105920000F900FBE0F901F9018950F931F93CF935A
:10593000DF93863091050CF06DC0EC01F894529A1B
:105940005A9885E08A95F1F700009C2F96959570FE
:105950002C2F2570920F892F83709695969523E0B2
:10596000CC0FDD1F2A95E1F7980F8E01092B0E94BD
:105970005C2B84E08A95F1F700C068E0802F0E94DC
:10598000B62B80E18A95F1F752985A9A4A9902C04B
:1059900000C0FCCF87E090E04A9B08C0019721F44B
:1059A000529A5A9A789436C000C0F6CFFE01ED5F45
:1059B000FE4F6381662381F080914E0190914F01EB
:1059C00024813581820F931F0E948A2B811104C08C
:1059D000529A5A9A78941FC00E94542B80E28A955A
:1059E000F1F75A98529A80E18A95F1F7CD5FDE4F30
:1059F0006881662351F080914E0190914F01298179
:105A00003A81820F931F0E94D62B0E945C2B7894C0
:105A100081E001C080E0DF91CF911F910F91089547
:105A20008091B702089508959B01909103039430EB
:105A3000F1F48F708093E9008FEF9091E80081502E
:105A400095FD06C095ED9A95F1F700008111F5CF0F
:105A50008091E80085FF0BC0BA01C90140E050E029
:105A60000E94542F8091E8008E778093E80008957B
:105A700046E050E0BC0184E00E94142D0895CF93CD
:105A8000DF93EC0148E050E0BC0181E00E94142D5E
:105A900088E0FE01AFEAB2E001900D928A95E1F74D
:105AA000DF91CF910895603231F4BC0140E250E0C3
:105AB00082E00E94142D089580910203811109C093
:105AC0000E9424310E9481318091E20084608093A1
:105AD000E20008951092020308950E94E2280895BA
