:100000000C942D020C944A020C944A020C9468271A
:100010000C944A020C944A020C944A020C944A0230
:100020000C944A020C944A020C941F2D0C94F32D4C
:100030000C946A240C944A020C944A020C944A02CE
:100040000C944A020C944A020C944A020C944A0200
:100050000C944A020C940D250C944A020C944A020A
:100060000C944A020C944A020C944A020C944A02E0
:100070000C944A020C944A020C944A020C944A02D0
:100080000C944A020C944A020C944A020C944A02C0
:100090000C944A020C944A020C944A020C944A02B0
:1000A0000C944A020C944A020C944A02000000008C
:1000B0000000000000000000000000000000000040
:1000C0000000000000000000000000000000000030
:1000D00000000041000000000000000000000000DF
:1000E0000000000000000000000000000000000010
:1000F0000000000000000000000000000000000000
:1001000000000000000000000000000000000042AD
:1001100000000000000000000000000000000000DF
:1001200000000000000000000000000000000000CF
:1001300000000000000000000000000000000000BF
:10014000000000000000000000000041000000006E
:10015000000000000000000000000000000000009F
:10016000000000000000000000000000000000008F
:10017000000000000000000000000000000000007F
:10018000000000000000004200000000000000002D
:10019000000000000000000000000000000000005F
:1001A000000000000000000000000000000000004F
:1001B000000000000000000000000000000000003F
:1001C00000000041000000000000000000000000EE
:1001D000000000000000000000000000000000001F
:1001E000000000000000000000000000000000000F
:1001F00000000000000000000000000000000042BD
:1002000000000000000000000000000000000000EE
:100210000000000000AE00AF00DA0281FFD9F1DB80
:1002200020A4A62EAF00A0C0D30000A1C8D3000018
:10023000AED580A81F408D142000000000000000F3
:1002400000002A2B28000000000000000000000031
:10025000000000000029000000002C1E3420212294
:1002600024342627252E362D3738271E1F202122FD
:10027000232425263333362E37381F040506070876
:10028000090A0B0C0D0E0F10111213141516171866
:10029000191A1B1C1D2F3130232D350405060708A4
:1002A000090A0B0C0D0E0F10111213141516171846
:1002B000191A1B1C1D2F3130354C000000000000A6
:1002C000000000000000000000000000000000002E
:1002D00000000000000000000000000000007E0F91
:1002E00000D4FFFFFFC700000078100363006F0019
:1002F0006F006C0036003400340000000A036D000B
:100300002E006B00690000000403090409025B0071
:10031000030100A0FA090400000103010100092102
:1003200011010001224400070581030800010904AE
:100330000100020300000009211101000122220036
:1003400007058203200001070503032000010904BB
:1003500002000103000000092111010001227B00BD
:100360000705840320000112010002000000084379
:100370004D44060001010200010660FF0961A10170
:100380000962150026FF0095207508810209631592
:100390000026FF00952075089102C005010902A101
:1003A0000185020901A10005091901290815002587
:1003B0000195087501810205010930093115812572
:1003C0007F95027508810609381581257F9501758D
:1003D000088106050C0A38021581257F95017508EC
:1003E0008106C0C005010980A101850319012AB752
:1003F00000150126B700950175108100C0050C0994
:1004000001A101850419012AA002150126A0029567
:100410000175108100C005010906A101050719E059
:1004200029E71500250195087501810295017508D8
:1004300081010507190029FF150026FF00950675A3
:100440000881000508190129051500250195057584
:10045000019102950175039101C011241FBECFEFD8
:10046000DAE0DEBFCDBF12E0A0E0B1E0E8EAF1E6FD
:1004700002C005900D92A030B107D9F725E0A0E0A9
:10048000B2E001C01D92AA37B207E1F70E94B01492
:100490000C9480300C9400008330B8F46C30A8F4D5
:1004A000453098F450E095E0699F400D511D1124AE
:1004B000FA019CE3899FE00DF11D1124EE0FFF1F4F
:1004C000E455FF4F85919491089581E090E008955F
:1004D00081E008950E946802089581E008950E94D5
:1004E000680208950E946F02089508950E9475029F
:1004F0000895A6E0B0E0EFE7F2E00C94F02F498316
:100500005A839E833091070289819A8131111AC0E2
:100510003E81332399F0222389F00E940208182F8C
:10052000682F89819A810E94DE0769817A81812FF3
:100530000E94340F2696E3E00C940C300E94F007E2
:10054000182FF3CF0E94020869817A81F1CFFC0154
:10055000262F4081518162817381848195810E941F
:1005600079020895CF93DF93EC0161E00E94A70226
:10057000BE010E946A02DF91CF910895CF93DF936D
:10058000EC0160E00E94A702BE010E947602DF91AA
:10059000CF91089581E008950E94CA020895CF93F3
:1005A000C82F0E94DA068C2F0E94CC022FEF84E322
:1005B0009CE0215080409040E1F700C00000CF91C6
:1005C000089581E00E94CF020E943125089580E0C5
:1005D0000E94CF020E94422508950F931F93CF934C
:1005E000DF938C0161E00E94A702EC01B8010E9438
:1005F0002A22811106C080E0DF91CF911F910F91D7
:100600000895B801CE010E9472028823A1F3B801B7
:10061000CE010E943721882371F3B801CE010E94D8
:10062000831C882341F3B801CE010E94591C882302
:1006300011F3B801CE010E947B218823E1F2F80179
:100640008581882361F0C330FCE7DF07E9F058F4C7
:10065000C115ECE7DE07A9F0C130DC47B9F0C801ED
:100660000E946D02C9CFCB358CE7D807A9F0CC35F5
:10067000ECE7DE0771F0CA35DC4789F70E943B0CD6
:10068000EECF0E94E102B7CF0E94430C0E94E70226
:10069000B2CF0E94310CE3CF0E943F0CE0CF0E940A
:1006A00047240E947A030E94C7180E945615089595
:1006B0000E947E030E944C240895089581E00895CD
:1006C0000895CF93DF93D82F0E945E03C82F88230D
:1006D00019F08D2F0E9460038C2FDF91CF91089528
:1006E0000895CF93C82F0E945D038C2F0E94610351
:1006F000CF91089580E00E94710308950E9416230F
:100700000E9471030895CF930E941623C82F8091F1
:1007100002028C1779F0C09302020E94D6246093E3
:1007200003027093040280930502909306028C2FBB
:100730000E947103CF910895ADE0B0E0E2EAF3E0EA
:100740000C94F12F488759876A877B878C879D8710
:1007500091110E94710B1F8286E0FE013896DE0126
:10076000119601900D928A95E1F78D8181110DC04E
:1007700029813A814B815C816D817E818F810E94CC
:10078000BB0A2D96E2E00C940D30CE0101960E943A
:10079000B2028111EDCFF5CFFC012481213021F48B
:1007A000808191810E942F080895CF93DF93C82FF5
:1007B000D62F662381F00E94E41D8C2F90E09C01CF
:1007C000215D31092830310548F46D2F0E94B8159C
:1007D000DF91CF9108950E94501EEFCF0E94C91E55
:1007E000F7CFCF93C82F882399F08CEF8C0F813AE5
:1007F00088F48C2F0E94A223882329F08C2F0E943A
:10080000E5230E94E00B8C2F0E94DD230E94E00B69
:10081000CF91089580E28C0F883048F4C77081E052
:1008200001C0880FCA95EAF70E94540BEFCFEBE5A1
:10083000EC0FE33040F4F0E0E058FE4F808190E0B0
:100840000E944323E5CFE8E5EC0FEB3150F4F0E0F4
:10085000EE0FFF1FE65BFE4F808191810E946823AF
:10086000D7CF83E38C0F833198F661E08C2F0E9401
:10087000D503CECF882381F19CEF980F913A28F4CD
:100880000E94E5230E94E00B089590E2980F9830B3
:1008900050F4877091E001C0990F8A95EAF7892F8B
:1008A0000E945A0BEFCF9BE5980F933028F490E00D
:1008B00080E00E944323089598E5980F9B3128F427
:1008C00090E080E00E946823089593E3980F9331AD
:1008D00018F460E00E94D50308951F93CF93DF932F
:1008E000182FEB010E94F103209739F4812F0E9409
:1008F0003A04DF91CF911F9108958FE99FE001970E
:10090000F1F700C000002197EFCF70E060E089337D
:1009100011F460E570E00E946D040895882321F0D1
:100920000E94540B0E94E00B0895882321F00E943E
:100930005A0B0E94E00B0895B0E0A0E0E2EAF4E078
:100940000C94EA2F6C01D62FC72FFC01158106816C
:1009500002950F700E944A0BE82E8823F9F0E12ED1
:100960001123E1F08C2F807F803461F080E28D0FC5
:10097000883008F18C2F807E803221F4D230D8F07C
:100980000023C9F08091460382FF15C082E00E94D7
:10099000050C0E944A0B91E0E82EE926BC2EB29489
:1009A0009FE0B922FBE0FB15B8F1EB2DF0E0EE572C
:1009B000FF4C0C94D42FE12CF1CF0C2F0F70C07F83
:1009C00011F00295007F112399F0002359F080E285
:1009D0008D0F883010F0D11107C0802F0E94540B6A
:1009E0000E94E00B8D2F5AC0802F0E94640BF8CF1D
:1009F0008D2F0E943A04002379F080E28D0F883019
:100A000010F0D11104C0802F0E945A0B03C0802F18
:100A10000E946A0B0E94E00BEB2DE850FF0B34970D
:100A200020F40E9416230E947103EE2089F00E9498
:100A3000460B80FD0DC0F60115820E94400B0E94FE
:100A40005207C6010E94A1060E94400B0E945E0749
:100A5000CDB7DEB7E9E00C9406302C2F2F70F22EC4
:100A6000C07FC03219F0F29480EFF822DD2341F00C
:100A7000D130D1F1112309F444C00023F1F0B2CFF9
:100A80008091460382FD15C0112359F0FF2029F003
:100A90008F2D0E94540B0E94E00B80E00E94F10316
:100AA000BBCF80E00E943A04FF2009F4B5CF8F2D20
:100AB000ABCF112369F0011104C08F2D0E948E0469
:100AC000ABCF013009F0A8CF8F2D0E94880BA4CFA7
:100AD0000111A2CF8F2D0E9495048F2D0E94940B9F
:100AE0008F2D0E94780B98CF112321F0063008F04B
:100AF00093CFE3CF053008F08FCF8F2D0E94950460
:100B00008BCF0023D1F3D93349F43FEF87EE93E045
:100B1000315080409040E1F700C000008D2F0E94CE
:100B20003A047ACF8C2F86958695837069F0813050
:100B300009F072CF8D2F9C2F9370111102C080E0AD
:100B400090E00E94682368CF8D2F9C2F9370111125
:100B500002C080E090E00E9443235ECF612F8D2F82
:100B60000E94D50359CF8C2F837079F5111154CF82
:100B70004D2F429546954770440F440F8D2F8F702F
:100B8000042E01C0880F0A94EAF72D2F2071D4FF9C
:100B900007C02FE030E001C0220F4A95EAF7209508
:100BA000C695C695C370822BC23049F058F4C13047
:100BB00019F00E942E0730CF0E9428072DCF0E94E7
:100BC00034072ACF0E94250727CF8695112311F0DD
:100BD0008C2F8170882309F41FCF4D2F42954695A5
:100BE0004770440F440F8D2F8F70042E01C0880F63
:100BF0000A94EAF72D2F2071D4FF07C02FE030E0D0
:100C000001C0220F4A95EAF72095C695C695C37094
:100C1000822BC23049F058F4C13019F00E947D0790
:100C2000FBCE0E947707F8CE0E948307F5CE0E9484
:100C30004007F2CECF70112329F08C2F0E9452076B
:100C40008D2F3CCF8D2F0E9495048C2F0E945E0724
:100C5000E3CED23F41F160F4D03FB9F0D13F81F013
:100C6000112309F446C00111BDCE8C2F8F711FC016
:100C7000D33F01F1D43FA1F78091460382FD24C008
:100C80008C2F8F71112311F312C0112341F0053005
:100C900008F0C2CE8C2F8F710E946B07BDCE06303C
:100CA00008F0BACEF7CF8C2F8F711111CFCF0E94E1
:100CB0005207B2CE112329F08C2F8F710E94490761
:100CC000ABCE0E944507A8CE112349F0CF718C2FDF
:100CD0000E94520763E08C2F0E94E70B9DCE81E0BB
:100CE0000E94050C023008F497CE82E00E94050CA9
:100CF00093CE002359F0D93309F010CFEFEFF7EE80
:100D000023E0E150F0402040E1F706CF8C2F8F71B7
:100D10009DCF0F931F93CF93DF93EC01688179816F
:100D20008D810E943A088C010E9489070E94240745
:100D3000B801CE010E949C04DF91CF911F910F91C9
:100D40000895CF93DF93EC018C81882399F0CE0135
:100D50000E94ED02811111C00E944A0B882351F0BC
:100D60008D81882339F08091460382FF03C082E0A1
:100D70000E94050CDF91CF910895CE010E94890653
:100D8000CE010E94BE02F6CF90E080E00E94432395
:100D900090E080E00E9468230E94710B0E94E00BAB
:100DA0000E94E51E0E94C91E08950E94ED230E9424
:100DB000C40608950E94610B0E94D506089592957D
:100DC0009F70963091F058F4925F9F70923058F473
:100DD000803F19F030F4883E30F481E008959A5F46
:100DE000F4CF843FD1F380E00895883EB0F3813F93
:100DF000D1F7F3CFFC012481222339F08081918146
:100E00000E942F080E94DF06089580E00895A6E062
:100E1000B0E0EDE0F7E00C94F12F2696E2E00C94C0
:100E20000D30A7E0B0E0E7E1F7E00C94F12F279652
:100E3000E2E00C940D3008950E941B0708950E9473
:100E40001C0780932102089508950E941F070895AA
:100E500090912102892B0E941F07089590912102F1
:100E600089230E941F0708959091210289270E94DB
:100E70001F0708950E941B0708950E943A070895CE
:100E80000E943D0780932002089580E00E94400761
:100E9000089591E001C0990F8A95EAF7892F0E9481
:100EA0004007089521E030E001C0220F8A95EAF75B
:100EB00080912002822B0E944007089521E030E0BB
:100EC00001C0220F8A95EAF72095809120028223A3
:100ED0000E944007089521E030E001C0220F8A956A
:100EE000EAF78091200282270E944007089590919E
:100EF0002002892B0E9440070895909120028923A7
:100F00000E94400708959091200289270E9440077F
:100F100008950895262F277091E001C0990F2A9512
:100F2000EAF723E0769567952A95E1F7FB01EE0F46
:100F3000FF1FE60FF71FE40FF51F50E040E0682F9A
:100F400070E08191DF0111979B01042E02C036955C
:100F500027950A94E2F7217021952827292328272D
:100F60002C934F5F5F4F4330510559F70895A82FD9
:100F7000A77023E0969587952A95E1F7FC01EE0F7F
:100F8000FF1FE80FF91FE60FF71F50E040E080E079
:100F9000219130E00A2E02C0369527950A94E2F797
:100FA00021703327042E01C0220F0A94EAF7822B06
:100FB0004F5F5F4F4330510559F70895262F9C30FE
:100FC00070F4853060F4682F70E085E0989F600DC4
:100FD000711D112448E052E0822F0E948A07089573
:100FE000292F9C3068F4853058F490E068E072E076
:100FF00035E0239F800D911D11240E94B7070895AD
:1010000080E00895CF92DF92FF920F931F93CF93CA
:10101000DF936C010091200280912102082BC3E034
:10102000D0E010E0FC2EC8010C2E02C095958795EB
:101030000A94E2F780FD0CC02197A0F7F12C8F2DC8
:10104000DF91CF911F910F91FF90DF90CF90089586
:10105000B6018C2F0E94400F019771F3F0CFCF9310
:10106000DF93EC010E940208BE010E94400FDF9155
:10107000CF9108951F93CF93DF93EB0190910702D7
:10108000992339F0CB010E942F08DF91CF911F9156
:101090000895882369F0CB010E940208182F682F59
:1010A000CE010E94DE07BE01812F0E94400FEDCFCE
:1010B000CB010E94F007182FF6CFE1E0F0E0DF014E
:1010C00002C0AA0FBB1F6A95E2F7BD01DF0102C093
:1010D000AA0FBB1F4A95E2F76A2B01C0EE0F2A95B3
:1010E000EAF7962F9823961302C08E2B0895E09569
:1010F0008E230895242F462F682F809120020E946E
:101100005D080E94400708951F93CF93DF93C0911D
:10111000220217E0809123028C1304C0DF91CF914B
:101120001F910895D0E01C9FF0011D9FF00D112428
:10113000EC5DFD4F20813181428153816481758155
:1011400086810E9411072196C770E4CF20915C022E
:1011500030915D0240915E0250915F0260916002A9
:1011600070916102809162020E9411070895CF93ED
:10117000DF9380916202807F09F04DC0809161020F
:10118000882309F448C0E091220250912302C091C3
:101190005D02D0915C0260915E0270915F0247E057
:1011A0005E17C9F18E2F90E0E49FF0011124EC5DF1
:1011B000FD4F2481222391F1489FF001499FF00DBA
:1011C0001124DF01AC5DBD4F11962C9111972C13AA
:1011D00025C02C912D1322C015962C911597211105
:1011E0001DC012962D913C91261B370B283C3105D2
:1011F000A8F4809162028F70806180936202E65D44
:10120000FD4F80818F70806180838CE592E00E9429
:10121000A1060E948408DF91CF910895FC013196C8
:10122000E770BECF482F209122029091230257E011
:10123000291302C080E0089530E0529FF001539FCF
:10124000F00D1124EC5DFD4F8181681306C0808193
:10125000481303C085818111EECF2F5F3F4F277068
:10126000E7CFA4E1B0E0E7E3F9E00C94E72F8C01CD
:1012700086E0F801DE011F9601900D928A95E1F754
:10128000F8018481E5809CE5A92E92E0B92E909129
:10129000600291111FC08823D1F0EE20A9F0C8018F
:1012A0000E94FA06F82E882379F087E0F801D5012C
:1012B00001900D928A95E1F7C5010E94CC030E942E
:1012C000B7080E94A6085FC0C8010E94A106FF24BB
:1012D000F39459C0C080D18082809380F0906102E5
:1012E00020915E0230915F02A401421B530BFF204C
:1012F00009F4F9C0483C510508F0A7C0882309F457
:1013000042C090915D0280916202282F207F09F0F7
:101310005CC09D1116C090915C02C91212C0E11010
:101320004EC08F708061809362020E94A6088CE597
:1013300092E00E94A10680916202F8018683F12C5E
:1013400022C0E1103CC06D2D8C2D0E9412096D2D24
:101350008C2D0E941209E82E8111F1CFCF86D88AF8
:101360008F8598890E942F08292F22952F7024306D
:1013700078F49F702230A8F09923B9F0F801968193
:10138000907F99F4FE2C8F2D6496ECE00C94033042
:101390002A5F2F70223068F0C8010E94A106EF2C4E
:1013A000F1CF992311F0882369F3805E883050F3E0
:1013B000F3CF803F38F3815F833070F7E3CF8091C4
:1013C0006202816080936202BACF9D1113C0909136
:1013D0005C02C9120FC0E1100DC08683C8010E94D3
:1013E000A10687E0F801ACE5B2E001900D928A9584
:1013F000E1F767CFC8010E94FA06882309F464CF99
:10140000EE2009F461CF80916202803288F0209151
:101410005C0230915D02398728879B868A8690918D
:1014200060029C871D868E87CE0108960E94A106C9
:1014300087E0F801ACE5B2E001900D928A95E1F702
:101440000E94B7080E94A60842CF90916202292FFD
:10145000207FA1F4682D9A8A898AA6017A899E2D17
:101460000E9407078CE592E00E94A10687E0F50143
:1014700011928A95E9F70E94A60861CF882309F4A2
:1014800082CF80915D028D1110C080915C02C812E4
:101490000CC0E1100AC09683C8010E94A10687E033
:1014A000F50111928A95E9F76ECFC8010E94FA06FC
:1014B000882309F409CFEE2009F406CF8091620257
:1014C000803208F4B5CF20915C0230915D023A83FE
:1014D00029839C828B82909160029D831E828F83E0
:1014E000CE010196A3CF483C5105B8F5882309F4F5
:1014F000EECEFE2CEE2009F4E7CE80915D028D1138
:101500001EC080915C02C8121AC08091620280FDE8
:101510000DC0982F907F51F08683903F09F45ECFE5
:10152000982F907F905F8F70892B57CF87E0F801BD
:10153000ACE5B2E001900D928A95E1F724CFC801A5
:101540000E94FA06811174CF8091620281608093BB
:101550006202C8010E94A10616CF682D9A8A898A64
:10156000A6017A899E2D0E94070787E0F501119256
:101570008A95E9F7A6CEAEE0B0E0E1ECFAE00C9493
:10158000F02F288739874A875B876C877D878E870E
:10159000CE0108960E9431098823B1F06C8566233C
:1015A00041F0288539854A855B857D858E850E9439
:1015B000110717E0809122029091230289133DC008
:1015C0002E96E3E00C940C3087E0FE013896DE01A5
:1015D000119601900D928A95E1F78C85882349F345
:1015E0002091230230E0C90101968770992740912C
:1015F00022024817190699F097E0929FD001939F15
:10160000B00D1124AC5DBD4FFE01319601900D92DD
:101610009A95E1F7809323020E948408CACF0E9422
:10162000DA06109223021092220287E0ECE5F2E043
:10163000DF011D928A95E9F7BCCF819FC00111247B
:101640008C5D9D4F0E943109882309F4B9CFE09148
:1016500022021E9FF0011124EC5DFD4F208131819B
:10166000428153816481758186810E941107809136
:10167000220290E0019687709927809322029ACFE8
:1016800080916B02869586958695089580916B0270
:101690008770089590916B02977081E009F480E063
:1016A000089580917702089590917702892B809315
:1016B000770208958095909177029823909377020E
:1016C000089510927702089590917602892B809365
:1016D00076020895809590917602982390937602F1
:1016E000089510927602089508950E94740B08954B
:1016F00090916C02292F282331F0809589238093C3
:101700006C020E94750B089508950E94840B089541
:1017100090916D02292F2823281729F0982B909358
:101720006D020E94850B089590916D02292F282348
:1017300031F08095892380936D020E94850B089576
:1017400080916D02882329F010926D0280E00E9442
:10175000850B08950F931F93CF93DF9300910001A2
:1017600010910101C091770280917602C82B80917F
:101770006D02882331F0C82B0E948D2381110E94B5
:10178000A00BF801C083C0910001D091010148E095
:1017900050E063E672E0CE010E941830892B59F0C8
:1017A00088E0FE01A3E6B2E001900D928A95E1F790
:1017B000CE010E942A23DF91CF911F910F910895AE
:1017C0000E94AA0B089508950E94E30B089590913A
:1017D000460392FF11C098E0899F90011124622B6B
:1017E00060936B020E94520780916B0286958695EA
:1017F00086950E94E40B08950E9452070895109266
:101800006B0280E00E94E40B089590916B0280953A
:10181000892380936B02282F277069F4891759F068
:101820009091460392FF07C08695869586950E9403
:101830005E070E94FF0B08959091460392FB2227BA
:1018400020F9281769F080FB92F990934603809164
:101850004503909146030E94650C82E00E94050CAE
:1018600008958091460382FB882780F991E08927BB
:101870000E941C0C089581E00E941C0C089580E0D9
:101880000E941C0C08956FEF7FEF90E080E00E94B3
:101890006A30089590E080E00E943630863E9E4F88
:1018A00019F40E94C421089580E0089582E090E038
:1018B0000E942E30089583E090E00E942E3008951B
:1018C00084E090E00E9436300895BC0184E090E00E
:1018D0000E946A300895AB01BC018FE090E00E9445
:1018E0005E300895AB01BC0183E190E00E945E3060
:1018F000089560E070E0CB010E94720C089560E0F2
:1019000070E0CB010E946B0C0E94790C0895A8E056
:10191000B0E0EDE8FCE00C94F12F66EE7EEF90E095
:1019200080E00E946A3060E082E090E00E944C30EB
:1019300081E08093210261E083E090E00E944C30DE
:1019400060E074E184E090E00E946A3060E086E04C
:1019500090E00E944C306FEF87E090E00E944C30A6
:1019600040E050E0BA0188E090E00E945E3060E024
:1019700084E290E00E944C3060E087E190E00E94B9
:101980004C3060E08CE090E00E944C3060E08DE0F4
:1019900090E00E944C3019821A821B821C821D82A8
:1019A0001E821F82188648E050E068E170E0CE0198
:1019B00001960E943C3040E050E0BA0180E290E0A5
:1019C0000E945E3080E00E94DD210E940C220E9475
:1019D0007F0C2896E2E00C940D300E94870C08954D
:1019E000682F8EE090E00E944C300895A6E0B0E0B1
:1019F000ECEFFCE00C94EF2F0E94CA248C01809144
:101A00007802909179028017910781F019821A82E9
:101A10000E94CA24682F49815A81792F80E090E082
:101A20000E949C0310937902009378022696E4E0CA
:101A30000C940B300E945C1060939202709393029E
:101A4000809394029093950260938E0270938F021C
:101A5000809390029093910208950E945C1060938D
:101A600092027093930280939402909395026093F4
:101A70008A0270938B0280938C0290938D0208955A
:101A80000E945C1060939202709393028093940280
:101A900090939502609386027093870280938802E8
:101AA000909389020895089508950E94530D089512
:101AB00008950E94580D089581E0089586E790E109
:101AC0000E94BD140E94540D0E94550D08950E945D
:101AD0006C120895089508950E946A0D0E946B0D7E
:101AE00008950E9495100E94700308950E94C124D9
:101AF0000E9436100E941C220E9474120E944019FB
:101B00000E94BF110E94710D0E94A11A80E00E94E4
:101B10004A170E9486120E9400150E94590D0895CE
:101B2000A6E0B0E0E6E9FDE00C94E72F0E945C0D32
:101B3000082F811119C00E94F60C00E00E946C125F
:101B40000E94C219182F882319F00E942D0D012F11
:101B50000E945615882309F45DC00E94400D0E9422
:101B6000E7180E94AD175AC00E94E2118AE7A82E1A
:101B700082E0B82E650110E0F601F1906F01812F2F
:101B80000E94B8101F5F1C3009F441C0F816A1F381
:101B90008091960281FD0E94BE100E94670D982ED2
:101BA00010E088248394812F0E94B810F82EF5014C
:101BB00081915F01F81629F1CF2CC826E12CDD2494
:101BC000D3948C2D8D21A9F0992099F0E9821A8364
:101BD0000E94CA249C838B838D8291E08F2D8D215E
:101BE00009F490E049815A816B817C818D810E944A
:101BF0009C03E394DD0CF5E0EF12E3CFF5013197A0
:101C0000F0821F5F1C3079F60E941A0D97CFF812F0
:101C1000BFCF91CF0E94E7180111A3CF0E94221FCE
:101C20000E9483032696ECE00C9403301F93CF931D
:101C3000DF930E94450FEC01C11580E5D807F0F550
:101C4000C11580E4D80708F09CC0C03ED10520F53E
:101C5000CD3CD10508F082C0C83AD10578F4C53A28
:101C6000D10508F073C0C130D10519F1209709F1F1
:101C7000C430D105F0F4D0E0C0E01BC0C33CD105B6
:101C8000D0F7C85AD0E0CC0FDD1FCD57DE4F0990FA
:101C9000D881C02DD4640DC0C11580E2D80708F0EA
:101CA000D1C0C11581E0D80708F05AC0C83ED1059F
:101CB00010F7CE01DF91CF911F910895C03682E5D4
:101CC000D80718F5C03482E5D80708F06BC0C032D9
:101CD00082E5D80708F05FC0C11582E5D80708F48F
:101CE00097C02C2F2695269580E2289F90011124DD
:101CF0008C2F8370C1E0D0E002C0CC0FDD1F8A952D
:101D0000E2F7C22BD32BDD68D4CFC03A82E5D807E7
:101D100060F4C03882E5D80708F459C0CF71D0E02C
:101D2000DC2FCC27C46FD06AC4CFC03C82E5D80773
:101D300008F462C0C03E82E5D80708F09CCFDC2FD3
:101D4000CC27CC27DF71C06FD06AB3CFC55AD0E0A3
:101D5000C754DE4FC881D0E0D064ABCFD065A9CFE7
:101D60008D2F0E94E70F182FCE0199270E94450F53
:101D7000C12FD0E0DC2FCC27CC27DF71C82BD92B8B
:101D800098CFCE0199270E94450FCC27DF70C82B32
:101D9000D92BD06A8ECFCF71D0E0DC2FCC27C16F8A
:101DA000D06A87CF2C2F26952695277080E2289F12
:101DB000900111248C2F8370C1E0D0E002C0CC0FC1
:101DC000DD1F8A95E2F7C22BD32BDC6872CF2C2F54
:101DD00026952695277080E2289F900111248C2F4C
:101DE0008370C1E0D0E002C0CC0FDD1F8A95E2F71E
:101DF000C22BD32BDA685DCF8C2F8F710E94E70F37
:101E0000C82FD0E0DC2FCC27CC27DF71D06251CF98
:101E10008C2F8F710E94E70F55E0D695C7955A9584
:101E2000E1F7CF70D0E0DC2FCC27282F30E084FF03
:101E300005C044E0220F331F4A95E1F7C22BD32B94
:101E4000D06937CF8D2F8F710E94E70F182FCE01E9
:101E500099270E94450FC12FD0E0DC2FCC27CC273B
:101E6000DF71C82BD92BD2CF462F7C3030F46530B0
:101E700020F4672F0E94711B089590E080E0089580
:101E80000E94340F0E94160E089582389105B9F110
:101E9000B0F48133910509F47DC048F4893291058D
:101EA00009F46DC08A32910509F47BC00895853329
:101EB000910509F45FC08933910509F10895833EC6
:101EC0009105D9F138F4803E910529F1823E9105C2
:101ED00079F10895863E9105D9F1873E910509F47F
:101EE0003EC0843E910541F52091460321FF24C068
:101EF0008091450384FD19C087EE90E008952091FC
:101F00004503237009F05AC02091460323FF14C0F3
:101F100089E290E008952091450320FD38C030917A
:101F2000460330FF09C024FF43C090E080E00895DD
:101F30002091450322FDF7CF08952091450322FD0E
:101F40003AC03091460330FD39C024FFF5CFEDCFC4
:101F50002091450323FFF0CF24FDE7CFCDCF209183
:101F6000450323FD2EC03091460331FFEECF84EEB2
:101F700090E008952091450325FFDECFC9CF209141
:101F8000450325FD21C02091460323FFD5CF89E3DA
:101F900090E0D2CF2091450326FFCECF8AE290E099
:101FA00008952091450326FFC7CF81E390E008956F
:101FB00083EE90E0089582EE90E0089580EE90E048
:101FC000089586EE90E0089585E390E0089590915D
:101FD000450392FF10C041E0282F2471243009F0FE
:101FE00040E031E0282F2871283009F030E0431715
:101FF00011F02CE0822793FF10C041E0282F2471BC
:10200000243109F040E031E0282F2871283109F00F
:1020100030E0431711F02CE082273091460330FF67
:1020200010C051E0282F2171213009F050E041E02B
:10203000282F2871283009F040E0541711F029E0CA
:10204000822731FF10C041E0282F2171213109F092
:1020500040E031E0282F2871283109F030E04317A3
:1020600011F029E0822794FD877E089510924103A4
:102070001092420310924303109244030895CF92AA
:10208000DF92EF92FF926B017C010E946C12811132
:102090000EC00E94D624C61AD70AE80AF90AC092CE
:1020A0004103D0924203E0924303F0924403FF9035
:1020B000EF90DF90CF9008950F931F930E946C12C2
:1020C000882329F00E94D6241F910F9108950E9421
:1020D000D624009141031091420320914303309193
:1020E0004403600F711F821F931FEECF80E008959D
:1020F0000E94430C08950E94E2112FEF86E791E0C1
:10210000215080409040E1F700C000000E94E211A1
:1021100080E00E94B81080FF04C00E9478100E94E6
:10212000312508950E947B1008950E944A0C811168
:1021300002C00E94ED0C0E94560C809396020E94F1
:10214000600C90934603809345030E9492100E9476
:102150005B0C0E942507809120020E943D07089594
:1021600008950E94B010089508950E94B410089533
:10217000E82FF0E0EC5AFC4F80810895089580EA42
:102180008A95F1F7089500C008950E94BF10089540
:1021900008950E94C8100895A6E0B0E0E2EDF0E1D5
:1021A0000C94ED2F0E946C12F82E6091600388232E
:1021B00009F440C086E0E82E8E010F5F1F4FF80142
:1021C0008E2D11928A95E9F7862F90E0B8018C5AEE
:1021D0009C4F0E9494128823B9F08091470390E0AD
:1021E00046E050E0B8018C5A9C4F0E94183021E024
:1021F00020939702892B91F4F12C0E94B5108F2D1A
:102200002696E6E00C940930809197028823A1F38A
:10221000F8011192EA94E9F710929702A09147030E
:10222000B0E0AC5ABC4F86E0F80101900D928A955F
:10223000E1F7E3CF70E06C5A7C4F8091470390E068
:102240008C5A9C4F0E941B130E94C910D8CFF8943F
:10225000E82FE295EF70F0E031A1282F2F7081E098
:1022600090E001C0880F2A95EAF7982F9095932364
:1022700091A392A1892B82A378940895CF93DF93A1
:10228000CCEBD1E089918F3F11F00E94271181E0C2
:10229000C13CD807B9F7C1ECD1E089918F3F11F06B
:1022A0000E94271181E0C73CD807B9F7DF91CF9191
:1022B0000895B0E0A0E0EFE5F1E10C94EB2F7C0194
:1022C000162F042FC62FD0E0C454DE4F28812F3F95
:1022D00009F44CC0F894E22FE295EF70F0E031A1E0
:1022E0002F7081E090E001C0880F2A95EAF7932FC4
:1022F000982B91A392A18095892382A378940E9420
:10230000C31081ECC82E81E0D82EF701A7014A5FE7
:102310005F4FF12CE02EE094D6019D916D018191EB
:102320009F01215031099F3F31F1692F62956F70F4
:1023300070E0DB0190966C9170E09F7002C0759523
:1023400067959A95E2F760FD16C0802BD9018C93B2
:10235000FF24F394E417F507F9F688818F3F11F015
:102360000E9427116F2D812F0E94C510CDB7DEB7B7
:10237000E8E00C9407308E21D9018C93EBCF80914B
:1023800002018091020196E0811190E09093600338
:1023900086E0891B809347030E943E118CE0E4E5B0
:1023A000F3E0DF01982F1D929A95E9F7E8E4F3E056
:1023B000DF011D928A95E9F786E00E9424120E94AF
:1023C000B1100895ACE0B0E0E8EEF1E10C94ED2F2F
:1023D0008E010F5F1F4F8CE0F80111928A95E9F78B
:1023E000F12CEE24E3944E2D6F2DC8010E9459115B
:1023F000F394EE0CF5E0FF12F6CF4CE050E0B8019C
:1024000088E493E00E94183021E0009709F420E06E
:10241000892B41F08CE0F801A8E4B3E001900D9223
:102420008A95E1F76091600370E06C5A7C4F46E05A
:1024300088E493E00E942512182F0E94CC10812B73
:102440002C96E6E00C9409300895B0E0A0E0EBE2B1
:10245000F2E10C94EB2F6C017B01042FC22F22239D
:1024600079F081E080939A020E94CA2490939902A5
:102470008093980280E0CDB7DEB7E8E00C94073097
:10248000D0919A02DD23B1F3809198029091990244
:102490000E94E224059770F310E0A801B601C7017D
:1024A0000E941830892B31F0A801B601C7010E94A3
:1024B0002530CD2F10929A028C2FDDCFCF930E9422
:1024C0009F2FC82F811102C00E949A2F8C2FCF916D
:1024D000089580919E02089580919D0208950E9422
:1024E0006C1291E0892708950E945E1280939D02EC
:1024F0000E946F1280939E020E94691280930201D3
:102500000E946C1281110E94CA1208950E946C12DE
:10251000811102C00E94CD12089581E090919F0226
:102520009A3008F080E008950F931F93CF93DF93C4
:10253000EC018B0180919F028A30B8F4B801CE0182
:102540000E941813C82F811122C080919F028F3FD3
:10255000B9F40E94CA2490939C0280939B028C2F12
:10256000DF91CF911F910F91089580919B029091DF
:102570009C020E94E224843F914000F7C0E0EFCF2C
:102580008F5F80939F028A3020F7C1E0E8CF1092DE
:102590009F02E5CF0E94222708950E9425270895D3
:1025A000B0E0A0E0E6EDF2E10C94EC2F7901C82F49
:1025B000880FDD0B41155105A9F0FE0193E0EE0FE8
:1025C000FF1F9A95E1F7ED5FFE4F81819281805662
:1025D0009D4F208130E04217530708F49A01A9016A
:1025E0000E942530CE010E940E28D82E8823D1F0DB
:1025F00001151105B9F083E0CC0FDD1F8A95E1F7D5
:10260000FE01ED5FFE4F438150E00417150708F40B
:10261000A801CD5FDE4F6C817D8160567D4FC70183
:102620000E9425308D2DCDB7DEB7E7E00C94083041
:102630000E94341408950E9455140895A4E0B0E057
:10264000E4E2F3E10C94EF2F6091C2027091C302B7
:102650008091C4029091C5020E94F12411E0643679
:1026600071058105910518F10E945C106E5F7F4F26
:102670008F4F9F4F69837A838B839C8310E000E0A8
:1026800030E020E044E050E0BE016F5F7F4F84E027
:102690000E94D012182F882351F00E94D6246093F4
:1026A000C2027093C3028093C4029093C502812F2B
:1026B0002496E4E00C940B30A1E0B0E0E2E6F3E114
:1026C0000C94E62F762E4A015901680101E010E0D2
:1026D0009E012F5F3F4F50E040E070E060E00E94BD
:1026E000D012182F882399F1F401608171818281C1
:1026F00093810E94F124643671058105910500F1F2
:102700008701950150E040E070E060E0872D0E9475
:10271000D012B82EB701C6010E94A21A11E0998109
:10272000981310E01B2139F00E94D624F401608335
:10273000718382839383812F2196EDE00C94023084
:10274000B701C6010E94A21A99818913D9CFA701A6
:10275000B601C5010E942530EECFA4E0B0E0E3EB66
:10276000F3E10C94ED2F0091C7011091C801085FAF
:102770001F4F84E0E82EF12C9E012F5F3F4F4EEB60
:1027800052E063E082E00E945C13182F882321F05E
:10279000CE0101960E945D1A812F2496E6E00C94EA
:1027A0000930A6E0B0E0E7EDF3E10C94EB2F6B010C
:1027B0000091C7011091C8010F5F1F4F86E0E82EFE
:1027C000F12C9E012F5F3F4F4AEB52E061E080E029
:1027D0000E945C13882349F096E0FE013196A4EB39
:1027E000B2E001900D929A95E1F796E0E4EBF2E009
:1027F000D60101900D929A95E1F72696E8E00C94A7
:102800000730B0E0A0E0E7E0F4E10C94E92F7C01B0
:102810005B016A010E948D1201E010E0882311F033
:102820000AE010E0C1E0D0E0B501C701F60109956A
:10283000811104C021960C171D072CF4CDB7DEB70B
:10284000EAE00C940530CC9F9001CD9F300D300D07
:10285000112490E080E045E34A95F1F700000196ED
:1028600082179307C1F7E0CF0F931F93CF93DF93A6
:10287000EC018B0141ED53E10E940114811106C06E
:1028800080E0DF91CF911F910F9108954DEA53E1C0
:10289000B801CE010E940114882391F34EE153E167
:1028A000B801CE010E940114ECCFA4E0B0E0EBE54A
:1028B000F4E10C94EF2F0091C7011091C801C801F9
:1028C000019626E0FB01DC0101900D922A95E1F7CB
:1028D00066E070E00E94A21AF8018083CE010196A2
:1028E0000E94521A89819A81AB81BC81F80180874C
:1028F0009187A287B38764E070E0CE0101960E94C1
:10290000A21AF8018783648575858685978500916D
:10291000B0021091B1022091B2023091B30260175F
:1029200071078207930751F06093B0027093B10270
:102930008093B2029093B3020E943F102496E4E089
:102940000C940B300E94F4290E94760D0E94012AFB
:1029500008950E94062A0E94900D0E94202A089540
:102960000E9463240E94DA290E945E0D0E94A21434
:102970000E94A9140E946C0DFBCF909301028093DA
:102980000002089508950895ACE0B0E0EAECF4E1A7
:102990000C94F12F4F83588769877A878B879C87A0
:1029A00086E0FE013796DE01119601900D928A9520
:1029B000E1F729813A814B815C816D817E8180E0E4
:1029C00090E02C96E2E00C940D30ACE0B0E0EBEE41
:1029D000F4E10C94F12F0E94C41480E090E02C9656
:1029E000E2E00C940D3021E030E001C0220F4A9566
:1029F000EAF7662311F0822B08952095822308952B
:102A0000E091C901F091CA0109950E94C2140E9487
:102A1000C3140895CF9366EC72E08DEC92E00E94AF
:102A2000F823C82F882321F08DEC92E00E943523F3
:102A30009091CE0286E0EDECF2E0DF01282F1D92AE
:102A40002A95E9F79093CE02A6ECB2E001900D92A0
:102A50008A95E1F781E0C11103C0911101C080E0C6
:102A60008170CF910895ACE0B0E0E9E3F5E10C941A
:102A7000F12F4F8358878B879C8771956195698764
:102A80007A8786E0FE013796DE01119601900D925D
:102A90008A95E1F729813A814B815C816D817E8144
:102AA00080E090E02C96E2E00C940D30A6E0B0E0DF
:102AB000ECE5F5E10C94F12FE091CB01F091CC0124
:102AC0004091CD025091CE026091CF027091D00220
:102AD0008091D1029091D2020995F42FE52FCB017C
:102AE0002093CD023093CE02F093CF02E093D00238
:102AF0006093D1029093D202A9016F2F7E2F0E9482
:102B00003315F42FE52FCB012093CD023093CE0265
:102B1000F093CF02E093D0026093D1029093D2025F
:102B2000A9016F2F7E2F0E94E5142093CD023093D0
:102B3000CE024093CF025093D0026093D1027093A3
:102B4000D2020E94F31E8091CE02832B8093CE028C
:102B50000E940A15811109C08091CC021092CC020A
:102B600081702696E2E00C940D3081E090E0F6CF83
:102B70009C01215D31092830310550F44FE2480FA6
:102B80008091CE020E94F3148093CE020E940A1517
:102B90000895FC01208131812038310534F02F5710
:102BA0003109318320838FE7089520388FEF38076C
:102BB00034F421583F4F3183208380E80895822FD9
:102BC000118210820895A1E1B0E0E9EEF5E10C94E4
:102BD000EE2F4C87888B998B152FF62E072FCE0161
:102BE000079625E0FC0111922A95E9F72091D90278
:102BF0002A3008F03FC00E94A716892B09F060C058
:102C00001092D9028B8540E087FD52C060E0812F91
:102C10000E94F314182F8091D7029091D802009748
:102C200009F040C044E16F8188850E94BE16209162
:102C3000D5023091D602820F931F9093D6028093D3
:102C4000D50244E169858A850E94BE162091D3028F
:102C50003091D402820F931F9093D4028093D302B9
:102C600085ED92E00E94C915F82E83ED92E00E9456
:102C7000C915082F1D87FE860F8786E0FE013C964A
:102C8000DE01119601900D928A95E1F729813A8132
:102C90004B815C816D817E8180E090E06196E5E012
:102CA0000C940A3001979093D8028093D702E2CF18
:102CB00061E0812F0E94F314182F84E190E0F3CF9C
:102CC0008091D9028F5F8093D902D4CF80912B015C
:102CD00090912C012DE7AC01249FC001259F900D00
:102CE000112408959C01893F910538F481E090E01A
:102CF00090932C0180932B010895EDE7F0E0BF0144
:102D00000E94AC2FA901481B590BCA01BF010E94A8
:102D1000AC2F70932C0160932B010895A4E0B0E0D8
:102D2000E4E9F6E10C94EF2F89836A834B832C83CB
:102D300004E610E024E030E0AE014F5F5F4F60E05A
:102D400084E10E9454262496E4E00C940B300F9307
:102D50001F9304E610E025E030E0AC0164E084E17C
:102D60000E947B261F910F9108950E944D2520E01F
:102D700040E060E080E00E948E160895681708F534
:102D8000861B682F21E0469FA0011124649FF0015B
:102D9000659FF00D112440912B0150912C01E49F6F
:102DA000C001E59F900DF49F900D1124880F892F8D
:102DB000881F990B9195222319F09195819591097E
:102DC0000895681B20E0DFCFAB0124E630E0BC01B2
:102DD00088E70E94332621E0892B09F020E0822F2A
:102DE0000895B0E0A0E0E7EFF6E10C94EB2F6C0162
:102DF0007B0164E670E088E70E9453258C01E601C0
:102E0000EC0CFD1CCE15DF0561F40E94C42681E0A8
:102E10000115110509F080E0CDB7DEB7E8E00C94AC
:102E2000073017FDF2CFFE01849164E670E00E9446
:102E3000BF258C012196E6CF0F931F939B0104E6DB
:102E400010E0AC0160E488E70E94542621E0892B61
:102E500009F020E0822F1F910F9108950E944D25C7
:102E6000089508950E9431170895E1E6F3E080E0A7
:102E700092E0DF019C011D9221503040E1F7F09378
:102E80006805E09367058FEF9FEF909300038093B1
:102E9000FF020895CF930E9431170E94321780934A
:102EA000FB0280FD11C080E88093FA020E942E1779
:102EB0006BE070E08FE292E00E94F116811106C093
:102EC000C0E08C2FCF91089580E2EECF8091FB027D
:102ED00065E070E081FD27C08AE292E00E94F11671
:102EE000882371F36DE070E088E192E00E94F116B2
:102EF000C82F882329F30E94D624605A75418F4F2A
:102F00009F4F60936305709364058093650590936C
:102F100066050E94351781E08093FE028093FD02D2
:102F20001092FC02CECF85E292E0D8CF2091FA0237
:102F300036E0839FC0011124629F800D911D1124F2
:102F4000811522E0920714F090E080E08F599C4FA9
:102F5000909368058093670508958091FE02811122
:102F600003C08091FD0208950E94D624605A7541E5
:102F70008F4F9F4F60936305709364058093650541
:102F8000909366058091FD028111EBCF62E070E0C5
:102F900086E192E00E94F116882319F381E0809384
:102FA000FD02DFCFA6E0B0E0E8EDF7E10C94E12F01
:102FB000182F8091FF0290910003892B09F18091D5
:102FC000FE028823E9F08091FC02811119C00E9461
:102FD000AD171C821B8222242394312C03E069ED5F
:102FE000E62E61E0F62E77E0672E8091FF02909149
:102FF0000003009729F0BC81BB2349F0111107C0E1
:103000002696E2E10C94FD2F2B812F5F2B833B81D1
:10301000C32ED12C210102C0440C551C3A95E2F775
:10302000920128233923232B79F38091FB0280FD21
:103030003EC08B818295880F807680932F01960108
:10304000369527953695279520933201815E80939A
:1030500030012093330167E070E08DE291E00E943F
:10306000E416882369F2C60135E0880F991F3A9566
:10307000E1F72091FB0220FD28C060E270E08F594B
:103080009C4F0E941C17882309F4BACFC201809577
:1030900090954090FF025090000348225922509290
:1030A00000034092FF024C814F5F4C839ECF8B8187
:1030B000880F880F880F80932F0110923201895F4B
:1030C0008093300100933301C6CFAAEDB2E0E0E275
:1030D0001D92EA95E9F725ED31E03E832D8321ED40
:1030E000C22E21E0D22EAD81BE816D91BE83AD8313
:1030F000F60121916F01280F392F311DA9014F5978
:103100005C4F5A834983E62FF0E0E652FD4F30E0F2
:1031100020E0762C721A922C022E01C0990C0A948F
:10312000EAF769817A81A12CDB01BD90BD01B9204C
:10313000472D4A194770842E042E000C550BBB2DC9
:1031400001C0BB0F8A94EAF78B2E51954195510926
:103150004770552701C0B6944A95EAF78B28B0808E
:103160008B288082A39448E0A412DECF2F5F3F4FCC
:1031700031962830310569F6AD81BE81EA16FB062D
:1031800009F0B1CF60E270E08AED92E07ACF8091F1
:10319000FD029091FE02911103C091E089270895EC
:1031A000882369F062E070E084E192E00E94F11609
:1031B000811103C08091FD0208951092FD0280915B
:1031C000FD02EBCF81E008950E94E21808950F936D
:1031D0001F938091FE02882381F180916105909177
:1031E00062050E94E224C29760F00E94CA24909374
:1031F00062058093610560E080E00E9496170E945E
:10320000E41880E00E94D2178091FD028823A9F083
:103210000E94D624009163051091640520916505F4
:1032200030916605601B710B820B930B6F3F7F4FD4
:103230008F4F9F4710F40E94C7181F910F91089558
:103240008FE891E00197F1F700C00000089581E058
:103250000895CF93DF93D62F0E942719C82F882374
:1032600041F06AE070E089EAD11101C08AEA0E9467
:103270006D048C2FDF91CF9108950E946C120895F8
:10328000FF920F931F93CF93DF938091020194E0FD
:10329000811190E090930B0384E0282F291B209349
:1032A0000A039091020180930C0390910201809394
:1032B00009030DEE11E0C9EED1E0AE01D80121E025
:1032C00030E08D91E82FE295EF70F0E0F1A08F7083
:1032D000B90101C0660F8A95EAF7962F90959F2154
:1032E00091A382A1862B82A3FA018191AF01E82FDD
:1032F000E295EF70F0E0F1A08F70B90101C0660FA8
:103300008A95EAF7962F90959F2191A382A1862B0B
:1033100082A3F1E0A13FBF07A1F60E9420196091AE
:103320000C0345E153E0FA018E2F841B861728F029
:10333000CDB7DEB7E5E00C940A30D8012D918D01B0
:10334000A22FA295AF70B0E090968C9190E02F7074
:1033500002C0959587952A95E2F781709991A92FDA
:10336000A295AF70B0E090962C9130E09F7002C0B3
:10337000359527959A95E2F790E020FD92E0892B0C
:103380008193D2CFB0E0A0E0E8ECF9E10C94EB2F10
:1033900010E000E084E0C82ED12C80910C031817B7
:1033A00030F0802FCDB7DEB7E8E00C940730C12FA6
:1033B000D0E0FE01E351FE4F8081E82FE295EF70EF
:1033C000F0E0E0A1F0E08F7002C0F595E7958A95F6
:1033D000E2F7E170DE01A751BE4F4C91A42FA295F8
:1033E000AF70B0E090968C9190E04F7002C09595D0
:1033F00087954A95E2F780FD4DC080E08E2BDE0177
:10340000AB5EBC4FEC919E2F9370981709F440C0AF
:10341000EE0FEE0FE82BEC93E0900B03E10EEF7054
:10342000F0E0E752FE4FC35FDC4F80819881890F47
:103430008883F12C843084F0EE2DF0E0EF5FFC4FB8
:1034400080818F5F80830E943D19F82E882321F1AF
:1034500060E08E2D0E94291988818D3F84F4EE2D25
:10346000F0E0EF5FFC4F8081815080830E943D1926
:10347000F82E8823A1F061E08E2D0E942919888101
:10348000082E000C990BB6010E94C02F88830F29CB
:103490001F5F83CF82E0B2CFFF24F394DDCFFF2400
:1034A000F394EDCF40910C0350E060910B0370E07A
:1034B0006F5F7C4F0E9425300895B0E0A0E0E3E606
:1034C000FAE10C94EB2F6C01D0E080E090910903BD
:1034D000D91740F081110E942D0DCDB7DEB7E8E07D
:1034E0000C940730F0900A03FD0E0F2D10E00F5FD3
:1034F0001C4FF601ED0FF11DC081F8019081C91B31
:10350000EC2E1E1444F09C2FC7FD90E0C91BC11186
:103510000DC0DF5FDBCFEA94F80180818F5F80838D
:1035200060E08F2D0E94291981E0EBCFCF5FF80179
:1035300080818150808361E08F2D0E94291981E074
:10354000E6CF0895FC01680F791F8FEF91E36E17A6
:103550007F0709F408952191822728E030E087FF52
:1035600006C0880F892721503109C9F7F0CF880F8D
:10357000FACF84E0089550E0440F551F9AE0699F08
:10358000400D511D112498E7899F400D511D1124B4
:10359000CA01899608950F931F93CF93DF938430C8
:1035A000C8F46C30B8F44530A8F40E94BB1A8C0102
:1035B0000E942E30C82FD0E0DC2FCC27C801019606
:1035C0000E942E309E01282BC901DF91CF911F91BF
:1035D0000F91089590E080E0F8CF0F931F93CF9361
:1035E000DF93122F032F843078F46C3068F4453069
:1035F00058F40E94BB1AEC01602F0E944C30612FDE
:10360000CE0101960E944C30DF91CF911F910F9116
:1036100008951F93CF93DF93D0E0C0E011C0412FF6
:103620006C2F8D2F0E944C029C01412F6C2F8D2FEF
:103630000E94ED1A1F5F153091F7CF5FCC3011F06B
:1036400010E0EDCFDF5FD43041F7DF91CF911F91D4
:103650000895EF92FF920F931F93CF93DF93EC01A6
:103660008A017C01E60EF71ECE018996CE15DF0594
:1036700029F4CDB7DEB7E6E00C940930C03E21E076
:10368000D20740F40E942E30F80180830F5F1F4F55
:103690002196EACFF8011082F9CFB0E0A0E0E3E58F
:1036A000FBE10C94EB2F7C016A018C01060F171FC4
:1036B000EC01CE018996C017D10729F4CDB7DEB74A
:1036C000E8E00C940730C03E21E0D20740F4FE0150
:1036D000EE19FF09EC0DFD1D60810E944C30219612
:1036E000E8CF843038F46C3028F4453018F40E9468
:1036F000CB1A089590E080E0089580E1089587EF67
:1037000091E00895EF92FF920F931F93CF93DF9371
:10371000EC018A017C01E60EF71ECE01875F9D4F0A
:10372000CE15DF0529F4CDB7DEB7E6E00C940930FD
:10373000C73F21E0D20740F40E942E30F801808379
:103740000F5F1F4F2196E9CFF8011082F9CFB0E04B
:10375000A0E0EDEAFBE10C94EB2F7C016A018C0107
:10376000060F171FEC01CE01875F9D4FC017D107D1
:1037700029F4CDB7DEB7E8E00C940730C73F21E06D
:10378000D20740F4FE01EE19FF09EC0DFD1D60812A
:103790000E944C302196E7CFCF93DF93C9E0D2E06F
:1037A00060E0CE010E944C302196C11584E0D8071C
:1037B000B9F7DF91CF910895A8E0B0E0E2EEFBE128
:1037C0000C94E92FF82E8FE08F1508F46EC08FEF60
:1037D00093E00E942E30811168C009E012E0F110E0
:1037E00035C0FE0131966F0188E011928A95E9F7A4
:1037F0007801FFEFEF1AFF0AC8010E942E3089837B
:103800001A82882309F451C08130D1F4580182E032
:10381000A80EB11CC7010E942E308A83882309F4A8
:1038200044C09FEF980F9330F0F4780193E0E90ED5
:10383000F11CC5010E942E308B838823B1F11C82BC
:1038400060E0C6010E946D208701D2CF011594E08F
:10385000190759F1C8010E942E30811101C0FA9454
:103860000F5F1F4FBCCF7501843051F702E010E0AD
:103870007501EFEFEE1AFE0AC5010E942E30F60127
:10388000E00FF11F8083882381F08C3741F4E2E060
:10389000F0E0EC0FFD1FE00FF11F1082D1CF0F5FA2
:1038A0001F4F57010730110519F72896EAE00C94CD
:1038B0000530CF93DF93EB0186319C4711F50E94D1
:1038C000510B9D81992399F08A7A91E009F490E057
:1038D00090931D03811109C089E20E94DD230E949B
:1038E000E00B80E0DF91CF91089585E3F6CF8091E2
:1038F0001D03811104C089E20E94E523F0CF85E316
:10390000FBCF81E0EFCFCF93DF93EC01FB0185810B
:10391000882309F4D2C09E0130572332310508F0C4
:10392000B2C00E94600C9093460380934503FE0151
:10393000E150F047E232F10520F4E257FF4C0C94DD
:10394000D42F8091450381608093450393C080917B
:1039500046038860809346038DC080914503826052
:10396000F3CF809145038460EFCF80914503886059
:10397000EBCF809146038160EDCF8091460382605A
:10398000E9CF809145038061DFCF8091450380625C
:10399000DBCF809145038064D7CF0E94DA06809107
:1039A00045038068D1CF809145038C60CDCF809155
:1039B00046038360CFCF809145038E7FC5CF809132
:1039C0004603877FC7CF809145038D7FBDCF809110
:1039D00045038B7FB9CF80914503877FB5CF809119
:1039E00046038E7FB7CF809146038D7FB3CF809102
:1039F00045038F7EA9CF809145038F7DA5CF809110
:103A000045038F7BA1CF0E94DA06809145038F7713
:103A10009BCF80914503837F97CF809146038C7F16
:103A200099CF8091450382FB992790F921E0922755
:103A300090FB82F990FB83F987CF80914603982F02
:103A4000909591708E7F892B90FB81F983CF909117
:103A50004503892F8F7B96FF806476CF0E94DA061C
:103A600090914503892F97FB87F980586DCF81E0AE
:103A70000E94F00C80914503909146030E94650CD2
:103A80000E94DA0680E0DF91CF91089580E0F0CFC8
:103A900090914503892F8F7E94FF806155CF90913F
:103AA0004503892F8E7F90FF81604ECF9091460312
:103AB000892F877F93FF88604DCF81E0E4CF282F47
:103AC00035EB2303C001112497FF04C080589109EE
:103AD000892F089580589F4FFBCF8091240380FF4A
:103AE0000DC06091390170E0660F771F6038710575
:103AF00070F56115710569F1862F089581FF07C082
:103B00006091390184E0689FB0011124EFCF60918A
:103B1000390182FD0AC0809123038823A9F02091F6
:103B2000380160913901821710F088E0ECCF869F50
:103B3000C001112433E0880F991F3A95E1F7622FF5
:103B400070E00E94C02FD2CF68E070E0D5CF8FE741
:103B5000089581E008958091240380FF0CC0609156
:103B6000350170E0759567957595679561157105D7
:103B700049F1862F089581FF06C06091350170E0FC
:103B800075956795F3CF6091350182FD0BC09091DB
:103B900022039923A1F06091340180913501961799
:103BA00038F0682F70E06038710500F38FE70895F2
:103BB000899FC001112470E00E94C02FF4CF61E002
:103BC00070E0D7CF81E008959091270320912803DA
:103BD000922B20912A03922B20912903922B31F0D2
:103BE00098E09093230391E0909322038D3C31F46D
:103BF0000E946D1D81958093280308958E3C19F4D1
:103C00000E946D1DF8CF8F3C31F40E946D1D81958F
:103C1000809327030895803D19F40E946D1DF8CF0D
:103C2000893D29F40E94AB1D8093290308958A3DA4
:103C300021F40E94AB1D8195F7CF8B3D31F40E949A
:103C4000AB1D819580932A0308958C3D19F40E9441
:103C5000AB1DF8CF9FE2980F983070F4815D990BFF
:103C600021E030E001C0220F8A95EAF78091260317
:103C7000822B8093260308958D3D31F48091240397
:103C800081608093240308958E3D21F48091240364
:103C90008260F7CF8F3DB9F7809124038460F1CF24
:103CA000409127038D3C59F48091280387FF0DC074
:103CB0001092280341110BC01092230308C08E3CC0
:103CC00081F48091280318169CF3442381F080919D
:103CD000290390912A03892B09F05AC010922203DC
:103CE00008958F3C49F447FFF0CF1092270380914D
:103CF00028038111ECCFE0CF803D19F41416ACF30A
:103D0000E4CF90912903893D29F41916F4F6109215
:103D10002903DBCF8A3D19F497FFD7CFF8CF9091D5
:103D20002A038B3D29F497FFD0CF10922A03CDCFE1
:103D30008C3D19F41916CCF3C8CF9FE2980F983038
:103D400090F4815D990B21E030E0B90102C0660F6B
:103D5000771F8A95E2F7CB018095909126038923FE
:103D600080932603B2CF8D3D31F4809124038E7F62
:103D700080932403AACF8E3D21F4809124038D7F6C
:103D8000F7CF8F3D09F0A1CF809124038B7FF0CF37
:103D900008950E94CA249C019091270380912803D2
:103DA000982B21F030932103209320039091290335
:103DB00080912A03982B21F030931F0320931E0338
:103DC00085E293E00E943523089586E0E5E2F3E082
:103DD000DF011D928A95E9F71092230310922203C6
:103DE000109224030895A6E0B0E0E9EFFEE10C9400
:103DF000F12F86E0E5E2F3E0DE01119601900D92ED
:103E00008A95E1F729813A814B815C816D817E81C0
:103E100080E090E02696E2E00C940D30FC01828177
:103E200081110EC0838181110BC08481811108C072
:103E300091E08581811101C090E0892F8170089502
:103E400081E0FCCFA6E0B0E0E8E2FFE10C94F02FC7
:103E500086E0E5E2F3E0DE01119601900D928A958D
:103E6000E1F7109227031092280310922903109271
:103E70002A038B819C81892B89F08091200390916A
:103E800021030E94E224AC01909123039923C9F1FC
:103E900080913A018417150608F440C08D819E81F7
:103EA000892B91F080911E0390911F030E94E224C0
:103EB000AC0190912203992309F46AC080913601E4
:103EC0008417150608F472C0BE016F5F7F4F85E24C
:103ED00093E00E94F823811105C085E293E00E94DF
:103EE0000E1F81110E94C91E86E0FE013196A5E2D7
:103EF000B3E001900D928A95E1F72696E3E00C94E9
:103F00000C3020913B018AE0289F90011124241756
:103F1000350720F69F5F9093230302C09F3FD1F7A0
:103F20001B81112359F00E946D1D9FEF11160CF497
:103F300091E0899F802D1124809327031C811123F8
:103F400059F00E946D1D9FEF11160CF491E0899FAE
:103F5000802D11248093280380912703882309F45E
:103F60009DCF10912803112309F498CF0E945F1D63
:103F7000882351F080932703812F0E945F1D88239F
:103F800029F0809328038ACF81E0F4CF81E0F9CF34
:103F9000209137018AE0289F9001112424173507CA
:103FA00008F092CF9F5F9093220302C09F3FD1F70A
:103FB0001D81112359F00E94AB1D9FEF11160CF4C7
:103FC00091E0899F802D1124809329031E81112364
:103FD00059F00E94AB1D9FEF11160CF491E0899FE0
:103FE000802D112480932A0380912903882309F4CA
:103FF0006BCF10912A03112309F466CF0E945F1D35
:10400000882351F080932903812F0E945F1D88230C
:1040100029F080932A0358CF81E0F4CF81E0F9CFD3
:10402000B0E0A0E0E6E1F0E20C94EC2FE82FF0E045
:10403000E65CFD4FD490282F26952695269530E0F6
:10404000F901E652FD4F0491877010E0082E02C07E
:10405000159507950A94E2F701701127F901E653C7
:10406000FD4FE490F12C082E02C0F594E7940A94D9
:10407000E2F791E0E922FF24F901E654FD4FC491F3
:10408000D0E002C0D595C7958A95E2F7C170DD27CB
:104090000115110519F081EE0E94F103E114F104FC
:1040A00019F086EE0E94F1038D2D0E948504E11423
:1040B000F10419F086EE0E943A040115110519F079
:1040C00081EE0E943A04CD2B19F08CE20E94850407
:1040D000CDB7DEB7E7E00C940830EF92FF920F9374
:1040E0001F93CF93DF93EC01162F0AE0888188237A
:1040F00009F454C0813009F04EC08981813099F4AF
:104100007E0122E0E20EF11C8A810E948504E70113
:104110002196812F815050F3EFE9FFE03197F1F7BD
:1041200000C00000F7CF823041F47E0182E0E80E4B
:10413000F11C8A810E94F103EACF833041F47E01B1
:10414000E2E0EE0EF11C8A810E943A04E0CF843056
:1041500011F02196DDCF2A81229690E080E0AE0119
:104160004F5F5F4F2053330B2A30310548F00197E2
:1041700078F2EFE9FFE03197F1F700C00000F7CFE8
:10418000089FB001099F700D1124C901860F971F68
:104190002981EA01E4CF0E941020BACFCDB7DEB763
:1041A000E6E00C9409300F931F93CF93DF93C42F55
:1041B000D22FFC0185818823C9F040932D030E94F2
:1041C000CA2490932C0380932B0380E28C0F8830B9
:1041D00040F4C77081E001C0880FCA95EAF70E94D9
:1041E0008E04DF91CF911F910F91089510912D03AF
:1041F000141332C080912B0390912C030E94E2246F
:10420000883C910548F5C0E2CD0F1D17B9F080E25A
:10421000810F883040F4177081E001C0880F1A9533
:10422000EAF70E949504C83048F481E09D2F97700A
:1042300001C0880F9A95EAF70E948E04802F0E9491
:104240008504C83070F6D77081E001C0880FDA9518
:10425000EAF70E949504C5CF80E28C0F883008F6FB
:10426000C77081E001C0880FCA95EAF7F2CF0F93BB
:10427000DB0188519C4787309105A0F5FC01E05592
:10428000FF4C0C94D42F06E221EE41EE6AE17CE76C
:10429000CD010E94D32080E00F91089507E225EE22
:1042A00045EE6BE17CE7F4CF06E221EE40EE68E1FB
:1042B0007CE7EECF07E225EE44EE69E17CE7E8CF4C
:1042C00006E221EE42EE6CE17CE7E2CF07E225EE6A
:1042D00046EE6DE17CE7DCCF08E221E045EE6EE1E1
:1042E0007CE7D6CF15968C91882319F010922D0378
:1042F000D3CF81E0D1CF1F93CF93DF9387372CE7C4
:10430000920759F0C1E088379C47E1F4FB01C58171
:10431000CC2371F10E94BE2106C0FB01C581CC23D4
:10432000B1F00E94BB210E9452070E94C121D82FE8
:104330000E94BE21C82F0E94BB214D2F6C2F0E94CE
:104340007A08C0E08C2FDF91CF911F9108950E94D1
:10435000BB210E945E070E94C121182F0E94BE212E
:10436000D82F0E94BB21412F6D2F0E947A08EACFDF
:104370000E94BE21EECF80913E01089580913D01C3
:10438000089580913C01089585E290E00E942E30CE
:10439000843289F486E290E00E942E30843059F411
:1043A00087E290E00E942E3091E0873009F090E0A3
:1043B000892F8170089580E0FCCFCF93C82F6FEFD5
:1043C000811164E285E290E00E944C306FEFC111F0
:1043D00064E086E290E00E944C306FEFC11167E02C
:1043E00087E290E00E944C30CF910895089588E2D2
:1043F00090E00E942E30682F70E090E080E00895F9
:104400000895CF93C62F0E9400226C2F88E290E07F
:104410000E944C30CF91089580E00E94DD2160E041
:1044200070E0CB010E9401220E94091B0E94CC1B5C
:1044300081E00E94DD2108950E94F6210E94F7216B
:104440000E9400220E94C421811102C00E940C22FD
:10445000089508959C01FB018581882351F0A901ED
:1044600057574038510530F4822F0E94DC1B80E002
:10447000089581E008952FEFFC01208308950E94A4
:104480003B22089580E00895B0E0A0E0EAE4F2E283
:104490000C94EB2FEC01E62E0E944222811110C0F9
:1044A000E881E150E331B8F4F0E0E954FF4C0C94BA
:1044B000D42F19828CE08A836E2DCE010E94CE28E3
:1044C000CDB7DEB7E8E00C94073089818230C1F0C7
:1044D00028F4813061F08FEF8883EECF833099F03C
:1044E0008430C9F71A821B821C821D82E5CF0E948C
:1044F000D6240E94DA2F6A837B838C839D83DCCF52
:104500000E94F721F6CF8A81082F10E06E0193E018
:10451000C90ED11C9CE1F92EF80E0C30110560F685
:10452000802F0E94B810F60181936F010F5F1F4F1B
:10453000F012F3CFC1CF8981823031F0853059F646
:104540008A810E942922B8CF6A817B818C819D81DA
:104550000E94DA2F0E940122AFCF4B816A818981AC
:104560000E94CB1A9827892798279D838C83A4CFF4
:104570002C813D813227232732274B816A81898113
:104580000E94ED1A99CF0E94091B96CF6E2DCE0185
:104590000E943F2291CF0E947D1B89838DCF0E9474
:1045A0007F1B9827892798279A83898385CF6B81DA
:1045B00070E089819A81AE014C5F5F4F982789270F
:1045C00098270E94821B78CF6B8170E089819A8145
:1045D000AE014C5F5F4F9827892798270E94A71B41
:1045E0006BCF0E94CC1B68CF0E94B91AD6CF6B81CB
:1045F00070E089819A81AE014C5F5F4F98278927CF
:1046000098270E94291B58CF6B8170E089819A817D
:10461000AE014C5F5F4F9827892798270E944D1B5A
:104620004BCF909334038093330308950E946C1210
:10463000811103C080912E030895E0913303F0911E
:104640003403309729F00190F081E02D0995089509
:1046500080E00895E0913303F0913403309721F026
:104660000280F381E02D09950895E0913303F091E4
:104670003403309739F022E0DC012C930680F78177
:10468000E02D09950895A3E0B0E0E9E4F3E20C948D
:10469000F12F209131033091320328173907A1F00F
:1046A0009093320380933103E0913303F09134030C
:1046B000309751F023E029839B838A830084F1851E
:1046C000E02DCE01019609952396E2E00C940D3081
:1046D000A3E0B0E0EEE6F3E20C94F12F20912F037B
:1046E0003091300328173907A1F09093300380935D
:1046F0002F03E0913303F0913403309751F024E01D
:1047000029839B838A830084F185E02DCE01019665
:1047100009952396E2E00C940D30409100015091F0
:1047200001019A012E5F3F4F485F5F4F80E02417E1
:10473000350709F40895F90191919F019923B9F37F
:104740008F5FF5CF882371F0209100013091010136
:10475000F9013296285F3F4F9191981729F0E2179F
:10476000F307D1F780E0089581E008959C01FC01F2
:1047700032969FEF80E04191461751F09F3F19F428
:10478000411101C0982F8F5F8630A9F79F3F09F430
:104790000895290F311D97FD3A95F9016283089517
:1047A000FC01329608962191261303C0DF01119770
:1047B0001C92E817F907B9F70895682F8091000156
:1047C000909101010E94B6230895682F8091000105
:1047D000909101010E94D0230895E0910001F09191
:1047E0000101329686E0DF011D928A95E9F708956E
:1047F000DC01FB0111969C9111978181981322C0D5
:1048000012968C911297882319F0928189131AC0FD
:1048100013968C911397882319F09381891312C0F2
:1048200015968C911597882319F0958189130AC0E4
:1048300014969C91992321F081E02481291303C0CF
:1048400080E001C081E08170089508950E942524D0
:104850000895811106C081E0809335030E942624CB
:10486000089582E0F9CF83E0809335030E942624E7
:1048700008950E942924089581E0809335030E94C1
:10488000262408950E943C240895089508950E94C6
:1048900046240895089508950E9445240895CF93CD
:1048A0000E944A240E94E2110E944B24C0E08C2FF7
:1048B0000E94B810811105C0CF5FCC30C1F7CF91F5
:1048C000089581E0FCCF85B7806885BF85B7806893
:1048D00085BF08951F921FB61F9211248F939F9337
:1048E000AF93BF9380913603811113C08091690506
:1048F00090916A05A0916B05B0916C054196A11D40
:10490000B11D8093690590936A05A0936B05B093E0
:104910006C05BF91AF919F918F911F901FBE1F900B
:10492000189580917105843031F10E944F031092E7
:10493000360388E190E020E40FB6F894A8958093C0
:1049400060000FBE2093600083B7817F846083BFC7
:1049500083B7816083BF7894889583B78E7F83BF48
:104960000FB6F894A89580916000886180936000EC
:10497000109260000FBE08950E94DA060E9458034C
:10498000089582E084BD93E095BD9AEF97BD809332
:104990006E0008952FB7F8948091690590916A058B
:1049A000A0916B05B0916C052FBF08952FB7F894B7
:1049B0006091690570916A0580916B0590916C0515
:1049C0002FBF08959C014FB7F8948091690590918D
:1049D0006A05A0916B05B0916C054FBF821B930BCC
:1049E0000895CF92DF92EF92FF922FB7F894C09084
:1049F0006905D0906A05E0906B05F0906C052FBFBB
:104A0000A7019601261B370B480B590BCA01B901A8
:104A1000FF90EF90DF90CF90089578941F921FB68B
:104A20001F9211248F939F93AF93BF938091690539
:104A300090916A05A0916B05B0916C050196A11D3E
:104A4000B11D8093690590936A05A0936B05B0939F
:104A50006C05BF91AF919F918F911F901FBE1F90CA
:104A6000189587E797E7909301088093000888E1FD
:104A70009AE00FB6F894A895809360000FBE9093CB
:104A80006000FFCF88E19AE00FB6F894A895809374
:104A900060000FBE90936000FFCF1092B9008CE0D1
:104AA0008093B8000895B0E0A0E0E9E5F5E20C9449
:104AB000E82FB82EEB010E94CA246C01EE24E39487
:104AC000F12CC431D10560F025E0E22EF12CCF3F6E
:104AD000DC0731F0CE0164E170E00E94AC2F7B0175
:104AE00084EAA82E94E8992E1092BC00A092BC00F3
:104AF0000E94CA248C018091BC0087FF0DC0809168
:104B0000B900887F8830F9F08091B900887F8031C2
:104B1000D1F00FEF1FEF08C0C8010E94E224E81691
:104B2000F90648F70EEF1FEFCF3FDC07E9F2C601A9
:104B30000E94E224C817D907B8F6C801CDB7DEB77E
:104B4000EBE00C940430B092BB009092BC000E9449
:104B5000CA248C018091BC0087FF0AC08091B900F3
:104B6000887F883111F08034A1F610E000E0E5CFB5
:104B7000C8010E94E224E816F90660F7D3CF0F932C
:104B80001F93CF93DF93EB018093BB0084E8809366
:104B9000BC000E94CA248C018091BC0087FF11C018
:104BA0002091B900287F81E090E0283211F490E054
:104BB00080E0919581959109DF91CF911F910F919F
:104BC0000895CF3FDC0741F3C8010E94E224C817D3
:104BD000D90710F78EEF9FEFEFCF0F931F93CF936F
:104BE000DF93EC0184EC8093BC000E94CA248C010A
:104BF0008091BC0087FF08C08091BB0090E0DF91EE
:104C0000CF911F910F910895CF3FDC0789F3C80121
:104C10000E94E224C817D90758F78EEF9FEFEFCF15
:104C20000F931F93CF93DF93EC0184E88093BC0034
:104C30000E94CA248C018091BC0087FF08C080912B
:104C4000BB0090E0DF91CF911F910F910895CF3F6E
:104C5000DC0789F3C8010E94E224C817D90758F776
:104C60008EEF9FEFEFCFB0E0A0E0E9E3F6E20C9427
:104C7000EB2F6B018A017901B9010E945325E601EE
:104C80000C0D1D1DC017D10711F097FF08C024E9B6
:104C90002093BC00CDB7DEB7E8E00C940730B70135
:104CA00089910E94BF25EECFB0E0A0E0EAE5F6E2F0
:104CB0000C94EB2FC62F6A017901B8010E9453258D
:104CC00097FD0CC0B8018C2F0E94BF25E601EC0CAB
:104CD000FD1CCE15DF0511F097FF08C024E92093D5
:104CE000BC00CDB7DEB7E8E00C940730B80189917D
:104CF0000E94BF25EECFB0E0A0E0E1E8F6E20C9420
:104D0000EB2FF82EE62EEA016901B8010E94532527
:104D100097FD15C0B8018E2D0E94BF2597FD0FC0CD
:104D2000B8018F2D81600E945325F12CE12C21E0E8
:104D3000C21AD108EC14FD04E0F497FF0DC024E979
:104D40002093BC001816190614F490E080E0CDB74B
:104D5000DEB7E8E00C940730C8010E94ED2597FD0E
:104D600004C0FE01EE0DFF1D80832FEFE21AF20A50
:104D7000E1CF97FDE4CFC8010E94102697FDDFCF59
:104D8000CC0DDD1D8883DBCF84E98093BC000895C2
:104D90008EE14A9B02C08150E1F74A9BFECF089505
:104DA0005A9880E28A95F1F75A9A0895FC013BE0FF
:104DB0003A95F1F798E020E080E031E040E14A9553
:104DC000F1F7880F4A9B02C08160232742E04A9591
:104DD000F1F7000040E14A95F1F7915079F790E141
:104DE0009A95F1F799B132E03A95F1F7000040E178
:104DF0004A95F1F792FB992790F992272081920F1B
:104E000090830895A1E0B0E0E8E0F7E20C94ED2F84
:104E100019828C017C01E60EF11C0E151F0541F470
:104E200081E09981911180E02196E6E00C940930AF
:104E30000E94C826CE0101960E94D626F8018193D1
:104E40008F01EBCF529A5A9A089552985A9AEA9A39
:104E5000E9E6F0E080818F7C808308956150770BD4
:104E600091E001C0990F6A95EAF720E031E09111D5
:104E700008C0222391F05A9A80E28A95F1F75A9855
:104E80000895492F482339F05A9A232740E24A953A
:104E9000F1F79695ECCF5A98F9CF5A98EDCFFF924B
:104EA0000F931F93CF93DF93EC018C01060F111D1D
:104EB000C017D10729F4CDB7DEB7E5E00C940A306E
:104EC000F9900E94D02668E08F2D0E942E27F0CF07
:104ED0001F920F920FB60F9211240F931F932F93CF
:104EE0003F934F935F936F937F938F939F93AF9372
:104EF000BF93EF93FF93CF93DF930F92CDB7DEB7BE
:104F000019820E94C826CE0101960E94D626082F3B
:104F1000069506950695282F22952570902F957059
:104F2000290F922F937026952695920F98279770A8
:104F30008981982B09F05CC0063008F059C080E1E7
:104F40008A95F1F75A9A529A82E08A95F1F700C051
:104F50005A9888E0089F80011124D801AD5FBE4FA8
:104F60001696ED91FC9117973097A9F06091C701C3
:104F70007091C80114962D913C911597260F371FFB
:104F800011968D919C911297680F791F13964C91F1
:104F900013978C910995F801ED5FFE4F63816623AD
:104FA00051F02091C7013091C80184819581820F11
:104FB000931F0E944F270E94D02680E18A95F1F727
:104FC0005A9852985A9A80E18A95F1F7F801ED5F64
:104FD000FE4F6081662351F02091C7013091C801D6
:104FE00081819281820F931F0E9402270E94C8260E
:104FF0000F90DF91CF91FF91EF91BF91AF919F9172
:105000008F917F916F915F914F913F912F911F9160
:105010000F910F900FBE0F901F9018950F931F9335
:10502000CF93DF93EC0106970CF04CC0F894529AA2
:105030005A9885E08A95F1F700009C2F9695957017
:105040008C2F8570980F892F83709695969523E005
:10505000CC0FDD1F2A95E1F7980F8E01092B0E94D6
:10506000D02600C068E0802F0E942E2780E18A951C
:10507000F1F752985A9A4A9B1EC087E090E04A99ED
:105080001CC0FE01ED5FFE4F63816623F9F02091A5
:10509000C7013091C80184819581820F931F0E94BE
:1050A0000227811113C0529A5A9A7894DF91CF91B6
:1050B0001F910F91089500C0DECF019729F4529AF5
:1050C0005A9A789480E0F2CF00C0D9CF0E94C826C7
:1050D00080E28A95F1F75A98529A80E18A95F1F721
:1050E000CD5FDE4F6881662351F02091C70130917A
:1050F000C80189819A81820F931F0E944F270E94C5
:10510000D026789481E0D2CF80913F03089508950E
:105110009B01BA01909171059430E9F48F708093EE
:10512000E9009FEF8091E800915085FD06C085ED74
:105130008A95F1F700009111F5CF8091E80085FF85
:105140000AC050E040E0C9010E94C42A8091E800F2
:105150008E778093E800089543E050E0BC0184E03E
:105160000E948828089546E050E0BC0184E00E9437
:1051700088280895CF93DF93EC0148E050E0BC010C
:1051800081E00E94882888E0FE01A7E3B3E0019057
:105190000D928A95E1F7DF91CF910895603231F455
:1051A00040E250E0BC0182E00E948828089580918E
:1051B0007005811109C00E94A32C0E94002D8091CE
:1051C000E20084608093E2000895109270050895D3
:1051D0000E943C24089560916D0581E0611101C039
:1051E00080E00E94332408959091710581E094300D
:1051F00009F080E060916D050E943924089542E035
:1052000061EC81E00E941F2C42E261EC84E00E948C
:105210001F2C42E261EC82E00E941F2C42E260EC13
:1052200083E00E941F2C9091710581E0943009F079
:1052300080E060916D050E94292408958091730596
:10524000833009F463C030F48130E1F1823009F435
:10525000A0C008958A3009F48CC08B3009F471C065
:10526000893009F052C080917205813209F04DC039
:105270008091760590917705009719F0029709F0D3
:1052800044C08091E800877F8093E8008091E80027
:1052900082FF37C09091F3008091F200029731F4C1
:1052A0008091F100813011F0863021F48091F1007D
:1052B00080933F038091E8008B778093E8000E9401
:1052C000532C23C080917205813AF9F48091E80053
:1052D000877F8093E8008091760590917705892BF0
:1052E00061F468E087E393E070E00E94622B8091B4
:1052F000E8008B778093E800089560E090E080E01C
:10530000F3CF809171058111C1CF0895809172050D
:10531000813AD9F78091760590917705892BA9F785
:105320008091E800877F8093E8008091E80080FF0B
:10533000FCCF809149018093F1008091E8008E7745
:10534000BCCF80917205813201F7809176059091F2
:105350007705892BD1F68091E800877F8093E8005C
:105360000E94532C80917405809349010E94DA06B3
:10537000089580917205813241F68091E800877F1F
:105380008093E8000E94532C809175058093400320
:10539000089580917205813A09F0B7CF8091E800B5
:1053A000877F8093E8008091E80080FFFCCF8091A8
:1053B0004003C1CF84B7877F84BF0FB6F894A89508
:1053C00080916000886180936000109260000FBE41
:1053D00080E890E00FB6F8948093610090936100AC
:1053E0000FBE0E94422408950E94A32C0E94002D0B
:1053F000E2EEF0E080818460808378940E947F2FC9
:1054000008958FE391E00E94112308958091710522
:10541000853031F480917105853019F00E94BC24EB
:1054200008950E94912480916F05882399F30E942A
:105430004F24882379F30E94AE2A0E94DA06EACF2D
:10544000A0E2B0E0E6E2FAE20C94F12F809171055F
:10545000843009F583E08093E9008091E80082FFC1
:105460001AC08091E80090E085FF09C050E040E05C
:1054700060E270E0CE0101960E94132B91E08091D2
:10548000E8008B778093E800992329F060E2CE0151
:1054900001960E944422A096E2E00C940D309A01FD
:1054A00040917805509179050E94572A0895492F17
:1054B00055274330510521F168F44130510509F475
:1054C00043C04230510509F444C090E080E050E010
:1054D00040E026C04132510551F142325105A9F751
:1054E0006330710590F7FB01EE0FFF1FEC50FE4F8C
:1054F000408151816F507E4FFB01808190E010C050
:1055000099278130910581F0009729F00297E9F6FB
:10551000EAEEF2E002C0E8E0F3E0849190E0AF014F
:10552000F901518340830895ECEFF2E0F6CF633048
:10553000710558F6660F771FFB01E650FE4F40815C
:10554000518189E090E0ECCF82E190E047E653E0C2
:10555000E7CF8BE590E04CE053E0E2CF80E189BDFE
:1055600082E189BD09B400FEFDCF8091D8008F7D16
:105570008093D8008091E00082608093E000809169
:10558000E00081FDFCCF0895AF92BF92CF92DF92F1
:10559000FF920F931F93CF93DF936C01EB018A016E
:1055A0000E94722CF82E811123C00115110539F0CB
:1055B000F80180819181C81BD90BC80ED91EB12C6E
:1055C000A12C2097A9F08091E80085FD22C0809150
:1055D000E8008E778093E80001151105A1F0F8012D
:1055E00080819181A80EB91EB182A08285E0F82E3B
:1055F0008F2DDF91CF911F910F91FF90DF90CF9072
:10560000BF90AF9008950E94722C8823D1F2F82E9B
:10561000EFCFF60181916F018093F1002197FFEFA9
:10562000AF1ABF0ACECFAF92BF92CF92DF92FF9256
:105630000F931F93CF93DF936C01EB018A010E94BC
:10564000722CF82E811123C00115110539F0F801D3
:1056500080819181C81BD90BC80ED91EB12CA12CF9
:105660002097A9F08091E80085FD22C08091E80094
:105670008B778093E80001151105A1F0F801808176
:105680009181A80EB91EB182A08285E0F82E8F2DDF
:10569000DF91CF911F910F91FF90DF90CF90BF903E
:1056A000AF9008950E94722C8823D1F2F82EEFCF8C
:1056B0008091F100F60181936F012197FFEFAF1AFE
:1056C000BF0ACECFFC0180917805909179058617AD
:1056D0009707A0F06115710529F49091E8009E7775
:1056E0009093E80090E06115710551F4911108C0A4
:1056F0008091E80082FF34C080E00895BC01F2CFC1
:10570000809171058823C1F18530C1F18091E80055
:1057100083FD30C08091E80082FDEACF8091E800EF
:1057200080FFE1CF8091F3002091F200382F6115C6
:10573000710519F02830310558F091E02830310515
:1057400009F090E02091E8002E772093E800CBCF7D
:1057500081918093F100615071092F5F3F4FE7CF36
:1057600080917105882341F0853041F08091E800F7
:1057700083FFBECF81E0089582E0089583E008951D
:10578000FC01809178059091790586179707A0F024
:105790006115710529F48091E8008E778093E80007
:1057A00090E06115710551F4911108C08091E800F5
:1057B00082FF35C080E00895BC01F2CF8091710571
:1057C0008823C9F18530C9F18091E80083FD31C09B
:1057D0008091E80082FDEACF8091E80080FFE1CF70
:1057E0008091F3002091F200382F6115710519F0B6
:1057F0002830310558F091E02830310509F090E06B
:105800008091E8008E778093E800CBCF84918093DD
:10581000F1003196615071092F5F3F4FE6CF8091C3
:105820007105882341F0853041F08091E80083FFC5
:10583000BDCF81E0089582E0089583E00895982F18
:10584000973028F08F708093E90081E0089590935D
:10585000E900242F762F50E0981731F07091EC007A
:105860002091ED005091F00021FD02C09F5FE8CF34
:105870003091EB003E7F3093EB003091ED003D7FA7
:105880003093ED003091EB0031603093EB0070937A
:10589000EC002093ED005093F0002091EE0027FDE6
:1058A000E5CF80E008958091720587FF13C0809155
:1058B000E80082FF06C08091E8008B778093E800C3
:1058C00004C0809171058111F2CF08958091710516
:1058D0008823D9F38091E80080FFF8CF8091E80019
:1058E0008E77ECCF2091E4003091E50095E6A90198
:1058F0002091EC00822F817020FF06C08091E8008B
:1059000080FF06C080E008952091E80022FD1AC0C3
:1059100080917105882389F0853089F08091EB00B2
:1059200085FD0FC02091E4003091E5004217530738
:10593000F9F29150E1F684E0089582E0089583E061
:10594000089581E008950E94122D0E941A2DE0EE24
:10595000F0E0808181608083E8EDF0E080818F77E6
:10596000808319BCA7EDB0E08C918E7F8C938081F1
:105970008F7E80831092700508950F931F93CF93AD
:10598000DF930E94122D0E941A2DC8EDD0E088816D
:105990008F77888388818068888388818F7D8883DA
:1059A00019BC1092710510926D0510926F0510923E
:1059B0006E0500EE10E0F80180818B7F8083888186
:1059C0008160888342E060E080E00E941F2CE1EE6D
:1059D000F0E080818E7F8083E2EEF0E08081816064
:1059E0008083808188608083F80180818E7F8083BE
:1059F000888180618883DF91CF911F910F910895F5
:105A0000E8EDF0E080818F7E8083E7EDF0E080813B
:105A10008160808384E082BF81E0809370050E9472
:105A2000BD2C0895E8EDF0E080818E7F8083109298
:105A3000E20008951092DA001092E10008951F929A
:105A40000F920FB60F9211242F933F934F935F93B2
:105A50006F937F938F939F93AF93BF93EF93FF9336
:105A60008091E10082FF0BC08091E20082FF07C0BD
:105A70008091E1008B7F8093E1000E947E2F8091D6
:105A8000DA0080FF19C08091D80080FF15C0809196
:105A9000DA008E7F8093DA008091D90080FF96C073
:105AA00080E189BD82E189BD09B400FEFDCF81E0BE
:105AB000809371050E94D7288091E10080FF19C072
:105AC0008091E20080FF15C08091E2008E7F80937C
:105AD000E2008091E20080618093E2008091D80032
