:100000000C94A1010C94BE010C94BE010C94BD1C77
:100010000C94BE010C94BE010C94BE010C94BE0164
:100020000C94BE010C94BE010C94E3210C94B722F5
:100030000C943A1B0C94BE010C94BE010C94BE01AE
:100040000C94BE010C94BE010C94BE010C94BE0134
:100050000C94BE010C94DD1B0C94BE010C94BE01EB
:100060000C94BE010C94BE010C94BE010C94BE0114
:100070000C94BE010C94BE010C94BE010C94BE0104
:100080000C94BE010C94BE010C94BE010C94BE01F4
:100090000C94BE010C94BE010C94BE010C94BE01E4
:1000A0000C94BE010C94BE010C94BE0114001A0005
:1000B00008001500170004001600070009000A00D8
:1000C0001D001B00060019000500E100E000E30030
:1000D000E2002C41000000000000000000001300BE
:1000E00012000C0018001C0028000F000E000D006C
:1000F0000B00370052003600100011004F00510075
:1001000050002A002C420000000000000000000007
:1001100000000000000000000000000000000000DF
:100120000000000014001A00080015001700040069
:100130001600070009000A001D001B000600190038
:100140000500E100E000E300E20000000000000024
:10015000000000000000130012000C0018001C003A
:1001600028000F000E000D000B0037005200360073
:10017000100011004F00510050002A002C420000D6
:10018000000000000000000000000000000000006F
:1001900000000000000000000000000014001A0031
:1001A00008001500170004001600070009000A00E7
:1001B0001D001B00060019000500E100E000E3003F
:1001C000E2002C41000000000000000000001300CD
:1001D00012000C0018001C0028000F000E000D007B
:1001E0000B00370052003600100011004F00510084
:1001F00050002A0000000000000000000000000085
:1002000000000000000000000000000000000000EE
:1002100000000000100363006F006F006C003600E8
:100220003400340000000A036D002E006B006900EA
:1002300000000403090409023B00020100A0FA09BE
:100240000400000103010100092111010001224401
:1002500000070581030800010904010001030000F3
:1002600000092111010001227B0007058203200003
:10027000011201000200000008434D440600010184
:1002800002000105010902A10185020901A1000581
:100290000919012908150025019508750181020534
:1002A00001093009311581257F95027508810609FC
:1002B000381581257F950175088106050C0A3802DD
:1002C0001581257F950175088106C0C0050109804B
:1002D000A101850319012AB700150126B700950170
:1002E00075108100C0050C0901A101850419012ABE
:1002F000A002150126A002950175108100C005011C
:100300000906A101050719E029E71500250195084F
:10031000750181029501750881010507190029FF02
:10032000150026FF009506750881000508190129AA
:10033000051500250195057501910295017503913B
:1003400001C011241FBECFEFDAE0DEBFCDBF11E048
:10035000A0E0B1E0ECEFFAE402C005900D92A23DFE
:10036000B107D9F723E0A2EDB1E001C01D92A130A1
:10037000B207E1F70E94DF130C943D250C940000B6
:100380008330B8F46C30A8F4453098F450E095E030
:10039000699F400D511D1124FA019CE3899FE00DD6
:1003A000F11D1124EE0FFF1FE455FF4F859194912D
:1003B000089581E090E008950E94C001089581E0D1
:1003C00008950E94DF01089581E008950E94DF01F1
:1003D00008950E94E601089508950E94EC01089591
:1003E000A6E0B0E0E6EFF1E00C94992449835A834B
:1003F0009E833091D90189819A8131111AC03E8141
:10040000332399F0222389F00E948807182F682F40
:1004100089819A810E94640769817A81812F0E9473
:10042000660E2696E3E00C94B5240E947607182FFA
:10043000F3CF0E94880769817A81F1CFFC01262FD2
:100440004081518162817381848195810E94F00194
:100450000895CF93DF93EC0161E00E941E02BE017C
:100460000E94E101DF91CF910895CF93DF93EC01DA
:1004700060E00E941E02BE010E94ED01DF91CF915B
:10048000089581E008950E9441020895CF93C82FF6
:100490000E9439068C2F0E9443022FEF84E39CE0D8
:1004A000215080409040E1F700C00000CF910895B6
:1004B00081E00E9446020E94011C089580E00E9493
:1004C00046020E94121C08950F931F93CF93DF934F
:1004D0008C0161E00E941E02EC01B8010E94E9015A
:1004E000811106C080E0DF91CF911F910F91089597
:1004F000B801CE010E949D198823A1F3B801CE0155
:100500000E94C715882371F3B801CE010E949D1582
:10051000882341F3F8018581882361F0C330FCE72B
:10052000DF07E9F058F4C115ECE7DE07A9F0C130A8
:10053000DC47B9F0C8010E94E401D5CFCB358CE788
:10054000D807A9F0CC35ECE7DE0771F0CA35DC47F7
:1005500089F70E949F0BEECF0E945802C3CF0E94E2
:10056000A70B0E945E02BECF0E94950BE3CF0E94B4
:10057000A30BE0CF0E94171B0E94E10208950E9486
:10058000E5020E941C1B0895089581E008950895D6
:10059000CF93DF93D82F0E94C502C82F882319F06C
:1005A0008D2F0E94C7028C2FDF91CF91089508955F
:1005B000CF93C82F0E94C4028C2F0E94C802CF91F3
:1005C000089580E00E94D80208950E94E6190E94D2
:1005D000D8020895CF930E94E619C82F8091D401C4
:1005E0008C1779F0C093D4010E94A61B6093D501AB
:1005F0007093D6018093D7019093D8018C2F0E94DD
:10060000D802CF910895ADE0B0E0E9E0F3E00C94BA
:100610009A24488759876A877B878C879D879111A1
:100620000E94D50A1F8286E0FE013896DE011196EF
:1006300001900D928A95E1F78D8181110DC029817C
:100640003A814B815C816D817E818F810E941F0A7E
:100650002D96E2E00C94B624CE0101960E94290268
:100660008111EDCFF5CFFC012481213021F480816F
:1006700091810E94BA070895662329F00E942817E5
:100680000E940D1808950E949417FACFCF93C82F97
:10069000882399F08CEF8C0F813A88F48C2F0E947C
:1006A000721A882329F08C2F0E94B51A0E94440BDD
:1006B0008C2F0E94AD1A0E94440BCF91089580E2C6
:1006C0008C0F883048F4C77081E001C0880FCA954C
:1006D000EAF70E94B80AEFCFEBE5EC0FE33040F405
:1006E000F0E0E858FE4F808190E00E94131AE5CFB9
:1006F000E8E5EC0FEB3150F4F0E0EE0FFF1FEE5B9E
:10070000FE4F808191810E94381AD7CF83E38C0FEE
:10071000833198F661E08C2F0E943C03CECF882372
:1007200081F19CEF980F913A28F40E94B51A0E942B
:10073000440B089590E2980F983050F4877091E040
:1007400001C0990F8A95EAF7892F0E94BE0AEFCF60
:100750009BE5980F933028F490E080E00E94131AF4
:10076000089598E5980F9B3128F490E080E00E946E
:10077000381A089593E3980F933118F460E00E94BB
:100780003C0308951F93CF93DF93182FEB010E9432
:100790004603209739F4812F0E948F03DF91CF9178
:1007A0001F9108958FE99FE00197F1F700C00000C5
:1007B0002197EFCF70E060E0893311F460E570E0DD
:1007C0000E94C2030895882321F00E94B80A0E9463
:1007D000440B0895882321F00E94BE0A0E94440B16
:1007E0000895B0E0A0E0E7EFF3E00C9493246C01EF
:1007F000D62FC72FFC011581068102950F700E942C
:10080000AE0AE82E8823F9F0E12E1123E1F08C2FB7
:10081000807F803461F080E28D0F883008F18C2F6A
:10082000807E803221F4D230D8F00023C9F080914C
:10083000D50282FF15C082E00E94690B0E94AE0AB9
:1008400091E0E82EE926BC2EB2949FE0B922FBE0AD
:10085000FB15B8F1EB2DF0E0E15CFA4D0C9484242B
:10086000E12CF1CF0C2F0F70C07F11F00295007FAB
:10087000112399F0002359F080E28D0F883010F099
:10088000D11107C0802F0E94B80A0E94440B8D2FFF
:100890005AC0802F0E94C80AF8CF8D2F0E948F0364
:1008A000002379F080E28D0F883010F0D11104C060
:1008B000802F0E94BE0A03C0802F0E94CE0A0E9491
:1008C000440BEB2DE850FF0B349720F40E94E619FF
:1008D0000E94D802EE2089F00E94AA0A80FD0DC075
:1008E000F60115820E94A40A0E94C206C6010E9457
:1008F00000060E94A40A0E94D206CDB7DEB7E9E046
:100900000C94AF242C2F2F70F22EC07FC03219F020
:10091000F29480EFF822DD2341F0D130D1F11123A0
:1009200009F444C00023F1F0B2CF8091D50282FDDA
:1009300015C0112359F0FF2029F08F2D0E94B80A0D
:100940000E94440B80E00E944603BBCF80E00E94DF
:100950008F03FF2009F4B5CF8F2DABCF112369F0A2
:10096000011104C08F2D0E94E303ABCF013009F0C9
:10097000A8CF8F2D0E94EC0AA4CF0111A2CF8F2DFA
:100980000E94EA038F2D0E94F80A8F2D0E94DC0A34
:1009900098CF112321F0063008F093CFE3CF053034
:1009A00008F08FCF8F2D0E94EA038BCF0023D1F365
:1009B000D93349F43FEF87EE93E0315080409040C7
:1009C000E1F700C000008D2F0E948F037ACF8C2F9B
:1009D00086958695837069F0813009F072CF8D2FEE
:1009E0009C2F9370111102C080E090E00E94381A91
:1009F00068CF8D2F9C2F9370111102C080E090E082
:100A00000E94131A5ECF612F8D2F0E943C0359CF95
:100A10008C2F8370A1F5111154CF4D2F429546951F
:100A20004770440F440F2D2F2F7030E0042E02C06A
:100A3000220F331F0A94E2F790E080E0D4FF09C050
:100A40008FE090E002C0880F991F4A95E2F78095E9
:100A50009095C695C695C370822B932BC23049F0F2
:100A600058F4C13019F00E9492062BCF0E948906DB
:100A700028CF0E949B0625CF0E94860622CF86950E
:100A8000112311F08C2F8170882309F41ACF4D2F78
:100A9000429546954770440F440F2D2F2F7030E03C
:100AA000042E02C0220F331F0A94E2F790E080E088
:100AB000D4FF09C08FE090E002C0880F991F4A95CB
:100AC000E2F780959095C695C695C370822B932BBF
:100AD000C23049F058F4C13019F00E94FD06F1CE41
:100AE0000E94F406EECE0E940607EBCE0E94AA06F4
:100AF000E8CECF70112329F08C2F0E94C2068D2FD3
:100B000032CF8D2F0E94EA038C2F0E94D206D9CEBD
:100B1000D23F41F160F4D03FB9F0D13F81F01123D1
:100B200009F446C00111B3CE8C2F8F711FC0D33F83
:100B300001F1D43FA1F78091D50282FD24C08C2F12
:100B40008F71112311F312C0112341F0053008F009
:100B5000B8CE8C2F8F710E94E406B3CE063008F019
:100B6000B0CEF7CF8C2F8F711111CFCF0E94C2065C
:100B7000A8CE112329F08C2F8F710E94B606A1CE2A
:100B80000E94B1069ECE112349F0CF718C2F0E9496
:100B9000C20663E08C2F0E944B0B93CE81E00E9433
:100BA000690B023008F48DCE82E00E94690B89CE79
:100BB000002359F0D93309F006CFEFEFF7EE23E029
:100BC000E150F0402040E1F7FCCE8C2F8F719DCF9B
:100BD0000F931F93CF93DF93EC01688179818D810F
:100BE0000E94C5078C010E940F070E948506B8016C
:100BF000CE010E94F103DF91CF911F910F910895D3
:100C0000CF93DF93EC018C81882399F0CE010E9471
:100C10006402811111C00E94AE0A882351F08D81B7
:100C2000882339F08091D50282FF03C082E00E94C0
:100C3000690BDF91CF910895CE010E94E805CE01A6
:100C40000E943502F6CF90E080E00E94131A90E0F7
:100C500080E00E94381A0E94D50A0E94440B0E942C
:100C600029180E940D1808950E94BD1A0E9423069B
:100C700008950E94C50A0E943406089592959F70B7
:100C8000963091F058F4925F9F70923058F4803F04
:100C900019F030F4883E30F481E008959A5FF4CF83
:100CA000843FD1F380E00895883EB0F3813FD1F7CF
:100CB000F3CFFC012481222339F0808191810E94AD
:100CC000BA070E943E06089580E00895A6E0B0E0CD
:100CD000ECE6F6E00C949A242696E2E00C94B62416
:100CE000A7E0B0E0E6E7F6E00C949A242796E2E06D
:100CF0000C94B62408950E947A0608950E947B06FB
:100D00009093FD018093FC01089508950E947E0652
:100D100008952091FC013091FD01822B932B0E94BC
:100D20007E0608952091FC013091FD0182239323DA
:100D30000E947E0608952091FC013091FD018227DA
:100D400093270E947E0608950E947A0608950E94C5
:100D5000A40608950E94A7069093FB018093FA01D0
:100D6000089590E080E00E94AA06089521E030E016
:100D7000A90102C0440F551F8A95E2F7CA010E94DB
:100D8000AA06089521E030E002C0220F331F8A95A1
:100D9000E2F78091FA019091FB01822B932B0E9444
:100DA000AA06089521E030E002C0220F331F8A9581
:100DB000E2F7209530958091FA019091FB01822312
:100DC00093230E94AA06089521E030E002C0220F7A
:100DD000331F8A95E2F78091FA019091FB018227F7
:100DE00093270E94AA0608952091FA013091FB01F1
:100DF000822B932B0E94AA0608952091FA0130912C
:100E0000FB01822393230E94AA0608952091FA01F0
:100E10003091FB01822793270E94AA060895089526
:100E2000262F277091E001C0990F2A95EAF723E059
:100E3000769567952A95E1F7660F771F660F771FFE
:100E4000FA01E60FF71F50E040E0682F70E0819153
:100E5000DF0111979B01042E02C0369527950A9455
:100E6000E2F7217021952827292328272C934F5F0B
:100E70005F4F4430510559F70895A82FA77023E01C
:100E8000969587952A95E1F7880F991F880F991FE6
:100E9000FB01E80FF91F50E040E080E0219130E0D5
:100EA0000A2E02C0369527950A94E2F7217033275F
:100EB000042E01C0220F0A94EAF7822B4F5F5F4F86
:100EC0004430510559F70895262F9C3070F4853031
:100ED00060F4682F70E085E0989F600D711D11240B
:100EE0004AED51E0822F0E9410070895292F9C306F
:100EF00068F4853058F490E06AED71E035E0239FA6
:100F0000800D911D11240E943D07089580E00895F1
:100F1000B0E0A0E0EEE8F7E00C9493247C010091AF
:100F2000FA011091FB018091FC019091FD01082BC9
:100F3000192BCFE0D0E0CC24C394D12CBC2EC60119
:100F40000C2E02C0880F991F0A94E2F78023912388
:100F5000892B49F4219790F7B12C8B2DCDB7DEB7B3
:100F6000E9E00C94AF24B7018C2F0E94720E019718
:100F700089F3F3CFCF93DF93EC010E948807BE0182
:100F80000E94720EDF91CF9108951F93CF93DF934C
:100F9000EB019091D901992339F0CB010E94BA0756
:100FA000DF91CF911F910895882369F0CB010E94B2
:100FB0008807182F682FCE010E946407BE01812F79
:100FC0000E94720EEDCFCB010E947607182FF6CF4C
:100FD0001F93CF93DF93C091FE0117E08091FF0133
:100FE0008C1304C0DF91CF911F910895D0E01C9F16
:100FF000F0011D9FF00D1124E050FE4F2081318142
:10100000428153816481758186810E947006219698
:10101000C770E4CF209138023091390240913A02F2
:1010200050913B0260913C0270913D0280913E02E2
:101030000E9470060895CF93DF9380913E02807FD7
:1010400009F04DC080913D02882309F448C0E09129
:10105000FE015091FF01C0913902D0913802609198
:101060003A0270913B0247E05E17C9F18E2F90E083
:10107000E49FF0011124E050FE4F2481222391F1DE
:10108000489FF001499FF00D1124DF01A050BE4F91
:1010900011962C9111972C1325C02C912D1322C041
:1010A00015962C91159721111DC012962D913C91EA
:1010B000261B370B283C3105A8F480913E028F7027
:1010C000806180933E02EA5FFD4F80818F70806176
:1010D000808388E392E00E9400060E94E807DF9187
:1010E000CF910895FC013196E770BECF482F209133
:1010F000FE019091FF0157E0291302C080E008959E
:1011000030E0529FF001539FF00D1124E050FE4F4C
:101110008181681306C08081481303C085818111D5
:10112000EECF2F5F3F4F2770E7CFA4E1B0E0EBE9B0
:10113000F8E00C9490248C0186E0F801DE011F9603
:1011400001900D928A95E1F7F8018481E58098E39A
:10115000A92E92E0B92E90913C0291111FC08823D4
:10116000D1F0EE20A9F0C8010E945906F82E88237C
:1011700079F087E0F801D50101900D928A95E1F7A9
:10118000C5010E9433030E941B080E940A085FC029
:10119000C8010E940006FF24F39459C0C080D1808A
:1011A00082809380F0903D0220913A0230913B0280
:1011B000A401421B530BFF2009F4F9C0483C510520
:1011C00008F0A7C0882309F442C0909139028091A9
:1011D0003E02282F207F09F05CC09D1116C090911F
:1011E0003802C91212C0E1104EC08F708061809326
:1011F0003E020E940A0888E392E00E940006809165
:101200003E02F8018683F12C22C0E1103CC06D2D16
:101210008C2D0E9476086D2D8C2D0E947608E82E6C
:101220008111F1CFCF86D88A8F8598890E94BA071D
:10123000292F22952F70243078F49F702230A8F047
:101240009923B9F0F8019681907F99F4FE2C8F2DA7
:101250006496ECE00C94AC242A5F2F70223068F086
:10126000C8010E940006EF2CF1CF992311F08823CA
:1012700069F3805E883050F3F3CF803F38F3815FAD
:10128000833070F7E3CF80913E02816080933E020D
:10129000BACF9D1113C090913802C9120FC0E1104E
:1012A0000DC08683C8010E94000687E0F801A8E30C
:1012B000B2E001900D928A95E1F767CFC8010E94D4
:1012C0005906882309F464CFEE2009F461CF809198
:1012D0003E02803288F020913802309139023987FD
:1012E00028879B868A8690913C029C871D868E87E4
:1012F000CE0108960E94000687E0F801A8E3B2E05C
:1013000001900D928A95E1F70E941B080E940A083D
:1013100042CF90913E02292F207FA1F4682D9A8A16
:10132000898AA6017A899E2D0E94660688E392E04A
:101330000E94000687E0F50111928A95E9F70E9464
:101340000A0861CF882309F482CF809139028D1178
:1013500010C080913802C8120CC0E1100AC09683F8
:10136000C8010E94000687E0F50111928A95E9F70D
:101370006ECFC8010E945906882309F409CFEE20D8
:1013800009F406CF80913E02803208F4B5CF209157
:101390003802309139023A8329839C828B82909162
:1013A0003C029D831E828F83CE010196A3CF483CD1
:1013B0005105B8F5882309F4EECEFE2CEE2009F491
:1013C000E7CE809139028D111EC080913802C8127B
:1013D0001AC080913E0280FD0DC0982F907F51F081
:1013E0008683903F09F45ECF982F907F905F8F7037
:1013F000892B57CF87E0F801A8E3B2E001900D9266
:101400008A95E1F724CFC8010E945906811174CF53
:1014100080913E02816080933E02C8010E940006D6
:1014200016CF682D9A8A898AA6017A899E2D0E94F4
:10143000660687E0F50111928A95E9F7A6CEAEE03F
:10144000B0E0E5E2FAE00C949924288739874A87CE
:101450005B876C877D878E87CE0108960E949508F2
:101460008823B1F06C85662341F0288539854A854B
:101470005B857D858E850E94700617E08091FE0158
:101480009091FF0189133DC02E96E3E00C94B524A2
:1014900087E0FE013896DE01119601900D928A9543
:1014A000E1F78C85882349F32091FF0130E0C901E1
:1014B0000196877099274091FE014817190699F007
:1014C00097E0929FD001939FB00D1124A050BE4F82
:1014D000FE01319601900D929A95E1F78093FF01FC
:1014E0000E94E807CACF0E9439061092FF011092AD
:1014F000FE0187E0E8E3F2E0DF011D928A95E9F75B
:10150000BCCF819FC001112480509E4F0E9495083E
:10151000882309F4B9CFE091FE011E9FF001112448
:10152000E050FE4F20813181428153816481758179
:1015300086810E9470068091FE0190E0019687707E
:1015400099278093FE019ACF8091470286958695D0
:10155000869508958091470287700895909147027B
:10156000977081E009F480E0089580915302089516
:1015700090915302892B8093530208958095909106
:1015800053029823909353020895109253020895A2
:1015900090915202892B80935202089580959091E8
:1015A0005202982390935202089510925202089585
:1015B00008950E94D80A089590914802292F28235F
:1015C00031F080958923809348020E94D90A0895BA
:1015D00008950E94E80A089590914902292F28232E
:1015E000281729F0982B909349020E94E90A089540
:1015F00090914902292F282331F0809589238093E7
:1016000049020E94E90A089580914902882329F03D
:101610001092490280E00E94E90A08950F931F93F7
:10162000CF93DF930091000110910101C09153020B
:1016300080915202C82B80914902882331F0C82B37
:101640000E945D1A81110E94040BF801C083C091B1
:101650000001D091010148E050E06FE372E0CE015B
:101660000E94D524892B59F088E0FE01AFE3B2E057
:1016700001900D928A95E1F7CE010E94FA19DF914F
:10168000CF911F910F9108950E940E0B0895089518
:101690000E94470B08959091D50292FF11C098E0E7
:1016A000899F90011124622B609347020E94C20619
:1016B000809147028695869586950E94480B0895ED
:1016C0000E94C20608951092470280E00E94480BD3
:1016D0000895909147028095892380934702282F8F
:1016E000277069F4891759F09091D50292FF07C0CD
:1016F0008695869586950E94D2060E94630B089572
:101700009091D50292FB222720F9281769F080FBDF
:1017100092F99093D5028091D4029091D5020E94C3
:10172000C80B82E00E94690B08958091D50282FB6C
:10173000882780F991E089270E94800B089581E035
:101740000E94800B089580E00E94800B08956FEF47
:101750007FEF90E080E00E942725089590E080E0F0
:101760000E94F32421E0863E9E4F09F020E0822F64
:10177000089582E090E00E94EB24089583E090E0D9
:101780000E94EB24089584E090E00E94F3240895E1
:10179000BC0184E090E00E9427250895AB01BC01C4
:1017A0008FE090E00E941B250895AB01BC0183E10E
:1017B00090E00E941B25089560E070E0CB010E943C
:1017C000D50B089560E070E0CB010E94CE0B0E9423
:1017D000DC0B0895A8E0B0E0E0EFFBE00C949A2465
:1017E00066EE7EEF90E080E00E94272560E082E0D8
:1017F00090E00E94092581E090E09093FD018093A4
:10180000FC0161E083E090E00E94092560E074E162
:1018100084E090E00E94272560E086E090E00E944E
:1018200009256FEF87E090E00E94092540E050E035
:10183000BA0188E090E00E941B2560E084E290E01D
:101840000E94092560E087E190E00E94092560E0A0
:101850008CE090E00E94092560E08DE090E00E941D
:10186000092519821A821B821C821D821E821F82F8
:10187000188648E050E068E170E0CE0101960E94D1
:10188000F92440E050E0BA0180E290E00E941B257C
:101890000E94E20B2896E2E00C94B6240E94EA0B28
:1018A0000895682F8EE090E00E9409250895A6E033
:1018B000B0E0EDE5FCE00C9498240E949A1B8C01AA
:1018C00080915402909155028017910781F01982FE
:1018D0001A820E949A1B682F49815A81792F80E0D1
:1018E00090E00E9403031093550200935402269641
:1018F000E4E00C94B4240E948E0F60936A0270930B
:101900006B0280936C0290936D02609366027093F9
:101910006702809368029093690208950E948E0F77
:1019200060936A0270936B0280936C0290936D02D5
:1019300060936202709363028093640290936502E5
:101940000895089508950E94A10C089508950E9495
:10195000A60C089581E0089588EA9FE00E94EC13A8
:101960000E94A20C0E94A30C08950E94A111089548
:10197000089508950E94B80C0E94B90C08950E9421
:10198000C70F0E94D70208950E94911B0E94680F02
:101990000E94A7110E9411140E94F4100E94BF0C13
:1019A0000E9485150E94B9110E94A70C0895A6E017
:1019B000B0E0EDEDFCE00C9491240E94AA0C8111A2
:1019C00011C00E94570C0E94A1110E94A6148111FF
:1019D0000E948E0C0E944B180E94EA022696EBE0B1
:1019E0000C94AD240E94171186E5A82E82E0B82E33
:1019F000750110E0F70101917F01812F0E94ED0F29
:101A00001F5F1C3009F441C00817A1F380916E02DA
:101A100081FD0E94F30F0E94B50CC82E10E099249E
:101A20009394812F0E94ED0F082FF50181915F01A2
:101A3000081729F1D02ED826F12CEE24E3948D2D11
:101A40008E21A9F0CC2099F0F9821A830E949A1B6A
:101A50009C838B839D8291E0802F8E2109F490E0FE
:101A600049815A816B817C818D810E940303F394AB
:101A7000EE0CF5E0FF12E3CFF501319700831F5F15
:101A80001C3079F60E947B0C9ECF0813BFCF99CFF4
:101A90001F93CF93DF930E94770EEC01C11580E571
:101AA000D807F0F5C11580E4D80708F09CC0C03E07
:101AB000D10520F5CD3CD10508F082C0C83AD1054A
:101AC00078F4C53AD10508F073C0C130D10519F1D9
:101AD000209709F1C430D105F0F4D0E0C0E01BC07C
:101AE000C33CD105D0F7C85AD0E0CC0FDD1FC55894
:101AF000DE4F0990D881C02DD4640DC0C11580E29D
:101B0000D80708F0D1C0C11581E0D80708F05AC045
:101B1000C83ED10510F7CE01DF91CF911F910895F6
:101B2000C03682E5D80718F5C03482E5D80708F03A
:101B30006BC0C03282E5D80708F05FC0C11582E5EE
:101B4000D80708F497C02C2F2695269580E2289F69
:101B5000900111248C2F8370C1E0D0E002C0CC0F23
:101B6000DD1F8A95E2F7C22BD32BDD68D4CFC03AB4
:101B700082E5D80760F4C03882E5D80708F459C078
:101B8000CF71D0E0DC2FCC27C46FD06AC4CFC03C6B
:101B900082E5D80708F462C0C03E82E5D80708F0A5
:101BA0009CCFDC2FCC27CC27DF71C06FD06AB3CF9E
:101BB000C55AD0E0CF54DE4FC881D0E0D064ABCF5F
:101BC000D065A9CF8D2F0E94190F182FCE0199270C
:101BD0000E94770EC12FD0E0DC2FCC27CC27DF71FD
:101BE000C82BD92B98CFCE0199270E94770ECC27EE
:101BF000DF70C82BD92BD06A8ECFCF71D0E0DC2F0D
:101C0000CC27C16FD06A87CF2C2F269526952770B9
:101C100080E2289F900111248C2F8370C1E0D0E0D6
:101C200002C0CC0FDD1F8A95E2F7C22BD32BDC68F4
:101C300072CF2C2F26952695277080E2289F900141
:101C400011248C2F8370C1E0D0E002C0CC0FDD1FC7
:101C50008A95E2F7C22BD32BDA685DCF8C2F8F7178
:101C60000E94190FC82FD0E0DC2FCC27CC27DF71C2
:101C7000D06251CF8C2F8F710E94190F55E0D695ED
:101C8000C7955A95E1F7CF70D0E0DC2FCC27282FED
:101C900030E084FF05C044E0220F331F4A95E1F78E
:101CA000C22BD32BD06937CF8D2F8F710E94190F84
:101CB000182FCE0199270E94770EC12FD0E0DC2F7C
:101CC000CC27CC27DF71C82BD92BD2CF462F7C3025
:101CD00030F4653020F4672F0E94DC01089590E015
:101CE00080E008950E94660E0E94480D0895823893
:101CF0009105B9F1B0F48133910509F47DC048F440
:101D00008932910509F46DC08A32910509F47BC0CE
:101D100008958533910509F45FC08933910509F170
:101D20000895833E9105D9F138F4803E910529F15B
:101D3000823E910579F10895863E9105D9F1873E5D
:101D4000910509F43EC0843E910541F52091D502EC
:101D500021FF24C08091D40284FD19C087EE90E059
:101D600008952091D402237009F05AC02091D50221
:101D700023FF14C089E290E008952091D40220FD51
:101D800038C03091D50230FF09C024FF43C090E035
:101D900080E008952091D40222FDF7CF089520918C
:101DA000D40222FD3AC03091D50230FD39C024FF63
:101DB000F5CFEDCF2091D40223FFF0CF24FDE7CF64
:101DC000CDCF2091D40223FD2EC03091D50231FF1A
:101DD000EECF84EE90E008952091D40225FFDECF6F
:101DE000C9CF2091D40225FD21C02091D50223FF27
:101DF000D5CF89E390E0D2CF2091D40226FFCECF79
:101E00008AE290E008952091D40226FFC7CF81E3B3
:101E100090E0089583EE90E0089582EE90E00895BA
:101E200080EE90E0089586EE90E0089585E390E0DE
:101E300008959091D40292FF10C041E0282F2471A0
:101E4000243009F040E031E0282F2871283009F0D3
:101E500030E0431711F02CE0822793FF10C041E0DF
:101E6000282F2471243109F040E031E0282F287117
:101E7000283109F030E0431711F02CE0822730912F
:101E8000D50230FF10C051E0282F2171213009F018
:101E900050E041E0282F2871283009F040E0541725
:101EA00011F029E0822731FF10C041E0282F217175
:101EB000213109F040E031E0282F2871283109F064
:101EC00030E0431711F029E0822794FD877E0895C2
:101ED0001092D0021092D1021092D2021092D3022C
:101EE0000895CF92DF92EF92FF926B017C010E94E6
:101EF000A11181110EC00E94A61BC61AD70AE80ABA
:101F0000F90AC092D002D092D102E092D202F092AD
:101F1000D302FF90EF90DF90CF9008950F931F931F
:101F20000E94A111882329F00E94A61B1F910F91E6
:101F300008950E94A61B0091D0021091D102209119
:101F4000D2023091D302600F711F821F931FEECF18
:101F500080E008950E94A70B08950E9417112FEFAB
:101F600086E791E0215080409040E1F700C00000FA
:101F70000E94171180E00E94ED0F80FF04C00E94B4
:101F8000AA0F0E94011C08950E94AD0F08950E949F
:101F9000AE0B811102C00E944E0C0E94B90B8093BF
:101FA0006E020E94C30B9093D5028093D4020E94CC
:101FB000C40F0E94BE0B90E00E9486068091FA0139
:101FC0009091FB010E94A706089508950E94E50FD5
:101FD000089508950E94E90F0895E82FF0E0ED516B
:101FE000FD4F80810895089580EA8A95F1F708955C
:101FF00000C008950E94F40F089508950E94FD0FF7
:102000000895A6E0B0E0E7E0F0E10C9496240E9489
:10201000A111F82E6091EF02882309F440C086E0F8
:10202000E82E8E010F5F1F4FF8018E2D11928A95B9
:10203000E9F7862F90E0B8018D519D4F0E94C7119E
:102040008823B9F08091D60290E046E050E0B801D4
:102050008D519D4F0E94D52421E020936F02892B42
:1020600091F4F12C0E94EA0F8F2D2696E6E00C9455
:10207000B22480916F028823A1F3F8011192EA94AF
:10208000E9F710926F02A091D602B0E0AD51BD4FBA
:1020900086E0F80101900D928A95E1F7E3CF70E0B8
:1020A0006D517D4F8091D60290E08D519D4F0E94E1
:1020B0004E120E94FE0FD8CFF894E82FE295EF70F1
:1020C000F0E031A1282F2F7081E090E001C0880F4F
:1020D0002A95EAF7982F9095932391A392A1892BA3
:1020E00082A378940895CF93DF93C4EBD1E08991D4
:1020F0008F3F11F00E945C1081E0C93BD807B9F70F
:10210000C9EBD1E089918F3F11F00E945C1081E012
:10211000CF3BD807B9F7DF91CF910895B0E0A0E0A9
:10212000E4E9F0E10C9494247C01162F042FC62FCF
:10213000D0E0CC54DE4F28812F3F09F44CC0F894F6
:10214000E22FE295EF70F0E031A12F7081E090E096
:1021500001C0880F2A95EAF7932F982B91A392A19B
:102160008095892382A378940E94F80F89EBC82E6A
:1021700081E0D82EF701A7014A5F5F4FF12CE02ED6
:10218000E094D6019D916D0181919F01215031090B
:102190009F3F31F1692F62956F7070E0DB0190967F
:1021A0006C9170E09F7002C0759567959A95E2F703
:1021B00060FD16C0802BD9018C93FF24F394E417A3
:1021C000F507F9F688818F3F11F00E945C106F2DA2
:1021D000812F0E94FA0FCDB7DEB7E8E00C94B0244F
:1021E0008E21D9018C93EBCF809102018091020165
:1021F00096E0811190E09093EF0286E0891B809336
:10220000D6020E9473108CE0E3EEF2E0DF01982F1B
:102210001D929A95E9F7E7EDF2E0DF011D928A95AC
:10222000E9F786E00E9459110E94E60F0895ACE09C
:10223000B0E0EDE1F1E10C9496248E010F5F1F4FA9
:102240008CE0F80111928A95E9F7F12CEE24E394E1
:102250004E2D6F2DC8010E948E10F394EE0CF5E008
:10226000FF12F6CF4CE050E0B80187ED92E00E94FB
:10227000D52421E0009709F420E0892B41F08CE07F
:10228000F801A7EDB2E001900D928A95E1F7609117
:10229000EF0270E06D517D4F46E087ED92E00E94C5
:1022A0005A11182F0E940110812B2C96E6E00C94F5
:1022B000B2240895B0E0A0E0E0E6F1E10C949424AB
:1022C0006C017B01042FC22F222379F081E08093DF
:1022D00072020E949A1B909371028093700280E0B8
:1022E000CDB7DEB7E8E00C94B024D0917202DD23C4
:1022F000B1F380917002909171020E94B21B059718
:1023000070F310E0A801B601C7010E94D524892B03
:1023100031F0A801B601C7010E94E224CD2F10922E
:1023200072028C2FDDCFCF930E946324C82F8111BE
:1023300002C00E945E248C2FCF9108958091760276
:1023400008958091750208950E94A11108950E9438
:102350009311809375020E94A411809376020E94CB
:102360009E11809302010E94A11181110E94FD1112
:1023700008950E94A111811102C00E9400120895C7
:1023800081E0909177029A3008F080E008950F93F1
:102390001F93CF93DF93EC018B01809177028A30FA
:1023A000B8F4B801CE010E944B12C82F811122C08F
:1023B000809177028F3FB9F40E949A1B9093740228
:1023C000809373028C2FDF91CF911F910F9108950D
:1023D00080917302909174020E94B21B843F9140DD
:1023E00000F7C0E0EFCF8F5F809377028A3020F74D
:1023F000C1E0E8CF10927702E5CF0E94771C0895E4
:102400000E947A1C0895B0E0A0E0E9E0F2E10C94AB
:1024100095247901C82F880FDD0B41155105A9F0CE
:10242000FE0193E0EE0FFF1F9A95E1F7ED5FFE4F7F
:102430008181928188589D4F208130E04217530757
:1024400008F49A01A9010E94E224CE010E94631DB2
:10245000D82E8823D1F001151105B9F083E0CC0FF7
:10246000DD1F8A95E1F7FE01ED5FFE4F438150E0ED
:102470000417150708F4A801CD5FDE4F6C817D813C
:1024800068587D4FC7010E94E2248D2DCDB7DEB77D
:10249000E7E00C94B1240E94671308950E9488130A
:1024A0000895A4E0B0E0E7E5F2E10C94982460918F
:1024B00098027091990280919A0290919B020E94D9
:1024C000C11B11E0643671058105910518F10E9468
:1024D0008E0F6E5F7F4F8F4F9F4F69837A838B8301
:1024E0009C8310E000E030E020E044E050E0BE01DA
:1024F0006F5F7F4F84E00E940312182F882351F0F2
:102500000E94A61B609398027093990280939A028E
:1025100090939B02812F2496E4E00C94B424A1E0D4
:10252000B0E0E5E9F2E10C948F24762E4A015901DE
:10253000680101E010E09E012F5F3F4F50E040E056
:1025400070E060E00E940312182F882399F1F401D3
:1025500060817181828193810E94C11B6436710503
:102560008105910500F18701950150E040E070E0A0
:1025700060E0872D0E940312B82EB701C6010E94A9
:10258000861511E09981981310E01B2139F00E9403
:10259000A61BF4016083718382839383812F21962C
:1025A000EDE00C94AB24B701C6010E948615998119
:1025B0008913D9CFA701B601C5010E94E224EECF4D
:1025C000A2E0B0E0E6EEF2E10C9496240091BF01A7
:1025D0001091C001085F1F4F82E0E82EF12C9E0190
:1025E0002F5F3F4F44E952E063E082E00E948F1288
:1025F000182F882321F0CE0101960E944115812FCA
:102600002296E6E00C94B224A6E0B0E0EAE0F3E122
:102610000C9494246B010091BF011091C0010F5FD5
:102620001F4F86E0E82EF12C9E012F5F3F4F40E9BF
:1026300052E061E080E00E948F12882349F096E02A
:10264000FE013196AAE8B2E001900D929A95E1F769
:1026500096E0EAE8F2E0D60101900D929A95E1F752
:102660002696E8E00C94B024B0E0A0E0EAE3F3E1C1
:102670000C9492247C015B016A010E94C01101E06C
:1026800010E0882311F00AE010E0C1E0D0E0B501CD
:10269000C701F6010995811104C021960C171D0789
:1026A0002CF4CDB7DEB7EAE00C94AE24CC9F9001B9
:1026B000CD9F300D300D112490E080E045E34A9528
:1026C000F1F70000019682179307C1F7E0CF0F934F
:1026D0001F93CF93DF93EC018B0144E053E10E9401
:1026E0003413811106C080E0DF91CF911F910F91CB
:1026F000089540EE52E1B801CE010E9434138823C0
:1027000091F341E552E1B801CE010E943413ECCFC0
:10271000A2E0B0E0EEE8F3E10C9498240091BF0150
:102720001091C001C801019626E0FB01DC01019077
:102730000D922A95E1F766E070E00E948615F80197
:102740008083CE0101960E94361589819A81F80115
:102750009187808762E070E0CE0101960E94861525
:10276000F80187836285738584859585009186024B
:1027700010918702209188023091890260177107B9
:102780008207930751F060938602709387028093CB
:102790008802909389020E94710F2296E4E00C94C3
:1027A000B4240E94341F0E94C40C0E94411F08954B
:1027B0000E94461F0E94D70C0E94601F08950E942D
:1027C000331B0E941A1F0E94AC0C0E94D1130E945E
:1027D000D8130E94BA0CFBCF9093D3018093D201FF
:1027E00008958FE891E00197F1F700C00000089587
:1027F00081E00895CF93DF93D62F0E94F813C82F5E
:10280000882341F06AE070E089EAD11101C08AEAC8
:102810000E94C2038C2FDF91CF9108950E94A111D5
:102820000895B0E0A0E0E7E1F4E10C9495248091F4
:10283000020192E0811190E09093A20282E0282FA1
:10284000291B2093A102909102018093A3029091F1
:1028500002018093A0028091020181110CC087E9DE
:1028600080932D0186EC80932B0184E980932E01C7
:1028700086E680932C010DE211E0CBE2D1E06FE21D
:1028800071E0AE01D80121E030E08D91E82FE295B2
:10289000EF70F0E0D1A08F70790101C0EE0C8A9545
:1028A000EAF79E2D90959D2191A382A18E2982A366
:1028B000FA018191AF01E82FE295EF70F0E0D1A02D
:1028C0008F70790102C0EE0CFF1C8A95E2F79E2DF5
:1028D00090959D2191A382A18E2982A36A177B07DF
:1028E000A1F60E94F1136091A30248EA52E0FA01B6
:1028F0008E2F841B861728F0CDB7DEB7E7E00C9447
:10290000B124D8012D918D01A22FA295AF70B0E016
:1029100090968C9190E02F7002C0959587952A959E
:10292000E2F781709991A92FA295AF70B0E09096CF
:102930002C9130E09F7002C0359527959A95E2F76B
:1029400090E020FD92E0892B8193D2CFB0E0A0E00F
:10295000ECEAF4E10C94942410E000E084E0C82E4A
:10296000D12C8091A302181730F0802FCDB7DEB79D
:10297000E8E00C94B024C12FD0E0FE01E35DFE4FEF
:102980008081E82FE295EF70F0E0E0A1F0E08F7039
:1029900002C0F595E7958A95E2F7E170DE01A55D45
:1029A000BE4F4C91A42FA295AF70B0E090968C9141
:1029B00090E04F7002C0959587954A95E2F780FDAB
:1029C0004DC080E08E2BDE01A855BD4FEC919E2FAF
:1029D0009370981709F440C0EE0FEE0FE82BEC93BC
:1029E000E090A202E10EEF70F0E0EF53FE4FCC5505
:1029F000DD4F80819881890F8883F12C843084F0A9
:102A0000EE2DF0E0E456FD4F80818F5F80830E94C1
:102A10000E14F82E882321F160E08E2D0E94FA1307
:102A200088818D3F84F4EE2DF0E0E456FD4F8081E7
:102A3000815080830E940E14F82E8823A1F061E05B
:102A40008E2D0E94FA138881082E000C990BB60176
:102A50000E94702488830F291F5F83CF82E0B2CF4A
:102A6000FF24F394DDCFFF24F394EDCF4091A30234
:102A700050E06091A20270E064567D4F0E94E22413
:102A80000895B0E0A0E0E7E4F5E10C9494246C0133
:102A9000D0E080E09091A002D91740F081110E940F
:102AA0008E0CCDB7DEB7E8E00C94B024F090A10214
:102AB000FD0E0F2D10E004561D4FF601ED0FF11D18
:102AC000C081F8019081C91BEC2E1E1444F09C2F8C
:102AD000C7FD90E0C91BC1110DC0DF5FDBCFEA94D9
:102AE000F80180818F5F808360E08F2D0E94FA1350
:102AF00081E0EBCFCF5FF80180818150808361E07E
:102B00008F2D0E94FA1381E0E6CF0895FC01680F33
:102B1000791F8FEF91E36E177F0709F408952191D4
:102B2000822728E030E087FF06C0880F89272150E0
:102B30003109C9F7F0CF880FFACFCF93DF93EB01BC
:102B400086319C4711F50E94B50A9D81992399F021
:102B50008A7A91E009F490E09093AC02811109C067
:102B600089E20E94AD1A0E94440B80E0DF91CF9170
:102B7000089585E3F6CF8091AC02811104C089E20B
:102B80000E94B51AF0CF85E3FBCF81E0EFCFCF9362
:102B9000DF93EC01FB018581882309F4D2C09E01FB
:102BA00030572332310508F0B2C00E94C30B909316
:102BB000D5028093D402FE01E150F047E232F105E4
:102BC00020F4E55BFA4D0C9484248091D40281605A
:102BD0008093D40293C08091D50288608093D502FF
:102BE0008DC08091D4028260F3CF8091D402846042
:102BF000EFCF8091D4028860EBCF8091D5028160C5
:102C0000EDCF8091D5028260E9CF8091D4028061BE
:102C1000DFCF8091D4028062DBCF8091D4028064C8
:102C2000D7CF0E9439068091D4028068D1CF80919D
:102C3000D4028C60CDCF8091D5028360CFCF8091BC
:102C4000D4028E7FC5CF8091D502877FC7CF809178
:102C5000D4028D7FBDCF8091D4028B7FB9CF80917C
:102C6000D402877FB5CF8091D5028E7FB7CF809178
:102C7000D5028D7FB3CF8091D4028F7EA9CF809172
:102C8000D4028F7DA5CF8091D4028F7BA1CF0E94EB
:102C900039068091D4028F779BCF8091D402837FB5
:102CA00097CF8091D5028C7F99CF8091D40282FBFF
:102CB000992790F921E0922790FB82F990FB83F904
:102CC00087CF8091D502982F909591708E7F892B18
:102CD00090FB81F983CF9091D402892F8F7B96FF4F
:102CE000806476CF0E9439069091D402892F97FB99
:102CF00087F980586DCF81E00E94510C8091D402F9
:102D00009091D5020E94C80B0E94390680E0DF91A5
:102D1000CF91089580E0F0CF9091D402892F8F7EDB
:102D200094FF806155CF9091D402892F8E7F90FFC0
:102D300081604ECF9091D502892F877F93FF886065
:102D40004DCF81E0E4CF282F35EB2303C0011124C0
:102D500097FF04C080589109892F089580589F4F8C
:102D6000FBCF8091B30280FF0DC06091340170E011
:102D7000660F771F6038710570F56115710569F18F
:102D8000862F089581FF07C06091340184E0689F19
:102D9000B0011124EFCF6091340182FD0AC080910F
:102DA000B2028823A9F02091330160913401821787
:102DB00010F088E0ECCF869FC001112433E0880F2B
:102DC000991F3A95E1F7622F70E00E947024D2CFEC
:102DD00068E070E0D5CF8FE7089581E00895809195
:102DE000B30280FF0CC06091300170E0759567956B
:102DF000759567956115710549F1862F089581FFD5
:102E000006C06091300170E075956795F3CF6091D1
:102E1000300182FD0BC09091B1029923A1F0609125
:102E20002F0180913001961738F0682F70E06038DC
:102E3000710500F38FE70895899FC001112470E0A8
:102E40000E947024F4CF61E070E0D7CF81E0089554
:102E50009091B6022091B702922B2091B902922B49
:102E60002091B802922B31F098E09093B20291E059
:102E70009093B1028D3C31F40E94B11681958093FC
:102E8000B70208958E3C19F40E94B116F8CF8F3C1A
:102E900031F40E94B11681958093B6020895803D69
:102EA00019F40E94B116F8CF893D29F40E94EF165B
:102EB0008093B80208958A3D21F40E94EF1681950F
:102EC000F7CF8B3D31F40E94EF1681958093B902C4
:102ED00008958C3D19F40E94EF16F8CF9FE2980FE9
:102EE000983070F4815D990B21E030E001C0220F31
:102EF0008A95EAF78091B502822B8093B5020895F6
:102F00008D3D31F48091B30281608093B3020895C6
:102F10008E3D21F48091B3028260F7CF8F3DB9F7E7
:102F20008091B3028460F1CF4091B6028D3C59F498
:102F30008091B70287FF0DC01092B70241110BC0FC
:102F40001092B20208C08E3C81F48091B70218162C
:102F50009CF3442381F08091B8029091B902892BAF
:102F600009F05AC01092B10208958F3C49F447FF0E
:102F7000F0CF1092B6028091B7028111ECCFE0CF72
:102F8000803D19F41416ACF3E4CF9091B802893D5A
:102F900029F41916F4F61092B802DBCF8A3D19F421
:102FA00097FFD7CFF8CF9091B9028B3D29F497FFC7
:102FB000D0CF1092B902CDCF8C3D19F41916CCF3B5
:102FC000C8CF9FE2980F983090F4815D990B21E073
:102FD00030E0B90102C0660F771F8A95E2F7CB0196
:102FE00080959091B50289238093B502B2CF8D3D33
:102FF00031F48091B3028E7F8093B302AACF8E3DCD
:1030000021F48091B3028D7FF7CF8F3D09F0A1CFDE
:103010008091B3028B7FF0CF08950E949A1B9C0190
:103020009091B6028091B702982B21F03093B002B4
:103030002093AF029091B8028091B902982B21F0B1
:103040003093AE022093AD0284EB92E00E94051A09
:10305000089586E0E4EBF2E0DF011D928A95E9F73E
:103060001092B2021092B1021092B3020895FC01C4
:10307000828181110EC0838181110BC084818111F5
:1030800008C091E08581811101C090E0892F817095
:10309000089581E0FCCFA6E0B0E0E1E5F8E10C9412
:1030A000992486E0E4EBF2E0DE01119601900D92A6
:1030B0008A95E1F71092B6021092B7021092B80208
:1030C0001092B9028B819C81892B89F08091AF028B
:1030D0009091B0020E94B21BAC019091B202992370
:1030E000C9F1809135018417150608F440C08D811F
:1030F0009E81892B91F08091AD029091AE020E9449
:10310000B21BAC019091B102992309F46AC080917D
:1031100031018417150608F472C0BE016F5F7F4F3E
:1031200084EB92E00E94C81A811105C084EB92E002
:103130000E94371881110E940D1886E0FE01319619
:10314000A4EBB2E001900D928A95E1F72696E3E0B8
:103150000C94B524209136018AE0289F9001112417
:103160002417350720F69F5F9093B20202C09F3F5D
:10317000D1F71B81112359F00E94B1169FEF111650
:103180000CF491E0899F802D11248093B6021C815C
:10319000112359F00E94B1169FEF11160CF491E023
:1031A000899F802D11248093B7028091B6028823D5
:1031B00009F49DCF1091B702112309F498CF0E9412
:1031C000A316882351F08093B602812F0E94A31684
:1031D000882329F08093B7028ACF81E0F4CF81E081
:1031E000F9CF209132018AE0289F90011124241701
:1031F000350708F092CF9F5F9093B10202C09F3FC6
:10320000D1F71D81112359F00E94EF169FEF11167F
:103210000CF491E0899F802D11248093B8021E81C7
:10322000112359F00E94EF169FEF11160CF491E054
:10323000899F802D11248093B9028091B802882340
:1032400009F46BCF1091B902112309F466CF0E94E3
:10325000A316882351F08093B802812F0E94A316F1
:10326000882329F08093B90258CF81E0F4CF81E020
:10327000F9CF0F931F93CF93DF93C42FD22FFC016D
:1032800085818823C9F04093BC020E949A1B9093C9
:10329000BB028093BA0280E28C0F883040F4C77082
:1032A00081E001C0880FCA95EAF70E94E303DF912D
:1032B000CF911F910F9108951091BC02141332C049
:1032C0008091BA029091BB020E94B21B883C91058A
:1032D00048F5C0E2CD0F1D17B9F080E2810F8830AC
:1032E00040F4177081E001C0880F1A95EAF70E9438
:1032F000EA03C83048F481E09D2F977001C0880F21
:103300009A95EAF70E94E303802F0E94DA03C830FF
:1033100070F6D77081E001C0880FDA95EAF70E9455
:10332000EA03C5CF80E28C0F883008F6C77081E0D1
:1033300001C0880FCA95EAF7F2CF0F93DB018851DD
:103340009C4787309105A0F5FC01E359FA4D0C9498
:10335000842406E221EE41EE6AE17CE7CD010E9481
:10336000391980E00F91089507E225EE45EE6BE1F3
:103370007CE7F4CF06E221EE40EE68E17CE7EECF99
:1033800007E225EE44EE69E17CE7E8CF06E221EEB4
:1033900042EE6CE17CE7E2CF07E225EE46EE6DE11E
:1033A0007CE7DCCF08E221E045EE6EE17CE7D6CF9A
:1033B00015968C91882319F01092BC02D3CF81E02E
:1033C000D1CF9093C3028093C20208950E94A111AD
:1033D000811103C08091BD020895E091C202F09175
:1033E000C302309729F00190F081E02D09950895EE
:1033F00080E00895E091C202F091C302309721F07D
:103400000280F381E02D09950895E091C202F091C8
:10341000C302309739F022E0DC012C930680F7815B
:10342000E02D09950895A3E0B0E0E9E1FAE10C94FC
:103430009A242091C0023091C10228173907A1F0C7
:103440009093C1028093C002E091C202F091C30246
:10345000309751F023E029839B838A830084F18590
:10346000E02DCE01019609952396E2E00C94B62456
:10347000A3E0B0E0EEE3FAE10C949A242091BE02BE
:103480003091BF0228173907A1F09093BF028093B3
:10349000BE02E091C202F091C302309751F024E0E5
:1034A00029839B838A830084F185E02DCE010196D8
:1034B00009952396E2E00C94B624409100015091C6
:1034C00001019A012E5F3F4F485F5F4F80E0241754
:1034D000350709F40895F90191919F019923B9F3F2
:1034E0008F5FF5CF882371F02091000130910101A9
:1034F000F9013296285F3F4F9191981729F0E21712
:10350000F307D1F780E0089581E008959C01FC0164
:1035100032969FEF80E04191461751F09F3F19F49A
:10352000411101C0982F8F5F8630A9F79F3F09F4A2
:103530000895290F311D97FD3A95F9016283089589
:10354000FC01329608962191261303C0DF011197E2
:103550001C92E817F907B9F70895682F80910001C8
:10356000909101010E94861A0895682F80910001B0
:10357000909101010E94A01A0895E0910001F0913C
:103580000101329686E0DF011D928A95E9F70895E0
:10359000DC01FB0111969C9111978181981322C047
:1035A00012968C911297882319F0928189131AC070
:1035B00013968C911397882319F09381891312C065
:1035C00015968C911597882319F0958189130AC057
:1035D00014969C91992321F081E02481291303C042
:1035E00080E001C081E08170089508950E94F51A7D
:1035F0000895811106C081E08093C4020E94F61AEA
:10360000089582E0F9CF83E08093C4020E94F61A05
:1036100008950E94F91A089581E08093C4020E94DF
:10362000F61A08950E940C1B0895089508950E94AB
:10363000161B0895089508950E94151B0895CF93B1
:103640000E941A1B0E9417110E941B1BC0E08C2FA6
:103650000E94ED0F811105C0CF5FCC30C1F7CF9133
:10366000089581E0FCCF85B7806885BF85B7806805
:1036700085BF08951F921FB61F9211248F939F93A9
:10368000AF93BF938091C502811113C08091F00266
:103690009091F102A091F202B091F3024196A11D26
:1036A000B11D8093F0029093F102A093F202B093C7
:1036B000F302BF91AF919F918F911F901FBE1F90FA
:1036C00018958091F802843031F10E94BA0210926C
:1036D000C50288E190E020E40FB6F894A8958093A5
:1036E00060000FBE2093600083B7817F846083BF3A
:1036F00083B7816083BF7894889583B78E7F83BFBB
:103700000FB6F894A895809160008861809360005E
:10371000109260000FBE08950E9439060E94BF02F9
:10372000089582E084BD93E095BD9AEF97BD8093A4
:103730006E0008952FB7F8948091F0029091F102F5
:10374000A091F202B091F3022FBF08952FB7F89421
:103750006091F0027091F1028091F2029091F30277
:103760002FBF08959C014FB7F8948091F00290917B
:10377000F102A091F202B091F3024FBF821B930BB2
:103780000895CF92DF92EF92FF922FB7F894C090F6
:10379000F002D090F102E090F202F090F3022FBF1D
:1037A000A7019601261B370B480B590BCA01B9011B
:1037B000FF90EF90DF90CF90089578941F921FB6FE
:1037C0001F9211248F939F93AF93BF938091F00228
:1037D0009091F102A091F202B091F3020196A11D25
:1037E000B11D8093F0029093F102A093F202B09386
:1037F000F302BF91AF919F918F911F901FBE1F90B9
:10380000189587E797E7909301088093000888E16F
:103810009AE00FB6F894A895809360000FBE90933D
:103820006000FFCF88E19AE00FB6F894A8958093E6
:1038300060000FBE90936000FFCF8EE14A9B02C0F4
:103840008150E1F74A9BFECF08955A9880E28A950D
:10385000F1F75A9A0895FC013BE03A95F1F798E0A8
:1038600020E080E031E040E14A95F1F7880F4A9B83
:1038700002C08160232742E04A95F1F7000040E151
:103880004A95F1F7915079F790E19A95F1F799B14E
:1038900032E03A95F1F7000040E14A95F1F792FBEA
:1038A000992790F992272081920F90830895A1E0A3
:1038B000B0E0EDE5FCE10C94962419828C017C01CA
:1038C000E60EF11C0E151F0541F481E0998191115E
:1038D00080E02196E6E00C94B2240E941D1CCE01EB
:1038E00001960E942B1CF80181938F01EBCF529A15
:1038F0005A9A089552985A9AEA9AE9E6F0E0808135
:103900008F7C808308956150770B91E001C0990FFF
:103910006A95EAF720E031E0911108C0222391F086
:103920005A9A80E28A95F1F75A980895492F4823C8
:1039300039F05A9A232740E24A95F1F79695ECCF51
:103940005A98F9CF5A98EDCFFF920F931F93CF93C8
:10395000DF93EC018C01060F111DC017D10729F46C
:10396000CDB7DEB7E5E00C94B324F9900E94251C96
:1039700068E08F2D0E94831CF0CF1F920F920FB62C
:103980000F9211240F931F932F933F934F935F93A5
:103990006F937F938F939F93AF93BF93EF93FF9317
:1039A000CF93DF930F92CDB7DEB719820E941D1C13
:1039B000CE0101960E942B1C082F069506950695B0
:1039C000282F22952570902F9570290F922F937094
:1039D00026952695920F982797708981982B09F044
:1039E0005CC0063008F059C080E18A95F1F75A9A18
:1039F000529A82E08A95F1F700C05A9888E0089FB1
:103A000080011124D801AD5FBE4F1696ED91FC9157
:103A100017973097A9F06091BF017091C00114967B
:103A20002D913C911597260F371F11968D919C91E2
:103A30001297680F791F13964C9113978C910995E3
:103A4000F801ED5FFE4F6381662351F02091BF01C5
:103A50003091C00184819581820F931F0E94A41C24
:103A60000E94251C80E18A95F1F75A9852985A9A3B
:103A700080E18A95F1F7F801ED5FFE4F60816623E2
:103A800051F02091BF013091C00181819281820F5C
:103A9000931F0E94571C0E941D1C0F90DF91CF9115
:103AA000FF91EF91BF91AF919F918F917F916F9116
:103AB0005F914F913F912F911F910F910F900FBEEA
:103AC0000F901F9018950F931F93CF93DF93EC01E6
:103AD00006970CF04CC0F894529A5A9885E08A9553
:103AE000F1F700009C2F969595708C2F8570980F9C
:103AF000892F83709695969523E0CC0FDD1F2A952C
:103B0000E1F7980F8E01092B0E94251C00C068E088
:103B1000802F0E94831C80E18A95F1F752985A9A6F
:103B20004A9B1EC087E090E04A991CC0FE01ED5FF1
:103B3000FE4F63816623F9F02091BF013091C001EF
:103B400084819581820F931F0E94571C811113C09D
:103B5000529A5A9A7894DF91CF911F910F910895BC
:103B600000C0DECF019729F4529A5A9A789480E0E7
:103B7000F2CF00C0D9CF0E941D1C80E28A95F1F7D8
:103B80005A98529A80E18A95F1F7CD5FDE4F6881AD
:103B9000662351F02091BF013091C00189819A8143
:103BA000820F931F0E94A41C0E94251C789481E020
:103BB000D2CF8091CE02089508959B01BA019091D1
:103BC000F8029430E9F48F708093E9009FEF8091C0
:103BD000E800915085FD06C085ED8A95F1F700005B
:103BE0009111F5CF8091E80085FF0AC050E040E0D8
:103BF000C9010E94D71F8091E8008E778093E8006A
:103C0000089543E050E0BC0182E00E94DD1D08956C
:103C100046E050E0BC0182E00E94DD1D0895CF9394
:103C2000DF93EC0148E050E0BC0181E00E94DD1D23
:103C300088E0FE01A6ECB2E001900D928A95E1F7D2
:103C4000DF91CF9108958091F702811109C00E9400
:103C500067210E94C4218091E20084608093E20089
:103C600008951092F70208950E940C1B0895609128
:103C7000F40281E0611101C080E00E94031B0895FD
:103C80009091F80281E0943009F080E06091F402B4
:103C90000E94091B089542E061EC81E00E94E3204C
:103CA00042E261EC82E00E94E3209091F80281E020
:103CB000943009F080E06091F4020E94F91A0895AE
:103CC0008091FA02833009F461C030F48130D1F17F
:103CD000823009F49EC008958A3009F48AC08B307E
:103CE00009F46FC0893009F050C08091F902813227
:103CF00009F04BC08091FD029091FE02029708F0FE
:103D000044C08091E800877F8093E8008091E800BC
:103D100082FF37C09091F3008091F200029731F456
:103D20008091F100813011F0863021F48091F10012
:103D30008093CE028091E8008B778093E8000E9408
:103D4000172123C08091F902813AF9F48091E800AB
:103D5000877F8093E8008091FD029091FE02892B7D
:103D600061F468E086EC92E070E00E942620809189
:103D7000E8008B778093E800089560E090E080E0B1
:103D8000F3CF8091F8028111C1CF08958091F9029B
:103D9000813AD9F78091FD029091FE02892BA9F713
:103DA0008091E800877F8093E8008091E80080FFA1
:103DB000FCCF809141018093F1008091E8008E77E3
:103DC000BCCF8091F902813201F78091FD02909180
:103DD000FE02892BD1F68091E800877F8093E8006E
:103DE0000E9417218091FB02809341010E943906B5
:103DF00008958091F902813241F68091E800877F31
:103E00008093E8000E9417218091FC028093CF02EA
:103E100008958091F902813A09F0B7CF8091E800C6
:103E2000877F8093E8008091E80080FFFCCF80913D
:103E3000CF02C1CF84B7877F84BF0FB6F894A8950F
:103E400080916000886180936000109260000FBED6
:103E500080E890E00FB6F894809361009093610041
:103E60000FBE0E94121B08950E9467210E94C42168
:103E7000E2EEF0E080818460808378940E944324A5
:103E8000089587E391E00E94E11908958091F80276
:103E9000853031F48091F802853019F00E948C1B36
:103EA00008950E94611B8091F602882399F30E9475
:103EB0001F1B882379F30E94C11F0E943906EACF95
:103EC00008959A014091FF02509100030E94691FDA
:103ED0000895492F55274330510519F168F44130B1
:103EE000510509F444C04230510509F445C090E041
:103EF00080E050E040E025C04132510549F14232B6
:103F00005105A9F784E490E04EEF52E06115710588
:103F1000C1F08BE790E043E852E06130710589F031
:103F2000E6CF99278130910581F0009729F002971B
:103F3000F1F6E4E1F2E002C0E2E3F2E0849190E025
:103F4000AF01F901518340830895E6E2F2E0F6CF34
:103F500089E090E048E452E06115710591F389E051
:103F600090E041E652E06130710559F3C0CF82E143
:103F700090E041E752E0E5CF8BE390E046E352E08A
:103F8000E0CF80E189BD82E189BD09B400FEFDCFAB
:103F90008091D8008F7D8093D8008091E00082606E
:103FA0008093E0008091E00081FDFCCF0895AF9206
:103FB000BF92CF92DF92FF920F931F93CF93DF9325
:103FC0006C01EB018A010E943621F82E811123C079
:103FD0000115110539F0F80180819181C81BD90BB9
:103FE000C80ED91EB12CA12C2097A9F08091E80011
:103FF00085FD22C08091E8008E778093E80001154E
:104000001105A1F0F80180819181A80EB91EB1823D
:10401000A08285E0F82E8F2DDF91CF911F910F9117
:10402000FF90DF90CF90BF90AF9008950E9436210F
:104030008823D1F2F82EEFCFF60181916F018093A2
:10404000F1002197FFEFAF1ABF0ACECFFC0180919C
:10405000FF029091000386179707A0F06115710584
:1040600029F49091E8009E779093E80090E0611524
:10407000710551F4911108C08091E80082FF34C0AD
:1040800080E00895BC01F2CF8091F8028823C1F14D
:104090008530C1F18091E80083FD30C08091E80057
:1040A00082FDEACF8091E80080FFE1CF8091F300AC
:1040B0002091F200382F6115710519F02830310573
:1040C00058F091E02830310509F090E02091E800A7
:1040D0002E772093E800CBCF81918093F10061503F
:1040E00071092F5F3F4FE7CF8091F802882341F09D
:1040F000853041F08091E80083FFBECF81E00895D4
:1041000082E0089583E00895FC018091FF02909180
:10411000000386179707A0F06115710529F48091B7
:10412000E8008E778093E80090E06115710551F406
:10413000911108C08091E80082FF35C080E00895A9
:10414000BC01F2CF8091F8028823C9F18530C9F112
:104150008091E80083FD31C08091E80082FDEACFC4
:104160008091E80080FFE1CF8091F3002091F20080
:10417000382F6115710519F02830310558F091E09C
:104180002830310509F090E08091E8008E77809327
:10419000E800CBCF84918093F10031966150710992
:1041A0002F5F3F4FE6CF8091F802882341F08530A2
:1041B00041F08091E80083FFBDCF81E0089582E067
:1041C000089583E00895982F973028F08F7080939A
:1041D000E90081E008959093E900242F762F50E0C4
:1041E000981731F07091EC002091ED005091F000A3
:1041F00021FD02C09F5FE8CF3091EB003E7F3093FE
:10420000EB003091ED003D7F3093ED003091EB00FD
:1042100031603093EB007093EC002093ED005093ED
:10422000F0002091EE0027FDE5CF80E00895809119
:10423000F90287FF13C08091E80082FF06C08091D9
:10424000E8008B778093E80004C08091F802811128
:10425000F2CF08958091F8028823D9F38091E80085
:1042600080FFF8CF8091E8008E77ECCF2091E400BA
:104270003091E50095E6A9012091EC00822F817034
:1042800020FF06C08091E80080FF06C080E008950E
:104290002091E80022FD1AC08091F802882389F05D
:1042A000853089F08091EB0085FD0FC02091E400FE
:1042B0003091E50042175307F9F29150E1F684E09E
:1042C000089582E0089583E0089581E008950E94B2
:1042D000D6210E94DE21E0EEF0E0808181608083C3
:1042E000E8EDF0E080818F77808319BCA7EDB0E026
:1042F0008C918E7F8C9380818F7E80831092F702C9
:1043000008950F931F93CF93DF930E94D6210E94AD
:10431000DE21C8EDD0E088818F778883888180682E
:10432000888388818F7D888319BC1092F80210924F
:10433000F4021092F6021092F50200EE10E0F8017D
:1043400080818B7F808388818160888342E060E008
:1043500080E00E94E320E1EEF0E080818E7F8083A8
:10436000E2EEF0E0808181608083808188608083DC
:10437000F80180818E7F8083888180618883DF91CE
:10438000CF911F910F910895E8EDF0E080818F7E2D
:104390008083E7EDF0E080818160808384E082BFEC
:1043A00081E08093F7020E9481210895E8EDF0E01A
:1043B00080818E7F80831092E20008951092DA004F
:1043C0001092E10008951F920F920FB60F921124E0
:1043D0002F933F934F935F936F937F938F939F930D
:1043E000AF93BF93EF93FF938091E10082FF0BC0E7
:1043F0008091E20082FF07C08091E1008B7F809373
:10440000E1000E9442248091DA0080FF19C080916F
:10441000D80080FF15C08091DA008E7F8093DA008B
:104420008091D90080FF96C080E189BD82E189BD7D
:1044300009B400FEFDCF81E08093F8020E94231EA4
:104440008091E10080FF19C08091E20080FF15C0DB
:104450008091E2008E7F8093E2008091E200806193
:104460008093E2008091D80080628093D80019BCCC
:1044700085E08093F8020E94371E8091E10084FF5E
:104480002BC08091E20084FF27C080E189BD82E1DA
:1044900089BD89B5982F917080FFFBCF8091D8009E
:1044A0008F7D8093D8008091E1008F7E8093E10022
:1044B0008091E2008F7E8093E2008091E200816033
:1044C0008093E2008091F402882309F449C084E0DB
:1044D0008093F8020E94401E8091E10083FF29C072
:1044E0008091E20083FF25C08091E100877F809367
:1044F000E10082E08093F8021092F4028091E100E2
:104500008E7F8093E1008091E2008E7F8093E200B5
:104510008091E20080618093E20042E060E080E010
:104520000E94E3208091F00088608093F0000E9458
:10453000341EFF91EF91BF91AF919F918F917F9129
:104540006F915F914F913F912F910F900FBE0F9000
:104550001F90189519BC1092F8020E94311E70CF5E
:104560008091E30087FD93E09093F802B3CF1F9210
:104570000F920FB60F9211242F933F934F935F9397
:104580006F937F938F939F93AF93BF93CF93DF935B
:10459000EF93FF93D091E900DF708091EC00C82F7A
:1045A000C17080FDC0E81092E9008091F000877F23
:1045B0008093F00078940E94FB221092E900809191
:1045C000F00088608093F000CD2BCF70C093E9009D
:1045D000FF91EF91DF91CF91BF91AF919F918F911B
:1045E0007F916F915F914F913F912F910F900FBEEF
:1045F0000F901F901895AAE2B0E0E1E0F3E20C946E
:10460000992489EF92E02091F100FC012193CF01E0
:10461000F3E081309F07B9F70E94601E8091E800A7
:1046200083FF1EC18091F9029091FA029A3008F03E
:1046300017C1E92FF0E0EC58FA4D0C94842480382F
:1046400099F0823809F00CC18091FD028F7087309B
:1046500008F006C18093E9008091EB0085FB882774
:1046600080F91092E90006C08091F5029091F6025F
:10467000911182609091E800977F9093E800809379
:10468000F1001092F1008091E8008E77E5C0882358
:1046900009F4D3C0823009F0E3C08091FB0281119C
:1046A000D6C08091FD028F702FEF280F263008F0C2
:1046B000D7C08093E9002091EB0020FFC8C0933061
:1046C00031F48091EB0080628093EB00C0C0909148
:1046D000EB0090619093EB0021E030E001C0220FED
:1046E0008A95EAF72093EA001092EA008091EB00A5
:1046F0008860EACF8111B4C01091FB021F778091CE
:10470000E3008078812B8093E3008091E800877F2D
:104710008093E8000E9417218091E80080FFFCCF81
:104720008091E30080688093E30082E0111183E0D0
:104730008093F80295C08058823008F091C0809133
:10474000FB029091FC028C3D23E09207A1F583E0EF
:104750008A838AE289834FB7F894DE01139620E0BA
:104760003EE051E2E32FF0E050935700E49120FF48
:1047700003C0E295EF703F5FEF708E2F90E0EA305C
:10478000C0F0C7968D939D932F5F243159F74FBF8B
:104790008091E800877F8093E8006AE270E0CE01B4
:1047A00001960E9426208091E8008B778093E80094
:1047B00057C0C096E7CF6091FD027091FE02AE0136
:1047C0004F5F5F4F0E94611FBC01892B09F448C0F5
:1047D0009091E800977F9093E80089819A810E94E8
:1047E0008420E1CF8038E1F58091E800877F8093D5
:1047F000E8008091F4028093F10045CF811130C030
:104800009091FB02923060F58091E800877F809361
:10481000E8009093F4020E9417218091F40288230B
:1048200011F084E005C08091E30087FDFACF81E0BC
:104830008093F8020E944B1E13C08091FB028130CE
:1048400079F481E0933009F080E08093F6021092D1
:10485000E9008091E800877F8093E8000E9417219B
:104860008091E80083FF0AC08091E800877F8093F1
:10487000E8008091EB0080628093EB00AA96E3E071
:104880000C94B5240895CF938091F8028823A1F069
:10489000C091E900CF709091EC00892F817090FD5C
:1048A00080E8C82B1092E9008091E80083FD0E9407
:1048B000FB22CF70C093E900CF9108950E94672139
:1048C0001092F8020895E8EDF0E080818061808325
:1048D0008AE18A95F1F700C08091D900817008952E
:1048E00097FB072E16F4009407D077FD09D00E949D
:1048F000C12407FC05D03EF4909581959F4F089503
:10490000709561957F4F0895EE0FFF1F0590F4910C
:10491000E02D09942F923F924F925F926F927F9277
:104920008F929F92AF92BF92CF92DF92EF92FF92BF
:104930000F931F93CF93DF93CDB7DEB7CA1BDB0B6B
:104940000FB6F894DEBF0FBECDBF09942A88398810
:1049500048885F846E847D848C849B84AA84B98417
:10496000C884DF80EE80FD800C811B81AA81B98123
:10497000CE0FD11D0FB6F894DEBF0FBECDBFED0137
:104980000895AA1BBB1B51E107C0AA1FBB1FA61796
:10499000B70710F0A61BB70B881F991F5A95A9F7E8
:1049A00080959095BC01CD010895FB01DC0104C008
:1049B0008D910190801921F441505040C8F7881B17
:1049C000990B0895FB01DC0102C001900D9241504A
:1049D0005040D8F70895F999FECF92BD81BDF89A5D
:1049E000992780B50895A8E1B0E042E050E00C942A
:1049F0002F25DC01A40FB51F4150504048F0CB01DA
:104A0000840F951F2E910E940A2541505040D0F7E7
:104A10000895262FF999FECF92BD81BDF89A01978E
:104A200000B4021639F01FBA20BD0FB6F894FA9AF6
:104A3000F99A0FBE08950396272F0E940A250E9417
:104A40000925252F0E940A25242F0C940A2501965A
:104A5000272F0E940A250C940925DC01CB01FC01BB
:104A6000F999FECF06C0F2BDE1BDF89A319600B4C7
:104A70000D9241505040B8F70895F894FFCF32049A
:104A8000320482048204E70403056104610408051A
:104A90007905880588051F1693162716F115F51553
:104AA0002B16F9152F163B1605168C1609163F16F0
:104AB0000D1643166B1611164716721617164D165D
:104AC0005516FD153316011637161B1651166116AD
:104AD0007B168A16EB1523169A16BA19C019A9194E
:104AE000B419C619CC19D2191F23472330244723E0
:0C4AF00030247A239B233024F223FE2381
:104AFC004A02010000000100000000000000060155
:104B0C000000000000000107000000000000020887
:104B1C00000000040A00000000000066C6949728FC
:104B2C000850011E0A1401D91D0F1EDC1D081E01A0
:104B3C001E01E200E900EA00B500B600B700CD00A6
:104B4C008301CC008A0192019401210223022402E8
:104B5C002502260227022A02B300B4006F0070005F
:104B6C009F01CB019F02A002818283E200E900EA4F
:104B7C0000B500B600B700CD008301CC008A0192CD
:104B8C000194012102230224022502260227022A73
:104B9C0002B300B4006F0070009F01CB019F02A014
:104BAC0002818283323633F6F5353431F7F490785E
:104BBC000200FF0100010000FFFF0000010001FFE7
:024BCC000000E7
:00000001FF
