:100000000C942F020C944C020C944C020C94392743
:100010000C944C020C944C020C944C020C944C0228
:100020000C944C020C944C020C94322F0C9406301D
:100030000C945C290C944C020C944C020C944C02D1
:100040000C944C020C944C020C944C020C944C02F8
:100050000C944C020C94FF290C944C020C944C020E
:100060000C944C020C944C020C944C020C944C02D8
:100070000C944C020C944C020C944C020C944C02C8
:100080000C944C020C944C020C944C020C944C02B8
:100090000C944C020C944C020C944C020C944C02A8
:1000A0000C944C020C944C020C944C02170015005A
:1000B00008001A0014000A000900070016000400D6
:1000C0000500190006001B001D002C41E200E300A2
:1000D000E000E1000000000000000000000000005F
:1000E00000000000000000001C0018000C001200BE
:1000F00013000B000D000E000F002800110010006F
:100100003600520037002C422A00500051004F00A8
:1001100000000000000000000000000000000000DF
:10012000000000002200210020001F001E0022020B
:10013000210220021F021E026700540055005600D3
:1001400057002C412C002C0049002B00000000001F
:10015000000000000000000000000000000000009F
:100160002300240025002600270023022402250264
:1001700026022702350089002F1230122D122C4240
:10018000E000E300E2002A000000000000000000A0
:100190000000000000000000000000003E003D00E4
:1001A0003C003B003A0034003312330031001F02A0
:1001B000C75CC65CC55CC35CC25C2C412C002C00D7
:1001C00049002B00000000000000000000000000BB
:1001D00000000000000000003F004000410042001D
:1001E00043005000510052004F002E00C85CC95C13
:1001F0002F00300031002C42E000E300E2002A0032
:1002000000000000000000000000000000000000EE
:100210000000000000AE00AF00DA0281FFD9F1DB80
:1002200020A4A62EAF00A0C000A1C800AED580A813
:100230001FD300408D1420000000000000000000CB
:100240002A2B280000000000000000000000000031
:1002500000000029000000002C1E3420212224343C
:100260002627252E362D3738271E1F20212223240E
:1002700025263333362E37381F0405060708090AAA
:100280000B0C0D0E0F101112131415161718191A46
:100290001B1C1D2F3130232D350405060708090AC4
:1002A0000B0C0D0E0F101112131415161718191A26
:1002B0001B1C1D2F3130354C0000000000000000D9
:1002C000000000000000000000000000000000002E
:1002D0000000000000000000000000007E0F00D4BD
:1002E000FFFFFFC700000078100363006F006F007E
:1002F0006C00360034003400000014037400650004
:100300006C007A006F0032003000300030000000D6
:100310000403090409025B00030100A0FA090400B8
:100320000001030101000921110100012240000721
:10033000058103080001090401000203000000090F
:10034000211101000122220007058203200001077C
:100350000503032000010904020001030000000955
:100360002111010001227B000705840320000112F6
:1003700001000200000008434D4406010001020094
:10038000010660FF0961A1010962150026FF0095C1
:1003900020750881020963150026FF009520750865
:1003A0009102C005010902A10185020901A1000510
:1003B0000919012908150025019508750181020513
:1003C00001093009311581257F95027508810609DB
:1003D000381581257F950175088106050C0A3802BC
:1003E0001581257F950175088106C0C0050109802A
:1003F000A101850319012AB700150126B70095014F
:1004000075108100C0050C0901A101850419012A9C
:10041000A002150126A002950175108100C00501FA
:100420000906A101050719E029E71500250195082E
:10043000750181029501750881010507190029FFE1
:10044000150026FF00950675088100050819012989
:1004500005950575019102950175039101C011245F
:100460001FBECFEFDAE0DEBFCDBF12E0A0E0B1E00B
:10047000ECE5F5E602C005900D92AE31B107D9F773
:1004800025E0AEE1B2E001C01D92A138B207E1F76C
:100490000E94A2160C9483320C940000A5E0B0E0F8
:1004A000E4E5F2E00C9404326B837C838D838C81D1
:1004B0009D81892B21F0CA0189238F3F31F480E08F
:1004C00081702596E2E00C9420328B81F9CF409127
:1004D00023015091240160912501709126018091A2
:1004E00027010E944E028823A1F0109225010E944C
:1004F000BC298160782F9093270180932601409139
:1005000023015091240160912501809127010E94CF
:100510005B0540911E0150911F0160912001709177
:100520002101809122010E944E028823A1F01092A5
:1005300020010E94BC298160782F90932201809332
:10054000210140911E0150911F0160912001809175
:1005500022010E945B054091190150911A0160919E
:100560001B0170911C0180911D010E944E02882385
:10057000A1F010921B010E94BC298160782F9093FA
:100580001D0180931C014091190150911A01609145
:100590001B0180911D010E945B0540911401509147
:1005A00015016091160170911701809118010E9448
:1005B0004E028823A1F0109216010E94BC2981608E
:1005C000782F909318018093170140911401509156
:1005D000150160911601809118010E945B05409100
:1005E0000F015091100160911101709112018091E1
:1005F00013010E944E028823A1F0109211010E9463
:10060000BC298160782F909313018093120140914F
:100610000F015091100160911101809113010E940E
:100620005B0540910A0150910B0160910C017091A2
:100630000D0180910E010E944E028823A1F01092BC
:100640000C010E94BC298160782F90930E01809349
:100650000D0140910A0150910B0160910C018091B4
:100660000E010E945B0540910501509106016091C9
:10067000070170910801809109010E944E028823B0
:10068000A1F0109207010E94BC298160782F9093FD
:100690000901809308014091050150910601609184
:1006A0000701809109010E945B0540910001509172
:1006B00001016091020170910301809104010E9487
:1006C0004E028823A1F0109202010E94BC29816091
:1006D000782F909304018093030140910001509181
:1006E000010160910201809104010E945B0508955F
:1006F00081112CC081E06623B1F0809320010E941B
:10070000BC298160782F9093220180932101409130
:100710001E0150911F0160912001809122010E94D1
:100720005B0581E00895809325010E94BC298160CA
:10073000782F9093270180932601409123015091B7
:1007400024016091250180912701E9CF813041F595
:10075000662399F0809316010E94BC298160782F4E
:100760009093180180931701409114015091150145
:100770006091160180911801D2CF80931B010E94D5
:10078000BC298160782F90931D0180931C014091BA
:10079000190150911A0160911B0180911D01BFCF79
:1007A000823049F581E0662399F080930C010E9424
:1007B000BC298160782F90930E0180930D014091A8
:1007C0000A0150910B0160910C0180910E01A7CF9D
:1007D000809311010E94BC298160782F90931301AE
:1007E0008093120140910F0150911001609111010D
:1007F0008091130194CF833009F093CF81E0662379
:1008000099F0809302010E94BC298160782F909317
:100810000401809303014091000150910101609116
:100820000201809104017BCF809307010E94BC29C3
:100830008160782F90930901809308014091050110
:1008400050910601609107018091090168CF83E012
:10085000089581E0089581E008950E942B04089591
:1008600008950E9430040895A5E0B0E0EAE3F4E0C2
:100870000C94033249835A833091250289819A81ED
:10088000311119C0662399F0222389F00E94650A6C
:10089000182F682F89819A810E94410A69817A8183
:1008A000812F0E9486232596E3E00C941F320E943C
:1008B000530A182FF3CF0E94650A69817A81F1CF1C
:1008C000FC01262F408151816281738184810E94C5
:1008D0003404089581E00895CF93DF93EC0160E044
:1008E0000E946004BE010E943104DF91CF910895FF
:1008F000E1E0F0E0DF0102C0AA0FBB1F6A95E2F75A
:10090000BD01DF0102C0AA0FBB1F4A95E2F76A2BA7
:1009100001C0EE0F2A95EAF7962F9823961302C08E
:100920008E2B0895E0958E230895242F462F682F4F
:1009300080913E020E9478040E94A10908950E94BD
:100940006E1208950E947112089508950E9433094D
:100950000E94A5042FEF84E39CE02150804090404A
:10096000E1F700C0000008950E94A6040E94232A17
:1009700008950E94A6040E94342A08950F931F939D
:10098000CF93DF938C0161E00E946004EC01B80119
:100990000E94EF1B811106C080E0DF91CF911F9173
:1009A0000F910895B801CE010E942D048823A1F370
:1009B000B801CE010E94CC24882371F3B801CE0186
:1009C0000E940C1F882341F3B801CE010E943E24EF
:1009D000882311F3F8018281882361F0CA35FDE58F
:1009E000DF0701F158F4C115ECE5DE0791F0CE3DCB
:1009F000DC4591F0C8010E942904CFCFCC358DE5AC
:100A0000D80769F090F0C73ADD45A1F70E94B90414
:100A1000C3CF0E94B404C0CF0E941E0FF7CF0E9424
:100A2000580EE8CF0E94620EE5CF0E94660EE2CF1C
:100A30000E9439290E9439050E94B41E0E94B419EF
:100A400008950E943D050E943E29089508950E9440
:100A50002605089581E008950E942A0508950895C5
:100A6000CF93C82F0E9427058C2F0E942C05CF9171
:100A7000089580E00E94300508950E945F280E943A
:100A800030050895CF930E945F28C82F80912002DF
:100A90008C1779F0C09320020E94C829609321022C
:100AA0007093220280932302909324028C2F0E9441
:100AB0003005CF910895ABE0B0E0E1E6F5E00C94AD
:100AC00004324F83588769877A878B8761110E9428
:100AD000A30D1E821D8285E0FE013796DE01119670
:100AE00001900D928A95E1F78C819D81892B61F4AB
:100AF00049815A816B817C818D819E810E94CC0CC1
:100B00002B96E2E00C94203289819A8189238F3FD1
:100B100079F3CE0101960E946A048111E9CFF0CFEA
:100B2000FC01808191810E94920A0895A6E0B0E0C4
:100B3000ECE9F5E00C940232082F162F0E943B1AC4
:100B400029834B835C836D837E83002369F0312B83
:100B50004981532F6B817C818D819E810E94561A21
:100B60002696E4E00C941E3210953123F1CFCF93FA
:100B7000C82F8823C9F08238C9F40E945F2881FDFC
:100B800013C089E30E945B0D0E94C40D2FEF87EE16
:100B900093E0215080409040E1F700C0000089E3DD
:100BA0000E94630D0E94C40DCF9108958338A1F473
:100BB0000E945F2880FDF8CF83E50E945B0D0E94B4
:100BC000C40D2FEF81EE94E0215080409040E1F77A
:100BD00000C0000083E5E4CF8438A1F40E945F28C0
:100BE00082FDE2CF87E40E945B0D0E94C40D2FEFCF
:100BF00081EE94E0215080409040E1F700C0000079
:100C000087E4CECF8CEF8C0F813A90F46C2F8091DB
:100C10002801909129010E94CA28882329F08C2F4D
:100C20000E94630D0E94C40D8C2F0E945B0DBACFF1
:100C300080E28C0F883048F4C77081E001C0880FD3
:100C4000CA95EAF70E94860DADCFEBE5EC0FE330D5
:100C500040F4F0E0E754FE4F808190E00E948C2841
:100C6000A3CFE8E5EC0FE73150F4F0E0EE0FFF1F03
:100C7000E557FE4F808191810E94A22895CFC03F09
:100C800008F492CF8C2F0E9426170E94F9178CCF60
:100C9000882309F455C0823879F40E945F2881FFC7
:100CA0004FC089E30E945B0D0E94C40D89E30E943E
:100CB000630D0E94C40D0895833859F40E945F2883
:100CC00080FF3EC083E50E945B0D0E94C40D83E55A
:100CD000EECF843859F40E945F2882FF31C087E448
:100CE0000E945B0D0E94C40D87E4E1CF9CEF980F3A
:100CF000913AE8F290E2980F983050F4877091E0C2
:100D000001C0990F8A95EAF7892F0E948C0DD1CFE7
:100D10009BE5980F933028F490E080E00E948C28A7
:100D2000089598E5980F973128F490E080E00E94AC
:100D3000A2280895803F20F00E9480170E94F91792
:100D400008951F93CF93DF93182FEB010E94B705EF
:100D5000209739F4812F0E944806DF91CF911F918F
:100D600008958FE99FE00197F1F700C000002197F7
:100D7000EFCF70E060E0893311F460E570E00E942D
:100D8000A1060895882321F00E94860D0E94C40DBB
:100D90000895882321F00E948C0D0E94C40D0895AF
:100DA000B0E0A0E0E6EDF6E00C94FD316C01D62F4A
:100DB000C72FFC011281F580F2949FE0F9220E9476
:100DC0007C0DE82E8823B9F0E12E1123A1F08C2FA1
:100DD000807F803421F080E28D0F8830D0F08091C8
:100DE0004D0382FF16C082E00E94270E0E947C0DF8
:100DF00091E0E82EE926BC2EB2948FE0B822FBE009
:100E0000FB1508F468C0EB2DF0E0EB57FD4C0C949B
:100E1000E731E12CF0CF0C2F0F70C07F11F002955D
:100E2000007F112399F0002359F080E28D0F883064
:100E300010F0D11107C0802F0E94860D0E94C40DB2
:100E40008D2F41C0802F0E94960DF8CF8D2F0E94CC
:100E50004806002309F43FC080E28D0F883010F06F
:100E6000D11104C0802F0E948C0D03C0802F0E94DE
:100E70009C0D0E94C40D2FC00C2F0F70C07FC0327C
:100E800011F00295007FDD2381F0D13009F465C0B7
:100E9000112309F46FC0FF2009F465C0F6018581B4
:100EA00080FFCECF8F7085835EC080914D0382FD21
:100EB00034C0112359F0002329F0802F0E94860DA1
:100EC0000E94C40D80E00E94B70505C080E00E942A
:100ED00048060111C7CF2B2D2850330B2430310584
:100EE00020F40E945F280E943005EE2089F00E94C5
:100EF000780D80FD0DC0F60112820E94720D0E94D5
:100F0000B509C6010E94F3080E94720D0E94C10932
:100F1000CDB7DEB7E9E00C941932112389F0F11056
:100F200006C00E94A60D802B0E94C206D4CF21E0ED
:100F3000F212F7CF0E94A60D802B0E94AD0DCBCFF1
:100F4000F11006C00E94BA0D802F0E94C906C3CFBF
:100F500031E0F31609F4BFCFF5CF112331F085E06E
:100F60008F1508F4B8CF802FDFCF94E09F1508F4D9
:100F7000B2CFEACFFF2041F3D93349F4FFEF27EE98
:100F800033E0F15020403040E1F700C000008D2FE9
:100F90000E944806A0CF8C2F86958695837069F0B5
:100FA000813009F098CF8D2F9C2F9370111102C0C2
:100FB00090E080E00E94A2288ECF8D2F9C2F93700E
:100FC000111102C090E080E00E948C2884CF8D2F08
:100FD000112391F00E942617ED2FE45FFF0BE530FF
:100FE000F10568F461E070E001C0660FEA95EAF788
:100FF000812F0E9496056FCF0E948017EDCF0E942F
:10100000F91769CF8C2F837079F5111164CF4D2FAB
:10101000429546954770440F440F8D2F8F70042ED4
:1010200001C0880F0A94EAF72D2F2071D4FF07C062
:101030002FE030E001C0220F4A95EAF72095C695CF
:10104000C695C370822BC23049F058F4C13019F0F4
:101050000E948F0940CF0E9489093DCF0E949509C7
:101060003ACF0E94860937CF8695112311F08C2F35
:101070008170882309F42FCF4D2F429546954770F4
:10108000440F440F8D2F8F70042E01C0880F0A94D7
:10109000EAF72D2F2071D4FF07C02FE030E001C008
:1010A000220F4A95EAF72095C695C695C370822B04
:1010B000C23049F058F4C13019F00E94E0090BCF5A
:1010C0000E94DA0908CF0E94E60905CF0E94A10913
:1010D00002CFCF70112329F08C2F0E94B5098D2FDC
:1010E00023CF8D2F0E94C9068C2F0E94C109F3CEF9
:1010F000D23F51F160F4D03FB9F0D13F81F01123DC
:1011000009F449C0F1109CCE8C2F8F7121C0D33FC0
:1011100011F1D43FA1F780914D0382FD26C08C2FA1
:101120008F71112311F314C0112349F0F4E0FF155E
:1011300008F4D1CE8C2F8F710E94CE09CCCE25E041
:101140002F1508F4C8CEF6CF8C2F8F711111CDCF8B
:101150000E94B509C0CE112329F08C2F8F710E94F7
:10116000AC09B9CE0E94A809B6CE112349F0CF71BF
:101170008C2F0E94B50963E08C2F0E94090EABCE24
:1011800081E00E94270E31E03F1508F0A4CE82E0F6
:101190000E94270EA0CEFF2059F0D93309F0F7CED8
:1011A0008FEF97EEE3E081509040E040E1F7EDCE25
:1011B0008C2F8F719ACF0F931F93CF93DF93EC01F6
:1011C000688179818A810E949D0A8C010E94EC09C4
:1011D0000E948509B801CE010E94D006DF91CF910F
:1011E0001F910F910895CF93DF93EC018B819C8128
:1011F000892B29F08881998189238F3F51F4DF91D0
:10120000CF910895CE010E94DB08CE010E946C04AC
:10121000F6CFCE010E94BE048111F4CF0E947C0D56
:10122000882369F38A81882351F380914D0382FFDB
:10123000E6CF82E00E94270EE2CF90E080E00E949D
:101240008C2890E080E00E94A2280E94A30D0E94BA
:10125000C40D0E9415180E94F91708950E946B0D85
:101260000E941D0908950E94930D0E942E09089561
:1012700092959F70963091F058F4925F9F709230E3
:1012800058F4803F19F030F4883E30F481E008953E
:101290009A5FF4CF843FD1F380E00895883EB0F3A5
:1012A000813FD1F7F3CFFC0183819481892B29F011
:1012B0008081918189238F3F11F480E0089580819E
:1012C00091810E94920A0E9438090895A5E0B0E039
:1012D000ECE6F9E00C9404322596E2E00C9420321E
:1012E000A6E0B0E0E6E7F9E00C9404322696E2E0EE
:1012F0000C94203208950E947A0908950E947B0977
:1013000080933F020E941D09089508950E947E095E
:10131000089590913F02892B0E947E090895909133
:101320003F0289230E947E09089590913F028927F8
:101330000E947E0908950E947A0908950E949B09DF
:1013400008950E949E0980933E020E941D090895FF
:1013500080E00E94A109089591E001C0990F8A954B
:10136000EAF7892F0E94A109089521E030E001C029
:10137000220F8A95EAF780913E02822B0E94A109F2
:10138000089521E030E001C0220F8A95EAF7209508
:1013900080913E0282230E94A109089521E030E05D
:1013A00001C0220F8A95EAF780913E0282270E94AF
:1013B000A109089590913E02892B0E94A1090895E8
:1013C00090913E0289230E94A109089590913E02C6
:1013D00089270E94A10908950895262F277091E07A
:1013E00001C0990F2A95EAF723E0769567952A952B
:1013F000E1F7FB01EE0FFF1FE60FF71FE40FF51FEC
:1014000050E040E0682F70E08191DF0111979B016F
:10141000042E02C0369527950A94E2F72170219593
:101420002827292328272C934F5F5F4F43305105EE
:1014300059F70895A82FA77023E0969587952A95C8
:10144000E1F7FC01EE0FFF1FE80FF91FE60FF71F92
:1014500050E040E080E0219130E00A2E02C0369555
:1014600027950A94E2F721703327042E01C0220F3A
:101470000A94EAF7822B4F5F5F4F4330510559F7CB
:101480000895262F9C3070F4853060F4682F70E04A
:1014900085E0989F600D711D112446E252E0822F75
:1014A0000E94ED090895292F9C3068F4853058F486
:1014B00090E066E272E035E0239F800D911D1124DB
:1014C0000E941A0A089580E00895CF92DF92FF9259
:1014D0000F931F93CF93DF936C0100913E02809195
:1014E0003F02082BC7E0D0E010E0FC2EC8010C2E14
:1014F00002C0959587950A94E2F780FD0CC021976C
:10150000A0F7F12C8F2DDF91CF911F910F91FF90BC
:10151000DF90CF900895B6018C2F0E940C11019797
:1015200071F3F0CFCF93DF93EC010E94650ABE0107
:101530000E940C11DF91CF9108951F93CF93DF93F9
:10154000EB0190912502992339F0CB010E94920A78
:10155000DF91CF911F910895882369F0CB010E94FC
:10156000650A182F682FCE010E94410ABE01812F03
:101570000E940C11EDCFCB010E94530A182FF6CF19
:101580001F93CF93DF93C091400216E080914102F8
:101590008C1304C0DF91CF911F910895D0E01C9F60
:1015A000F0011D9FF00D1124EE5BFD4F4081518134
:1015B00062817381848195810E9470092196C77030
:1015C000E5CF409172025091730260917402709164
:1015D000750280917602909177020E9470090895B9
:1015E0001F93CF93DF9380917702807F09F049C0EA
:1015F00080917402882309F444C080914002C09114
:1016000041026091720270917302A0917502B091D3
:101610007602D62FD72316E0C81799F190E01097DD
:1016200011F0DF3F19F401968770F6CF189F9001F3
:10163000199F300D1124F901EE5BFD4F41814713D5
:10164000F2CF40814613EFCF42814111ECCF43816D
:1016500054814A1B5B0B483C510528F78091770267
:101660008F70806180937702F901E95BFD4F808183
:101670008F708061808382E792E00E94F3080E946D
:10168000C00ADF91CF911F910895A1E1B0E0EBE492
:10169000FBE00C94FC318C0185E0F801DE011D9625
:1016A00001900D928A95E1F7F801E28082E7C82E59
:1016B00082E0D82E609175027091760261157105F5
:1016C00009F44EC19091720220917302892F8223F6
:1016D0008F3F09F445C140815181A380B480F090CF
:1016E0007402F501E61BF70BFF2009F4EAC08091B4
:1016F0007702382F307FE83CF10508F0A3C03111A4
:101700006DC0FE2C251316C0941314C0E11012C036
:101710008F708061809377020E94E10AC6010E9467
:10172000F30880917702F80185838F2D6196EAE0B6
:101730000C941832A114B10429F0842F85238F3F13
:1017400009F027C180E0F82FF170DF2E80FF3CC048
:10175000809140022091410236E0821315C04D87EE
:101760005E878D859E850E94920A292F22952F7073
:101770002230F0F0243018F59F70F1F0F8019581D7
:10178000907FD1F4D12C1EC090E0389FF001399F9A
:10179000F00D1124EE5BFD4F6181651306C0608181
:1017A000641303C06281E6120FC001968770D5CF23
:1017B0009F7011F0882331F3805E883018F3C801E0
:1017C0000E94F308FD2CB1CFEE2009F4AECF80913A
:1017D0007702816080937702F12CA7CF251306C092
:1017E000941304C0F801EE2009F487C0C8010E94D8
:1017F0005309882319F1EE2009F180917702803294
:1018000070F0209172023091730238872F8319860D
:10181000BB86AA868C87CE0107960E94F30886E0D5
:10182000F801A2E7B2E001900D928A95E1F70E94DB
:10183000F00A0E94E10AFF24F39477CFC8010E94C6
:10184000F308F9CF311113C07A2DB98AA88A6E2D09
:1018500089890E94660982E792E00E94F30886E087
:10186000F60111928A95E9F70E94E10AB5CF251396
:101870000FC094130DC0E1100BC0F8018583C8019F
:101880000E94F30886E0F60111928A95E9F74DCFA0
:10189000C8010E945309882389F2EE2079F28091D1
:1018A0007702803208F4BBCF20917202309173022C
:1018B0003A8329831B82BD82AC828E83CE0101963E
:1018C000ACCFE83CF10508F03EC0FE2CEE2009F458
:1018D000B5CF25132AC0941328C08091770280FDCC
:1018E0001BC0982F907FC1F0F8018583903F31F0A5
:1018F000982F907F905F8F70892B8583C8010E94FD
:10190000F30886E0F801A2E7B2E001900D928A9513
:10191000E1F70E94E10A09CF86E0F801A2E7B2E010
:1019200001900D928A95E1F700CFC8010E945309FA
:10193000811175CF80917702816080937702C80111
:101940000E94F308F2CE7A2DB98AA88A6E2D898971
:101950000E94660986E0F60111928A95E9F7D9CFCF
:10196000EE2009F46BCFC8010E945309F82E88239A
:1019700009F464CF86E0F801A2E7B2E001900D928D
:101980008A95E1F782E792E00E9490050E94F00AB2
:10199000C0CF81E08E25D7CEACE0B0E0E2EDFCE038
:1019A0000C9403324F83588769877A878B879C878B
:1019B000CE0107960E94450B882369F08A859B8596
:1019C000892B39F04F815885842F85238F3F09F06B
:1019D0006BC016E05FC086E0FE013796DE0111960F
:1019E00001900D928A95E1F78A859B85892B89F371
:1019F0008F81988589238F3F61F32091410230E0E8
:101A0000C90101968770992740914002481719062D
:101A100071F40E943309109241021092400286E054
:101A2000E2E7F2E0DF011D928A95E9F7D2CF96E076
:101A3000929FD001939FB00D1124AE5BBD4FFE016C
:101A4000319601900D929A95E1F7809341020E94A0
:101A5000C00ABFCF819FC00111248E5B9D4F0E94A1
:101A6000450B8823E9F0E09140021E9FF00111240C
:101A7000EE5BFD4F4081518162817381848195814C
:101A80000E9470098091400290E00196877099272A
:101A90008093400280914002909141028913DACFF5
:101AA0002C96E3E00C941F3269857A858B859C85A2
:101AB0000E9470098ECF682F809128019091290192
:101AC0000E9400290895682F809128019091290192
:101AD0000E940329089580912801909129010E9474
:101AE00006290895809180028595859585950895AC
:101AF000809180028770089590918002977081E0B4
:101B000009F480E0089580918B02089590918B02F2
:101B1000892B80938B020895809590918B02982356
:101B200090938B02089510928B02089590918A02EF
:101B3000892B80938A020895809590918A02982338
:101B400090938A02089510928A02089580918102EA
:101B5000089508950E94A90D089590914D0392FF54
:101B600008C090918102981721F0809381020E9411
:101B7000AA0D089580918102882329F01092810294
:101B800080E00E94AA0D0895CF93DF93E091280191
:101B9000F091290180918B028083E0912801F091DE
:101BA0002901808190918A02892B80839091810202
:101BB000992381F0E0912801F09129018081892BFE
:101BC000808380912801909129010E94B828811179
:101BD0000E94BA0DC0912801D091290148E050E03F
:101BE00068E772E0CE010E942B32892B59F088E021
:101BF000FE01A8E7B2E001900D928A95E1F7CE01CF
:101C00000E947328DF91CF91089508950E94050ED8
:101C1000089590914D0392FF11C098E0899F900123
:101C20001124622B609380020E94B509809180028A
:101C30008595859585950E94060E08950E94B509A3
:101C400008951092800280E00E94060E08959091FF
:101C500080028095892380938002282F277091F439
:101C6000282F082E000C330B9217130659F0909171
:101C70004D0392FF07C08595859585950E94C10902
:101C80000E94210E089590914D0392FB222720F986
:101C9000281769F080FB92F990934D0380914C03D3
:101CA00090914D030E94950E82E00E94270E0895A8
:101CB00080914D0382FB882780F991E089270E945B
:101CC000430E089581E00E94430E089580E00E9433
:101CD000430E08956FEF7FEF90E080E00E946D3239
:101CE000089590E080E00E944932883E9E4F19F4AA
:101CF0000E948A1B089580E0089582E090E00E948F
:101D00004132089583E090E00E9441320895CF93DC
:101D100084E090E00E944132C82F82E290E00E946D
:101D20004132982F8C2FCF910895CF93C92F682FD0
:101D300084E090E00E944F326C2F82E290E00E949B
:101D40004F32CF910895AB01BC018FE090E00E942B
:101D500061320895AB01BC0183E190E00E946132E1
:101D6000089560E070E0CB010E94AA0E089560E043
:101D700070E0CB010E94A30E0E94B10E089568EEA0
:101D80007EEF90E080E00E946D3260E082E090E0C3
:101D90000E944F3260E083E090E00E944F32109248
:101DA0003F0260E084E090E00E944F3264E082E213
:101DB00090E00E944F3260E085E090E00E944F3258
:101DC00060E086E090E00E944F326FEF87E090E0A5
:101DD0000E944F3240E050E0BA0188E090E00E945B
:101DE000613260E08DE090E00E944F3240E050E0D0
:101DF000BA0188E190E00E94613260E087E190E002
:101E00000E944F3240E050E0BA018CE190E00E9425
:101E1000613270E060E080E290E00E946D3240E06C
:101E200050E0BA0188E190E00E94613280E00E94B7
:101E3000A31B0E94D21B0E94B70E08950E94BF0EE2
:101E40000895682F8EE090E00E944F3208950E941E
:101E5000C8296093A2027093A3028093A402909376
:101E6000A50260939E0270939F028093A0029093BC
:101E7000A10208950E94C8296093A2027093A30250
:101E80008093A4029093A50260939A0270939B02A0
:101E900080939C0290939D020895089508950E9456
:101EA0004E0F089508950E94520F089586E392E11F
:101EB0000E9455280E944D0F0E944F0F08950E94C6
:101EC00055140895089508950E94620F0E94630FAB
:101ED00008950E9452120E942F0508950E94B3296E
:101EE0000E94F6110E94E21B0E9472140E947B1352
:101EF0000E94690F0E94DE1C80E00E94391D0E9432
:101F000047210E947C140E948C190E94530F08954F
:101F1000AAE0B0E0EEE8FFE00C94FC310E94D5139B
:101F20008EE8A82E82E0B82E750110E0F70101912D
:101F30007F01812F0E9474121F5F1C3009F441C081
:101F40000817A1F38091A60281FD0E947A120E94D7
:101F50005F0FC82E10E0812F0E947412082FF50128
:101F600081915F01081731F1D02ED826F12CEE2493
:101F7000E3948D2D8E21B1F0CC20A1F0FE821F8341
:101F800091E0802F8E2109F490E098870E94BC296F
:101F90008160782F9A8789874E815F8168858A85DD
:101FA0000E945B05F394EE0CF5E0FF12E2CFF50121
:101FB000319700831F5F1C3071F60E94270F11E0DC
:101FC00021C00813BFCF0E94BC298C0180918C02D4
:101FD00090918D0208171907A1F08FEF89838A83EA
:101FE0001B820E94BC298160782F9D838C8349814C
:101FF0005A816B818D810E945B0510938D02009345
:102000008C0210E00E9455140E94DC21082F8111DF
:102010000E943A0F0E94D41E111101C001110E94AA
:10202000981D0E9452180E94B4190E9442052A96D7
:10203000EAE00C941832CF93DF930E941111EC0167
:10204000811521E5920708F042C0811530E593071C
:1020500008F09FC0883E910530F5803E910508F05C
:1020600094C0883A910588F4853A910508F086C0B5
:102070008130910509F489C0009709F486C004975E
:1020800008F083C0D0E0C0E080C08F3B9105D0F75E
:10209000C85AD0E0CC0FDD1FC454DE4F0990D88160
:1020A000C02DD46472C0811540E2940750F4C1156C
:1020B00081E0D80708F069C0C03FD10518F3D065AA
:1020C00064C081159044F0F2DF70D06A5EC0811563
:1020D00035E5930718F5811544E5940708F085C0A8
:1020E000C11583E5D80708F06CC0C11522E5D207F9
:1020F00008F462C0CE018370992721E030E002C06D
:10210000220F331F8A95E2F7C695C69580E2C89FD5
:10211000E0011124C22BD32BDC6837C0811539E5CF
:102120009307A8F4811548E5940708F063C0C1152A
:1021300086E5D80708F0A6CF8C2F0E94B311C82FD0
:10214000D0E0DC2FCC27CC27DF71D0621EC08115F8
:102150002AE5920708F453C090568115904208F082
:1021600091CF8D2F8F710E94B31190E0982F882707
:1021700088279F719C012C2BE901E7CFC55AD0E03D
:10218000C651DE4FC881D0E0D064CE01DF91CF913F
:1021900008958370992721E030E002C0220F331F99
:1021A0008A95E2F7C695C69540E2C49FE0011124E6
:1021B000C22BD32BDD68E9CFDC2FCC27C16FD06ACF
:1021C000E4CFCE018370992721E030E002C0220FD6
:1021D000331F8A95E2F7C695C69540E2C49FE00199
:1021E0001124C22BD32BDA68D0CFD82FCC27C46FC1
:1021F000D06ACBCFD82FCC27C06FD06AC6CF8F7014
:102200000E94B31134E0D695C7953A95E1F7CF70A7
:102210009C2FEC01D069B9CF0E9486230E941B102D
:10222000089582389105B9F1B0F48133910509F42C
:102230007DC048F48932910509F46DC08A32910558
:1022400009F47BC008958533910509F45FC0893393
:10225000910509F10895833E9105D9F138F4803E46
:10226000910529F1823E910579F10895863E910507
:10227000D9F1873E910509F43EC0843E910541F5B0
:1022800020914D0321FF24C080914C0384FD19C08F
:1022900087EE90E0089520914C03237009F05AC016
:1022A00020914D0323FF14C089E290E0089520910E
:1022B0004C0320FD38C030914D0330FF09C024FF8E
:1022C00043C090E080E0089520914C0322FDF7CFB9
:1022D000089520914C0322FD3AC030914D0330FD0A
:1022E00039C024FFF5CFEDCF20914C0323FFF0CF71
:1022F00024FDE7CFCDCF20914C0323FD2EC030919C
:102300004D0331FFEECF84EE90E0089520914C0311
:1023100025FFDECFC9CF20914C0325FD21C02091A0
:102320004D0323FFD5CF89E390E0D2CF20914C031A
:1023300026FFCECF8AE290E0089520914C0326FF3D
:10234000C7CF81E390E0089583EE90E0089582EE98
:1023500090E0089580EE90E0089586EE90E0089574
:1023600085E390E0089590914C0392FF06C0282FDA
:1023700028712830F9F4877F846093FF06C0282FE6
:1023800028712831F1F4877E846120914D0320FF6C
:1023900006C0382F38713830D9F4877F816021FF2B
:1023A00006C0282F28712831D1F4877E816194FDE1
:1023B000877E0895282F24712430F9F68B7F88605A
:1023C000DCCF282F2471243101F78B7E8861DDCF8B
:1023D000382F3171313019F78E7F8860E0CF282F88
:1023E0002171213121F78E7E8861E1CF109248035F
:1023F0001092490310924A0310924B030895CF9212
:10240000DF92EF92FF926B017C010E9455148111C3
:102410000EC00E94C829C61AD70AE80AF90AC09253
:102420004803D0924903E0924A03F0924B03FF9095
:10243000EF90DF90CF9008950F931F930E94551453
:10244000882329F00E94C8291F910F9108950E94A6
:10245000C829009148031091490320914A03309103
:102460004B03600F711F821F931FEECF80E0089512
:102470000E946A0E08950E94D5138FE39CE901978C
:10248000F1F700C000000E94D51380E00E94741292
:1024900080FF04C00E9438120E94232A08950E94DF
:1024A0003B1208950E94710E811102C00E941E0FFE
:1024B0000E947D0E8093A6020E94870E90934D038A
:1024C00080934C030E944F120E94820E0E94860944
:1024D00080913E020E949E09089508950E946D1207
:1024E00008950E9467020895E82FF0E0E55AFC4F36
:1024F00080810895089580EA8A95F1F7089500C0D3
:1025000008950E947B12089508950E9484120895F0
:10251000A6E0B0E0EEE8F2E10C9400320E9455141F
:10252000F82E60916703882309F440C086E0E82E06
:102530008E010F5F1F4FF8018E2D11928A95E9F7DA
:10254000862F90E0B801855A9C4F0E948A148823F8
:10255000B9F080914E0390E046E050E0B801855A12
:102560009C4F0E942B3221E02093A702892B91F4EB
:10257000F12C0E94A2048F2D2696E6E00C941C32CA
:102580008091A7028823A1F3F8011192EA94E9F758
:102590001092A702A0914E03B0E0A55ABC4F86E06E
:1025A000F80101900D928A95E1F7E3CF70E0655A4A
:1025B0007C4F80914E0390E0855A9C4F0E941115EC
:1025C0000E948512D8CFF894E82FE295EF70F0E0E2
:1025D00031A1282F2F7081E090E001C0880F2A954B
:1025E000EAF7982F9095932391A392A1892B82A328
:1025F00078940895CF93DF93CAE2D1E089918F3F19
:1026000011F00E94E31281E0CF32D807B9F7CFE290
:10261000D1E089918F3F11F00E94E31281E0C53330
:10262000D807B9F7DF91CF910895B0E0A0E0EBE1D2
:10263000F3E10C94FE317C01162F042FC62FD0E05D
:10264000C65DDE4F28812F3F09F44CC0F894E22F7D
:10265000E295EF70F0E031A12F7081E090E001C0D1
:10266000880F2A95EAF7932F982B91A392A1809532
:10267000892382A378940E947F128FE2C82E81E082
:10268000D82EF701A7014A5F5F4FF12CE02EE094AE
:10269000D6019D916D0181919F01215031099F3F8C
:1026A00031F1692F62956F7070E0DB0190966C914B
:1026B00070E09F7002C0759567959A95E2F760FD8E
:1026C00016C0802BD9018C93FF24F394E417F507EF
:1026D000F9F688818F3F11F00E94E3126F2D812F50
:1026E0000E948112CDB7DEB7E8E00C941A328E2139
:1026F000D9018C93EBCFABE0B0E0E1E8F3E10C94CF
:1027000004328091350181112CC086E0E0E8F1E0CF
:10271000DE01119601900D928A95E1F7FE01319646
:10272000AFE2B1E0CE01079621912D93E817F907AA
:10273000D9F785E0E6E8F1E0DE01179601900D9209
:102740008A95E1F78F8180932A01888580932B01F8
:10275000898580932C018A8580932D018B858093B8
:102760002E018091350196E0811190E090936703EE
:1027700086E0891B80934E030E94FA128CE0EBE501
:10278000F3E0DF01982F1D929A95E9F7EFE4F3E06B
:10279000DF011D928A95E9F786E00E9417140E94D6
:1027A0009F042B96E2E00C942032ACE0B0E0EBED1D
:1027B000F3E10C9400328E010F5F1F4F8CE0F801A3
:1027C00011928A95E9F7F12CEE24E3944E2D6F2DAA
:1027D000C8010E941513F394EE0CF5E0FF12F6CF3A
:1027E0004CE050E0B8018FE493E00E942B3221E0EE
:1027F000009709F420E0892B41F08CE0F801AFE468
:10280000B3E001900D928A95E1F76091670370E063
:10281000655A7C4F46E08FE493E00E941814182F0D
:102820000E948812812B2C96E6E00C941C320895AD
:10283000CF92DF92EF92FF920F931F93CF936C0191
:102840007B01042F222349F081E08093AA020E9499
:10285000BC299093A9028093A802C091AA02C11139
:102860000AC0C0E08C2FCF911F910F91FF90EF9085
:10287000DF90CF9008958091A8029091A9020E94C4
:10288000D429059770F310E0A801B601C7010E9492
:102890002B32892B41F0A801B601C7010E943832C2
:1028A0001092AA02DFCFC0E0FBCF8091AD02811170
:1028B00007C00E94B231882351F081E08093AD02BD
:1028C00081E09091AD02913009F080E0089582E0BE
:1028D0008093AD020E94AD31F3CF0E94551491E078
:1028E000892708950E946D14809335010E94551424
:1028F00081110E94C01408950E945514811102C0D4
:102900000E94C314089581E09091AE029A3008F0BD
:1029100080E008950F931F93CF93DF93EC018B0119
:102920008091AE028A30B8F4B801CE010E940E1533
:10293000C82F811122C08091AE028F3FB9F40E944E
:10294000BC299093AC028093AB028C2FDF91CF9186
:102950001F910F9108958091AB029091AC020E945B
:10296000D429843F914000F7C0E0EFCF8F5F809380
:10297000AE028A3020F7C1E0E8CF1092AE02E5CF78
:102980000E94F32608950E94F6260895B0E0A0E084
:10299000ECECF4E10C94FF317901C82F880FDD0BCA
:1029A00041155105A9F0FE0193E0EE0FFF1F9A9526
:1029B000E1F7EA5CFE4F8181928181559D4F208134
:1029C00030E04217530708F49A01A9010E943832F7
:1029D000CE010E94DF27D82E8823D1F001151105E2
:1029E000B9F083E0CC0FDD1F8A95E1F7FE01EA5CC8
:1029F000FE4F438150E00417150708F4A801CA5C94
:102A0000DE4F6C817D8161557D4FC7010E94383258
:102A10008D2DCDB7DEB7E7E00C941B320E942A164D
:102A200008950E944B160895A4E0B0E0EAE1F5E1B4
:102A30000C9402326091CF027091D0028091D10249
:102A40009091D2020E94E32911E06436710581055C
:102A5000910518F10E941C126E5F7F4F8F4F9F4FA0
:102A600069837A838B839C8310E000E030E020E070
:102A700044E050E0BE016F5F7F4F84E00E94C614C7
:102A8000182F882351F00E94C8296093CF027093B9
:102A9000D0028093D1029093D202812F2496E4E059
:102AA0000C941E32A1E0B0E0E8E5F5E10C94F931B8
:102AB000762E4A015901680101E010E09E012F5F66
:102AC0003F4F50E040E070E060E00E94C614182FD5
:102AD000882399F1F40160817181828193810E9440
:102AE000E329643671058105910500F1870195019F
:102AF00050E040E070E060E0872D0E94C614B82EE0
:102B0000B701C6010E94DF1C11E09981981310E003
:102B10001B2139F00E94C829F401608371838283EC
:102B20009383812F2196EDE00C941532B701C601F5
:102B30000E94DF1C99818913D9CFA701B601C50175
:102B40000E943832EECFA2E0B0E0E9EAF5E10C9461
:102B500000320091ED011091EE01085F1F4F82E0FD
:102B6000E82EF12C9E012F5F3F4F4BEC52E063E0CB
:102B700082E00E945215182F882321F0CE01019681
:102B80000E946C22812F2296E6E00C941C32A6E073
:102B9000B0E0EDECF5E10C94FE316B010091ED013C
:102BA0001091EE010F5F1F4F86E0E82EF12C9E0181
:102BB0002F5F3F4F47EC52E061E080E00E945215EA
:102BC000882349F096E0FE013196A1ECB2E0019035
:102BD0000D929A95E1F796E0E1ECF2E0D6010190D2
:102BE0000D929A95E1F72696E8E00C941A32B0E03F
:102BF000A0E0EDEFF5E10C94FC317C015B016A0192
:102C00000E94831401E010E0882311F00AE010E034
:102C1000C1E0D0E0B501C701F6010995811104C0FA
:102C200021960C171D072CF4CDB7DEB7EAE00C9403
:102C30001832CC9F9001CD9F300D300D112490E0C3
:102C400080E045E34A95F1F700000196821793076B
:102C5000C1F7E0CF0F931F93CF93DF93EC018B016C
:102C600047EC55E10E94F715811106C080E0DF9125
:102C7000CF911F910F91089543EA55E1B801CE011C
:102C80000E94F715882391F344E155E1B801CE0184
:102C90000E94F715ECCFA2E0B0E0E1E5F6E10C947C
:102CA00002320091ED011091EE01C801019626E07B
:102CB000FB01DC0101900D922A95E1F766E070E0DE
:102CC0000E94DF1CF8018083CE0101960E946122E0
:102CD00089819A81F8019187808762E070E0CE0156
:102CE00001960E94DF1CF8018783628573858485C5
:102CF00095850091BD021091BE022091BF023091D6
:102D0000C002601771078207930751F06093BD02FC
:102D10007093BE028093BF029093C0020E94FF1185
:102D20002296E4E00C941E320E940C2C0E946E0F3E
:102D30000E94192C08950E941E2C0E94880F0E9448
:102D4000382C08950E9455290E94F22B0E94560F9C
:102D50000E9494160E949B160E94640FFBCF8091E4
:102D6000D90280FF0DC06091630170E0660F771F8C
:102D70006038710570F56115710569F1862F089548
:102D800081FF07C06091630184E0689FB001112456
:102D9000EFCF6091630182FD0AC08091D802882341
:102DA000A9F02091620160916301821710F088E020
:102DB000ECCF869FC001112433E0880F991F3A950C
:102DC000E1F7622F70E00E94D331D2CF68E070E06B
:102DD000D5CF8FE7089581E008958091D90280FFD3
:102DE0000CC060915F0170E075956795759567956A
:102DF0006115710549F1862F089581FF06C0609124
:102E00005F0170E075956795F3CF60915F0182FD7A
:102E10000BC09091D7029923A1F060915E0180913F
:102E20005F01961738F0682F70E06038710500F385
:102E30008FE70895899FC001112470E00E94D3316B
:102E4000F4CF61E070E0D7CF81E00895803F31F4A6
:102E50000E94AF1681958093DD020895813F19F499
:102E60000E94AF16F8CF823F31F40E94AF168195D1
:102E70008093DC020895833F19F40E94AF16F8CFC7
:102E8000893F29F40E94ED168093DE0208958A3F5F
:102E900021F40E94ED168195F7CF8B3F31F40E940B
:102EA000ED1681958093DF0208958C3F19F40E94FE
:102EB000ED16F8CF9CE0980F953070F4845F990B75
:102EC00021E030E001C0220F8A95EAF78091DB0211
:102ED000822B8093DB0208958D3F31F48091D902DB
:102EE00081608093D90208958E3F21F48091D902A8
:102EF0008260F7CF8F3FB9F78091D9028460F1CF1C
:102F00004091DC02803F59F48091DD0287FF0DC0C3
:102F10001092DD0241110BC01092D80208C0813F0F
:102F200081F48091DD0218169CF3442381F0809196
:102F3000DE029091DF02892B09F05AC01092D7026D
:102F40000895823F49F447FFF0CF1092DC02809150
:102F5000DD028111ECCFE0CF833F19F41416ACF3FE
:102F6000E4CF9091DE02893F29F41916F4F610920D
:102F7000DE02DBCF8A3F19F497FFD7CFF8CF9091CD
:102F8000DF028B3F29F497FFD0CF1092DF02CDCF25
:102F90008C3F19F41916CCF3C8CF9CE0980F9530EC
:102FA00090F4845F990B21E030E0B90102C0660F14
:102FB000771F8A95E2F7CB0180959091DB028923F8
:102FC0008093DB02B2CF8D3F31F48091D9028E7FA6
:102FD0008093D902AACF8E3F21F48091D9028D7FB0
:102FE000F7CF8F3F09F0A1CF8091D9028B7FF0CF2F
:102FF00008950E94BC299C019091DC028091DD0221
:10300000982B21F03093D6022093D5029091DE02C6
:103010008091DF02982B21F03093D4022093D302C9
:103020008AED92E00E947E28089586E0EAEDF2E0C3
:10303000DF011D928A95E9F71092D8021092D7020B
:103040001092D9020895A6E0B0E0E9E2F8E10C940C
:10305000043286E0EAEDF2E0DE01119601900D9275
:103060008A95E1F729813A814B815C816D817E816E
:1030700080E090E02696E2E00C942032FC01828110
:1030800081110EC0838181110BC08481811108C020
:1030900091E08581811101C090E0892F81700895B0
:1030A00081E0FCCFA6E0B0E0E8E5F8E10C94033263
:1030B00086E0EAEDF2E0DE01119601900D928A952C
:1030C000E1F71092DC021092DD021092DE02109203
:1030D000DF028B819C81892B89F08091D5029091B0
:1030E000D6020E94D429AC019091D8029923C9F14B
:1030F000809164018417150608F440C08D819E817B
:10310000892B91F08091D3029091D4020E94D4290E
:10311000AC019091D702992309F471C080916001AC
:103120008417150608F479C0BE016F5F7F4F8AEDE2
:1031300092E00E940D29811105C08AED92E00E9463
:103140003E1881110E94F91786E0FE013196AAED22
:10315000B2E001900D928A95E1F72696E3E00C9497
:103160001F32209165018AE0289F900111242417C5
:10317000350720F69F5F9093D80202C09F3FD1F79A
:103180001B81112359F00E94AF169FEF11160CF40A
:1031900091E0899F802D11248093DC021C811123F2
:1031A00059F00E94AF169FEF11160CF491E0899F21
:1031B000802D11248093DD023091DC02332309F449
:1031C0009DCF2091DD02222309F498CF45EB3403F3
:1031D000C0011124992359F09093DC0245EB24039C
:1031E00090011124332339F03093DD0287CF81E041
:1031F0008093DC02F3CF81E08093DD027FCF2091CA
:1032000061018AE0289F900111242417350708F0F6
:103210008BCF9F5F9093D70202C09F3FD1F71D8154
:10322000112359F00E94ED169FEF11160CF491E056
:10323000899F802D11248093DE021E81112359F075
:103240000E94ED169FEF11160CF491E0899F802DDE
:1032500011248093DF023091DE02332309F464CF1E
:103260002091DF02222309F45FCF45EB3403C00134
:103270001124992359F09093DE0245EB2403900129
:103280001124332339F03093DF024ECF81E0809355
:10329000DE02F3CF81E08093DF0246CF08950895E8
:1032A000ACE0B0E0E6E5F9E10C9404324F835887D6
:1032B00069877A878B879C8786E0FE013796DE01D7
:1032C000119601900D928A95E1F729813A814B81FF
:1032D0005C816D817E8180E090E02C96E2E00C9430
:1032E0002032ACE0B0E0E7E7F9E10C9404320E9450
:1032F000501980E090E02C96E2E00C94203221E01E
:1033000030E001C0220F4A95EAF7662311F0822BC4
:103310000895209582230895E091EF01F091F00146
:1033200009950E944E190E944F19089564EE72E0AB
:103330008AEE92E00E940D29882321F08AEE92E025
:103340000E947E281092EC021092ED021092EE0282
:103350001092EF0286E0EAEEF2E0A4EEB2E0019015
:103360000D928A95E1F70895A2E1B0E0EAEBF9E168
:103370000C9404326091E0027091E1028091E202CB
:103380009091E3020E94E329672B682B692B09F4D3
:103390006EC00E94C8296093E0027093E10280939E
:1033A000E2029093E302E091F101F091F201409189
:1033B000EA025091EB026091EC027091ED02809173
:1033C000EE029091EF0209952093EA023093EB020E
:1033D0004093EC025093ED026093EE027093EF0283
:1033E00086E0EAEEF2E0DE011D9601900D928A95EC
:1033F000E1F786E0FE013D96DE01119601900D9207
:103400008A95E1F786E0FE013196DE01179601907C
:103410000D928A95E1F786E0FE013796AAEEB2E0BA
:1034200001900D928A95E1F74091EA025091EB02EA
:103430006091EC027091ED028091EE029091EF02AA
:103440000E9471192093EA023093EB024093EC0240
:103450005093ED026093EE027093EF020E942318E6
:103460008091EB02832B8093EB020E949619629667
:10347000E2E00C942032A6E0B0E0E1E4FAE10C9442
:10348000043286E0EAEEF2E0DE01119601900D9240
:103490008A95E1F729813A814B815C816D817E813A
:1034A00080E090E02696E2E00C942032A6E0B0E0C6
:1034B000ECE5FAE10C94043249835A836B837C83F4
:1034C0008D839E8386E0FE013196AAEEB2E00190E4
:1034D0000D928A95E1F72696E2E00C942032FC01E9
:1034E000208131812038310534F02F573109318363
:1034F00020838FE7089520388FEF380734F4215860
:103500003F4F3183208380E80895822F11821082FB
:103510000895A1E1B0E0EFE8FAE10C9401324C87A4
:10352000888B998B152FF62E072FCE01079625E055
:10353000FC0111922A95E9F72091F6022A3008F051
:103540003FC00E944D1B892B09F060C01092F6020B
:103550008B8540E087FD52C060E0812F0E947F197B
:10356000182F8091F4029091F502009709F040C065
:1035700046E06F8188850E94641B2091F2023091A1
:10358000F302820F931F9093F3028093F20246E0BE
:1035900069858A850E94641B2091F0023091F102B6
:1035A000820F931F9093F1028093F00282EF92E0DA
:1035B0000E946F1AF82E80EF92E00E946F1A082F77
:1035C0001D87FE860F8786E0FE013C96DE01119680
:1035D00001900D928A95E1F729813A814B815C81B6
:1035E0006D817E8180E090E06196E5E00C941D3273
:1035F00001979093F5028093F402E2CF61E0812F6E
:103600000E947F19182F84E190E0F3CF8091F60299
:103610008F5F8093F602D4CF80916601909167010D
:103620002DE7AC01249FC001259F900D1124089522
:103630009C01893F910538F481E090E09093670107
:10364000809366010895EDE7F0E0BF010E94BF316D
:10365000A901481B590BCA01BF010E94BF317093D9
:103660006701609366010895A4E0B0E0EAE3FBE13E
:103670000C94023289836A834B832C8304E610E026
:1036800024E030E0AE014F5F5F4F60E084E10E94D4
:1036900025262496E4E00C941E320F931F9304E633
:1036A00010E025E030E0AC0164E084E10E944C26AB
:1036B0001F910F9108950E941E2520E040E060E0D8
:1036C00080E00E94341B0895681708F5861B682F58
:1036D00021E0469FA0011124649FF001659FF00D39
:1036E00011244091660150916701E49FC001E59F5C
:1036F000900DF49F900D1124880F892F881F990B2E
:103700009195222319F09195819591090895681B4F
:1037100020E0DFCF83E290E00E944132823289F4E0
:1037200084E290E00E944132823159F485E290E0D7
:103730000E94413291E0893209F090E0892F817036
:10374000089580E0FCCFCF93C82F6FEF811162E224
:1037500083E290E00E944F326FEFC11162E184E298
:1037600090E00E944F326FEFC11169E285E290E074
:103770000E944F32CF910895089586E290E00E9412
:103780004132682F70E090E080E008950895CF9373
:10379000C62F0E94C61B6C2F86E290E00E944F321B
:1037A000CF91089580E00E94A31B60E070E0CB0100
:1037B0000E94C71B0E9400230E94E32381E00E9415
:1037C000A31B08950E94BC1B0E94BD1B0E94C61B28
:1037D0000E948A1B811102C00E94D21B0895CF93C0
:1037E000FB01C281CC2309F19C0122513F452031CC
:1037F000310520F582510E94F323C0E08C2FCF9138
:10380000089581E00E94B50943E062E081E00E94F2
:103810009504F3CF81E00E94C10943E062E081E0BA
:103820000E949504EBCF82E0F6CF8031FFE59F0741
:1038300089F381319F45B9F3C1E0E0CF8031EFE5F5
:103840009E07F9F281319F45C9F682E0DBCF2FEF69
:10385000FC0120830895EF92FF920F931F93CF9363
:10386000DF93EC01062FE881E150E33108F05DC001
:10387000F0E0EF56FD4C0C94E73119828AE08A8320
:10388000602FCE010E94C52ACDB7DEB7E6E00C94CA
:103890001C328981823069F0833071F08130D9F433
:1038A0000E94C8290E94ED316A837B838C839D83AB
:1038B000E7CF0E94BD1BF6CF7E0182E0E80EF11C2F
:1038C00010E0812F0E947412F70181937F011F5F26
:1038D0001C30B9F7D5CF602FCE010E94271CD0CF66
:1038E00089818230C1F76A817B818C819D810E94B0
:1038F000ED310E94C71BC4CF4B816A8189810E9430
:10390000C2229827892798279D838C83B9CF2C8141
:103910003D813227232732274B816A8189810E948A
:10392000E422AECF0E940023ABCF8FEF8883A8CFD5
:103930000E9494238983A4CF0E94962398278927E5
:1039400098279A8389839CCF6B8170E089819A81C3
:10395000AE014C5F5F4F9827892798270E949923D3
:103960008FCF6B8170E089819A81AE014C5F5F4F90
:103970009827892798270E94BE2382CF0E94E3239D
:103980007FCF0E94B022D6CF6B8170E089819A816F
:10399000AE014C5F5F4F9827892798270E943E23EE
:1039A0006FCF6B8170E089819A81AE014C5F5F4F70
:1039B0009827892798270E94622362CF0895FC01E7
:1039C000680F791F8FEF91E36E177F0709F4089551
:1039D0002191822728E030E087FF06C0880F8927E1
:1039E00021503109C9F7F0CF880FFACFB0E0A0E03D
:1039F000ECEFFCE10C94FE316C017B0164E670E0BD
:103A000088E70E942425EC0197FD12C010E000E039
:103A1000F601E00FF11F849164E670E00E949025AA
:103A2000EC01892B29F40F5F1F4F0E151F0581F73D
:103A30000E949526CE01CDB7DEB7E8E00C941A328D
:103A400008950E94201D0895E8E6F3E080E092E0EA
:103A5000DF019C011D9221503040E1F7F0936F058A
:103A6000E0936E058FEF9FEF90931D0380931C03EF
:103A700008950E94201D0E94211D8093180380FD3F
:103A80000FC080E8809317030E941E256DE070E050
:103A90008BE292E00E94F61C892B21F080E00895D1
:103AA00080E2F0CF8091180363E070E081FD26C0D2
:103AB00088E292E00E94F61C892B81F76DE070E0AD
:103AC00088E192E00E94F61C892B41F70E94C829E8
:103AD000605A75418F4F9F4F60936A0570936B05D5
:103AE00080936C0590936D050E94241D81E0809366
:103AF0001B0380931A0310921903089585E292E044
:103B0000D9CF2091170336E0839FC0011124629F13
:103B1000800D911D1124811522E0920714F090E090
:103B200080E088599C4F90936F0580936E050895AF
:103B300080911B03811103C080911A0308950E9494
:103B4000C829605A75418F4F9F4F60936A057093E3
:103B50006B0580936C0590936D0580911A0381111C
:103B6000EBCF62E070E086E192E00E94F61C892BC8
:103B700019F781E080931A03DFCF2F923F925F9273
:103B80006F927F928F929F92AF92BF92CF92DF926D
:103B9000EF92FF920F931F93CF93DF9380911B03BC
:103BA000882369F020911C0330911D0321153105F4
:103BB00031F08091190361E070E0882399F0DF9182
:103BC000CF911F910F91FF90EF90DF90CF90BF901A
:103BD000AF909F908F907F906F905F903F902F90CD
:103BE00008958F5F082F10E01B01082E02C0220CE1
:103BF000331C0A94E2F7A90142215321452B89F392
:103C00009091180390FD44C08295880F8076809330
:103C10006A019801369527953695279520936D0171
:103C2000815E80936B0110926E0124E630E047E0E4
:103C300050E068E671E088E70E940426892B09F0CD
:103C4000BECFA80125E0440F551F2A95E1F78091CA
:103C5000180380FD2BC048595C4F04E610E020E2B9
:103C600030E060E488E70E942526892B09F0A7CF81
:103C70000E94981DE101C095D09580911C03909100
:103C80001D03C823D923D0931D03C0931C0397CFD2
:103C9000880F880F880F80936A0110926D01895FE9
:103CA00080936B0183E080936E01BFCFE7EFF2E07A
:103CB00080E2DF011D928A95E9F7ABEFB1E007EFF3
:103CC00011E08FEFC82E81E0D82E97E0592E77248F
:103CD00073948D91E80129918E01240F352F311DA8
:103CE00028593C4FE82FF0E0E950FD4F90E080E08C
:103CF000652C681A872C082E01C0880C0A94EAF7F4
:103D00007901A12CE701B9907E01B820662D6A19CE
:103D10006770962E062E000C770BDB2D01C0DD0F91
:103D20009A94EAF77195619571096770772701C0D8
:103D3000B6946A95EAF7BD2A6081962E9B289082F8
:103D4000A39468E0A612DECF0196319688309105E3
:103D500079F6CA16DB0609F0BCCF04E610E020E2D3
:103D600030E047EF52E07DCF80911A0390911B0322
:103D7000911103C091E089270895882369F062E0DA
:103D800070E084E192E00E94F61C892B19F080918A
:103D90001A03089510921A0380911A03EBCF81E061
:103DA00008950E94CF1E08950F931F9380911B03C7
:103DB000882379F180916805909169050E94D42942
:103DC000C29760F00E94BC299093690580936805B2
:103DD00060E080E00E94811D0E94D11E0E94BD1DF6
:103DE00080911A038823A9F00E94C82900916A05CE
:103DF00010916B0520916C0530916D05601B710B66
:103E0000820B930B6F3F7F4F8F4F9F4710F40E94A1
:103E1000B41E1F910F910895CF93DF93EC01FB0126
:103E20008281882309F464C1C330FDE5DF07E0F532
:103E3000CA3F9CE5D90730F49E0122503C4524310D
:103E40003105D8F50E94870E90934D0380934C0363
:103E5000C231ECE5DE0709F41FC108F06EC0C930BD
:103E60008CE5D80709F4F2C008F03FC0C530ECE596
:103E7000DE0709F4DBC058F5C3308CE5D80709F438
:103E8000CDC008F0CFC080914C038160C230DC45CA
:103E900009F4AEC080914C0390914D030E94950EA1
:103EA0000E94330980E009C0C53AEDE5DE0751F212
:103EB00038F4C1369DE5D90729F2DF91CF910895F5
:103EC0009E012D5A3D4523303105B8F7BBCF809177
:103ED0004C038062C730FCE5DF0709F489C008F4B1
:103EE000B1C080914C03806483C0CD309CE5D9077C
:103EF00009F4BAC070F480914C038E7FCB30FCE59E
:103F0000DF0709F475C008F4A7C080914C038D7FCA
:103F10006FC0CF309CE5D90709F4B6C008F4A8C03B
:103F2000C031FCE5DF0709F4B3C0C131DC4509F05D
:103F3000B1CF80914C038F7B5BC0CF3F9CE5D9070D
:103F400009F4B4C098F5CA3FFCE5DF0709F472C074
:103F5000B8F4C4319CE5D90709F4B6C008F4A2C08E
:103F6000C531DC4509F096CF80914C0382FB99273F
:103F700090F921E0922790FB82F990FB83F938C0F9
:103F8000CC3F8CE5D80709F477C008F457C0CD3F83
:103F9000ECE5DE0709F474C080914D038360CE3FE9
:103FA000DC4509F077CF80934D0374CFC1368DE5A2
:103FB000D80709F496C068F4C130EDE5DE0709F4CE
:103FC0008CC008F477C0C230DD4509F063CF80E0D3
:103FD00085C0CD3A9DE5D907E9F068F490914C038E
:103FE000892F8E7F90FF8160C53ADD4509F052CF61
:103FF00080934C034FCFCE3A8DE5D80789F1CF3A65
:10400000DD4509F047CF90914D03892F877F93FFBE
:104010008860C9CF80914D038860C5CF80914C03E3
:104020008260E6CF80914C038460E2CF80914C03A4
:104030008860DECF80914D038160B5CF80914D03C4
:104040008260B1CF80914C038061D2CF0E9433094E
:1040500080914C038068CCCF80914C038C60C8CF9A
:1040600080914D03877F9FCF80914C038B7FC0CF82
:1040700080914C03877FBCCF80914D038E7F93CF7F
:1040800080914D038D7F8FCF80914C038F7EB0CF79
:1040900080914C038F7DACCF0E94330980914C03FB
:1040A0008F77A6CF80914C03837FA2CF80914D0361
:1040B0008C7F79CF80914D03982F909591708E7F52
:1040C000892B90FB81F96FCF0E94330990914C03AB
:1040D000892F97FB87F980588BCF81E00E94210FB1
:1040E000D9CE90914C03892F8F7E94FF806180CF31
:1040F00081E0E3CEB0E0A0E0E0E8F0E20C94FF3134
:10410000E82FF0E0E85CFD4FD490282F2695269507
:10411000269530E0F901E852FD4F0491877010E0D8
:10412000082E02C0159507950A94E2F70170112731
:10413000F901E853FD4FE490F12C082E02C0F594EC
:10414000E7940A94E2F791E0E922FF24F901E854A8
:10415000FD4FC491D0E002C0D595C7958A95E2F78E
:10416000C170DD270115110519F081EE0E94B70518
:10417000E114F10419F086EE0E94B7058D2D0E941E
:10418000B906E114F10419F086EE0E944806011503
:10419000110519F081EE0E944806CD2B19F08CE232
:1041A0000E94B906CDB7DEB7E7E00C941B32EF9260
:1041B000FF920F931F93CF93DF93EC01162F0AE02A
:1041C0008881882309F454C0813009F04EC0898168
:1041D000813099F47E0122E0E20EF11C8A810E9476
:1041E000B906E7012196812F815050F3EFE9FFE0F6
:1041F0003197F1F700C00000F7CF823041F47E0123
:1042000082E0E80EF11C8A810E94B705EACF833074
:1042100041F47E01E2E0EE0EF11C8A810E94480624
:10422000E0CF843011F02196DDCF2A81229690E0F4
:1042300080E0AE014F5F5F4F2053330B2A303105D2
:1042400048F0019778F2EFE9FFE03197F1F700C00D
:104250000000F7CF089FB001099F700D1124C9011C
:10426000860F971F2981EA01E4CF0E947A20BACFF6
:10427000CDB7DEB7E6E00C941C328FE891E00197F1
:10428000F1F700C0000008950E9478030895B0E09F
:10429000A0E0EDE4F1E20C94FF318091350192E071
:1042A000811190E09093240382E0282F291B209312
:1042B00023039091350180932503909135018093DC
:1042C00022038091350181110CC087E9809371012F
:1042D00086EC80936F0184E98093720186E6809377
:1042E000700101E711E0CFE6D1E063E771E0AE01D4
:1042F000D80121E030E08D91E82FE295EF70F0E0F9
:10430000D1A08F70790101C0EE0C8A95EAF79E2D3D
:1043100090959D2191A382A18E2982A3FA0181917A
:10432000AF01E82FE295EF70F0E0D1A08F70790136
:1043300002C0EE0CFF1C8A95E2F79E2D90959D2100
:1043400091A382A18E2982A36A177B07A1F60E94FE
:104350003D21609125034AE253E0FA018E2F841B30
:10436000861728F0CDB7DEB7E7E00C941B32D801F2
:104370002D918D01A22FA295AF70B0E090968C91F7
:1043800090E02F7002C0959587952A95E2F781708D
:104390009991A92FA295AF70B0E090962C9130E042
:1043A0009F7002C0359527959A95E2F790E020FD21
:1043B00092E0892B8193D2CFCF92DF92FF920F931D
:1043C0001F93CF93DF9310E000E084E0C82ED12C40
:1043D00080912503181748F0802FDF91CF911F910E
:1043E0000F91FF90DF90CF900895C12FD0E0FE0194
:1043F000EF58FE4F8081E82FE295EF70F0E0E0A1EA
:10440000F0E08F7002C0F595E7958A95E2F7E170CC
:10441000DE01A159BE4F4C91A42FA295AF70B0E020
:1044200090968C9190E04F7002C0959587954A9533
:10443000E2F780FD44C080E08E2BDE01A65DBC4F1C
:10444000EC919E2F93709817C1F1EE0FEE0FE82BB1
:10445000EC93F0902403F10EEF70F0E0E150FE4F8A
:10446000CA5DDC4F80819881890F888320E0843089
:1044700064F0EF2DF0E0E25EFC4F80818F5F80837F
:1044800060E08F2D0E94442121E088818D3F64F4FB
:10449000EF2DF0E0E25EFC4F80818150808361E08F
:1044A0008F2D0E94442121E08881082E000C990B59
:1044B000B6010E94D3318883022B1F5F89CF82E02F
:1044C000BBCF4091250350E06091240370E0625E11
:1044D0007C4F0E9438320895B0E0A0E0E2E7F2E2BB
:1044E0000C94FE316C01D0E080E090912203D9174A
:1044F00040F081110E943A0FCDB7DEB7E8E00C948E
:104500001A32F0902303FD0E0F2D10E0025E1C4FB7
:10451000F601ED0FF11DC081F8019081C91BEC2E51
:104520001E1444F09C2FC7FD90E0C91BC1110DC0A3
:10453000DF5FDBCFEA94F80180818F5F808360E0EA
:104540008F2D0E94442181E0EBCFCF5FF801808165
:104550008150808361E08F2D0E94442181E0E6CF6D
:1045600084E0089550E0440F551F9AE0699F400D84
:10457000511D112498E7899F400D511D1124CA0136
:10458000879608950F931F93CF93DF938430C8F4D9
:104590006C30B8F44530A8F40E94B2228C010E941D
:1045A0004132C82FD0E0DC2FCC27C80101960E94F1
:1045B00041329E01282BC901DF91CF911F910F91AC
:1045C000089590E080E0F8CF0F931F93CF93DF938F
:1045D000122F032F843078F46C3068F4453058F48F
:1045E0000E94B222EC01602F0E944F32612FCE0157
:1045F00001960E944F32DF91CF911F910F91089544
:10460000B0E0A0E0E6E0F3E20C94FD319CEAC92EB4
:1046100090E0D92ED0E0C0E07601B12C20C00E94FD
:10462000270421E030E08C171D0641F03CF0F80132
:10463000EE0FFF1FEE0DFF1D25913491402F6B2DC6
:104640008C2F0E94E4220F5F1F4F0530110539F7B0
:104650008AE0E80EF11CB3948CE0B81619F010E073
:1046600000E0DDCF219688E7C80ED11CC430D1050B
:1046700099F6CDB7DEB7E9E00C941932EF92FF92CC
:104680000F931F93CF93DF93EC018A017C01E60E19
:10469000F71ECE018796CE15DF0529F4CDB7DEB71C
:1046A000E6E00C941C32C03E21E0D20740F40E94A8
:1046B0004132F80180830F5F1F4F2196EACFF80146
:1046C0001082F9CFB0E0A0E0E8E6F3E20C94FE310E
:1046D0007C016A018C01060F171FEC01CE01879641
:1046E000C017D10729F4CDB7DEB7E8E00C941A3231
:1046F000C03E21E0D20740F4FE01EE19FF09EC0DA7
:10470000FD1D60810E944F322196E8CF462F8430F4
:1047100040F47C3030F4653020F4672F0E94C222D0
:10472000089590E080E0089580E1089589EF91E098
:104730000895EF92FF920F931F93CF93DF93EC01B5
:104740008A017C01E60EF71ECE01895F9D4FCE15D2
:10475000DF0529F4CDB7DEB7E6E00C941C32C93F83
:1047600021E0D20740F40E944132F80180830F5FBC
:104770001F4F2196E9CFF8011082F9CFB0E0A0E0F9
:10478000E4ECF3E20C94FE317C016A018C01060F2B
:10479000171FEC01CE01895F9D4FC017D10729F487
:1047A000CDB7DEB7E8E00C941A32C93F21E0D2075A
:1047B00040F4FE01EE19FF09EC0DFD1D60810E9421
:1047C0004F322196E7CFCF93DF93C7E0D2E060E08E
:1047D000CE010E944F322196C11584E0D807B9F767
:1047E000DF91CF910895A4E0B0E0E9EFF3E20C94FB
:1047F000FF31F82E8FE08F1548F18FEF93E00E9484
:104800004132811123C007E012E0F11023C0198268
:104810001A821B821C82DD24D39478018FEFE81A60
:10482000F80AC8010E94413289831A82882371F0F4
:104830009FEF980F9330D8F48A83D9820E5F1F4F71
:10484000C7010E9441328B83811112C02496E7E098
:104850000C941B32011584E01807C1F3C8010E94B3
:104860004132811101C0FA940F5F1F4FCECF8701F3
:1048700060E0CE0101960E94D720CFCFCF93DF9387
:10488000EB0186319C4511F50E94830D9A81992395
:1048900099F08A7A91E009F490E090932E038111C7
:1048A00009C089E20E945B0D0E94C40D80E0DF9187
:1048B000CF91089585E3F6CF80912E03811104C036
:1048C00089E20E94630DF0CF85E3FBCF81E0EFCF5B
:1048D0000F931F93CF93DF93C42FD22FFC018281BC
:1048E0008823C9F0409331030E94BC299093300380
:1048F00080932F0380E28C0F883040F4C77081E0F2
:1049000001C0880FCA95EAF70E94C206DF91CF91D5
:104910001F910F91089510913103141332C08091AB
:104920002F03909130030E94D429883C910548F5CB
:10493000C0E2CD0F1D17B9F080E2810F883040F43E
:10494000177081E001C0880F1A95EAF70E94C90626
:10495000C83048F481E09D2F977001C0880F9A9568
:10496000EAF70E94C206802F0E94B906C83070F68E
:10497000D77081E001C0880FDA95EAF70E94C90676
:10498000C5CF80E28C0F883008F6C77081E001C087
:10499000880FCA95EAF7F2CF0F939C01CB01233F12
:1049A0004CE5340759F1A8F4283DFCE53F0701F137
:1049B000293D4CE53407D1F1273D3C4591F406E211
:1049C00021EE41EE67ED7CE50E94682480E00F91C6
:1049D0000895253FFCE53F07E9F0B0F0263F3C4550
:1049E000F9F0FC018281882339F110923103EFCF75
:1049F00007E225EE45EE68ED7CE5E6CF06E221EE26
:104A000040EE63EF7CE5E0CF07E225EE44EE64EF95
:104A10007CE5DACF06E221EE42EE65EF7CE5D4CF0D
:104A200007E225EE46EE66EF7CE5CECF08E221E018
:104A300045EE69ED7CE5C8CF81E0C9CF1092B900A1
:104A40008CE08093B8000895B0E0A0E0EAE2F5E2DF
:104A50000C94FB31B82EEB010E94BC296C01EE24B2
:104A6000E394F12CC431D10560F025E0E22EF12C65
:104A7000CF3FDC0731F0CE0164E170E00E94BF312E
:104A80007B0184EAA82E94E8992E1092BC00A09293
:104A9000BC000E94BC298C018091BC0087FF0DC026
:104AA0008091B900887F8830F9F08091B900887FC3
:104AB0008031D1F00FEF1FEF08C0C8010E94D42948
:104AC000E816F90648F70EEF1FEFCF3FDC07E9F2D3
:104AD000C6010E94D429C817D907B8F6C801CDB7B6
:104AE000DEB7EBE00C941732B092BB009092BC00A2
:104AF0000E94BC298C018091BC0087FF0AC0809174
:104B0000B900887F883111F08034A1F610E000E010
:104B1000E5CFC8010E94D429E816F90660F7D3CF83
:104B20000F931F93CF93DF93EB018093BB0084E837
:104B30008093BC000E94BC298C018091BC0087FF3F
:104B400011C02091B900287F81E090E0283211F453
:104B500090E080E0919581959109DF91CF911F912F
:104B60000F910895CF3FDC0741F3C8010E94D4297B
:104B7000C817D90710F78EEF9FEFEFCF0F931F9352
:104B8000CF93DF93EC0184EC8093BC000E94BC299E
:104B90008C018091BC0087FF08C08091BB0090E031
:104BA000DF91CF911F910F910895CF3FDC0789F3DB
:104BB000C8010E94D429C817D90758F78EEF9FEF74
:104BC000EFCF0F931F93CF93DF93EC0184E8809393
:104BD000BC000E94BC298C018091BC0087FF08C0EA
:104BE0008091BB0090E0DF91CF911F910F910895CC
:104BF000CF3FDC0789F3C8010E94D429C817D90721
:104C000058F78EEF9FEFEFCFB0E0A0E0EAE0F6E2DA
:104C10000C94FE316B018A017901B9010E942425AF
:104C2000E6010C0D1D1DC017D10711F097FF08C03C
:104C300024E92093BC00CDB7DEB7E8E00C941A322B
:104C4000B70189910E949025EECFB0E0A0E0EBE2A1
:104C5000F6E20C94FE31C62F6A017901B8010E9478
:104C6000242597FD0CC0B8018C2F0E949025E601E9
:104C7000EC0CFD1CCE15DF0511F097FF08C024E9F0
:104C80002093BC00CDB7DEB7E8E00C941A32B8012F
:104C900089910E949025EECFB0E0A0E0E2E5F6E237
:104CA0000C94FE31F82EE62EEA016901B8010E944B
:104CB000242597FD15C0B8018E2D0E94902597FDE3
:104CC0000FC0B8018F2D81600E942425F12CE12CAA
:104CD00021E0C21AD108EC14FD04E0F497FF0DC0E6
:104CE00024E92093BC001816190614F490E080E023
:104CF000CDB7DEB7E8E00C941A32C8010E94BE2599
:104D000097FD04C0FE01EE0DFF1D80832FEFE21A18
:104D1000F20AE1CF97FDE4CFC8010E94E12597FD9B
:104D2000DFCFCC0DDD1D8883DBCF84E98093BC0011
:104D300008958EE14A9B02C08150E1F74A9BFECF65
:104D400008955A9880E28A95F1F75A9A0895FC01DD
:104D50003BE03A95F1F798E020E080E031E040E177
:104D60004A95F1F7880F4A9B02C08160232742E0F1
:104D70004A95F1F7000040E14A95F1F7915079F733
:104D800090E19A95F1F799B132E03A95F1F7000088
:104D900040E14A95F1F792FB992790F992272081FB
:104DA000920F90830895A1E0B0E0E9EDF6E20C9453
:104DB000003219828C017C01E60EF11C0E151F05D4
:104DC00041F481E09981911180E02196E6E00C9414
:104DD0001C320E949926CE0101960E94A726F80156
:104DE00081938F01EBCF529A5A9A089552985A9A0A
:104DF000EA9AE9E6F0E080818F7C80830895615033
:104E0000770B91E001C0990F6A95EAF720E031E055
:104E1000911108C0222391F05A9A80E28A95F1F705
:104E20005A980895492F482339F05A9A232740E287
:104E30004A95F1F79695ECCF5A98F9CF5A98EDCF5D
:104E4000FF920F931F93CF93DF93EC018C01060F1A
:104E5000111DC017D10729F4CDB7DEB7E5E00C94DA
:104E60001D32F9900E94A12668E08F2D0E94FF2636
:104E7000F0CF1F920F920FB60F9211240F931F9332
:104E80002F933F934F935F936F937F938F939F9352
:104E9000AF93BF93EF93FF93CF93DF930F92CDB771
:104EA000DEB719820E949926CE0101960E94A7269C
:104EB000082F069506950695282F22952570902F88
:104EC0009570290F922F937026952695920F98270B
:104ED00097708981982B09F05CC0063008F059C0A2
:104EE00080E18A95F1F75A9A529A82E08A95F1F711
:104EF00000C05A9888E0089F80011124D801AA5C5C
:104F0000BE4F1696ED91FC9117973097A9F06091DE
:104F1000ED017091EE0114962D913C911597260F9D
:104F2000371F11968D919C911297680F791F1396D8
:104F30004C9113978C910995F801EA5CFE4F6381BF
:104F4000662351F02091ED013091EE01848195812D
:104F5000820F931F0E9420270E94A12680E18A953C
:104F6000F1F75A9852985A9A80E18A95F1F7F80128
:104F7000EA5CFE4F6081662351F02091ED01309193
:104F8000EE0181819281820F931F0E94D3260E949D
:104F900099260F90DF91CF91FF91EF91BF91AF9143
:104FA0009F918F917F916F915F914F913F912F9141
:104FB0001F910F910F900FBE0F901F9018950F9398
:104FC0001F93CF93DF93EC0106970CF04CC0F8943D
:104FD000529A5A9885E08A95F1F700009C2F969591
:104FE00095708C2F8570980F892F83709695969564
:104FF00023E0CC0FDD1F2A95E1F7980F8E01092BD6
:105000000E94A12600C068E0802F0E94FF2680E158
:105010008A95F1F752985A9A4A9B1EC087E090E011
:105020004A991CC0FE01EA5CFE4F63816623F9F0D9
:105030002091ED013091EE0184819581820F931FC3
:105040000E94D326811113C0529A5A9A7894DF9104
:10505000CF911F910F91089500C0DECF019729F4E1
:10506000529A5A9A789480E0F2CF00C0D9CF0E9429
:10507000992680E28A95F1F75A98529A80E18A95AA
:10508000F1F7CA5CDE4F6881662351F02091ED0193
:105090003091EE0189819A81820F931F0E9420270F
:1050A0000E94A126789481E0D2CF90931F02809332
:1050B0001E020895909338038093370308950E9449
:1050C0005514811103C0809132030895E091370394
:1050D000F0913803309729F00190F081E02D099587
:1050E000089580E00895E0913703F09138033097F8
:1050F00021F00280F381E02D09950895E0913703B6
:10510000F0913803309739F022E0DC012C930480D1
:10511000F581E02D099508952091350330913603EE
:105120002817390771F09093360380933503E09187
:105130003703F0913803309721F00680F781E02D96
:1051400009950895209133033091340328173907C6
:1051500071F09093340380933303E0913703F0911F
:105160003803309721F00084F185E02D09950895EA
:105170009C012E5F3F4FAC01485F5F4F80E02417DA
:10518000350709F40895F90191919F019923B9F325
:105190008F5FF5CF662349F0FC0132960896219186
:1051A000261729F0E817F907D1F780E0089581E084
:1051B00008959C01FC0132969FEF80E041914617D3
:1051C00051F09F3F19F4411101C0982F8F5F863035
:1051D000A9F79F3F09F40895290F311D97FD3A95CE
:1051E000F90162830895FC013296089621912613F5
:1051F00003C0DF0111971C92E817F907B9F708956A
:105200000E94D92808950E94F3280895029626E066
:10521000FC0111922A95E9F7089546E050E00E94BA
:105220002B3221E0892B09F420E0822F0895089584
:105230000E9417290895811106C081E080933903E7
:105240000E941829089582E0F9CF83E08093390302
:105250000E94182908950E941B29089581E08093D7
:1052600039030E94182908950E942E29089508954F
:1052700008950E9438290895089508950E943729B5
:105280000895CF930E943C290E94D5130E943D2986
:10529000C0E08C2F0E947412811105C0CF5FCC300A
:1052A000C1F7CF91089581E0FCCF85B7806885BFB5
:1052B00085B7806885BF08951F921FB61F9211247D
:1052C0008F939F93AF93BF9380913A03811113C043
:1052D0008091700590917105A0917205B091730550
:1052E0004196A11DB11D8093700590937105A09307
:1052F0007205B0937305BF91AF919F918F911F90ED
:105300001FBE1F90189580917805843031F10E945E
:10531000180510923A0388E190E020E40FB6F89463
:10532000A895809360000FBE2093600083B7817FB3
:10533000846083BF83B7816083BF7894889583B787
:105340008E7F83BF0FB6F894A89580916000886126
:1053500080936000109260000FBE08950E94330990
:105360000E942105089582E084BD93E095BD9AEFE7
:1053700097BD80936E0008952FB7F89480917005C3
:1053800090917105A0917205B09173052FBF08959A
:105390002FB7F89460917005709171058091720536
:1053A000909173052FBF08959C014FB7F894809199
:1053B000700590917105A0917205B09173054FBF72
:1053C000821B930B0895CF92DF92EF92FF922FB73B
:1053D000F894C0907005D0907105E0907205F0903F
:1053E00073052FBFA7019601261B370B480B590BDE
:1053F000CA01B901FF90EF90DF90CF9008957894A3
:105400001F921FB61F9211248F939F93AF93BF9348
:105410008091700590917105A0917205B09173050E
:105420000196A11DB11D8093700590937105A09305
:105430007205B0937305BF91AF919F918F911F90AB
:105440001FBE1F90189587E797E7909301088093F8
:10545000000888E19AE00FB6F894A8958093600060
:105460000FBE90936000FFCF88E19AE00FB6F894EA
:10547000A895809360000FBE90936000FFCF80914D
:105480004603089508959C0184E08093E9009FEF0E
:105490008091E800915085FD06C085ED8A95F1F771
:1054A00000009111F5CF8091E80085FF0CC050E01D
:1054B00040E066E070E0C9010E94D72C8091E800CE
:1054C0008E778093E8000895CF93DF93EC0181E01D
:1054D0008093E9008FEF9091E800815095FD06C020
:1054E00095ED9A95F1F700008111F5CF8091E800D4
:1054F00085FF14C050E040E068E070E0CE010E94FB
:10550000D72C8091E8008E778093E80088E0FE0138
:10551000AEE3B3E001900D928A95E1F7DF91CF9170
:10552000089580933B0370933D0360933C03809107
:1055300078058430F9F48093E9008FEF9091E800CA
:10554000815095FD06C095ED9A95F1F70000811107
:10555000F5CF8091E80085FF0DC050E040E063E0AA
:1055600070E08BE393E00E94D72C8091E8008E7767
:105570008093E8000895BC0184E00E94912A089578
:10558000BC0183E00E94912A0895CF93FC01603210
:1055900021F580917805843001F5C091E900CF7044
:1055A0002091EC00922F917020FD90E8C92B82E0B1
:1055B0008093E9008091E80080FF0CC050E040E05B
:1055C00060E270E0CF010E94D72C8091E8008E77D6
:1055D0008093E800CF70C093E900CF910895809147
:1055E0007705811109C00E94B62E0E94132F809169
:1055F000E20084608093E200089510927705089598
:105600000E942E2908956091740581E0611101C006
:1056100080E00E94252908959091780581E09430DA
:1056200009F080E0609174050E942B29089542E002
:1056300061EC81E00E94322E42E261EC84E00E9443
:10564000322E42E261EC82E00E94322E42E260ECB5
:1056500083E00E94322E9091780581E0943009F029
:1056600080E0609174050E941B29089580917A055D
:10567000833009F463C030F48130E1F1823009F401
:10568000A0C008958A3009F48CC08B3009F471C031
:10569000893009F052C080917905813209F04DC0FE
:1056A00080917D0590917E05009719F0029709F091
:1056B00044C08091E800877F8093E8008091E800F3
:1056C00082FF37C09091F3008091F200029731F48D
:1056D0008091F100813011F0863021F48091F10049
:1056E000809346038091E8008B778093E8000E94C6
:1056F000662E23C080917905813AF9F48091E80003
:10570000877F8093E80080917D0590917E05892BAD
:1057100061F468E08EE393E070E00E94752D809163
:10572000E8008B778093E800089560E090E080E0E7
:10573000F3CF809178058111C1CF089580917905CB
:10574000813AD9F780917D0590917E05892BA9F743
:105750008091E800877F8093E8008091E80080FFD7
:10576000FCCF80917F018093F1008091E8008E77DB
:10577000BCCF80917905813201F780917D059091B0
:105780007E05892BD1F68091E800877F8093E80021
:105790000E94662E80917B0580937F010E943309D1
:1057A000089580917905813241F68091E800877FE4
:1057B0008093E8000E94662E80917C0580934703C9
:1057C000089580917905813A09F0B7CF8091E8007A
:1057D000877F8093E8008091E80080FFFCCF809174
:1057E0004703C1CF84B7877F84BF0FB6F894A895CD
:1057F00080916000886180936000109260000FBE0D
:1058000080E890E00FB6F894809361009093610077
:105810000FBE0E94342908950E94B62E0E94132FB5
:10582000E2EEF0E080818460808378940E9492317F
:10583000089583E791E00E945A28089580917805A1
:10584000853031F480917805853019F00E94AE29B9
:1058500008950E94832980917605882399F30E94F8
:105860004129882379F30E94C12C0E943309EACF91
:10587000A0E2B0E0EEE3FCE20C9404328091780503
:10588000843009F583E08093E9008091E80082FF8D
:105890001AC08091E80090E085FF09C050E040E028
:1058A00060E270E0CE0101960E94262D91E0809189
:1058B000E8008B778093E800992329F060E2CE011D
:1058C00001960E942B1CA096E2E00C9420320E94CC
:1058D0006A2C0895292F33272330310521F168F4EC
:1058E0002130310509F443C02230310509F444C0A8
:1058F00090E080E030E020E026C02132310551F117
:1059000022323105A9F76330710590F7FB01EE0FE4
:10591000FF1FEE5EFD4F20813181615F7D4FFB01F6
:10592000808190E010C099278130910581F0009727
:1059300029F00297E9F6E8EEF2E002C0E0E1F3E0D8
:10594000849190E09F01FA01318320830895EAEF6A
:10595000F2E0F6CF6330710558F6660F771FFB0152
:10596000E85EFD4F2081318189E090E0ECCF82E15B
:1059700090E02FE633E0E7CF8BE590E024E133E0E1
:10598000E2CF80E189BD82E189BD09B400FEFDCF8F
:105990008091D8008F7D8093D8008091E000826054
:1059A0008093E0008091E00081FDFCCF0895AF92EC
:1059B000BF92CF92DF92FF920F931F93CF93DF930B
:1059C0006C01EB018A010E94852EF82E811123C003
:1059D0000115110539F0F80180819181C81BD90B9F
:1059E000C80ED91EB12CA12C2097A9F08091E800F7
:1059F00085FD22C08091E8008E778093E800011534
:105A00001105A1F0F80180819181A80EB91EB18223
:105A1000A08285E0F82E8F2DDF91CF911F910F91FD
:105A2000FF90DF90CF90BF90AF9008950E94852E99
:105A30008823D1F2F82EEFCFF60181916F01809388
:105A4000F1002197FFEFAF1ABF0ACECFAF92BF92FE
:105A5000CF92DF92FF920F931F93CF93DF936C014E
:105A6000EB018A010E94852EF82E811123C00115B9
:105A7000110539F0F80180819181C81BD90BC80E3E
:105A8000D91EB12CA12C2097A9F08091E80085FDAA
:105A900022C08091E8008B778093E8000115110502
:105AA000A1F0F80180819181A80EB91EB182A08277
:105AB00085E0F82E8F2DDF91CF911F910F91FF90F0
:105AC000DF90CF90BF90AF9008950E94852E8823DD
:105AD000D1F2F82EEFCF8091F100F60181936F01A2
