:100000000C9411020C942E020C942E020C946E236C
:100010000C942E020C942E020C942E020C942E02A0
:100020000C942E020C942E020C94672B0C943B2CF7
:100030000C9491250C942E020C942E020C942E02FA
:100040000C942E020C942E020C942E020C942E0270
:100050000C942E020C9434260C942E020C942E0236
:100060000C942E020C942E020C942E020C942E0250
:100070000C942E020C942E020C942E020C942E0240
:100080000C942E020C942E020C942E020C942E0230
:100090000C942E020C942E020C942E020C942E0220
:1000A0000C942E020C942E020C942E0217001500B4
:1000B00008001A0014000A000900070016000400D6
:1000C0000500190006001B001D002C41E200E300A2
:1000D000E000E100000000000000000000001C0043
:1000E00018000C00120013000B000D000E000F0092
:1000F0002800110010003600520037002C422A0060
:10010000500051004F0000000000000000000000FF
:100110002200210020001F001E00220221022002D6
:100120001F021E02670054005500560057002C4164
:100130002C002C0049002B000000000000000000F3
:1001400000002300240025002600270023022402AB
:10015000250226022702350089002F1230122D12A7
:100160002D00E000E300E2002A0000000000000093
:10017000000000003E003D003C003B003A0034001F
:100180003312330031001F02C75CC65CC55CC35C20
:10019000C25C2C412C002C0049002B000000000008
:1001A0000000000000003F0040004100420043000A
:1001B0005000510052004F002E00C85CC95C2F0057
:1001C000300031002C42E000E300E2002A00000091
:1001D000000000000000000000AE00AF00DA028165
:1001E000FFD9F1DB20A4A62EAF00A0C000A1C8005B
:1001F000AED580A81FD300408D1420000000000061
:10020000000000002A2B2800000000000000000071
:100210000000000000000029000000002C1E342017
:10022000212224342627252E362D3738271E1F203D
:100230002122232425263333362E37381F04050682
:100240000708090A0B0C0D0E0F10111213141516C6
:100250001718191A1B1C1D2F3130232D35040506C4
:100260000708090A0B0C0D0E0F10111213141516A6
:100270001718191A1B1C1D2F3130354C00000000B7
:10028000000000000000000000000000000000006E
:10029000000000000000000000000000000000005E
:1002A0007E0F00D4FFFFFFC700000078100363003B
:1002B0006F006F006C003600340030000000140343
:1002C000740065006C007A006F003200300030006E
:1002D000300000000403090409025B00030100A0D0
:1002E000FA090400000103010100092111010001C4
:1002F00022400007058103080001090401000203F0
:1003000000000009211101000122220007058203DB
:100310002000010705030320000109040200010376
:10032000000000092111010001227B000705840360
:100330002000011201000200000008434D440601A4
:1003400000010200010660FF0961A10109621500B8
:1003500026FF009520750881020963150026FF001D
:10036000952075089102C005010902A101850209C5
:1003700001A1000509190129081500250195087535
:100380000181020501093009311581257F9502752A
:1003900008810609381581257F95017508810605B4
:1003A0000C0A38021581257F950175088106C0C0A9
:1003B00005010980A101850319012AB7001501264D
:1003C000B700950175108100C0050C0901A10185D8
:1003D0000419012AA002150126A0029501751081B9
:1003E00000C005010906A101050719E029E715006C
:1003F00025019508750181029501750881010507A0
:10040000190029FF150026FF0095067508810005D3
:10041000081901290595057501910295017503914A
:1004200001C011241FBECFEFDAE0DEBFCDBF11E067
:10043000A0E0B1E0E6ECFDE502C005900D92A03D24
:10044000B107D9F725E0A0EDB1E001C01D92AD30B4
:10045000B207E1F70E944A140C94B82E0C940000E5
:1004600083E0089581E0089581E008950E943402B8
:10047000089508950E9439020895A5E0B0E0E3E4EC
:10048000F2E00C94382E49835A833091D701898148
:100490009A81311119C0662399F0222389F00E94B4
:1004A0006E08182F682F89819A810E944A086981F5
:1004B0007A81812F0E94BB1F2596E3E00C94542E75
:1004C0000E945C08182FF3CF0E946E0869817A8120
:1004D000F1CFFC01262F408151816281738184819B
:1004E0000E943D02089581E00895CF93DF93EC01CF
:1004F00060E00E946902BE010E943A02DF91CF9142
:100500000895E1E0F0E0DF0102C0AA0FBB1F6A9589
:10051000E2F7BD01DF0102C0AA0FBB1F4A95E2F757
:100520006A2B01C0EE0F2A95EAF7962F98239613AF
:1005300002C08E2B0895E0958E230895242F462F18
:10054000682F8091ED010E9481020E94AA07089500
:100550000E945A1008950E945E10089508950E9406
:100560003C070E94AE022FEF84E39CE021508040C4
:100570009040E1F700C0000008950E94AF020E9481
:10058000582608950E94AF020E94692608950F938D
:100590001F93CF93DF938C0161E00E946902EC010D
:1005A000B8010E949719811106C080E0DF91CF91B8
:1005B0001F910F910895B801CE010E943602882341
:1005C000A1F3B801CE010E940121882371F3B80183
:1005D000CE010E94B41C882341F3B801CE010E94D1
:1005E0007320882311F3F8018281882361F0CA35D2
:1005F000FDE5DF0701F158F4C115ECE5DE0791F0E8
:10060000CE3DDC4591F0C8010E943202CFCFCC35FF
:100610008DE5D80769F090F0C73ADD45A1F70E9453
:10062000C202C3CF0E94BD02C0CF0E94270DF7CFE8
:100630000E94610CE8CF0E946B0CE5CF0E946F0C0A
:10064000E2CF0E946E250E9442030E945C1C0E9421
:100650005C1708950E9446030E947325089508952B
:100660000E942F03089581E008950E9433030895A6
:100670000895CF93C82F0E9430038C2F0E9435031A
:10068000CF91089580E00E94390308950E94942438
:100690000E9439030895CF930E949424C82F80911B
:1006A000D2018C1779F0C093D2010E94FD2560938E
:1006B000D3017093D4018093D5019093D6018C2FF0
:1006C0000E943903CF910895ABE0B0E0EAE6F3E091
:1006D0000C94392E4F83588769877A878B876111ED
:1006E0000E94AC0B1E821D8285E0FE013796DE0162
:1006F000119601900D928A95E1F78C819D81892B4D
:1007000061F449815A816B817C818D819E810E9437
:10071000D50A2B96E2E00C94552E89819A81892383
:100720008F3F79F3CE0101960E9473028111E9CFC8
:10073000F0CFFC01808191810E949B080895A6E082
:10074000B0E0E5EAF3E00C94372E082F162F0E9454
:10075000E31729834B835C836D837E83002369F0D9
:10076000312B4981532F6B817C818D819E810E9429
:10077000FE172696E4E00C94532E10953123F1CF0A
:10078000CF93C82F8823C9F08238C9F40E949424DB
:1007900081FD13C089E30E94640B0E94CD0B2FEFF3
:1007A00087EE93E0215080409040E1F700C00000C8
:1007B00089E30E946C0B0E94CD0BCF910895833882
:1007C000A1F40E94942480FDF8CF83E50E94640B7D
:1007D0000E94CD0B2FEF81EE94E02150804090409D
:1007E000E1F700C0000083E5E4CF8438A1F40E9463
:1007F000942482FDE2CF87E40E94640B0E94CD0B1B
:100800002FEF81EE94E0215080409040E1F700C04E
:10081000000087E4CECF8CEF8C0F813A90F46C2FE0
:1008200080910001909101010E94FF24882329F00A
:100830008C2F0E946C0B0E94CD0B8C2F0E94640B9E
:10084000BACF80E28C0F883048F4C77081E001C0D5
:10085000880FCA95EAF70E948F0BADCFEBE5EC0F3E
:10086000E33040F4F0E0E558FE4F808190E00E94D4
:10087000C124A3CFE8E5EC0FE73150F4F0E0EE0F30
:10088000FF1FE35BFE4F808191810E94D72495CFAB
:10089000C03F08F492CF8C2F0E94CE140E94A11565
:1008A0008CCF882309F455C0823879F40E949424AF
:1008B00081FF4FC089E30E94640B0E94CD0B89E346
:1008C0000E946C0B0E94CD0B0895833859F40E944E
:1008D000942480FF3EC083E50E94640B0E94CD0BF0
:1008E00083E5EECF843859F40E94942482FF31C00E
:1008F00087E40E94640B0E94CD0B87E4E1CF9CEF5C
:10090000980F913AE8F290E2980F983050F487707F
:1009100091E001C0990F8A95EAF7892F0E94950B03
:10092000D1CF9BE5980F933028F490E080E00E94AF
:10093000C124089598E5980F973128F490E080E05D
:100940000E94D7240895803F20F00E9428150E941D
:10095000A11508951F93CF93DF93182FEB010E94E9
:10096000C003209739F4812F0E945104DF91CF9169
:100970001F9108958FE99FE00197F1F700C00000F3
:100980002197EFCF70E060E0893311F460E570E00B
:100990000E94AA040895882321F00E948F0B0E94D0
:1009A000CD0B0895882321F00E94950B0E94CD0B5A
:1009B0000895B0E0A0E0EFEDF4E00C94322E6C016D
:1009C000D62FC72FFC011281F580F2949FE0F92207
:1009D0000E94850BE82E8823B9F0E12E1123A1F0A7
:1009E0008C2F807F803421F080E28D0F8830D0F012
:1009F0008091DD0282FF16C082E00E94300C0E94CE
:100A0000850B91E0E82EE926BC2EB2948FE0B82247
:100A1000FBE0FB1508F468C0EB2DF0E0E654F14D67
:100A20000C941C2EE12CF0CF0C2F0F70C07F11F016
:100A30000295007F112399F0002359F080E28D0F79
:100A4000883010F0D11107C0802F0E948F0B0E94B8
:100A5000CD0B8D2F41C0802F0E949F0BF8CF8D2F83
:100A60000E945104002309F43FC080E28D0F8830BA
:100A700010F0D11104C0802F0E94950B03C0802F6D
:100A80000E94A50B0E94CD0B2FC00C2F0F70C07FB2
:100A9000C03211F00295007FDD2381F0D13009F4DE
:100AA00065C0112309F46FC0FF2009F465C0F60189
:100AB000858180FFCECF8F7085835EC08091DD02FF
:100AC00082FD34C0112359F0002329F0802F0E94A9
:100AD0008F0B0E94CD0B80E00E94C00305C080E018
:100AE0000E9451040111C7CF2B2D2850330B243005
:100AF000310520F40E9494240E943903EE2089F0ED
:100B00000E94810B80FD0DC0F60112820E947B0BBA
:100B10000E94BE07C6010E94FC060E947B0B0E9439
:100B2000CA07CDB7DEB7E9E00C944E2E112389F049
:100B3000F11006C00E94AF0B802B0E94CB04D4CFD3
:100B400021E0F212F7CF0E94AF0B802B0E94B60B70
:100B5000CBCFF11006C00E94C30B802F0E94D2049D
:100B6000C3CF31E0F31609F4BFCFF5CF112331F035
:100B700085E08F1508F4B8CF802FDFCF94E09F1564
:100B800008F4B2CFEACFFF2041F3D93349F4FFEFA5
:100B900027EE33E0F15020403040E1F700C0000084
:100BA0008D2F0E945104A0CF8C2F8695869583703F
:100BB00069F0813009F098CF8D2F9C2F937011111F
:100BC00002C090E080E00E94D7248ECF8D2F9C2F12
:100BD0009370111102C090E080E00E94C12484CF84
:100BE0008D2F112391F00E94CE14ED2FE45FFF0BA7
:100BF000E530F10568F461E070E001C0660FEA9548
:100C0000EAF7812F0E949F036FCF0E942815EDCF36
:100C10000E94A11569CF8C2F837079F5111164CFD3
:100C20004D2F429546954770440F440F8D2F8F707E
:100C3000042E01C0880F0A94EAF72D2F2071D4FFEB
:100C400007C02FE030E001C0220F4A95EAF7209557
:100C5000C695C695C370822BC23049F058F4C13096
:100C600019F00E94980740CF0E9492073DCF0E9442
:100C70009E073ACF0E948F0737CF8695112311F038
:100C80008C2F8170882309F42FCF4D2F42954695E4
:100C90004770440F440F8D2F8F70042E01C0880FB2
:100CA0000A94EAF72D2F2071D4FF07C02FE030E01F
:100CB00001C0220F4A95EAF72095C695C695C370E4
:100CC000822BC23049F058F4C13019F00E94E90774
:100CD0000BCF0E94E30708CF0E94EF0705CF0E94C9
:100CE000AA0702CFCF70112329F08C2F0E94BE07D4
:100CF0008D2F23CF8D2F0E94D2048C2F0E94CA07E4
:100D0000F3CED23F51F160F4D03FB9F0D13F81F042
:100D1000112309F449C0F1109CCE8C2F8F7121C092
:100D2000D33F11F1D43FA1F78091DD0282FD26C0AF
:100D30008C2F8F71112311F314C0112349F0F4E0AB
:100D4000FF1508F4D1CE8C2F8F710E94D707CCCE1F
:100D500025E02F1508F4C8CEF6CF8C2F8F71111116
:100D6000CDCF0E94BE07C0CE112329F08C2F8F71EA
:100D70000E94B507B9CE0E94B107B6CE112349F043
:100D8000CF718C2F0E94BE0763E08C2F0E94120C43
:100D9000ABCE81E00E94300C31E03F1508F0A4CECC
:100DA00082E00E94300CA0CEFF2059F0D93309F028
:100DB000F7CE8FEF97EEE3E081509040E040E1F70F
:100DC000EDCE8C2F8F719ACF0F931F93CF93DF931C
:100DD000EC01688179818A810E94A6088C010E94B9
:100DE000F5070E948E07B801CE010E94D904DF9159
:100DF000CF911F910F910895CF93DF93EC018B81D9
:100E00009C81892B29F08881998189238F3F51F416
:100E1000DF91CF910895CE010E94E406CE010E9499
:100E20007502F6CFCE010E94C7028111F4CF0E9455
:100E3000850B882369F38A81882351F38091DD0231
:100E400082FFE6CF82E00E94300CE2CF90E080E0AB
:100E50000E94C12490E080E00E94D7240E94AC0B45
:100E60000E94CD0B0E94BD150E94A11508950E94FD
:100E7000740B0E94260708950E949C0B0E9437075E
:100E8000089592959F70963091F058F4925F9F70FC
:100E9000923058F4803F19F030F4883E30F481E00D
:100EA00008959A5FF4CF843FD1F380E00895883E9F
:100EB000B0F3813FD1F7F3CFFC0183819481892B7B
:100EC00029F08081918189238F3F11F480E008957A
:100ED000808191810E949B080E9441070895A5E0AE
:100EE000B0E0E5E7F7E00C94392E2596E2E00C94AB
:100EF000552EA6E0B0E0EFE7F7E00C94392E2696E9
:100F0000E2E00C94552E08950E94830708950E94F4
:100F100084078093EE010E942607089508950E9499
:100F2000870708959091EE01892B0E948707089505
:100F30009091EE0189230E94870708959091EE0118
:100F400089270E94870708950E94830708950E94B9
:100F5000A40708950E94A7078093ED010E94260729
:100F6000089580E00E94AA07089591E001C0990FBA
:100F70008A95EAF7892F0E94AA07089521E030E0B8
:100F800001C0220F8A95EAF78091ED01822B0E9421
:100F9000AA07089521E030E001C0220F8A95EAF700
:100FA00020958091ED0182230E94AA07089521E0F7
:100FB00030E001C0220F8A95EAF78091ED01822787
:100FC0000E94AA0708959091ED01892B0E94AA071B
:100FD00008959091ED0189230E94AA0708959091A8
:100FE000ED0189270E94AA0708950895262F2770EA
:100FF00091E001C0990F2A95EAF723E0769567956D
:101000002A95E1F7FB01EE0FFF1FE60FF71FE40F34
:10101000F51F50E040E0682F70E08191DF011197EB
:101020009B01042E02C0369527950A94E2F72170A1
:1010300021952827292328272C934F5F5F4F433082
:10104000510559F70895A82FA77023E09695879525
:101050002A95E1F7FC01EE0FFF1FE80FF91FE60FDD
:10106000F71F50E040E080E0219130E00A2E02C0FE
:10107000369527950A94E2F721703327042E01C094
:10108000220F0A94EAF7822B4F5F5F4F43305105DE
:1010900059F70895262F9A3070F4853060F4682F40
:1010A00070E085E0989F600D711D112448ED51E0BE
:1010B000822F0E94F6070895292F9A3068F4853010
:1010C00058F490E068ED71E035E0239F800D911DAC
:1010D00011240E942308089580E00895CF92DF92A2
:1010E000FF920F931F93CF93DF936C010091ED015B
:1010F0008091EE01082BC7E0D0E010E0FC2EC80183
:101100000C2E02C0959587950A94E2F780FD0CC0DD
:101110002197A0F7F12C8F2DDF91CF911F910F9187
:10112000FF90DF90CF900895B6018C2F0E94F80EAB
:10113000019771F3F0CFCF93DF93EC010E946E081B
:10114000BE010E94F80EDF91CF9108951F93CF93B7
:10115000DF93EB019091D701992339F0CB010E94E5
:101160009B08DF91CF911F910895882369F0CB01EF
:101170000E946E08182F682FCE010E944A08BE01F7
:10118000812F0E94F80EEDCFCB010E945C08182F32
:10119000F6CF1F93CF93DF93C091EF0116E08091BC
:1011A000F0018C1304C0DF91CF911F910895D0E01E
:1011B0001C9FF0011D9FF00D1124EF50FE4F408148
:1011C000518162817381848195810E947907219682
:1011D000C770E5CF40912102509122026091230215
:1011E0007091240280912502909126020E94790735
:1011F00008951F93CF93DF9380912602807F09F09B
:1012000049C080912302882309F444C08091EF01F2
:10121000C091F0016091210270912202A0912402FC
:10122000B0912502D62FD72316E0C81799F190E088
:10123000109711F0DF3F19F401968770F6CF189FD1
:101240009001199F300D1124F901EF50FE4F41819B
:101250004713F2CF40814613EFCF42814111ECCFCB
:10126000438154814A1B5B0B483C510528F7809110
:1012700026028F70806180932602F901EA50FE4FAA
:1012800080818F708061808381E292E00E94FC0601
:101290000E94C908DF91CF911F910895A1E1B0E0AC
:1012A000E4E5F9E00C94312E8C0185E0F801DE01D3
:1012B0001D9601900D928A95E1F7F801E28081E296
:1012C000C82E82E0D82E609124027091250261150B
:1012D000710509F44EC19091210220912202892FBB
:1012E00082238F3F09F445C140815181A380B4809E
:1012F000F0902302F501E61BF70BFF2009F4EAC08A
:1013000080912602382F307FE83CF10508F0A3C019
:1013100031116DC0FE2C251316C0941314C0E110BA
:1013200012C08F708061809326020E94EA08C60175
:101330000E94FC0680912602F80185838F2D61961C
:10134000EAE00C944D2EA114B10429F0842F8523DA
:101350008F3F09F027C180E0F82FF170DF2E80FF6A
:101360003CC08091EF012091F00136E0821315C05E
:101370004D875E878D859E850E949B08292F22952B
:101380002F702230F0F0243018F59F70F1F0F80142
:101390009581907FD1F4D12C1EC090E0389FF00150
:1013A000399FF00D1124EF50FE4F6181651306C087
:1013B0006081641303C06281E6120FC001968770DA
:1013C000D5CF9F7011F0882331F3805E883018F3F9
:1013D000C8010E94FC06FD2CB1CFEE2009F4AECF6F
:1013E00080912602816080932602F12CA7CF2513DD
:1013F00006C0941304C0F801EE2009F487C0C801A8
:101400000E945C07882319F1EE2009F180912602E1
:10141000803270F0209121023091220238872F8390
:101420001986BB86AA868C87CE0107960E94FC0689
:1014300086E0F801A1E2B2E001900D928A95E1F711
:101440000E94F9080E94EA08FF24F39477CFC801AC
:101450000E94FC06F9CF311113C07A2DB98AA88AEF
:101460006E2D89890E946F0781E292E00E94FC063E
:1014700086E0F60111928A95E9F70E94EA08B5CF55
:1014800025130FC094130DC0E1100BC0F801858324
:10149000C8010E94FC0686E0F60111928A95E9F7E0
:1014A0004DCFC8010E945C07882389F2EE2079F2B3
:1014B00080912602803208F4BBCF20912102309126
:1014C00022023A8329831B82BD82AC828E83CE01A5
:1014D0000196ACCFE83CF10508F03EC0FE2CEE20B2
:1014E00009F4B5CF25132AC0941328C08091260291
:1014F00080FD1BC0982F907FC1F0F8018583903F3D
:1015000031F0982F907F905F8F70892B8583C80171
:101510000E94FC0686E0F801A1E2B2E001900D9283
:101520008A95E1F70E94EA0809CF86E0F801A1E276
:10153000B2E001900D928A95E1F700CFC8010E94B8
:101540005C07811175CF809126028160809326020D
:10155000C8010E94FC06F2CE7A2DB98AA88A6E2DA7
:1015600089890E946F0786E0F60111928A95E9F752
:10157000D9CFEE2009F46BCFC8010E945C07F82E8A
:10158000882309F464CF86E0F801A1E2B2E001907B
:101590000D928A95E1F781E292E00E9499030E9400
:1015A000F908C0CF81E08E25D7CEACE0B0E0EBEDFE
:1015B000FAE00C94382E4F83588769877A878B8797
:1015C0009C87CE0107960E944E09882369F08A8580
:1015D0009B85892B39F04F815885842F85238F3F38
:1015E00009F06BC016E05FC086E0FE013796DE01B1
:1015F000119601900D928A95E1F78A859B85892B3A
:1016000089F38F81988589238F3F61F32091F001C1
:1016100030E0C9010196877099274091EF01481782
:10162000190671F40E943C071092F0011092EF012C
:1016300086E0E1E2F2E0DF011D928A95E9F7D2CF80
:1016400096E0929FD001939FB00D1124AF50BE4FF2
:10165000FE01319601900D929A95E1F78093F00189
:101660000E94C908BFCF819FC00111248F509E4F97
:101670000E944E098823E9F0E091EF011E9FF001DE
:101680001124EF50FE4F408151816281738184812A
:1016900095810E9479078091EF0190E00196877013
:1016A00099278093EF018091EF019091F0018913C8
:1016B000DACF2C96E3E00C94542E69857A858B85DD
:1016C0009C850E9479078ECF682F809100019091B0
:1016D00001010E9435250895682F809100019091A5
:1016E00001010E9438250895809100019091010127
:1016F0000E943B25089580912F02859585958595BB
:10170000089580912F028770089590912F0297700D
:1017100081E009F480E0089580913A020895909163
:101720003A02892B80933A020895809590913A026B
:10173000982390933A02089510923A020895909156
:101740003902892B8093390208958095909139024E
:101750009823909339020895109239020895809148
:101760003002089508950E94B20B08959091DD0211
:1017700092FF08C090913002981721F080933002B8
:101780000E94B30B089580913002882329F01092B3
:10179000300280E00E94B30B0895CF93DF93E09175
:1017A0000001F091010180913A028083E0910001F3
:1017B000F0910101808190913902892B8083909171
:1017C0003002992381F0E0910001F09101018081C4
:1017D000892B808380910001909101010E94ED246A
:1017E00081110E94C30BC0910001D091010148E01A
:1017F00050E067E272E0CE010E94602E892B59F022
:1018000088E0FE01A7E2B2E001900D928A95E1F72F
:10181000CE010E94A824DF91CF91089508950E94DF
:101820000E0C08959091DD0292FF11C098E0899FFF
:1018300090011124622B60932F020E94BE078091B9
:101840002F028595859585950E940F0C08950E941D
:10185000BE07089510922F0280E00E940F0C089599
:1018600090912F028095892380932F02282F277033
:1018700091F4282F082E000C330B9217130659F001
:101880009091DD0292FF07C08595859585950E9410
:10189000CA070E942A0C08959091DD0292FB22272C
:1018A00020F9281769F080FB92F99093DD0280916E
:1018B000DC029091DD020E949E0C82E00E94300CBE
:1018C00008958091DD0282FB882780F991E08927C5
:1018D0000E944C0C089581E00E944C0C089580E019
:1018E0000E944C0C08956FEF7FEF90E080E00E9423
:1018F000A22E089590E080E00E947E2E883E9E4FAA
:1019000019F40E943219089580E0089582E090E071
:101910000E94762E089583E090E00E94762E08952E
:10192000CF9384E090E00E94762EC82F82E290E070
:101930000E94762E982F8C2FCF910895CF93C92F88
:10194000682F84E090E00E94842E6C2F82E290E069
:101950000E94842ECF910895AB01BC018FE090E0EE
:101960000E94962E0895AB01BC0183E190E00E9495
:10197000962E089560E070E0CB010E94B30C0895AC
:1019800060E070E0CB010E94AC0C0E94BA0C08959C
:1019900068EE7EEF90E080E00E94A22E60E082E0A0
:1019A00090E00E94842E60E083E090E00E94842E0C
:1019B0001092EE0160E084E090E00E94842E64E0EA
:1019C00082E290E00E94842E60E085E090E00E9438
:1019D000842E60E086E090E00E94842E6FEF87E026
:1019E00090E00E94842E40E050E0BA0188E090E050
:1019F0000E94962E60E08DE090E00E94842E40E0F0
:101A000050E0BA0188E190E00E94962E60E087E104
:101A100090E00E94842E40E050E0BA018CE190E01A
:101A20000E94962E70E060E080E290E00E94A22E7C
:101A300040E050E0BA0188E190E00E94962E80E0FC
:101A40000E944B190E947A190E94C00C08950E94AE
:101A5000C80C0895682F8EE090E00E94842E0895AF
:101A60000E94FD2560934B0270934C0280934D02BF
:101A700090934E026093470270934802809349020C
:101A800090934A020895089508950E94440D089580
:101A900008950E94480D089582E290E10E948A24F0
:101AA0000E94430D0E94450D08950E94461208951C
:101AB000089508950E94580D0E94590D08950E949E
:101AC0003E100E94380308950E94E8250E94E20F0C
:101AD0000E948A190E9461120E9468110E945F0D83
:101AE0000E94861A80E00E94E11A0E946B120E94F6
:101AF00034170E94490D0895AAE0B0E0E2E8FDE045
:101B00000C94312E0E94C6118DE3A82E82E0B82ECF
:101B1000750110E0F70101917F01812F0E94611092
:101B20001F5F1A3009F441C00817A1F380914F02DA
:101B300081FD0E9467100E94550DC82E10E0812F74
:101B40000E946110082FF50181915F01081731F1A2
:101B5000D02ED826F12CEE24E3948D2D8E21B1F0D9
:101B6000CC20A1F0FE821F8391E0802F8E2109F40A
:101B700090E098870E94F1258160782F9A87898765
:101B80004E815F8168858A850E946403F394EE0C20
:101B9000F5E0FF12E2CFF501319700831F5F1A30A5
:101BA00071F60E94300D11E021C00813BFCF0E94D2
:101BB000F1258C0180913B0290913C020817190796
:101BC000A1F08FEF89838A831B820E94F1258160B7
:101BD000782F9D838C8349815A816B818D810E94EE
:101BE000640310933C0200933B0210E00E944612F3
:101BF0000E947C1C11110E94401B0E94FA150E9439
:101C00005C170E944B032A96EAE00C944D2ECF936A
:101C1000DF930E94FD0EEC01811521E5920708F08B
:101C200042C0811530E5930708F09FC0883E9105BA
:101C300030F5803E910508F094C0883A910588F40B
:101C4000853A910508F086C08130910509F489C074
:101C5000009709F486C0049708F083C0D0E0C0E084
:101C600080C08F3B9105D0F7C85AD0E0CC0FDD1F64
:101C7000C258DE4F0990D881C02DD46472C081153E
:101C800040E2940750F4C11581E0D80708F069C01C
:101C9000C03FD10518F3D06564C081159044F0F2BF
:101CA000DF70D06A5EC0811535E5930718F58115A0
:101CB00044E5940708F085C0C11583E5D80708F00E
:101CC0006CC0C11522E5D20708F462C0CE01837052
:101CD000992721E030E002C0220F331F8A95E2F7F6
:101CE000C695C69580E2C89FE0011124C22BD32B74
:101CF000DC6837C0811539E59307A8F4811548E5FC
:101D0000940708F063C0C11586E5D80708F0A6CF90
:101D10008C2F0E949F0FC82FD0E0DC2FCC27CC2720
:101D2000DF71D0621EC081152AE5920708F453C006
:101D300090568115904208F091CF8D2F8F710E949F
:101D40009F0F90E0982F882788279F719C012C2B4C
:101D5000E901E7CFC55AD0E0C455DE4FC881D0E0D5
:101D6000D064CE01DF91CF9108958370992721E04F
:101D700030E002C0220F331F8A95E2F7C695C69560
:101D800040E2C49FE0011124C22BD32BDD68E9CFD0
:101D9000DC2FCC27C16FD06AE4CFCE0183709927A6
:101DA00021E030E002C0220F331F8A95E2F7C6958A
:101DB000C69540E2C49FE0011124C22BD32BDA6800
:101DC000D0CFD82FCC27C46FD06ACBCFD82FCC2779
:101DD000C06FD06AC6CF8F700E949F0F34E0D69537
:101DE000C7953A95E1F7CF709C2FEC01D069B9CF38
:101DF0000E94BB1F0E94070E089582389105B9F119
:101E0000B0F48133910509F47DC048F4893291051D
:101E100009F46DC08A32910509F47BC008958533B9
:101E2000910509F45FC08933910509F10895833E56
:101E30009105D9F138F4803E910529F1823E910552
:101E400079F10895863E9105D9F1873E910509F40F
:101E50003EC0843E910541F52091DD0221FF24C062
:101E60008091DC0284FD19C087EE90E008952091F6
:101E7000DC02237009F05AC02091DD0223FF14C058
:101E800089E290E008952091DC0220FD38C0309175
:101E9000DD0230FF09C024FF43C090E080E00895D8
:101EA0002091DC0222FDF7CF08952091DC0222FD73
:101EB0003AC03091DD0230FD39C024FFF5CFEDCFBF
:101EC0002091DC0223FFF0CF24FDE7CFCDCF20917E
:101ED000DC0223FD2EC03091DD0231FFEECF84EE17
:101EE00090E008952091DC0225FFDECFC9CF20913C
:101EF000DC0225FD21C02091DD0223FFD5CF89E33F
:101F000090E0D2CF2091DC0226FFCECF8AE290E093
:101F100008952091DC0226FFC7CF81E390E0089569
:101F200083EE90E0089582EE90E0089580EE90E0D8
:101F3000089586EE90E0089585E390E008959091ED
:101F4000DC0292FF06C0282F28712830F9F4877F21
:101F5000846093FF06C0282F28712831F1F4877E12
:101F600084612091DD0220FF06C0382F387138309F
:101F7000D9F4877F816021FF06C0282F287128317E
:101F8000D1F4877E816194FD877E0895282F247186
:101F90002430F9F68B7F8860DCCF282F2471243120
:101FA00001F78B7E8861DDCF382F3171313019F721
:101FB0008E7F8860E0CF282F2171213121F78E7E1E
:101FC0008861E1CF1092D8021092D9021092DA0201
:101FD0001092DB020895CF92DF92EF92FF926B0195
:101FE0007C010E94461281110EC00E94FD25C61A76
:101FF000D70AE80AF90AC092D802D092D902E09230
:10200000DA02F092DB02FF90EF90DF90CF9008951C
:102010000F931F930E944612882329F00E94FD25EA
:102020001F910F9108950E94FD250091D8021091F3
:10203000D9022091DA023091DB02600F711F821FFA
:10204000931FEECF80E008950E94730C08950E94C4
:10205000C6118FE39CE90197F1F700C000000E94D0
:10206000C61180E00E94611080FF04C00E9424100D
:102070000E94582608950E94271008950E947A0C05
:10208000811102C00E94270D0E94860C80934F028E
:102090000E94900C9093DD028093DC020E943B1022
:1020A0000E948B0C0E948F078091ED010E94A70770
:1020B000089508950E945910089508950E945D1092
:1020C0000895E82FF0E0E751FD4F808108950895CD
:1020D00080EA8A95F1F7089500C008950E9468107B
:1020E000089508950E9471100895A5E0B0E0EBE70F
:1020F000F0E10C94352E0E944612F82E6091F30206
:10210000882309F440C085E0E82E8E010F5F1F4F41
:10211000F8018E2D11928A95E9F7862F90E0B8018B
:1021200087519D4F0E9479128823B9F08091DE0279
:1021300090E045E050E0B80187519D4F0E94602E2D
:1021400021E020935002892B91F4F12C0E94AB02E4
:102150008F2D2596E6E00C94512E80915002882315
:10216000A1F3F8011192EA94E9F710925002A091BC
:10217000DE02B0E0A751BD4F85E0F80101900D925D
:102180008A95E1F7E3CF70E067517D4F8091DE02E1
:1021900090E087519D4F0E9400130E947210D8CF8B
:1021A000F894E82FE295EF70F0E031A1282F2F701E
:1021B00081E090E001C0880F2A95EAF7982F90956A
:1021C000932391A392A1892B82A378940895CF930E
:1021D000DF93C2E0D1E089918F3F11F00E94D010CF
:1021E00081E0C730D807B9F7C7E0D1E089918F3FC8
:1021F00011F00E94D01081E0CC30D807B9F7DF9100
:10220000CF910895B0E0A0E0E8E0F1E10C94332E26
:102210007C01162F042FC62FD0E0CE5FDE4F288121
:102220002F3F09F44CC0F894E22FE295EF70F0E0F4
:1022300031A12F7081E090E001C0880F2A95EAF764
:10224000932F982B91A392A18095892382A37894B0
:102250000E946C1087E0C82E81E0D82EF701A701FC
:102260004B5F5F4FF12CE02EE094D6019D916D0104
:1022700081919F01215031099F3F31F1692F629572
:102280006F7070E0DB0190966C9170E09F7002C0FF
:10229000759567959A95E2F760FD16C0802BD90178
:1022A0008C93FF24F394E417F507F9F688818F3FA8
:1022B00011F00E94D0106F2D812F0E946E10CDB7AB
:1022C000DEB7E8E00C944F2E8E21D9018C93EBCF32
:1022D000AAE0B0E0EEE6F1E10C94392E80910C0119
:1022E000811130C085E0E3E4F1E0DE011696019053
:1022F0000D928A95E1F78E81809307018F818093FB
:102300000801888580930901898580930A018A855F
:1023100080930B0185E0E8E4F1E0DE011196019085
:102320000D928A95E1F78981809302018A818093D9
:1023300003018B81809304018C81809305018D8141
:102340008093060180910C0195E0811190E09093BB
:10235000F30285E0891B8093DE020E94E7108AE089
:10236000E9EEF2E0DF01982F1D929A95E9F7EFED83
:10237000F2E0DF011D928A95E9F785E00E940812DC
:102380000E94A8022A96E2E00C94552EAAE0B0E042
:10239000ECECF1E10C94352E8E010F5F1F4F8AE0BB
:1023A000F80111928A95E9F7F12CEE24E3944E2D71
:1023B0006F2DC8010E940211F394EE0CF5E0FF129C
:1023C000F6CF4AE050E0B8018FED92E00E94602E17
:1023D00021E0009709F420E0892B41F08AE0F80120
:1023E000AFEDB2E001900D928A95E1F76091F302B2
:1023F00070E067517D4F45E08FED92E00E94091239
:10240000182F0E947510812B2A96E6E00C94512E0D
:102410000895CF92DF92EF92FF920F931F93CF9385
:102420006C017B01042F222349F081E08093530249
:102430000E94F1259093520280935102C091530261
:10244000C1110AC0C0E08C2FCF911F910F91FF9056
:10245000EF90DF90CF9008958091510290915202B9
:102460000E940926059770F310E0A801B601C70184
:102470000E94602E892B41F0A801B601C7010E947D
:102480006D2E10925302DFCFC0E0FBCF8091560239
:10249000811107C00E94E72D882351F081E08093CD
:1024A000560281E090915602913009F080E0089543
:1024B00082E0809356020E94E22DF3CF0E944612E2
:1024C00008950E945E1280930C010E9446128111B1
:1024D0000E94AF1208950E944612811102C00E940C
:1024E000B212089581E0909157029A3008F080E08E
:1024F00008950F931F93CF93DF93EC018B0180918D
:1025000057028A30B8F4B801CE010E94FD12C82FDC
:10251000811122C0809157028F3FB9F40E94F125AA
:1025200090935502809354028C2FDF91CF911F918D
:102530000F91089580915402909155020E940926AE
:10254000843F914000F7C0E0EFCF8F5F8093570248
:102550008A3020F7C1E0E8CF10925702E5CF0E9401
:10256000282308950E942B230895B0E0A0E0EBEB10
:10257000F2E10C94342E7901C82F880FDD0B411540
:102580005105A9F0FE0193E0EE0FFF1F9A95E1F7C8
:10259000E35FFE4F81819281885A9D4F208130E018
:1025A0004217530708F49A01A9010E946D2ECE012B
:1025B0000E941424D82E8823D1F001151105B9F0FA
:1025C00083E0CC0FDD1F8A95E1F7FE01E35FFE4F4C
:1025D000438150E00417150708F4A801C35FDE4FDC
:1025E0006C817D81685A7D4FC7010E946D2E8D2DB3
:1025F000CDB7DEB7E7E00C94502E0E94EF1308959C
:102600000E9406140895A4E0B0E0E9E0F3E10C9420
:10261000372E60916F0270917002809171029091DB
:1026200072020E94182611E0643671058105910539
:1026300018F10E9408106E5F7F4F8F4F9F4F698384
:102640007A838B839C8310E000E030E020E044E05C
:1026500050E0BE016F5F7F4F82E00E94B512182FDD
:10266000882351F00E94FD2560936F0270937002E1
:102670008093710290937202812F2496E4E00C946F
:10268000532EB0E0A0E0E7E4F3E10C94312E7C019E
:102690005B016A010E94721201E010E0882311F0D0
:1026A0000AE010E0C1E0D0E0B501C701F6010995EC
:1026B000811104C021960C171D072CF4CDB7DEB78D
:1026C000EAE00C944D2ECC9F9001CD9F300D300D43
:1026D000112490E080E045E34A95F1F7000001966F
:1026E00082179307C1F7E0CFA6E0B0E0EAE7F3E195
:1026F0000C94312E7B01C090AF01D090B00101E06D
:1027000010E09E012A5F3F4F50E040E070E060E043
:1027100080E00E94B512182F882309F448C05601A2
:102720008FEFA81AB80A60916B0270916C028091C9
:102730006D0290916E020E94182664367105810523
:10274000910568F105E010E09E012F5F3F4F50E0DA
:1027500040E070E060E081E00E94B512D82E65E0B4
:1027600070E0C5010E94871A11E09E81981310E065
:102770001D2141F10E94FD2560936B0270936C0254
:1027800080936D0290936E0285E0FE013196A6E67D
:10279000B2E001900D928A95E1F711E013C065E077
:1027A00070E0C5010E94871A9E818913CBCF85E016
:1027B000F6013196DE01119601900D928A95E1F7AE
:1027C0001111E2CF85E0E6E6F2E0D70101900D922B
:1027D0008A95E1F7812F2696EAE00C944D2E0F930F
:1027E0001F93CF93DF93EC018B0144E753E10E94E9
:1027F0004113882331F043E053E1B801CE010E9438
:102800004113DF91CF911F910F9108950F931F9363
:10281000CF93DF93C091AF01D091B001CE0101966B
:1028200025E0FB01DC0101900D922A95E1F765E0BE
:1028300070E00E94871A88836E817F8188859985E0
:10284000009162021091630220916402309165024E
:10285000601771078207930751F0609362027093CB
:10286000630280936402909365020E94EB0FDF91F4
:10287000CF911F910F9108950E9441280E94640DED
:102880000E944E2808950E9453280E947C0D0E94A9
:102890006D2808950E948A250E9427280E944C0DC9
:1028A0000E943C140E9443140E945A0DFBCF809159
:1028B000790280FF0DC060912A0170E0660F771FDA
:1028C0006038710570F56115710569F1862F0895FD
:1028D00081FF07C060912A0184E0689FB001112444
:1028E000EFCF60912A0182FD0AC08091780288238F
:1028F000A9F02091290160912A01821710F088E047
:10290000ECCF869FC001112433E0880F991F3A95C0
:10291000E1F7622F70E00E94082ED2CF68E070E0ED
:10292000D5CF8FE7089581E008958091790280FFE7
:102930000CC06091260170E0759567957595679557
:102940006115710549F1862F089581FF06C06091D8
:10295000260170E075956795F3CF6091260182FDA1
:102960000BC0909177029923A1F06091250180918D
:102970002601961738F0682F70E06038710500F373
:102980008FE70895899FC001112470E00E94082EEE
:10299000F4CF61E070E0D7CF81E00895803F31F45B
:1029A0000E945714819580937D020895813F19F408
:1029B0000E945714F8CF823F31F40E94571481953A
:1029C00080937C020895833F19F40E945714F8CF36
:1029D000893F29F40E94951480937E0208958A3FCE
:1029E00021F40E9495148195F7CF8B3F31F40E941A
:1029F0009514819580937F0208958C3F19F40E946D
:102A00009514F8CF9CE0980F953070F4845F990B83
:102A100021E030E001C0220F8A95EAF780917B0225
:102A2000822B80937B0208958D3F31F4809179024F
:102A300081608093790208958E3F21F4809179021C
:102A40008260F7CF8F3FB9F7809179028460F1CF30
:102A500040917C02803F59F480917D0287FF0DC038
:102A600010927D0241110BC01092780208C0813F84
:102A700081F480917D0218169CF3442381F08091AB
:102A80007E0290917F02892B09F05AC01092770242
:102A90000895823F49F447FFF0CF10927C02809165
:102AA0007D028111ECCFE0CF833F19F41416ACF313
:102AB000E4CF90917E02893F29F41916F4F6109222
:102AC0007E02DBCF8A3F19F497FFD7CFF8CF9091E2
:102AD0007F028B3F29F497FFD0CF10927F02CDCF9A
:102AE0008C3F19F41916CCF3C8CF9CE0980F9530A1
:102AF00090F4845F990B21E030E0B90102C0660FC9
:102B0000771F8A95E2F7CB01809590917B0289230C
:102B100080937B02B2CF8D3F31F4809179028E7F1A
:102B200080937902AACF8E3F21F4809179028D7F24
:102B3000F7CF8F3F09F0A1CF809179028B7FF0CF43
:102B400008950E94F1259C0190917C0280917D0264
:102B5000982B21F0309376022093750290917E029B
:102B600080917F02982B21F030937402209373029E
:102B70008AE792E00E94B324089586E0EAE7F2E053
:102B8000DF011D928A95E9F7109278021092770280
:102B9000109279020895A6E0B0E0E1EDF5E10C9421
:102BA000392E86E0EAE7F2E0DE01119601900D92FF
:102BB0008A95E1F729813A814B815C816D817E8123
:102BC00080E090E02696E2E00C94552EFC01828194
:102BD00081110EC0838181110BC08481811108C0D5
:102BE00091E08581811101C090E0892F8170089565
:102BF00081E0FCCFA6E0B0E0E0E0F6E10C94382EF6
:102C000086E0EAE7F2E0DE01119601900D928A95E6
:102C1000E1F710927C0210927D0210927E021092D7
:102C20007F028B819C81892B89F080917502909124
:102C300076020E940926AC01909178029923C9F18D
:102C400080912B018417150608F440C08D819E8168
:102C5000892B91F080917302909174020E94092651
:102C6000AC0190917702992309F471C080912701FA
:102C70008417150608F479C0BE016F5F7F4F8AE79D
:102C800092E00E944225811105C08AE792E00E94ED
:102C9000E61581110E94A11586E0FE013196AAE792
:102CA000B2E001900D928A95E1F72696E3E00C944C
:102CB000542E20912C018AE0289F90011124241782
:102CC000350720F69F5F9093780202C09F3FD1F7AF
:102CD0001B81112359F00E9457149FEF11160CF419
:102CE00091E0899F802D112480937C021C81112307
:102CF00059F00E9457149FEF11160CF491E0899F30
:102D0000802D112480937D0230917C02332309F4BD
:102D10009DCF20917D02222309F498CF45EB340307
:102D2000C0011124992359F090937C0245EB2403B0
:102D300090011124332339F030937D0287CF81E055
:102D400080937C02F3CF81E080937D027FCF20913E
:102D500028018AE0289F900111242417350708F0E4
:102D60008BCF9F5F9093770202C09F3FD1F71D8169
:102D7000112359F00E9495149FEF11160CF491E065
:102D8000899F802D112480937E021E81112359F08A
:102D90000E9495149FEF11160CF491E0899F802DED
:102DA000112480937F0230917E02332309F464CF93
:102DB00020917F02222309F45FCF45EB3403C00149
:102DC0001124992359F090937E0245EB240390013E
:102DD0001124332339F030937F024ECF81E080936A
:102DE0007E02F3CF81E080937F0246CF089508955D
:102DF000ACE0B0E0EEEFF6E10C94392E4F8358874B
:102E000069877A878B879C8786E0FE013796DE018B
:102E1000119601900D928A95E1F729813A814B81B3
:102E20005C816D817E8180E090E02C96E2E00C94E4
:102E3000552EACE0B0E0EFE1F7E10C94392E0E94A2
:102E4000F81680E090E02C96E2E00C94552E21E0FC
:102E500030E001C0220F4A95EAF7662311F0822B79
:102E60000895209582230895E091B101F091B20177
:102E700009950E94F6160E94F716089564E872E01C
:102E80008AE892E00E944225882321F08AE892E0B5
:102E90000E94B32410928C0210928D0210928E0226
:102EA00010928F0286E0EAE8F2E0A4E8B2E0019036
:102EB0000D928A95E1F70895A2E1B0E0E2E6F7E12C
:102EC0000C94392E6091800270918102809182026F
:102ED000909183020E941826672B682B692B09F4B6
:102EE0006EC00E94FD2560938002709381028093E2
:102EF000820290938302E091B301F091B40140917A
:102F00008A0250918B0260918C0270918D028091A7
:102F10008E0290918F02099520938A0230938B0242
:102F200040938C0250938D0260938E0270938F02B7
:102F300086E0EAE8F2E0DE011D9601900D928A95A6
:102F4000E1F786E0FE013D96DE01119601900D92BB
:102F50008A95E1F786E0FE013196DE011796019031
:102F60000D928A95E1F786E0FE013796AAE8B2E075
:102F700001900D928A95E1F740918A0250918B025F
:102F800060918C0270918D0280918E0290918F02DF
:102F90000E94191720938A0230938B0240938C026F
:102FA00050938D0260938E0270938F020E94CB1516
:102FB00080918B02832B80938B020E943E17629636
:102FC000E2E00C94552EA6E0B0E0E9EEF7E10C94B7
:102FD000392E86E0EAE8F2E0DE01119601900D92CA
:102FE0008A95E1F729813A814B815C816D817E81EF
:102FF00080E090E02696E2E00C94552EA6E0B0E04A
:10300000E4E0F8E10C94392E49835A836B837C8386
:103010008D839E8386E0FE013196AAE8B2E001909E
:103020000D928A95E1F72696E2E00C94552EFC016C
:10303000208131812038310534F02F573109318317
:1030400020838FE7089520388FEF380734F4215814
:103050003F4F3183208380E80895822F11821082B0
:103060000895A1E1B0E0E7E3F8E10C94362E4C8737
:10307000888B998B152FF62E072FCE01079625E00A
:10308000FC0111922A95E9F7209196022A3008F066
:103090003FC00E94F518892B09F060C0109296027B
:1030A0008B8540E087FD52C060E0812F0E9427178A
:1030B000182F8091940290919502009709F040C0DA
:1030C00046E06F8188850E940C1920919202309110
:1030D0009302820F931F909393028093920246E093
:1030E00069858A850E940C19209190023091910285
:1030F000820F931F909391028093900282E992E055
:103100000E941718F82E80E992E00E941718082FE5
:103110001D87FE860F8786E0FE013C96DE01119634
:1031200001900D928A95E1F729813A814B815C816A
:103130006D817E8180E090E06196E5E00C94522EF6
:1031400001979093950280939402E2CF61E0812FE2
:103150000E942717182F84E190E0F3CF8091960208
:103160008F5F80939602D4CF80912D0190912E0194
:103170002DE7AC01249FC001259F900D11240895D7
:103180009C01893F910538F481E090E090932E01F5
:1031900080932D010895EDE7F0E0BF010E94F42D2A
:1031A000A901481B590BCA01BF010E94F42D70935D
:1031B0002E0160932D010895A4E0B0E0E2EEF8E165
:1031C0000C94372E89836A834B832C8304E610E0AA
:1031D00024E030E0AE014F5F5F4F60E084E10E9489
:1031E0005A222496E4E00C94532E0F931F9304E686
:1031F00010E025E030E0AC0164E084E10E9481222F
:103200001F910F9108950E94532120E040E060E05B
:1032100080E00E94DC180895681708F5861B682F67
:1032200021E0469FA0011124649FF001659FF00DED
:10323000112440912D0150912E01E49FC001E59F82
:10324000900DF49F900D1124880F892F881F990BE2
:103250009195222319F09195819591090895681B04
:1032600020E0DFCF83E290E00E94762E823289F464
:1032700084E290E00E94762E823159F485E290E05B
:103280000E94762E91E0843209F090E0892F8170BF
:10329000089580E0FCCFCF93C82F6FEF811162E2D9
:1032A00083E290E00E94842E6FEFC11162E184E21C
:1032B00090E00E94842E6FEFC11164E285E290E0FD
:1032C0000E94842ECF910895089586E290E00E9496
:1032D000762E682F70E090E080E008950895CF93F7
:1032E000C62F0E946E196C2F86E290E00E94842EF9
:1032F000CF91089580E00E944B1960E070E0CB010F
:103300000E946F190E94351F0E94182081E00E94C0
:103310004B1908950E9464190E9465190E946E1944
:103320000E943219811102C00E947A190895CF9328
:10333000FB01C281CC2309F19C0122513F45203180
:10334000310520F582510E942820C0E08C2FCF91BA
:10335000089581E00E94BE0743E062E081E00E94A0
:103360009E02F3CF81E00E94CA0743E062E081E061
:103370000E949E02EBCF82E0F6CF8031FFE59F07EF
:1033800089F381319F45B9F3C1E0E0CF8031EFE5AA
:103390009E07F9F281319F45C9F682E0DBCF2FEF1E
:1033A000FC0120830895EF92FF920F931F93CF9318
:1033B000DF93EC01062FE881E150E33108F05DC0B6
:1033C000F0E0EA53F14D0C941C2E19828AE08A83B6
:1033D000602FCE010E94FA26CDB7DEB7E6E00C944E
:1033E000512E8981823069F0833071F08130D9F4B7
:1033F0000E94FD250E94222E6A837B838C839D83FD
:10340000E7CF0E946519F6CF7E0182E0E80EF11C3D
:1034100010E0812F0E946110F70181937F011F5FEF
:103420001A30B9F7D5CF602FCE010E94CF19D0CF77
:1034300089818230C1F76A817B818C819D810E9464
:10344000222E0E946F19C4CF4B816A8189810E940C
:10345000F71E9827892798279D838C83B9CF2C81C5
:103460003D813227232732274B816A8189810E943F
:10347000191FAECF0E94351FABCF8FEF8883A8CF27
:103480000E94C91F8983A4CF0E94CB1F9827892738
:1034900098279A8389839CCF6B8170E089819A8178
:1034A000AE014C5F5F4F9827892798270E94CE1F57
:1034B0008FCF6B8170E089819A81AE014C5F5F4F45
:1034C0009827892798270E94F31F82CF0E941820EF
:1034D0007FCF0E94E51ED6CF6B8170E089819A81F3
:1034E000AE014C5F5F4F9827892798270E94731F72
:1034F0006FCF6B8170E089819A81AE014C5F5F4F25
:103500009827892798270E94971F62CF0895FC016A
:10351000680F791F8FEF91E36E177F0709F4089505
:103520002191822728E030E087FF06C0880F892795
:1035300021503109C9F7F0CF880FFACFB0E0A0E0F1
:10354000E4EAFAE10C94332E6C017B0164E670E04E
:1035500088E70E945921EC0197FD12C010E000E0BD
:10356000F601E00FF11F849164E670E00E94C5212E
:10357000EC01892B29F40F5F1F4F0E151F0581F7F2
:103580000E94CA22CE01CDB7DEB7E8E00C944F2EE0
:1035900008950E94C81A0895E4EFF2E080E092E0F6
:1035A000DF019C011D9221503040E1F7F093FB04B4
:1035B000E093FA048FEF9FEF9093BD028093BC02DB
:1035C00008950E94C81A0E94C91A8093B80280FD0B
:1035D0000FC080E88093B7020E9453216DE070E035
:1035E0008FEE91E00E949E1A892B21F080E00895D1
:1035F00080E2F0CF8091B80263E070E081FD26C0E8
:103600008CEE91E00E949E1A892B81F76DE070E0AC
:103610008CED91E00E949E1A892B41F70E94FD25B6
:10362000605A75418F4F9F4F6093F6047093F70473
:103630008093F8049093F9040E94CC1A81E080935F
:10364000BB028093BA021092B902089589EE91E00C
:10365000D9CF2091B70236E0839FC0011124629F29
:10366000800D911D1124811522E0920714F090E045
:1036700080E08C509D4F9093FB048093FA04089552
:103680008091BB02811103C08091BA0208950E940B
:10369000FD25605A75418F4F9F4F6093F6047093DC
:1036A000F7048093F8049093F9048091BA02811191
:1036B000EBCF62E070E08AED91E00E949E1A892BC8
:1036C00019F781E08093BA02DFCF2F923F925F9289
:1036D0006F927F928F929F92AF92BF92CF92DF9222
:1036E000EF92FF920F931F93CF93DF938091BB02D2
:1036F000882369F02091BC023091BD02211531056B
:1037000031F08091B90261E070E0882399F0DF9197
:10371000CF911F910F91FF90EF90DF90CF90BF90CE
:10372000AF909F908F907F906F905F903F902F9081
:1037300008958F5F082F10E01B01082E02C0220C95
:10374000331C0A94E2F7A90142215321452B89F346
:103750009091B80290FD44C08295880F8076809346
:103760003101980136952795369527952093340198
:10377000815E809332011092350124E630E047E00B
:1037800050E06FE271E088E70E943922892B09F04E
:10379000BECFA80125E0440F551F2A95E1F780917F
:1037A000B80280FD2BC04C505D4F04E610E020E2D3
:1037B00030E060E488E70E945A22892B09F0A7CF05
:1037C0000E94401BE101C095D0958091BC02909170
:1037D000BD02C823D923D093BD02C093BC0297CFAA
:1037E000880F880F880F8093310110923401895F10
:1037F0008093320183E080933501BFCFE7E9F2E0A7
:1038000080E2DF011D928A95E9F7ADEBB1E009EBAB
:1038100011E081ECC82E81E0D82E97E0592E772454
:1038200073948D91E80129918E01240F352F311D5C
:103830002C503D4FE82FF0E0E956FD4F90E080E03E
:10384000652C681A872C082E01C0880C0A94EAF7A8
:103850007901A12CE701B9907E01B820662D6A1983
:103860006770962E062E000C770BDB2D01C0DD0F46
:103870009A94EAF77195619571096770772701C08D
:10388000B6946A95EAF7BD2A6081962E9B289082AD
:10389000A39468E0A612DECF019631968830910598
:1038A00079F6CA16DB0609F0BCCF04E610E020E288
:1038B00030E047E952E07DCF8091BA029091BB029F
:1038C000911103C091E089270895882369F062E08F
:1038D00070E088ED91E00E949E1A892B19F080918A
:1038E000BA0208951092BA028091BA02EBCF81E039
:1038F00008950E94771C08950F931F938091BB0237
:10390000882379F18091F4049091F5040E940926AE
:10391000C29760F00E94F1259093F5048093F4041F
:1039200060E080E00E94291B0E94791C0E94651BB8
:103930008091BA028823A9F00E94FD250091F60427
:103940001091F7042091F8043091F904601B710B79
:10395000820B930B6F3F7F4F8F4F9F4710F40E9456
:103960005C1C1F910F910895CF93DF93EC01FB0135
:103970008281882309F464C1C330FDE5DF07E0F5E7
:10398000CA3F9CE5D90730F49E0122503C452431C2
:103990003105D8F50E94900C9093DD028093DC02F3
:1039A000C231ECE5DE0709F41FC108F06EC0C93072
:1039B0008CE5D80709F4F2C008F03FC0C530ECE54B
:1039C000DE0709F4DBC058F5C3308CE5D80709F4ED
:1039D000CDC008F0CFC08091DC028160C230DC45F0
:1039E00009F4AEC08091DC029091DD020E949E0C31
:1039F0000E943C0780E009C0C53AEDE5DE0751F2C0
:103A000038F4C1369DE5D90729F2DF91CF910895A9
:103A10009E012D5A3D4523303105B8F7BBCF80912B
:103A2000DC028062C730FCE5DF0709F489C008F4D6
:103A3000B1C08091DC02806483C0CD309CE5D907A1
:103A400009F4BAC070F48091DC028E7FCB30FCE5C3
:103A5000DF0709F475C008F4A7C08091DC028D7FF0
:103A60006FC0CF309CE5D90709F4B6C008F4A8C0F0
:103A7000C031FCE5DF0709F4B3C0C131DC4509F012
:103A8000B1CF8091DC028F7B5BC0CF3F9CE5D90733
:103A900009F4B4C098F5CA3FFCE5DF0709F472C029
:103AA000B8F4C4319CE5D90709F4B6C008F4A2C043
:103AB000C531DC4509F096CF8091DC0282FB992765
:103AC00090F921E0922790FB82F990FB83F938C0AE
:103AD000CC3F8CE5D80709F477C008F457C0CD3F38
:103AE000ECE5DE0709F474C08091DD028360CE3F0F
:103AF000DC4509F077CF8093DD0274CFC1368DE5C8
:103B0000D80709F496C068F4C130EDE5DE0709F482
:103B10008CC008F477C0C230DD4509F063CF80E087
:103B200085C0CD3A9DE5D907E9F068F49091DC02B3
:103B3000892F8E7F90FF8160C53ADD4509F052CF15
:103B40008093DC024FCFCE3A8DE5D80789F1CF3A8A
:103B5000DD4509F047CF9091DD02892F877F93FFE4
:103B60008860C9CF8091DD028860C5CF8091DC027A
:103B70008260E6CF8091DC028460E2CF8091DC023B
:103B80008860DECF8091DD028160B5CF8091DD025B
:103B90008260B1CF8091DC028061D2CF0E943C076D
:103BA0008091DC028068CCCF8091DC028C60C8CF31
:103BB0008091DD02877F9FCF8091DC028B7FC0CF19
:103BC0008091DC02877FBCCF8091DD028E7F93CF16
:103BD0008091DD028D7F8FCF8091DC028F7EB0CF10
:103BE0008091DC028F7DACCF0E943C078091DC028B
:103BF0008F77A6CF8091DC02837FA2CF8091DD02F8
:103C00008C7F79CF8091DD02982F909591708E7F77
:103C1000892B90FB81F96FCF0E943C079091DC02C9
:103C2000892F97FB87F980588BCF81E00E942A0D5E
:103C3000D9CE9091DC02892F8F7E94FF806180CF56
:103C400081E0E3CEB0E0A0E0E8E2FEE10C94342EA7
:103C5000E82FF0E0E450FE4FD490282F26952695CB
:103C6000269530E0F901E456FD4F0491877010E08D
:103C7000082E02C0159507950A94E2F701701127E6
:103C8000F901E457FD4FE490F12C082E02C0F594A1
:103C9000E7940A94E2F791E0E922FF24F901E4585D
:103CA000FD4FC491D0E002C0D595C7958A95E2F743
:103CB000C170DD270115110519F081EE0E94C003C6
:103CC000E114F10419F086EE0E94C0038D2D0E94CC
:103CD000C204E114F10419F086EE0E9451040115AA
:103CE000110519F081EE0E945104CD2B19F08CE2E0
:103CF0000E94C204CDB7DEB7E7E00C94502EEF92DD
:103D0000FF920F931F93CF93DF93EC01162F0AE0DE
:103D10008881882309F454C0813009F04EC089811C
:103D2000813099F47E0122E0E20EF11C8A810E942A
:103D3000C204E7012196812F815050F3EFE9FFE0A3
:103D40003197F1F700C00000F7CF823041F47E01D7
:103D500082E0E80EF11C8A810E94C003EACF833022
:103D600041F47E01E2E0EE0EF11C8A810E945104D2
:103D7000E0CF843011F02196DDCF2A81229690E0A9
:103D800080E0AE014F5F5F4F2053330B2A30310587
:103D900048F0019778F2EFE9FFE03197F1F700C0C2
:103DA0000000F7CF089FB001099F700D1124C901D1
:103DB000860F971F2981EA01E4CF0E94221EBACF05
:103DC000CDB7DEB7E6E00C94512E84E0089550E0C4
:103DD000440F551F9AE0699F400D511D112494E630
:103DE000899F400D511D1124CA01879608950F9394
:103DF0001F93CF93DF938430C8F46A30B8F4453012
:103E0000A8F40E94E71E8C010E94762EC82FD0E0F5
:103E1000DC2FCC27C80101960E94762E9E01282B0C
:103E2000C901DF91CF911F910F91089590E080E03B
:103E3000F8CF0F931F93CF93DF93122F032F84306C
:103E400078F46A3068F4453058F40E94E71EEC01BB
:103E5000602F0E94842E612FCE0101960E94842E35
:103E6000DF91CF911F910F910895B0E0A0E0EBE3B7
:103E7000FFE10C94322E9CEAC92E90E0D92ED0E0BE
:103E8000C0E07601B12C20C00E94300221E030E079
:103E90008C171D0641F03CF0F801EE0FFF1FEE0DF0
:103EA000FF1D25913491402F6B2D8C2F0E94191FDF
:103EB0000F5F1F4F0530110539F78AE0E80EF11C3E
:103EC000B3948AE0B81619F010E000E0DDCF219637
:103ED00084E6C80ED11CC430D10599F6CDB7DEB743
:103EE000E9E00C944E2EEF92FF920F931F93CF9325
:103EF000DF93EC018A017C01E60EF71ECE01879666
:103F0000CE15DF0529F4CDB7DEB7E6E00C94512ECF
:103F1000C03921E0D20740F40E94762EF801808358
:103F20000F5F1F4F2196EACFF8011082F9CFB0E062
:103F3000A0E0EDE9FFE10C94332E7C016A018C01D5
:103F4000060F171FEC01CE018796C017D10729F481
:103F5000CDB7DEB7E8E00C944F2EC03921E0D20790
:103F600040F4FE01EE19FF09EC0DFD1D60810E9479
:103F7000842E2196E8CF462F843040F47A3030F4F6
:103F8000653020F4672F0E94F71E089590E080E0CE
:103F9000089580E1089589E492E00895EF92FF92F8
:103FA0000F931F93CF93DF93EC018A017C01E60E00
:103FB000F71ECE0189549E4FCE15DF0529F4CDB7EB
:103FC000DEB7E6E00C94512EC93422E0D20740F46B
:103FD0000E94762EF80180830F5F1F4F2196E9CF54
:103FE000F8011082F9CFB0E0A0E0E9EFFFE10C9416
:103FF000332E7C016A018C01060F171FEC01CE01E4
:1040000089549E4FC017D10729F4CDB7DEB7E8E039
:104010000C944F2EC93422E0D20740F4FE01EE1971
:10402000FF09EC0DFD1D60810E94842E2196E7CFD3
:10403000CF93DF93C7EBD1E060E0CE010E94842EE6
:104040002196C11584E0D807B9F7DF91CF91089583
:10405000A4E0B0E0EEE2F0E20C94342EF82E8FE013
:104060008F1548F18FEF93E00E94762E811123C0C7
:1040700007EB11E0F11023C019821A821B821C8207
:10408000DD24D39478018FEFE81AF80AC8010E9462
:10409000762E89831A82882371F09FEF980F9330D0
:1040A000D8F48A83D9820E5F1F4FC7010E94762EF3
:1040B0008B83811112C02496E7E00C94502E0115D9
:1040C00084E01807C1F3C8010E94762E811101C057
:1040D000FA940F5F1F4FCECF870160E0CE010196AB
:1040E0000E947F1ECFCFCF93DF93EB0186319C459B
:1040F00011F50E948C0B9A81992399F08A7A91E0AC
:1041000009F490E09093BE02811109C089E20E94F7
:10411000640B0E94CD0B80E0DF91CF91089585E381
:10412000F6CF8091BE02811104C089E20E946C0B1F
:10413000F0CF85E3FBCF81E0EFCF0F931F93CF93B9
:10414000DF93C42FD22FFC0182818823C9F04093D2
:10415000C1020E94F1259093C0028093BF0280E2C9
:104160008C0F883040F4C77081E001C0880FCA9579
:10417000EAF70E94CB04DF91CF911F910F91089530
:104180001091C102141332C08091BF029091C002FD
:104190000E940926883C910548F5C0E2CD0F1D1705
:1041A000B9F080E2810F883040F4177081E001C0DF
:1041B000880F1A95EAF70E94D204C83048F481E0CB
:1041C0009D2F977001C0880F9A95EAF70E94CB0443
:1041D000802F0E94C204C83070F6D77081E001C001
:1041E000880FDA95EAF70E94D204C5CF80E28C0FDF
:1041F000883008F6C77081E001C0880FCA95EAF7D9
:10420000F2CF0F939C01CB01233F4CE5340759F1CA
:10421000A8F4283DFCE53F0701F1293D4CE53407B2
:10422000D1F1273D3C4591F406E221EE41EE67EDE8
:104230007CE50E949D2080E00F910895253FFCE5DC
:104240003F07E9F0B0F0263F3C45F9F0FC018281E0
:10425000882339F11092C102EFCF07E225EE45EE37
:1042600068ED7CE5E6CF06E221EE40EE63EF7CE50B
:10427000E0CF07E225EE44EE64EF7CE5DACF06E21C
:1042800021EE42EE65EF7CE5D4CF07E225EE46EE67
:1042900066EF7CE5CECF08E221E045EE69ED7CE5F6
:1042A000C8CF81E0C9CF1092B9008CE08093B800EC
:1042B0000895B0E0A0E0EFE5F1E20C94302EB82EC6
:1042C000EB010E94F1256C01EE24E394F12CC43142
:1042D000D10560F025E0E22EF12CCF3FDC0731F074
:1042E000CE0164E170E00E94F42D7B0184EAA82EE7
:1042F00094E8992E1092BC00A092BC000E94F12577
:104300008C018091BC0087FF0DC08091B900887F2F
:104310008830F9F08091B900887F8031D1F00FEFBB
:104320001FEF08C0C8010E940926E816F90648F7E1
:104330000EEF1FEFCF3FDC07E9F2C6010E9409260E
:10434000C817D907B8F6C801CDB7DEB7EBE00C94B3
:104350004C2EB092BB009092BC000E94F1258C01C3
:104360008091BC0087FF0AC08091B900887F8831A6
:1043700011F08034A1F610E000E0E5CFC8010E9402
:104380000926E816F90660F7D3CF0F931F93CF9352
:10439000DF93EB018093BB0084E88093BC000E9414
:1043A000F1258C018091BC0087FF11C02091B900DC
:1043B000287F81E090E0283211F490E080E0919530
:1043C00081959109DF91CF911F910F910895CF3F72
:1043D000DC0741F3C8010E940926C817D90710F766
:1043E0008EEF9FEFEFCF0F931F93CF93DF93EC01EF
:1043F00084EC8093BC000E94F1258C018091BC006C
:1044000087FF08C08091BB0090E0DF91CF911F91A2
:104410000F910895CF3FDC0789F3C8010E94092658
:10442000C817D90758F78EEF9FEFEFCF0F931F9361
:10443000CF93DF93EC0184E88093BC000E94F125C8
:104440008C018091BC0087FF08C08091BB0090E088
:10445000DF91CF911F910F910895CF3FDC0789F332
:10446000C8010E940926C817D90758F78EEF9FEF99
:10447000EFCFB0E0A0E0EFE3F2E20C94332E6B015B
:104480008A017901B9010E945921E6010C0D1D1D17
:10449000C017D10711F097FF08C024E92093BC0092
:1044A000CDB7DEB7E8E00C944F2EB70189910E949A
:1044B000C521EECFB0E0A0E0E0E6F2E20C94332EAE
:1044C000C62F6A017901B8010E94592197FD0CC0DD
:1044D000B8018C2F0E94C521E601EC0CFD1CCE1505
:1044E000DF0511F097FF08C024E92093BC00CDB789
:1044F000DEB7E8E00C944F2EB80189910E94C521E7
:10450000EECFB0E0A0E0E7E8F2E20C94332EF82E14
:10451000E62EEA016901B8010E94592197FD15C0F4
:10452000B8018E2D0E94C52197FD0FC0B8018F2DB7
:1045300081600E945921F12CE12C21E0C21AD1089E
:10454000EC14FD04E0F497FF0DC024E92093BC00B7
:104550001816190614F490E080E0CDB7DEB7E8E055
:104560000C944F2EC8010E94F32197FD04C0FE0158
:10457000EE0DFF1D80832FEFE21AF20AE1CF97FDC7
:10458000E4CFC8010E94162297FDDFCFCC0DDD1DC0
:104590008883DBCF84E98093BC0008958EE14A9B39
:1045A00002C08150E1F74A9BFECF08955A9880E2FD
:1045B0008A95F1F75A9A0895FC013BE03A95F1F794
:1045C00098E020E080E031E040E14A95F1F7880F83
:1045D0004A9B02C08160232742E04A95F1F7000020
:1045E00040E14A95F1F7915079F790E19A95F1F70A
:1045F00099B132E03A95F1F7000040E14A95F1F7C0
:1046000092FB992790F992272081920F9083089529
:10461000A1E0B0E0EEE0F3E20C94352E19828C01BB
:104620007C01E60EF11C0E151F0541F481E0998115
:10463000911180E02196E6E00C94512E0E94CE224A
:10464000CE0101960E94DC22F80181938F01EBCF0D
:10465000529A5A9A089552985A9AEA9AE9E6F0E0DC
:1046600080818F7C808308956150770B91E001C039
:10467000990F6A95EAF720E031E0911108C02223F2
:1046800091F05A9A80E28A95F1F75A980895492F45
:10469000482339F05A9A232740E24A95F1F7969534
:1046A000ECCF5A98F9CF5A98EDCFFF920F931F9302
:1046B000CF93DF93EC018C01060F111DC017D107BA
:1046C00029F4CDB7DEB7E5E00C94522EF9900E94A4
:1046D000D62268E08F2D0E943423F0CF1F920F92D4
:1046E0000FB60F9211240F931F932F933F934F9365
:1046F0005F936F937F938F939F93AF93BF93EF934A
:10470000FF93CF93DF930F92CDB7DEB719820E944C
:10471000CE22CE0101960E94DC22082F0695069536
:104720000695282F22952570902F9570290F922F8E
:10473000937026952695920F982797708981982BCC
:1047400009F05CC0043008F059C080E18A95F1F7A7
:104750005A9A529A82E08A95F1F700C05A9888E0F6
:10476000089F80011124D801A35FBE4F1696ED91DA
:10477000FC9117973097A9F06091AF017091B0014B
:1047800014962D913C911597260F371F11968D91F8
:104790009C911297680F791F13964C9113978C91E7
:1047A0000995F801E35FFE4F6381662351F0209184
:1047B000AF013091B00184819581820F931F0E94D7
:1047C00055230E94D62280E18A95F1F75A98529893
:1047D0005A9A80E18A95F1F7F801E35FFE4F608114
:1047E000662351F02091AF013091B0018181928117
:1047F000820F931F0E9408230E94CE220F90DF9108
:10480000CF91FF91EF91BF91AF919F918F917F9148
:104810006F915F914F913F912F911F910F910F9049
:104820000FBE0F901F9018950F931F93CF93DF9398
:10483000EC0104970CF04CC0F894529A5A9885E019
:104840008A95F1F700009C2F969595708C2F8570B6
:10485000980F892F83709695969523E0CC0FDD1FD6
:104860002A95E1F7980F8E01092B0E94D62200C0ED
:1048700068E0802F0E94342380E18A95F1F75298F6
:104880005A9A4A9B1EC087E090E04A991CC0FE01DC
:10489000E35FFE4F63816623F9F02091AF01309111
:1048A000B00184819581820F931F0E94082381119A
:1048B00013C0529A5A9A7894DF91CF911F910F9119
:1048C000089500C0DECF019729F4529A5A9A78943D
:1048D00080E0F2CF00C0D9CF0E94CE2280E28A953C
:1048E000F1F75A98529A80E18A95F1F7C35FDE4F4B
:1048F0006881662351F02091AF013091B001898128
:104900009A81820F931F0E9455230E94D622789489
:1049100081E0D2CF9093D1018093D00108959093FC
:10492000C8028093C70208950E944612811103C0F5
:104930008091C2020895E091C702F091C8023097B9
:1049400029F00190F081E02D0995089580E0089507
:10495000E091C702F091C802309721F00280F38104
:10496000E02D09950895E091C702F091C8023097B3
:1049700039F022E0DC012C930480F581E02D0995CB
:1049800008952091C5023091C6022817390771F0A9
:104990009093C6028093C502E091C702F091C802CD
:1049A000309721F00680F781E02D09950895209138
:1049B000C3023091C4022817390771F09093C402E2
:1049C0008093C302E091C702F091C802309721F0B2
:1049D0000084F185E02D099508959C012E5F3F4FDD
:1049E000AC01485F5F4F80E02417350709F4089554
:1049F000F90191919F019923B9F38F5FF5CF662358
:104A000049F0FC01329608962191261729F0E81703
:104A1000F907D1F780E0089581E008959C01FC0139
:104A200032969FEF80E04191461751F09F3F19F475
:104A3000411101C0982F8F5F8630A9F79F3F09F47D
:104A40000895290F311D97FD3A95F9016283089564
:104A5000FC01329608962191261303C0DF011197BD
:104A60001C92E817F907B9F708950E940E250895DA
:104A70000E9428250895029626E0FC0111922A95AD
:104A8000E9F7089546E050E00E94602E21E0892B6E
:104A900009F420E0822F089508950E944C2508957E
:104AA000811106C081E08093C9020E944D250895BE
:104AB00082E0F9CF83E08093C9020E944D250895DA
:104AC0000E945025089581E08093C9020E944D25DF
:104AD00008950E9463250895089508950E946D2504
:104AE0000895089508950E946C250895CF930E941B
:104AF00071250E94C6110E947225C0E08C2F0E9471
:104B00006110811105C0CF5FCA30C1F7CF91089500
:104B100081E0FCCF85B7806885BF85B7806885BF99
:104B200008951F921FB61F9211248F939F93AF93E6
:104B3000BF938091CA02811113C08091FC049091AF
:104B4000FD04A091FE04B091FF044196A11DB11D8A
:104B50008093FC049093FD04A093FE04B093FF04A3
:104B6000BF91AF919F918F911F901FBE1F9018957D
:104B700080910405843031F10E9421031092CA0211
:104B800088E190E020E40FB6F894A8958093600047
:104B90000FBE2093600083B7817F846083BF83B79B
:104BA000816083BF7894889583B78E7F83BF0FB66B
:104BB000F894A895809160008861809360001092BD
:104BC00060000FBE08950E943C070E942A030895CA
:104BD00082E084BD93E095BD9AEF97BD80936E000F
:104BE00008952FB7F8948091FC049091FD04A09152
:104BF000FE04B091FF042FBF08952FB7F894609181
:104C0000FC047091FD048091FE049091FF042FBF7D
:104C100008959C014FB7F8948091FC049091FD0495
:104C2000A091FE04B091FF044FBF821B930B089527
:104C3000CF92DF92EF92FF922FB7F894C090FC04CE
:104C4000D090FD04E090FE04F090FF042FBFA70178
:104C50009601261B370B480B590BCA01B901FF906F
:104C6000EF90DF90CF90089578941F921FB61F9217
:104C700011248F939F93AF93BF938091FC049091E5
:104C8000FD04A091FE04B091FF040196A11DB11D89
:104C90008093FC049093FD04A093FE04B093FF0462
:104CA000BF91AF919F918F911F901FBE1F9018953C
:104CB00087E797E7909301088093000888E19AE0DE
:104CC0000FB6F894A895809360000FBE9093600093
:104CD000FFCF88E19AE00FB6F894A8958093600022
:104CE0000FBE90936000FFCF8091D6020895089583
:104CF0009C0184E08093E9009FEF8091E80091504F
:104D000085FD06C085ED8A95F1F700009111F5CF7C
:104D10008091E80085FF0CC050E040E066E070E064
:104D2000C9010E940C298091E8008E778093E800E9
:104D30000895CF93DF93EC0181E08093E9008FEF3A
:104D40009091E800815095FD06C095ED9A95F1F798
:104D500000008111F5CF8091E80085FF14C050E07C
:104D600040E068E070E0CE010E940C298091E800EC
:104D70008E778093E80088E0FE01AEECB2E001900F
:104D80000D928A95E1F7DF91CF9108958093CB0240
:104D90007093CD026093CC02809104058430F9F4C5
:104DA0008093E9008FEF9091E800815095FD06C057
:104DB00095ED9A95F1F700008111F5CF8091E8000B
:104DC00085FF0DC050E040E063E070E08BEC92E0C6
:104DD0000E940C298091E8008E778093E800089566
:104DE000BC0184E00E94C6260895BC0183E00E94B5
:104DF000C6260895CF93FC01603221F58091040509
:104E0000843001F5C091E900CF702091EC00922F21
:104E1000917020FD90E8C92B82E08093E900809199
:104E2000E80080FF0CC050E040E060E270E0CF019D
:104E30000E940C298091E8008E778093E800CF7063
:104E4000C093E900CF91089580910305811109C0B5
:104E50000E94EB2A0E94482B8091E200846080939C
:104E6000E20008951092030508950E9463250895B5
:104E70006091000581E0611101C080E00E945A2527
:104E800008959091040581E0943009F080E06091EC
:104E900000050E946025089542E061EC81E00E94D7
:104EA000672A42E261EC84E00E94672A42E261ECF8
:104EB00082E00E94672A42E260EC83E00E94672A57
:104EC0009091040581E0943009F080E06091000544
:104ED0000E945025089580910605833009F463C02F
:104EE00030F48130E1F1823009F4A0C008958A30B5
:104EF00009F48CC08B3009F471C0893009F052C0BC
:104F000080910505813209F04DC08091090590918D
:104F10000A05009719F0029709F044C08091E80053
:104F2000877F8093E8008091E80082FF37C09091EE
:104F3000F3008091F200029731F48091F10081300A
:104F400011F0863021F48091F1008093D602809197
:104F5000E8008B778093E8000E949B2A23C0809111
:104F60000505813AF9F48091E800877F8093E80095
:104F70008091090590910A05892B61F468E08EEC17
:104F800092E070E00E94AA298091E8008B778093DC
:104F9000E800089560E090E080E0F3CF80910405A0
:104FA0008111C1CF089580910505813AD9F780918B
:104FB000090590910A05892BA9F78091E800877F60
:104FC0008093E8008091E80080FFFCCF809142014F
:104FD0008093F1008091E8008E77BCCF8091050529
:104FE000813201F78091090590910A05892BD1F64C
:104FF0008091E800877F8093E8000E949B2A80913F
:105000000705809342010E943C07089580910505A1
:10501000813241F68091E800877F8093E8000E940A
:105020009B2A809108058093D702089580910505F9
:10503000813A09F0B7CF8091E800877F8093E8003C
:105040008091E80080FFFCCF8091D702C1CF84B768
:10505000877F84BF0FB6F894A8958091600088611F
:1050600080936000109260000FBE80E890E00FB661
:10507000F89480936100909361000FBE0E946925AF
:1050800008950E94EB2A0E94482BE2EEF0E0808116
:105090008460808378940E94C72D089586E391E010
:1050A0000E948F24089580910405853031F4809109
:1050B0000405853019F00E94E32508950E94B82563
:1050C00080910205882399F30E947625882379F33D
:1050D0000E94F6280E943C07EACFA0E2B0E0E3E796
:1050E000F8E20C94392E80910405843009F583E0B0
:1050F0008093E9008091E80082FF1AC08091E80067
:1051000090E085FF09C050E040E060E270E0CE0131
:1051100001960E945B2991E08091E8008B77809353
:10512000E800992329F060E2CE0101960E94D3198C
:10513000A096E2E00C94552E0E949F280895292FF6
:1051400033272330310521F168F42130310509F48A
:1051500043C02230310509F444C090E080E030E0E3
:1051600020E026C02132310551F122323105A9F764
:105170006330710590F7FB01EE0FFF1FEC53FE4FFC
:10518000208131816F537E4FFB01808190E010C000
:1051900099278130910581F0009729F00297E9F66F
:1051A000ECEAF2E002C0E4EDF2E0849190E09F01CD
:1051B000FA01318320830895EEEBF2E0F6CF6330FD
:1051C000710558F6660F771FFB01E653FE4F2081ED
:1051D000318189E090E0ECCF82E190E023E333E09D
:1051E000E7CF8BE590E028ED32E0E2CF80E189BDAA
:1051F00082E189BD09B400FEFDCF8091D8008F7D8A
:105200008093D8008091E00082608093E0008091DC
:10521000E00081FDFCCF0895AF92BF92CF92DF9264
:10522000FF920F931F93CF93DF936C01EB018A01E1
:105230000E94BA2AF82E811123C00115110539F0F8
:10524000F80180819181C81BD90BC80ED91EB12CE1
:10525000A12C2097A9F08091E80085FD22C08091C3
:10526000E8008E778093E80001151105A1F0F801A0
:1052700080819181A80EB91EB182A08285E0F82EAE
:105280008F2DDF91CF911F910F91FF90DF90CF90E5
:10529000BF90AF9008950E94BA2A8823D1F2F82EC9
:1052A000EFCFF60181916F018093F1002197FFEF1D
:1052B000AF1ABF0ACECFAF92BF92CF92DF92FF92CA
:1052C0000F931F93CF93DF936C01EB018A010E9430
:1052D000BA2AF82E811123C00115110539F0F80101
:1052E00080819181C81BD90BC80ED91EB12CA12C6D
:1052F0002097A9F08091E80085FD22C08091E80008
:105300008B778093E80001151105A1F0F8018081E9
:105310009181A80EB91EB182A08285E0F82E8F2D52
:10532000DF91CF911F910F91FF90DF90CF90BF90B1
:10533000AF9008950E94BA2A8823D1F2F82EEFCFB9
:105340008091F100F60181936F012197FFEFAF1A71
:10535000BF0ACECFFC0180910B0590910C058617FA
:105360009707A0F06115710529F49091E8009E77E8
:105370009093E80090E06115710551F4911108C017
:105380008091E80082FF34C080E00895BC01F2CF34
:10539000809104058823C1F18530C1F18091E80036
:1053A00083FD30C08091E80082FDEACF8091E80063
:1053B00080FFE1CF8091F3002091F200382F61153A
:1053C000710519F02830310558F091E02830310589
:1053D00009F090E02091E8002E772093E800CBCFF1
:1053E00081918093F100615071092F5F3F4FE7CFAA
:1053F00080910405882341F0853041F08091E800D8
:1054000083FFBECF81E0089582E0089583E0089590
:10541000FC0180910B0590910C0586179707A0F071
:105420006115710529F48091E8008E778093E8007A
:1054300090E06115710551F4911108C08091E80068
:1054400082FF35C080E00895BC01F2CF8091040551
:105450008823C9F18530C9F18091E80083FD31C00E
:105460008091E80082FDEACF8091E80080FFE1CFE3
:105470008091F3002091F200382F6115710519F029
:105480002830310558F091E02830310509F090E0DE
:105490008091E8008E778093E800CBCF8491809351
:1054A000F1003196615071092F5F3F4FE6CF809137
:1054B0000405882341F0853041F08091E80083FFA6
:1054C000BDCF81E0089582E0089583E00895982F8C
:1054D000973028F08F708093E90081E008959093D1
:1054E000E900242F762F50E0981731F07091EC00EE
:1054F0002091ED005091F00021FD02C09F5FE8CFA8
:105500003091EB003E7F3093EB003091ED003D7F1A
:105510003093ED003091EB0031603093EB007093ED
:10552000EC002093ED005093F0002091EE0027FD59
:10553000E5CF80E008958091050587FF13C0809135
:10554000E80082FF06C08091E8008B778093E80036
:1055500004C0809104058111F2CF08958091040563
:105560008823D9F38091E80080FFF8CF8091E8008C
:105570008E77ECCF2091E4003091E50095E6A9010B
:105580002091EC00822F817020FF06C08091E800FE
:1055900080FF06C080E008952091E80022FD1AC037
:1055A00080910405882389F0853089F08091EB0093
:1055B00085FD0FC02091E4003091E50042175307AC
:1055C000F9F29150E1F684E0089582E0089583E0D5
:1055D000089581E008950E945A2B0E94622BE0EE0C
:1055E000F0E0808181608083E8EDF0E080818F775A
:1055F000808319BCA7EDB0E08C918E7F8C93808165
:105600008F7E80831092030508950F931F93CF938D
:10561000DF930E945A2B0E94622BC8EDD0E0888154
:105620008F77888388818068888388818F7D88834D
:1056300019BC1092040510920005109202051092F8
:10564000010500EE10E0F80180818B7F8083888166
:105650008160888342E060E080E00E94672AE1EE9A
:10566000F0E080818E7F8083E2EEF0E080818160D7
:105670008083808188608083F80180818E7F808331
:10568000888180618883DF91CF911F910F91089568
:10569000E8EDF0E080818F7E8083E7EDF0E08081AF
:1056A0008160808384E082BF81E0809303050E9453
:1056B000052B0895E8EDF0E080818E7F80831092C5
:1056C000E20008951092DA001092E10008951F920E
:1056D0000F920FB60F9211242F933F934F935F9326
:1056E0006F937F938F939F93AF93BF93EF93FF93AA
:1056F0008091E10082FF0BC08091E20082FF07C031
:105700008091E1008B7F8093E1000E94C62D809103
:10571000DA0080FF19C08091D80080FF15C0809109
:10572000DA008E7F8093DA008091D90080FF96C0E6
:1057300080E189BD82E189BD09B400FEFDCF81E031
:10574000809304050E9424278091E10080FF19C006
:105750008091E20080FF15C08091E2008E7F8093EF
:10576000E2008091E20080618093E2008091D800A5
:1057700080628093D80019BC85E0809304050E9464
:1057800038278091E10084FF2BC08091E20084FFE4
:1057900027C080E189BD82E189BD89B5982F9170CC
:1057A00080FFFBCF8091D8008F7D8093D8008091BF
:1057B000E1008F7E8093E1008091E2008F7E8093F4
:1057C000E2008091E20081608093E2008091000518
:1057D000882309F449C084E0809304050E9441278E
:1057E0008091E10083FF29C08091E20083FF25C002
:1057F0008091E100877F8093E10082E0809304053F
:10580000109200058091E1008E7F8093E1008091ED
:10581000E2008E7F8093E2008091E20080618093BD
:10582000E20042E060E080E00E94672A8091F000A0
:1058300088608093F0000E943527FF91EF91BF911F
:10584000AF919F918F917F916F915F914F913F9118
:105850002F910F900FBE0F901F90189519BC1092AA
:1058600004050E94322770CF8091E30087FD93E00A
:1058700090930405B3CF1F920F920FB60F9211248D
:105880002F933F934F935F936F937F938F939F9348
:10589000AF93BF93CF93DF93EF93FF93D091E90042
:1058A000DF708091EC00C82FC17080FDC0E81092BD
:1058B000E9008091F000877F8093F00078940E9447
:1058C0007F2C1092E9008091F00088608093F000B6
:1058D000CD2BCF70C093E900FF91EF91DF91CF9175
:1058E000BF91AF919F918F917F916F915F914F91F8
:1058F0003F912F910F900FBE0F901F901895AAE225
:10590000B0E0E5E8FCE20C94382E85E095E02091CB
:10591000F100FC012193CF01F5E08D309F07B9F72D
:105920000E946B278091E80083FF1EC180910505CE
:10593000909106059A3008F017C1E92FF0E0E75280
:10594000F14D0C941C2E803899F0823809F00CC16E
:10595000809109058F70873008F006C18093E900B7
:105960008091EB0085FB882780F91092E90006C042
:105970008091010590910205911182609091E8005B
:10598000977F9093E8008093F1001092F10080914E
:10599000E8008E77E5C0882309F4D3C0823009F08F
:1059A000E3C0809107058111D6C0809109058F70F1
:1059B0002FEF280F263008F0D7C08093E900209100
:1059C000EB0020FFC8C0933031F48091EB0080627F
:1059D0008093EB00C0C09091EB0090619093EB003E
:1059E00021E030E001C0220F8A95EAF72093EA0017
:1059F0001092EA008091EB008860EACF8111B4C078
:105A0000109107051F778091E3008078812B8093A8
:105A1000E3008091E800877F8093E8000E949B2A42
:105A20008091E80080FFFCCF8091E3008068809344
:105A3000E30082E0111183E08093040595C0805853
:105A4000823008F091C080910705909108058C3D47
:105A500023E09207A1F583E08A838AE289834FB726
:105A6000F894DE01139620E03EE051E2E32FF0E0EF
:105A700050935700E49120FF03C0E295EF703F5F21
:105A8000EF708E2F90E0EA30C0F0C7968D939D9313
:105A90002F5F243159F74FBF8091E800877F8093B3
:105AA000E8006AE270E0CE0101960E94AA29809186
:105AB000E8008B778093E80057C0C096E7CF6091ED
:105AC000090570910A05AE014F5F5F4F0E949C2847
:105AD000BC01892B09F448C09091E800977F90930E
