:100000000C942F020C944C020C944C020C94372745
:100010000C944C020C944C020C944C020C944C0228
:100020000C944C020C944C020C94302F0C94043021
:100030000C945A290C944C020C944C020C944C02D3
:100040000C944C020C944C020C944C020C944C02F8
:100050000C944C020C94FD290C944C020C944C0210
:100060000C944C020C944C020C944C020C944C02D8
:100070000C944C020C944C020C944C020C944C02C8
:100080000C944C020C944C020C944C020C944C02B8
:100090000C944C020C944C020C944C020C944C02A8
:1000A0000C944C020C944C020C944C02170015005A
:1000B00008001A0014000A000900070016000400D6
:1000C0000500190006001B001D002C41E200E300A2
:1000D000E000E1000000000000000000000000005F
:1000E00000000000000000001C0018000C001200BE
:1000F00013000B000D000E000F002800110010006F
:100100003600520037002C422A00500051004F00A8
:1001100000000000000000000000000000000000DF
:10012000000000002200210020001F001E0022020B
:10013000210220021F021E026700540055005600D3
:1001400057002C412C002C0049002B00000000001F
:10015000000000000000000000000000000000009F
:100160002300240025002600270023022402250264
:1001700026022702350089002F1230122D122C4240
:10018000E000E300E2002A000000000000000000A0
:100190000000000000000000000000003E003D00E4
:1001A0003C003B003A0034003312330031001F02A0
:1001B000C75CC65CC55CC35CC25C2C412C002C00D7
:1001C00049002B00000000000000000000000000BB
:1001D00000000000000000003F004000410042001D
:1001E00043005000510052004F002E00C85CC95C13
:1001F0002F00300031002C42E000E300E2002A0032
:1002000000000000000000000000000000000000EE
:100210000000000000AE00AF00DA0281FFD9F1DB80
:1002200020A4A62EAF00A0C000A1C800AED580A813
:100230001FD300408D1420000000000000000000CB
:100240002A2B280000000000000000000000000031
:1002500000000029000000002C1E3420212224343C
:100260002627252E362D3738271E1F20212223240E
:1002700025263333362E37381F0405060708090AAA
:100280000B0C0D0E0F101112131415161718191A46
:100290001B1C1D2F3130232D350405060708090AC4
:1002A0000B0C0D0E0F101112131415161718191A26
:1002B0001B1C1D2F3130354C0000000000000000D9
:1002C000000000000000000000000000000000002E
:1002D0000000000000000000000000007E0F00D4BD
:1002E000FFFFFFC700000078100363006F006F007E
:1002F0006C00360034003400000014037400650004
:100300006C007A006F0032003000300030000000D6
:100310000403090409025B00030100A0FA090400B8
:100320000001030101000921110100012240000721
:10033000058103080001090401000203000000090F
:10034000211101000122220007058203200001077C
:100350000503032000010904020001030000000955
:100360002111010001227B000705840320000112F6
:1003700001000200000008434D4406010001020094
:10038000010660FF0961A1010962150026FF0095C1
:1003900020750881020963150026FF009520750865
:1003A0009102C005010902A10185020901A1000510
:1003B0000919012908150025019508750181020513
:1003C00001093009311581257F95027508810609DB
:1003D000381581257F950175088106050C0A3802BC
:1003E0001581257F950175088106C0C0050109802A
:1003F000A101850319012AB700150126B70095014F
:1004000075108100C0050C0901A101850419012A9C
:10041000A002150126A002950175108100C00501FA
:100420000906A101050719E029E71500250195082E
:10043000750181029501750881010507190029FFE1
:10044000150026FF00950675088100050819012989
:1004500005950575019102950175039101C011245F
:100460001FBECFEFDAE0DEBFCDBF12E0A0E0B1E00B
:10047000E8E5F5E602C005900D92AE31B107D9F777
:1004800025E0AEE1B2E001C01D92A138B207E1F76C
:100490000E94A0160C9481320C940000A5E0B0E0FC
:1004A000E4E5F2E00C9402326B837C838D838C81D3
:1004B0009D81892B21F0CA0189238F3F31F480E08F
:1004C00081702596E2E00C941E328B81F9CF409129
:1004D00023015091240160912501709126018091A2
:1004E00027010E944E028823A1F0109225010E944C
:1004F000BA298160782F909327018093260140913B
:1005000023015091240160912501809127010E94CF
:100510005B0540911E0150911F0160912001709177
:100520002101809122010E944E028823A1F01092A5
:1005300020010E94BA298160782F90932201809334
:10054000210140911E0150911F0160912001809175
:1005500022010E945B054091190150911A0160919E
:100560001B0170911C0180911D010E944E02882385
:10057000A1F010921B010E94BA298160782F9093FC
:100580001D0180931C014091190150911A01609145
:100590001B0180911D010E945B0540911401509147
:1005A00015016091160170911701809118010E9448
:1005B0004E028823A1F0109216010E94BA29816090
:1005C000782F909318018093170140911401509156
:1005D000150160911601809118010E945B05409100
:1005E0000F015091100160911101709112018091E1
:1005F00013010E944E028823A1F0109211010E9463
:10060000BA298160782F9093130180931201409151
:100610000F015091100160911101809113010E940E
:100620005B0540910A0150910B0160910C017091A2
:100630000D0180910E010E944E028823A1F01092BC
:100640000C010E94BA298160782F90930E0180934B
:100650000D0140910A0150910B0160910C018091B4
:100660000E010E945B0540910501509106016091C9
:10067000070170910801809109010E944E028823B0
:10068000A1F0109207010E94BA298160782F9093FF
:100690000901809308014091050150910601609184
:1006A0000701809109010E945B0540910001509172
:1006B00001016091020170910301809104010E9487
:1006C0004E028823A1F0109202010E94BA29816093
:1006D000782F909304018093030140910001509181
:1006E000010160910201809104010E945B0508955F
:1006F00081112CC081E06623B1F0809320010E941B
:10070000BA298160782F9093220180932101409132
:100710001E0150911F0160912001809122010E94D1
:100720005B0581E00895809325010E94BA298160CC
:10073000782F9093270180932601409123015091B7
:1007400024016091250180912701E9CF813041F595
:10075000662399F0809316010E94BA298160782F50
:100760009093180180931701409114015091150145
:100770006091160180911801D2CF80931B010E94D5
:10078000BA298160782F90931D0180931C014091BC
:10079000190150911A0160911B0180911D01BFCF79
:1007A000823049F581E0662399F080930C010E9424
:1007B000BA298160782F90930E0180930D014091AA
:1007C0000A0150910B0160910C0180910E01A7CF9D
:1007D000809311010E94BA298160782F90931301B0
:1007E0008093120140910F0150911001609111010D
:1007F0008091130194CF833009F093CF81E0662379
:1008000099F0809302010E94BA298160782F909319
:100810000401809303014091000150910101609116
:100820000201809104017BCF809307010E94BA29C5
:100830008160782F90930901809308014091050110
:1008400050910601609107018091090168CF83E012
:10085000089581E0089581E008950E942B04089591
:1008600008950E9430040895A5E0B0E0EAE3F4E0C2
:100870000C94013249835A833091250289819A81EF
:10088000311119C0662399F0222389F00E94650A6C
:10089000182F682F89819A810E94410A69817A8183
:1008A000812F0E9484232596E3E00C941D320E9440
:1008B000530A182FF3CF0E94650A69817A81F1CF1C
:1008C000FC01262F408151816281738184810E94C5
:1008D0003404089581E00895CF93DF93EC0160E044
:1008E0000E946004BE010E943104DF91CF910895FF
:1008F000E1E0F0E0DF0102C0AA0FBB1F6A95E2F75A
:10090000BD01DF0102C0AA0FBB1F4A95E2F76A2BA7
:1009100001C0EE0F2A95EAF7962F9823961302C08E
:100920008E2B0895E0958E230895242F462F682F4F
:1009300080913E020E9478040E94A10908950E94BD
:100940006E1208950E947112089508950E9433094D
:100950000E94A5042FEF84E39CE02150804090404A
:10096000E1F700C0000008950E94A6040E94212A19
:1009700008950E94A6040E94322A08950F931F939F
:10098000CF93DF938C0161E00E946004EC01B80119
:100990000E94ED1B811106C080E0DF91CF911F9175
:1009A0000F910895B801CE010E942D048823A1F370
:1009B000B801CE010E94CA24882371F3B801CE0188
:1009C0000E940A1F882341F3B801CE010E943C24F3
:1009D000882311F3F8018281882361F0CA35FDE58F
:1009E000DF0701F158F4C115ECE5DE0791F0CE3DCB
:1009F000DC4591F0C8010E942904CFCFCC358DE5AC
:100A0000D80769F090F0C73ADD45A1F70E94B90414
:100A1000C3CF0E94B404C0CF0E941E0FF7CF0E9424
:100A2000580EE8CF0E94620EE5CF0E94660EE2CF1C
:100A30000E9437290E9439050E94B21E0E94B219F5
:100A400008950E943D050E943C29089508950E9442
:100A50002605089581E008950E942A0508950895C5
:100A6000CF93C82F0E9427058C2F0E942C05CF9171
:100A7000089580E00E94300508950E945D280E943C
:100A800030050895CF930E945D28C82F80912002E1
:100A90008C1779F0C09320020E94C629609321022E
:100AA0007093220280932302909324028C2F0E9441
:100AB0003005CF910895ABE0B0E0E1E6F5E00C94AD
:100AC00002324F83588769877A878B8761110E942A
:100AD000A30D1E821D8285E0FE013796DE01119670
:100AE00001900D928A95E1F78C819D81892B61F4AB
:100AF00049815A816B817C818D819E810E94CC0CC1
:100B00002B96E2E00C941E3289819A8189238F3FD3
:100B100079F3CE0101960E946A048111E9CFF0CFEA
:100B2000FC01808191810E94920A0895A6E0B0E0C4
:100B3000ECE9F5E00C940032082F162F0E94391AC8
:100B400029834B835C836D837E83002369F0312B83
:100B50004981532F6B817C818D819E810E94541A23
:100B60002696E4E00C941C3210953123F1CFCF93FC
:100B7000C82F8823C9F08238C9F40E945D2881FDFE
:100B800013C089E30E945B0D0E94C40D2FEF87EE16
:100B900093E0215080409040E1F700C0000089E3DD
:100BA0000E94630D0E94C40DCF9108958338A1F473
:100BB0000E945D2880FDF8CF83E50E945B0D0E94B6
:100BC000C40D2FEF81EE94E0215080409040E1F77A
:100BD00000C0000083E5E4CF8438A1F40E945D28C2
:100BE00082FDE2CF87E40E945B0D0E94C40D2FEFCF
:100BF00081EE94E0215080409040E1F700C0000079
:100C000087E4CECF8CEF8C0F813A90F46C2F8091DB
:100C10002801909129010E94C828882329F08C2F4F
:100C20000E94630D0E94C40D8C2F0E945B0DBACFF1
:100C300080E28C0F883048F4C77081E001C0880FD3
:100C4000CA95EAF70E94860DADCFEBE5EC0FE330D5
:100C500040F4F0E0E754FE4F808190E00E948A2843
:100C6000A3CFE8E5EC0FE73150F4F0E0EE0FFF1F03
:100C7000E557FE4F808191810E94A02895CFC03F0B
:100C800008F492CF8C2F0E9424170E94F7178CCF64
:100C9000882309F455C0823879F40E945D2881FFC9
:100CA0004FC089E30E945B0D0E94C40D89E30E943E
:100CB000630D0E94C40D0895833859F40E945D2885
:100CC00080FF3EC083E50E945B0D0E94C40D83E55A
:100CD000EECF843859F40E945D2882FF31C087E44A
:100CE0000E945B0D0E94C40D87E4E1CF9CEF980F3A
:100CF000913AE8F290E2980F983050F4877091E0C2
:100D000001C0990F8A95EAF7892F0E948C0DD1CFE7
:100D10009BE5980F933028F490E080E00E948A28A9
:100D2000089598E5980F973128F490E080E00E94AC
:100D3000A0280895803F20F00E947E170E94F71798
:100D400008951F93CF93DF93182FEB010E94B705EF
:100D5000209739F4812F0E944806DF91CF911F918F
:100D600008958FE99FE00197F1F700C000002197F7
:100D7000EFCF70E060E0893311F460E570E00E942D
:100D8000A1060895882321F00E94860D0E94C40DBB
:100D90000895882321F00E948C0D0E94C40D0895AF
:100DA000B0E0A0E0E6EDF6E00C94FB316C01D62F4C
:100DB000C72FFC011281F580F2949FE0F9220E9476
:100DC0007C0DE82E8823B9F0E12E1123A1F08C2FA1
:100DD000807F803421F080E28D0F8830D0F08091C8
:100DE0004D0382FF16C082E00E94270E0E947C0DF8
:100DF00091E0E82EE926BC2EB2948FE0B822FBE009
:100E0000FB1508F468C0EB2DF0E0ED57FD4C0C9499
:100E1000E531E12CF0CF0C2F0F70C07F11F002955F
:100E2000007F112399F0002359F080E28D0F883064
:100E300010F0D11107C0802F0E94860D0E94C40DB2
:100E40008D2F41C0802F0E94960DF8CF8D2F0E94CC
:100E50004806002309F43FC080E28D0F883010F06F
:100E6000D11104C0802F0E948C0D03C0802F0E94DE
:100E70009C0D0E94C40D2FC00C2F0F70C07FC0327C
:100E800011F00295007FDD2381F0D13009F465C0B7
:100E9000112309F46FC0FF2009F465C0F6018581B4
:100EA00080FFCECF8F7085835EC080914D0382FD21
:100EB00034C0112359F0002329F0802F0E94860DA1
:100EC0000E94C40D80E00E94B70505C080E00E942A
:100ED00048060111C7CF2B2D2850330B2430310584
:100EE00020F40E945D280E943005EE2089F00E94C7
:100EF000780D80FD0DC0F60112820E94720D0E94D5
:100F0000B509C6010E94F3080E94720D0E94C10932
:100F1000CDB7DEB7E9E00C941732112389F0F11058
:100F200006C00E94A60D802B0E94C206D4CF21E0ED
:100F3000F212F7CF0E94A60D802B0E94AD0DCBCFF1
:100F4000F11006C00E94BA0D802F0E94C906C3CFBF
:100F500031E0F31609F4BFCFF5CF112331F085E06E
:100F60008F1508F4B8CF802FDFCF94E09F1508F4D9
:100F7000B2CFEACFFF2041F3D93349F4FFEF27EE98
:100F800033E0F15020403040E1F700C000008D2FE9
:100F90000E944806A0CF8C2F86958695837069F0B5
:100FA000813009F098CF8D2F9C2F9370111102C0C2
:100FB00090E080E00E94A0288ECF8D2F9C2F937010
:100FC000111102C090E080E00E948A2884CF8D2F0A
:100FD000112391F00E942417ED2FE45FFF0BE53001
:100FE000F10568F461E070E001C0660FEA95EAF788
:100FF000812F0E9496056FCF0E947E17EDCF0E9431
:10100000F71769CF8C2F837079F5111164CF4D2FAD
:10101000429546954770440F440F8D2F8F70042ED4
:1010200001C0880F0A94EAF72D2F2071D4FF07C062
:101030002FE030E001C0220F4A95EAF72095C695CF
:10104000C695C370822BC23049F058F4C13019F0F4
:101050000E948F0940CF0E9489093DCF0E949509C7
:101060003ACF0E94860937CF8695112311F08C2F35
:101070008170882309F42FCF4D2F429546954770F4
:10108000440F440F8D2F8F70042E01C0880F0A94D7
:10109000EAF72D2F2071D4FF07C02FE030E001C008
:1010A000220F4A95EAF72095C695C695C370822B04
:1010B000C23049F058F4C13019F00E94E0090BCF5A
:1010C0000E94DA0908CF0E94E60905CF0E94A10913
:1010D00002CFCF70112329F08C2F0E94B5098D2FDC
:1010E00023CF8D2F0E94C9068C2F0E94C109F3CEF9
:1010F000D23F51F160F4D03FB9F0D13F81F01123DC
:1011000009F449C0F1109CCE8C2F8F7121C0D33FC0
:1011100011F1D43FA1F780914D0382FD26C08C2FA1
:101120008F71112311F314C0112349F0F4E0FF155E
:1011300008F4D1CE8C2F8F710E94CE09CCCE25E041
:101140002F1508F4C8CEF6CF8C2F8F711111CDCF8B
:101150000E94B509C0CE112329F08C2F8F710E94F7
:10116000AC09B9CE0E94A809B6CE112349F0CF71BF
:101170008C2F0E94B50963E08C2F0E94090EABCE24
:1011800081E00E94270E31E03F1508F0A4CE82E0F6
:101190000E94270EA0CEFF2059F0D93309F0F7CED8
:1011A0008FEF97EEE3E081509040E040E1F7EDCE25
:1011B0008C2F8F719ACF0F931F93CF93DF93EC01F6
:1011C000688179818A810E949D0A8C010E94EC09C4
:1011D0000E948509B801CE010E94D006DF91CF910F
:1011E0001F910F910895CF93DF93EC018B819C8128
:1011F000892B29F08881998189238F3F51F4DF91D0
:10120000CF910895CE010E94DB08CE010E946C04AC
:10121000F6CFCE010E94BE048111F4CF0E947C0D56
:10122000882369F38A81882351F380914D0382FFDB
:10123000E6CF82E00E94270EE2CF90E080E00E949D
:101240008A2890E080E00E94A0280E94A30D0E94BE
:10125000C40D0E9413180E94F71708950E946B0D89
:101260000E941D0908950E94930D0E942E09089561
:1012700092959F70963091F058F4925F9F709230E3
:1012800058F4803F19F030F4883E30F481E008953E
:101290009A5FF4CF843FD1F380E00895883EB0F3A5
:1012A000813FD1F7F3CFFC0183819481892B29F011
:1012B0008081918189238F3F11F480E0089580819E
:1012C00091810E94920A0E9438090895A5E0B0E039
:1012D000ECE6F9E00C9402322596E2E00C941E3222
:1012E000A6E0B0E0E6E7F9E00C9402322696E2E0F0
:1012F0000C941E3208950E947A0908950E947B0979
:1013000080933F020E941D09089508950E947E095E
:10131000089590913F02892B0E947E090895909133
:101320003F0289230E947E09089590913F028927F8
:101330000E947E0908950E947A0908950E949B09DF
:1013400008950E949E0980933E020E941D090895FF
:1013500080E00E94A109089591E001C0990F8A954B
:10136000EAF7892F0E94A109089521E030E001C029
:10137000220F8A95EAF780913E02822B0E94A109F2
:10138000089521E030E001C0220F8A95EAF7209508
:1013900080913E0282230E94A109089521E030E05D
:1013A00001C0220F8A95EAF780913E0282270E94AF
:1013B000A109089590913E02892B0E94A1090895E8
:1013C00090913E0289230E94A109089590913E02C6
:1013D00089270E94A10908950895262F277091E07A
:1013E00001C0990F2A95EAF723E0769567952A952B
:1013F000E1F7FB01EE0FFF1FE60FF71FE40FF51FEC
:1014000050E040E0682F70E08191DF0111979B016F
:10141000042E02C0369527950A94E2F72170219593
:101420002827292328272C934F5F5F4F43305105EE
:1014300059F70895A82FA77023E0969587952A95C8
:10144000E1F7FC01EE0FFF1FE80FF91FE60FF71F92
:1014500050E040E080E0219130E00A2E02C0369555
:1014600027950A94E2F721703327042E01C0220F3A
:101470000A94EAF7822B4F5F5F4F4330510559F7CB
:101480000895262F9C3070F4853060F4682F70E04A
:1014900085E0989F600D711D112446E252E0822F75
:1014A0000E94ED090895292F9C3068F4853058F486
:1014B00090E066E272E035E0239F800D911D1124DB
:1014C0000E941A0A089580E00895CF92DF92FF9259
:1014D0000F931F93CF93DF936C0100913E02809195
:1014E0003F02082BC7E0D0E010E0FC2EC8010C2E14
:1014F00002C0959587950A94E2F780FD0CC021976C
:10150000A0F7F12C8F2DDF91CF911F910F91FF90BC
:10151000DF90CF900895B6018C2F0E940C11019797
:1015200071F3F0CFCF93DF93EC010E94650ABE0107
:101530000E940C11DF91CF9108951F93CF93DF93F9
:10154000EB0190912502992339F0CB010E94920A78
:10155000DF91CF911F910895882369F0CB010E94FC
:10156000650A182F682FCE010E94410ABE01812F03
:101570000E940C11EDCFCB010E94530A182FF6CF19
:101580001F93CF93DF93C091400216E080914102F8
:101590008C1304C0DF91CF911F910895D0E01C9F60
:1015A000F0011D9FF00D1124EE5BFD4F4081518134
:1015B00062817381848195810E9470092196C77030
:1015C000E5CF409172025091730260917402709164
:1015D000750280917602909177020E9470090895B9
:1015E0001F93CF93DF9380917702807F09F049C0EA
:1015F00080917402882309F444C080914002C09114
:1016000041026091720270917302A0917502B091D3
:101610007602D62FD72316E0C81799F190E01097DD
:1016200011F0DF3F19F401968770F6CF189F9001F3
:10163000199F300D1124F901EE5BFD4F41814713D5
:10164000F2CF40814613EFCF42814111ECCF43816D
:1016500054814A1B5B0B483C510528F78091770267
:101660008F70806180937702F901E95BFD4F808183
:101670008F708061808382E792E00E94F3080E946D
:10168000C00ADF91CF911F910895A1E1B0E0EBE492
:10169000FBE00C94FA318C0185E0F801DE011D9627
:1016A00001900D928A95E1F7F801E28082E7C82E59
:1016B00082E0D82E609175027091760261157105F5
:1016C00009F44EC19091720220917302892F8223F6
:1016D0008F3F09F445C140815181A380B480F090CF
:1016E0007402F501E61BF70BFF2009F4EAC08091B4
:1016F0007702382F307FE83CF10508F0A3C03111A4
:101700006DC0FE2C251316C0941314C0E11012C036
:101710008F708061809377020E94E10AC6010E9467
:10172000F30880917702F80185838F2D6196EAE0B6
:101730000C941632A114B10429F0842F85238F3F15
:1017400009F027C180E0F82FF170DF2E80FF3CC048
:10175000809140022091410236E0821315C04D87EE
:101760005E878D859E850E94920A292F22952F7073
:101770002230F0F0243018F59F70F1F0F8019581D7
:10178000907FD1F4D12C1EC090E0389FF001399F9A
:10179000F00D1124EE5BFD4F6181651306C0608181
:1017A000641303C06281E6120FC001968770D5CF23
:1017B0009F7011F0882331F3805E883018F3C801E0
:1017C0000E94F308FD2CB1CFEE2009F4AECF80913A
:1017D0007702816080937702F12CA7CF251306C092
:1017E000941304C0F801EE2009F487C0C8010E94D8
:1017F0005309882319F1EE2009F180917702803294
:1018000070F0209172023091730238872F8319860D
:10181000BB86AA868C87CE0107960E94F30886E0D5
:10182000F801A2E7B2E001900D928A95E1F70E94DB
:10183000F00A0E94E10AFF24F39477CFC8010E94C6
:10184000F308F9CF311113C07A2DB98AA88A6E2D09
:1018500089890E94660982E792E00E94F30886E087
:10186000F60111928A95E9F70E94E10AB5CF251396
:101870000FC094130DC0E1100BC0F8018583C8019F
:101880000E94F30886E0F60111928A95E9F74DCFA0
:10189000C8010E945309882389F2EE2079F28091D1
:1018A0007702803208F4BBCF20917202309173022C
:1018B0003A8329831B82BD82AC828E83CE0101963E
:1018C000ACCFE83CF10508F03EC0FE2CEE2009F458
:1018D000B5CF25132AC0941328C08091770280FDCC
:1018E0001BC0982F907FC1F0F8018583903F31F0A5
:1018F000982F907F905F8F70892B8583C8010E94FD
:10190000F30886E0F801A2E7B2E001900D928A9513
:10191000E1F70E94E10A09CF86E0F801A2E7B2E010
:1019200001900D928A95E1F700CFC8010E945309FA
:10193000811175CF80917702816080937702C80111
:101940000E94F308F2CE7A2DB98AA88A6E2D898971
:101950000E94660986E0F60111928A95E9F7D9CFCF
:10196000EE2009F46BCFC8010E945309F82E88239A
:1019700009F464CF86E0F801A2E7B2E001900D928D
:101980008A95E1F782E792E00E9490050E94F00AB2
:10199000C0CF81E08E25D7CEACE0B0E0E2EDFCE038
:1019A0000C9401324F83588769877A878B879C878D
:1019B000CE0107960E94450B882369F08A859B8596
:1019C000892B39F04F815885842F85238F3F09F06B
:1019D0006BC016E05FC086E0FE013796DE0111960F
:1019E00001900D928A95E1F78A859B85892B89F371
:1019F0008F81988589238F3F61F32091410230E0E8
:101A0000C90101968770992740914002481719062D
:101A100071F40E943309109241021092400286E054
:101A2000E2E7F2E0DF011D928A95E9F7D2CF96E076
:101A3000929FD001939FB00D1124AE5BBD4FFE016C
:101A4000319601900D929A95E1F7809341020E94A0
:101A5000C00ABFCF819FC00111248E5B9D4F0E94A1
:101A6000450B8823E9F0E09140021E9FF00111240C
:101A7000EE5BFD4F4081518162817381848195814C
:101A80000E9470098091400290E00196877099272A
:101A90008093400280914002909141028913DACFF5
:101AA0002C96E3E00C941D3269857A858B859C85A4
:101AB0000E9470098ECF682F809128019091290192
:101AC0000E94FE280895682F809128019091290195
:101AD0000E940129089580912801909129010E9476
:101AE00004290895809180028595859585950895AE
:101AF000809180028770089590918002977081E0B4
:101B000009F480E0089580918B02089590918B02F2
:101B1000892B80938B020895809590918B02982356
:101B200090938B02089510928B02089590918A02EF
:101B3000892B80938A020895809590918A02982338
:101B400090938A02089510928A02089580918102EA
:101B5000089508950E94A90D089590914D0392FF54
:101B600008C090918102981721F0809381020E9411
:101B7000AA0D089580918102882329F01092810294
:101B800080E00E94AA0D0895CF93DF93E091280191
:101B9000F091290180918B028083E0912801F091DE
:101BA0002901808190918A02892B80839091810202
:101BB000992381F0E0912801F09129018081892BFE
:101BC000808380912801909129010E94B62881117B
:101BD0000E94BA0DC0912801D091290148E050E03F
:101BE00068E772E0CE010E942932892B59F088E023
:101BF000FE01A8E7B2E001900D928A95E1F7CE01CF
:101C00000E947128DF91CF91089508950E94050EDA
:101C1000089590914D0392FF11C098E0899F900123
:101C20001124622B609380020E94B509809180028A
:101C30008595859585950E94060E08950E94B509A3
:101C400008951092800280E00E94060E08959091FF
:101C500080028095892380938002282F277091F439
:101C6000282F082E000C330B9217130659F0909171
:101C70004D0392FF07C08595859585950E94C10902
:101C80000E94210E089590914D0392FB222720F986
:101C9000281769F080FB92F990934D0380914C03D3
:101CA00090914D030E94950E82E00E94270E0895A8
:101CB00080914D0382FB882780F991E089270E945B
:101CC000430E089581E00E94430E089580E00E9433
:101CD000430E08956FEF7FEF90E080E00E946B323B
:101CE000089590E080E00E944732883E9E4F19F4AC
:101CF0000E94881B089580E0089582E090E00E9491
:101D00003F32089583E090E00E943F320895CF93E0
:101D100084E090E00E943F32C82F82E290E00E946F
:101D20003F32982F8C2FCF910895CF93C92F682FD2
:101D300084E090E00E944D326C2F82E290E00E949D
:101D40004D32CF910895AB01BC018FE090E00E942D
:101D50005F320895AB01BC0183E190E00E945F32E5
:101D6000089560E070E0CB010E94AA0E089560E043
:101D700070E0CB010E94A30E0E94B10E089568EEA0
:101D80007EEF90E080E00E946B3260E082E090E0C5
:101D90000E944D3260E083E090E00E944D3210924C
:101DA0003F0260E084E090E00E944D3264E082E215
:101DB00090E00E944D3260E085E090E00E944D325C
:101DC00060E086E090E00E944D326FEF87E090E0A7
:101DD0000E944D3240E050E0BA0188E090E00E945D
:101DE0005F3260E08DE090E00E944D3240E050E0D4
:101DF000BA0188E190E00E945F3260E087E190E004
:101E00000E944D3240E050E0BA018CE190E00E9427
:101E10005F3270E060E080E290E00E946B3240E070
:101E200050E0BA0188E190E00E945F3280E00E94B9
:101E3000A11B0E94D01B0E94B70E08950E94BF0EE6
:101E40000895682F8EE090E00E944D3208950E9420
:101E5000C6296093A2027093A3028093A402909378
:101E6000A50260939E0270939F028093A0029093BC
:101E7000A10208950E94C6296093A2027093A30252
:101E80008093A4029093A50260939A0270939B02A0
:101E900080939C0290939D020895089508950E9456
:101EA0004E0F089508950E94520F089586E392E11F
:101EB0000E9453280E944D0F0E944F0F08950E94C8
:101EC00055140895089508950E94620F0E94630FAB
:101ED00008950E9452120E942F0508950E94B12970
:101EE0000E94F6110E94E01B0E9470140E947B1356
:101EF0000E94690F0E94DC1C80E00E94371D0E9436
:101F000045210E947A140E948A190E94530F089555
:101F1000AAE0B0E0EEE8FFE00C94FA310E94D5139D
:101F20008EE8A82E82E0B82E750110E0F70101912D
:101F30007F01812F0E9474121F5F1C3009F441C081
:101F40000817A1F38091A60281FD0E947A120E94D7
:101F50005F0FC82E10E0812F0E947412082FF50128
:101F600081915F01081731F1D02ED826F12CEE2493
:101F7000E3948D2D8E21B1F0CC20A1F0FE821F8341
:101F800091E0802F8E2109F490E098870E94BA2971
:101F90008160782F9A8789874E815F8168858A85DD
:101FA0000E945B05F394EE0CF5E0FF12E2CFF50121
:101FB000319700831F5F1C3071F60E94270F11E0DC
:101FC00021C00813BFCF0E94BA298C0180918C02D6
:101FD00090918D0208171907A1F08FEF89838A83EA
:101FE0001B820E94BA298160782F9D838C8349814E
:101FF0005A816B818D810E945B0510938D02009345
:102000008C0210E00E9455140E94DA21082F8111E1
:102010000E943A0F0E94D21E111101C001110E94AC
:10202000961D0E9450180E94B2190E9442052A96DD
:10203000EAE00C941632CF93DF930E941111EC0169
:10204000811521E5920708F042C0811530E593071C
:1020500008F09FC0883E910530F5803E910508F05C
:1020600094C0883A910588F4853A910508F086C0B5
:102070008130910509F489C0009709F486C004975E
:1020800008F083C0D0E0C0E080C08F3B9105D0F75E
:10209000C85AD0E0CC0FDD1FC454DE4F0990D88160
:1020A000C02DD46472C0811540E2940750F4C1156C
:1020B00081E0D80708F069C0C03FD10518F3D065AA
:1020C00064C081159044F0F2DF70D06A5EC0811563
:1020D00035E5930718F5811544E5940708F085C0A8
:1020E000C11583E5D80708F06CC0C11522E5D207F9
:1020F00008F462C0CE018370992721E030E002C06D
:10210000220F331F8A95E2F7C695C69580E2C89FD5
:10211000E0011124C22BD32BDC6837C0811539E5CF
:102120009307A8F4811548E5940708F063C0C1152A
:1021300086E5D80708F0A6CF8C2F0E94B311C82FD0
:10214000D0E0DC2FCC27CC27DF71D0621EC08115F8
:102150002AE5920708F453C090568115904208F082
:1021600091CF8D2F8F710E94B31190E0982F882707
:1021700088279F719C012C2BE901E7CFC55AD0E03D
:10218000C651DE4FC881D0E0D064CE01DF91CF913F
:1021900008958370992721E030E002C0220F331F99
:1021A0008A95E2F7C695C69540E2C49FE0011124E6
:1021B000C22BD32BDD68E9CFDC2FCC27C16FD06ACF
:1021C000E4CFCE018370992721E030E002C0220FD6
:1021D000331F8A95E2F7C695C69540E2C49FE00199
:1021E0001124C22BD32BDA68D0CFD82FCC27C46FC1
:1021F000D06ACBCFD82FCC27C06FD06AC6CF8F7014
:102200000E94B31134E0D695C7953A95E1F7CF70A7
:102210009C2FEC01D069B9CF0E9484230E941B102F
:10222000089582389105B9F1B0F48133910509F42C
:102230007DC048F48932910509F46DC08A32910558
:1022400009F47BC008958533910509F45FC0893393
:10225000910509F10895833E9105D9F138F4803E46
:10226000910529F1823E910579F10895863E910507
:10227000D9F1873E910509F43EC0843E910541F5B0
:1022800020914D0321FF24C080914C0384FD19C08F
:1022900087EE90E0089520914C03237009F05AC016
:1022A00020914D0323FF14C089E290E0089520910E
:1022B0004C0320FD38C030914D0330FF09C024FF8E
:1022C00043C090E080E0089520914C0322FDF7CFB9
:1022D000089520914C0322FD3AC030914D0330FD0A
:1022E00039C024FFF5CFEDCF20914C0323FFF0CF71
:1022F00024FDE7CFCDCF20914C0323FD2EC030919C
:102300004D0331FFEECF84EE90E0089520914C0311
:1023100025FFDECFC9CF20914C0325FD21C02091A0
:102320004D0323FFD5CF89E390E0D2CF20914C031A
:1023300026FFCECF8AE290E0089520914C0326FF3D
:10234000C7CF81E390E0089583EE90E0089582EE98
:1023500090E0089580EE90E0089586EE90E0089574
:1023600085E390E0089590914C0392FF06C0282FDA
:1023700028712830F9F4877F846093FF06C0282FE6
:1023800028712831F1F4877E846120914D0320FF6C
:1023900006C0382F38713830D9F4877F816021FF2B
:1023A00006C0282F28712831D1F4877E816194FDE1
:1023B000877E0895282F24712430F9F68B7F88605A
:1023C000DCCF282F2471243101F78B7E8861DDCF8B
:1023D000382F3171313019F78E7F8860E0CF282F88
:1023E0002171213121F78E7E8861E1CF109248035F
:1023F0001092490310924A0310924B030895CF9212
:10240000DF92EF92FF926B017C010E9455148111C3
:102410000EC00E94C629C61AD70AE80AF90AC09255
:102420004803D0924903E0924A03F0924B03FF9095
:10243000EF90DF90CF9008950F931F930E94551453
:10244000882329F00E94C6291F910F9108950E94A8
:10245000C629009148031091490320914A03309105
:102460004B03600F711F821F931FEECF80E0089512
:102470000E946A0E08950E94D5138FE39CE901978C
:10248000F1F700C000000E94D51380E00E94741292
:1024900080FF04C00E9438120E94212A08950E94E1
:1024A0003B1208950E94710E811102C00E941E0FFE
:1024B0000E947D0E8093A6020E94870E90934D038A
:1024C00080934C030E944F120E94820E0E94860944
:1024D00080913E020E949E09089508950E946D1207
:1024E00008950E9467020895E82FF0E0E55AFC4F36
:1024F00080810895089580EA8A95F1F7089500C0D3
:1025000008950E947B12089508950E9484120895F0
:10251000A6E0B0E0EEE8F2E10C94FE310E94551422
:10252000F82E60916703882309F440C086E0E82E06
:102530008E010F5F1F4FF8018E2D11928A95E9F7DA
:10254000862F90E0B801855A9C4F0E9488148823FA
:10255000B9F080914E0390E046E050E0B801855A12
:102560009C4F0E94293221E02093A702892B91F4ED
:10257000F12C0E94A2048F2D2696E6E00C941A32CC
:102580008091A7028823A1F3F8011192EA94E9F758
:102590001092A702A0914E03B0E0A55ABC4F86E06E
:1025A000F80101900D928A95E1F7E3CF70E0655A4A
:1025B0007C4F80914E0390E0855A9C4F0E940F15EE
:1025C0000E948512D8CFF894E82FE295EF70F0E0E2
:1025D00031A1282F2F7081E090E001C0880F2A954B
:1025E000EAF7982F9095932391A392A1892B82A328
:1025F00078940895CF93DF93CAE2D1E089918F3F19
:1026000011F00E94E31281E0CF32D807B9F7CFE290
:10261000D1E089918F3F11F00E94E31281E0C53330
:10262000D807B9F7DF91CF910895B0E0A0E0EBE1D2
:10263000F3E10C94FC317C01162F042FC62FD0E05F
:10264000C65DDE4F28812F3F09F44CC0F894E22F7D
:10265000E295EF70F0E031A12F7081E090E001C0D1
:10266000880F2A95EAF7932F982B91A392A1809532
:10267000892382A378940E947F128FE2C82E81E082
:10268000D82EF701A7014A5F5F4FF12CE02EE094AE
:10269000D6019D916D0181919F01215031099F3F8C
:1026A00031F1692F62956F7070E0DB0190966C914B
:1026B00070E09F7002C0759567959A95E2F760FD8E
:1026C00016C0802BD9018C93FF24F394E417F507EF
:1026D000F9F688818F3F11F00E94E3126F2D812F50
:1026E0000E948112CDB7DEB7E8E00C9418328E213B
:1026F000D9018C93EBCFABE0B0E0E1E8F3E10C94CF
:1027000002328091350181112CC086E0E0E8F1E0D1
:10271000DE01119601900D928A95E1F7FE01319646
:10272000AFE2B1E0CE01079621912D93E817F907AA
:10273000D9F785E0E6E8F1E0DE01179601900D9209
:102740008A95E1F78F8180932A01888580932B01F8
:10275000898580932C018A8580932D018B858093B8
:102760002E018091350196E0811190E090936703EE
:1027700086E0891B80934E030E94FA128CE0EBE501
:10278000F3E0DF01982F1D929A95E9F7EFE4F3E06B
:10279000DF011D928A95E9F786E00E9417140E94D6
:1027A0009F042B96E2E00C941E32ACE0B0E0EBED1F
:1027B000F3E10C94FE318E010F5F1F4F8CE0F801A6
:1027C00011928A95E9F7F12CEE24E3944E2D6F2DAA
:1027D000C8010E941513F394EE0CF5E0FF12F6CF3A
:1027E0004CE050E0B8018FE493E00E94293221E0F0
:1027F000009709F420E0892B41F08CE0F801AFE468
:10280000B3E001900D928A95E1F76091670370E063
:10281000655A7C4F46E08FE493E00E941814182F0D
:102820000E948812812B2C96E6E00C941A320895AF
:10283000CF92DF92EF92FF920F931F93CF936C0191
:102840007B01042F222349F081E08093AA020E9499
:10285000BA299093A9028093A802C091AA02C1113B
:102860000AC0C0E08C2FCF911F910F91FF90EF9085
:10287000DF90CF9008958091A8029091A9020E94C4
:10288000D229059770F310E0A801B601C7010E9494
:102890002932892B41F0A801B601C7010E943632C6
:1028A0001092AA02DFCFC0E0FBCF8091AD02811170
:1028B00007C00E94B031882351F081E08093AD02BF
:1028C00081E09091AD02913009F080E0089582E0BE
:1028D0008093AD020E94AB31F3CF0E94551408954E
:1028E0000E946D14809335010E94551481110E943D
:1028F000BE1408950E945514811102C00E94C11493
:10290000089581E09091AE029A3008F080E0089539
:102910000F931F93CF93DF93EC018B018091AE0255
:102920008A30B8F4B801CE010E940C15C82F81116D
:1029300022C08091AE028F3FB9F40E94BA299093D1
:10294000AC028093AB028C2FDF91CF911F910F913E
:1029500008958091AB029091AC020E94D229843FED
:10296000914000F7C0E0EFCF8F5F8093AE028A30D6
:1029700020F7C1E0E8CF1092AE02E5CF0E94F12629
:1029800008950E94F4260895B0E0A0E0EAECF4E196
:102990000C94FD317901C82F880FDD0B41155105CD
:1029A000A9F0FE0193E0EE0FFF1F9A95E1F7EA5CB4
:1029B000FE4F8181928181559D4F208130E04217E9
:1029C000530708F49A01A9010E943632CE010E94F1
:1029D000DD27D82E8823D1F001151105B9F083E049
:1029E000CC0FDD1F8A95E1F7FE01EA5CFE4F4381C3
:1029F00050E00417150708F4A801CA5CDE4F6C818B
:102A00007D8161557D4FC7010E9436328D2DCDB736
:102A1000DEB7E7E00C9419320E94281608950E9450
:102A200049160895A4E0B0E0E8E1F5E10C94003225
:102A30006091CF027091D0028091D1029091D20228
:102A40000E94E12911E0643671058105910518F1B4
:102A50000E941C126E5F7F4F8F4F9F4F69837A8356
:102A60008B839C8310E000E030E020E044E050E005
:102A7000BE016F5F7F4F84E00E94C414182F88232B
:102A800051F00E94C6296093CF027093D0028093C8
:102A9000D1029093D202812F2496E4E00C941C3250
:102AA000A1E0B0E0E6E5F5E10C94F731762E4A01BD
:102AB0005901680101E010E09E012F5F3F4F50E097
:102AC00040E070E060E00E94C414182F882399F160
:102AD000F40160817181828193810E94E1296436D1
:102AE00071058105910500F18701950150E040E0F5
:102AF00070E060E0872D0E94C414B82EB701C601B3
:102B00000E94DD1C11E09981981310E01B2139F01F
:102B10000E94C629F4016083718382839383812F8D
:102B20002196EDE00C941332B701C6010E94DD1C22
:102B300099818913D9CFA701B601C5010E94363208
:102B4000EECFA2E0B0E0E7EAF5E10C94FE310091AF
:102B5000ED011091EE01085F1F4F82E0E82EF12C8D
:102B60009E012F5F3F4F4BEC52E063E082E00E94FA
:102B70005015182F882321F0CE0101960E946A2259
:102B8000812F2296E6E00C941A32A6E0B0E0EBEC3E
:102B9000F5E10C94FC316B010091ED011091EE0117
:102BA0000F5F1F4F86E0E82EF12C9E012F5F3F4FF5
:102BB00047EC52E061E080E00E945015882349F024
:102BC00096E0FE013196A1ECB2E001900D929A954B
:102BD000E1F796E0E1ECF2E0D60101900D929A95D2
:102BE000E1F72696E8E00C941832B0E0A0E0EBEFB5
:102BF000F5E10C94FA317C015B016A010E948114B9
:102C000001E010E0882311F00AE010E0C1E0D0E01C
:102C1000B501C701F6010995811104C021960C1771
:102C20001D072CF4CDB7DEB7EAE00C941632CC9F2A
:102C30009001CD9F300D300D112490E080E045E3F0
:102C40004A95F1F70000019682179307C1F7E0CF8C
:102C50000F931F93CF93DF93EC018B0145EC55E16C
:102C60000E94F515811106C080E0DF91CF911F9180
:102C70000F91089541EA55E1B801CE010E94F51582
:102C8000882391F342E155E1B801CE010E94F51588
:102C9000ECCFA2E0B0E0EFE4F6E10C94003200915A
:102CA000ED011091EE01C801019626E0FB01DC0167
:102CB00001900D922A95E1F766E070E00E94DD1C1C
:102CC000F8018083CE0101960E945F2289819A815A
:102CD000F8019187808762E070E0CE0101960E9442
:102CE000DD1CF80187836285738584859585009155
:102CF000BD021091BE022091BF023091C002601748
:102D000071078207930751F06093BD027093BE0272
:102D10008093BF029093C0020E94FF112296E4E0CC
:102D20000C941C320E940A2C0E946E0F0E94172CD9
:102D300008950E941C2C0E94880F0E94362C089532
:102D40000E9453290E94F02B0E94560F0E94921657
:102D50000E9499160E94640FFBCF8091D90280FFD8
:102D60000DC06091630170E0660F771F60387105D8
:102D700070F56115710569F1862F089581FF07C00F
:102D80006091630184E0689FB0011124EFCF6091EE
:102D9000630182FD0AC08091D8028823A9F02091A6
:102DA000620160916301821710F088E0ECCF869F8A
:102DB000C001112433E0880F991F3A95E1F7622F83
:102DC00070E00E94D131D2CF68E070E0D5CF8FE7BC
:102DD000089581E008958091D90280FF0CC0609130
:102DE0005F0170E07595679575956795611571053B
:102DF00049F1862F089581FF06C060915F0170E060
:102E000075956795F3CF60915F0182FD0BC090913E
:102E1000D7029923A1F060915E0180915F0196171E
:102E200038F0682F70E06038710500F38FE708957F
:102E3000899FC001112470E00E94D131F4CF61E07C
:102E400070E0D7CF81E00895803F31F40E94AD1645
:102E500081958093DD020895813F19F40E94AD169B
:102E6000F8CF823F31F40E94AD1681958093DC0249
:102E70000895833F19F40E94AD16F8CF893F29F4D5
:102E80000E94EB168093DE0208958A3F21F40E948F
:102E9000EB168195F7CF8B3F31F40E94EB168195AD
:102EA0008093DF0208958C3F19F40E94EB16F8CF4F
:102EB0009CE0980F953070F4845F990B21E030E02E
:102EC00001C0220F8A95EAF78091DB02822B809362
:102ED000DB0208958D3F31F48091D90281608093A7
:102EE000D90208958E3F21F48091D9028260F7CFF4
:102EF0008F3FB9F78091D9028460F1CF4091DC0215
:102F0000803F59F48091DD0287FF0DC01092DD02F1
:102F100041110BC01092D80208C0813F81F480910A
:102F2000DD0218169CF3442381F08091DE0290911B
:102F3000DF02892B09F05AC01092D7020895823F10
:102F400049F447FFF0CF1092DC028091DD0281113D
:102F5000ECCFE0CF833F19F41416ACF3E4CF90919B
:102F6000DE02893F29F41916F4F61092DE02DBCF57
:102F70008A3F19F497FFD7CFF8CF9091DF028B3FAC
:102F800029F497FFD0CF1092DF02CDCF8C3F19F4F8
:102F90001916CCF3C8CF9CE0980F953090F4845F5D
:102FA000990B21E030E0B90102C0660F771F8A95C6
:102FB000E2F7CB0180959091DB0289238093DB02BD
:102FC000B2CF8D3F31F48091D9028E7F8093D902A8
:102FD000AACF8E3F21F48091D9028D7FF7CF8F3F0A
:102FE00009F0A1CF8091D9028B7FF0CF08950E9484
:102FF000BA299C019091DC028091DD02982B21F08E
:103000003093D6022093D5029091DE028091DF02A8
:10301000982B21F03093D4022093D3028AED92E0D2
:103020000E947C28089586E0EAEDF2E0DF011D921F
:103030008A95E9F71092D8021092D7021092D9021D
:103040000895A6E0B0E0E7E2F8E10C94023286E0F1
:10305000EAEDF2E0DE01119601900D928A95E1F71A
:1030600029813A814B815C816D817E8180E090E095
:103070002696E2E00C941E32FC01828181110EC082
:10308000838181110BC08481811108C091E0858109
:10309000811101C090E0892F8170089581E0FCCFFB
:1030A000A6E0B0E0E6E5F8E10C94013286E0EAED56
:1030B000F2E0DE01119601900D928A95E1F71092EF
:1030C000DC021092DD021092DE021092DF028B8190
:1030D0009C81892B89F08091D5029091D6020E9423
:1030E000D229AC019091D8029923C9F18091640151
:1030F0008417150608F440C08D819E81892B91F0BC
:103100008091D3029091D4020E94D229AC01909177
:10311000D702992309F471C08091600184171506C4
:1031200008F479C0BE016F5F7F4F8AED92E00E9484
:103130000B29811105C08AED92E00E943C18811193
:103140000E94F71786E0FE013196AAEDB2E00190E9
:103150000D928A95E1F72696E3E00C941D322091BA
:1031600065018AE0289F900111242417350720F675
:103170009F5F9093D80202C09F3FD1F71B8111231C
:1031800059F00E94AD169FEF11160CF491E0899F43
:10319000802D11248093DC021C81112359F00E94A0
:1031A000AD169FEF11160CF491E0899F802D11242C
:1031B0008093DD023091DC02332309F49DCF20910E
:1031C000DD02222309F498CF45EB3403C00111241A
:1031D000992359F09093DC0245EB240390011124CC
:1031E000332339F03093DD0287CF81E08093DC0216
:1031F000F3CF81E08093DD027FCF209161018AE0EF
:10320000289F900111242417350708F08BCF9F5F6A
:103210009093D70202C09F3FD1F71D81112359F02F
:103220000E94EB169FEF11160CF491E0899F802D00
:1032300011248093DE021E81112359F00E94EB16A7
:103240009FEF11160CF491E0899F802D112480933B
:10325000DF023091DE02332309F464CF2091DF02D4
:10326000222309F45FCF45EB3403C00111249923D5
:1032700059F09093DE0245EB24039001112433238F
:1032800039F03093DF024ECF81E08093DE02F3CF3E
:1032900081E08093DF0246CF08950895ACE0B0E06E
:1032A000E4E5F9E10C9402324F83588769877A8705
:1032B0008B879C8786E0FE013796DE011196019090
:1032C0000D928A95E1F729813A814B815C816D816C
:1032D0007E8180E090E02C96E2E00C941E32ACE01F
:1032E000B0E0E5E7F9E10C9402320E944E1980E06B
:1032F00090E02C96E2E00C941E3221E030E001C018
:10330000220F4A95EAF7662311F0822B0895209543
:1033100082230895E091EF01F091F00109950E9458
:103320004C190E944D19089564EE72E08AEE92E005
:103330000E940B29882321F08AEE92E00E947C28CB
:103340001092EC021092ED021092EE021092EF0237
:1033500086E0EAEEF2E0A4EEB2E001900D928A95EA
:10336000E1F70895A2E1B0E0E8EBF9E10C94023254
:103370006091E0027091E1028091E2029091E3029B
:103380000E94E129672B682B692B09F46EC00E940B
:10339000C6296093E0027093E1028093E202909369
:1033A000E302E091F101F091F2014091EA025091C3
:1033B000EB026091EC027091ED028091EE0290912F
:1033C000EF0209952093EA023093EB024093EC025E
:1033D0005093ED026093EE027093EF0286E0EAEE06
:1033E000F2E0DE011D9601900D928A95E1F786E0EC
:1033F000FE013D96DE01119601900D928A95E1F74E
:1034000086E0FE013196DE01179601900D928A95B5
:10341000E1F786E0FE013796AAEEB2E001900D9248
:103420008A95E1F74091EA025091EB026091EC023B
:103430007091ED028091EE029091EF020E946F195F
:103440002093EA023093EB024093EC025093ED029A
:103450006093EE027093EF020E9421188091EB02BC
:10346000832B8093EB020E9494196296E2E00C9405
:103470001E32A6E0B0E0EFE3FAE10C94023286E0FF
:10348000EAEEF2E0DE01119601900D928A95E1F7E5
:1034900029813A814B815C816D817E8180E090E061
:1034A0002696E2E00C941E32A6E0B0E0EAE5FAE1EE
:1034B0000C94023249835A836B837C838D839E8371
:1034C00086E0FE013196AAEEB2E001900D928A9557
:1034D000E1F72696E2E00C941E32FC012081318156
:1034E0002038310534F02F573109318320838FE79D
:1034F000089520388FEF380734F421583F4F318337
:10350000208380E80895822F118210820895A1E11E
:10351000B0E0EDE8FAE10C94FF314C87888B998B91
:10352000152FF62E072FCE01079625E0FC011192EC
:103530002A95E9F72091F6022A3008F03FC00E9450
:103540004B1B892B09F060C01092F6028B8540E07E
:1035500087FD52C060E0812F0E947D19182F809155
:10356000F4029091F502009709F040C046E06F81A7
:1035700088850E94621B2091F2023091F302820F33
:10358000931F9093F3028093F20246E069858A8547
:103590000E94621B2091F0023091F102820F931F72
:1035A0009093F1028093F00282EF92E00E946D1AF4
:1035B000F82E80EF92E00E946D1A082F1D87FE867C
:1035C0000F8786E0FE013C96DE01119601900D9278
:1035D0008A95E1F729813A814B815C816D817E81F9
:1035E00080E090E06196E5E00C941B3201979093A7
:1035F000F5028093F402E2CF61E0812F0E947D19F1
:10360000182F84E190E0F3CF8091F6028F5F8093D2
:10361000F602D4CF80916601909167012DE7AC014D
:10362000249FC001259F900D112408959C01893F7E
:10363000910538F481E090E09093670180936601F2
:103640000895EDE7F0E0BF010E94BD31A901481BDC
:10365000590BCA01BF010E94BD317093670160938D
:1036600066010895A4E0B0E0E8E3FBE10C940032C9
:1036700089836A834B832C8304E610E024E030E0E6
:10368000AE014F5F5F4F60E084E10E9423262496E5
:10369000E4E00C941C320F931F9304E610E025E045
:1036A00030E0AC0164E084E10E944A261F910F9152
:1036B00008950E941C2520E040E060E080E00E9428
:1036C000321B0895681708F5861B682F21E0469F76
:1036D000A0011124649FF001659FF00D1124409119
:1036E000660150916701E49FC001E59F900DF49F32
:1036F000900D1124880F892F881F990B91952223F3
:1037000019F09195819591090895681B20E0DFCF0C
:1037100083E290E00E943F32823289F484E290E0BA
:103720000E943F32823159F485E290E00E943F329C
:1037300091E0893209F090E0892F8170089580E04E
:10374000FCCFCF93C82F6FEF811162E283E290E04C
:103750000E944D326FEFC11162E184E290E00E945D
:103760004D326FEFC11169E285E290E00E944D3267
:10377000CF910895089586E290E00E943F32682F2D
:1037800070E090E080E008950895CF93C62F0E94E6
:10379000C41B6C2F86E290E00E944D32CF910895B9
:1037A00080E00E94A11B60E070E0CB010E94C51B7D
:1037B0000E94FE220E94E12381E00E94A11B089545
:1037C0000E94BA1B0E94BB1B0E94C41B0E94881B44
:1037D000811102C00E94D01B0895CF93FB01C281CA
:1037E000CC2309F19C0122513F452031310520F5C0
:1037F00082510E94F123C0E08C2FCF91089581E087
:103800000E94B50943E062E081E00E949504F3CF95
:1038100081E00E94C10943E062E081E00E949504DA
:10382000EBCF82E0F6CF8031FFE59F0789F381314E
:103830009F45B9F3C1E0E0CF8031EFE59E07F9F293
:1038400081319F45C9F682E0DBCF2FEFFC01208359
:103850000895EF92FF920F931F93CF93DF93EC01A4
:10386000062FE881E150E33108F05DC0F0E0E15758
:10387000FD4C0C94E53119828AE08A83602FCE01D9
:103880000E94C32ACDB7DEB7E6E00C941A328981D4
:10389000823069F0833071F08130D9F40E94C629FA
:1038A0000E94EB316A837B838C839D83E7CF0E94E8
:1038B000BB1BF6CF7E0182E0E80EF11C10E0812FE9
:1038C0000E947412F70181937F011F5F1C30B9F7CA
:1038D000D5CF602FCE010E94251CD0CF89818230A8
:1038E000C1F76A817B818C819D810E94EB310E94AE
:1038F000C51BC4CF4B816A8189810E94C022982751
:10390000892798279D838C83B9CF2C813D813227CD
:10391000232732274B816A8189810E94E222AECF20
:103920000E94FE22ABCF8FEF8883A8CF0E94922304
:103930008983A4CF0E9494239827892798279A8364
:1039400089839CCF6B8170E089819A81AE014C5F45
:103950005F4F9827892798270E9497238FCF6B81E5
:1039600070E089819A81AE014C5F5F4F982789276B
:1039700098270E94BC2382CF0E94E1237FCF0E9420
:10398000AE22D6CF6B8170E089819A81AE014C5F07
:103990005F4F9827892798270E943C236FCF6B8120
:1039A00070E089819A81AE014C5F5F4F982789272B
:1039B00098270E94602362CF0895FC01680F791F49
:1039C0008FEF91E36E177F0709F408952191822705
:1039D00028E030E087FF06C0880F89272150310991
:1039E000C9F7F0CF880FFACFB0E0A0E0EAEFFCE132
:1039F0000C94FC316C017B0164E670E088E70E9466
:103A00002225EC0197FD12C010E000E0F601E00F66
:103A1000F11F849164E670E00E948E25EC01892BF1
:103A200029F40F5F1F4F0E151F0581F70E94932683
:103A3000CE01CDB7DEB7E8E00C94183208950E94AD
:103A40001E1D0895E8E6F3E080E092E0DF019C01AE
:103A50001D9221503040E1F7F0936F05E0936E0521
:103A60008FEF9FEF90931D0380931C0308950E9496
:103A70001E1D0E941F1D8093180380FD0FC080E84B
:103A8000809317030E941C256DE070E08BE292E0AA
:103A90000E94F41C892B21F080E0089580E2F0CF91
:103AA0008091180363E070E081FD26C088E292E017
:103AB0000E94F41C892B81F76DE070E088E192E0B0
:103AC0000E94F41C892B41F70E94C629605A754157
:103AD0008F4F9F4F60936A0570936B0580936C05C1
:103AE00090936D050E94221D81E080931B038093BB
:103AF0001A0310921903089585E292E0D9CF20911C
:103B0000170336E0839FC0011124629F800D911D31
:103B10001124811522E0920714F090E080E088598A
:103B20009C4F90936F0580936E05089580911B03C1
:103B3000811103C080911A0308950E94C629605A1A
:103B400075418F4F9F4F60936A0570936B0580930B
:103B50006C0590936D0580911A038111EBCF62E0A3
:103B600070E086E192E00E94F41C892B19F781E055
:103B700080931A03DFCF2F923F925F926F927F92D2
:103B80008F929F92AF92BF92CF92DF92EF92FF926D
:103B90000F931F93CF93DF9380911B03882369F0CA
:103BA00020911C0330911D032115310531F08091C6
:103BB000190361E070E0882399F0DF91CF911F91A4
:103BC0000F91FF90EF90DF90CF90BF90AF909F90BC
:103BD0008F907F906F905F903F902F9008958F5FB0
:103BE000082F10E01B01082E02C0220C331C0A947F
:103BF000E2F7A90142215321452B89F39091180343
:103C000090FD44C08295880F807680936A01980168
:103C1000369527953695279520936D01815E809383
:103C20006B0110926E0124E630E047E050E068E658
:103C300071E088E70E940226892B09F0BECFA80117
:103C400025E0440F551F2A95E1F78091180380FD68
:103C50002BC048595C4F04E610E020E230E060E4FD
:103C600088E70E942326892B09F0A7CF0E94961D82
:103C7000E101C095D09580911C0390911D03C8234C
:103C8000D923D0931D03C0931C0397CF880F880FAF
:103C9000880F80936A0110926D01895F80936B0198
:103CA00083E080936E01BFCFE7EFF2E080E2DF01B7
:103CB0001D928A95E9F7ABEFB1E007EF11E08FEFC6
:103CC000C82E81E0D82E97E0592E772473948D91D9
:103CD000E80129918E01240F352F311D28593C4FC1
:103CE000E82FF0E0E950FD4F90E080E0652C681A85
:103CF000872C082E01C0880C0A94EAF77901A12CC0
:103D0000E701B9907E01B820662D6A196770962E7A
:103D1000062E000C770BDB2D01C0DD0F9A94EAF71D
:103D20007195619571096770772701C0B6946A959E
:103D3000EAF7BD2A6081962E9B289082A39468E0C2
:103D4000A612DECF019631968830910579F6CA1613
:103D5000DB0609F0BCCF04E610E020E230E047EFDC
:103D600052E07DCF80911A0390911B03911103C003
:103D700091E089270895882369F062E070E084E18A
:103D800092E00E94F41C892B19F080911A03089587
:103D900010921A0380911A03EBCF81E008950E94DC
:103DA000CD1E08950F931F9380911B03882379F1F3
:103DB00080916805909169050E94D229C29760F0B0
:103DC0000E94BA29909369058093680560E080E0BD
:103DD0000E947F1D0E94CF1E0E94BB1D80911A036E
:103DE0008823A9F00E94C62900916A0510916B05ED
:103DF00020916C0530916D05601B710B820B930B4C
:103E00006F3F7F4F8F4F9F4710F40E94B21E1F914C
:103E10000F910895CF93DF93EC01FB0182818823FA
:103E200009F464C1C330FDE5DF07E0F5CA3F9CE556
:103E3000D90730F49E0122503C4524313105D8F594
:103E40000E94870E90934D0380934C03C231ECE5A2
:103E5000DE0709F41FC108F06EC0C9308CE5D80731
:103E600009F4F2C008F03FC0C530ECE5DE0709F404
:103E7000DBC058F5C3308CE5D80709F4CDC008F095
:103E8000CFC080914C038160C230DC4509F4AEC0E4
:103E900080914C0390914D030E94950E0E9433092E
:103EA00080E009C0C53AEDE5DE0751F238F4C136CD
:103EB0009DE5D90729F2DF91CF9108959E012D5AF2
:103EC0003D4523303105B8F7BBCF80914C0380626C
:103ED000C730FCE5DF0709F489C008F4B1C0809160
:103EE0004C03806483C0CD309CE5D90709F4BAC087
:103EF00070F480914C038E7FCB30FCE5DF0709F432
:103F000075C008F4A7C080914C038D7F6FC0CF307F
:103F10009CE5D90709F4B6C008F4A8C0C031FCE597
:103F2000DF0709F4B3C0C131DC4509F0B1CF80919E
:103F30004C038F7B5BC0CF3F9CE5D90709F4B4C02D
:103F400098F5CA3FFCE5DF0709F472C0B8F4C43144
:103F50009CE5D90709F4B6C008F4A2C0C531DC4518
:103F600009F096CF80914C0382FB992790F921E0CC
:103F7000922790FB82F990FB83F938C0CC3F8CE507
:103F8000D80709F477C008F457C0CD3FECE5DE0749
:103F900009F474C080914D038360CE3FDC4509F085
:103FA00077CF80934D0374CFC1368DE5D80709F4E0
:103FB00096C068F4C130EDE5DE0709F48CC008F462
:103FC00077C0C230DD4509F063CF80E085C0CD3ACF
:103FD0009DE5D907E9F068F490914C03892F8E7F15
:103FE00090FF8160C53ADD4509F052CF80934C03C4
:103FF0004FCFCE3A8DE5D80789F1CF3ADD4509F0AC
:1040000047CF90914D03892F877F93FF8860C9CF59
:1040100080914D038860C5CF80914C038260E6CFCC
:1040200080914C038460E2CF80914C038860DECFA6
:1040300080914D038160B5CF80914D038260B1CFF7
:1040400080914C038061D2CF0E94330980914C0350
:104050008068CCCF80914C038C60C8CF80914D0399
:10406000877F9FCF80914C038B7FC0CF80914C0383
:10407000877FBCCF80914D038E7F93CF80914D037E
:104080008D7F8FCF80914C038F7EB0CF80914C037A
:104090008F7DACCF0E94330980914C038F77A6CFE0
:1040A00080914C03837FA2CF80914D038C7F79CF89
:1040B00080914D03982F909591708E7F892B90FB66
:1040C00081F96FCF0E94330990914C03892F97FBA0
:1040D00087F980588BCF81E00E94210FD9CE909133
:1040E0004C03892F8F7E94FF806180CF81E0E3CEE7
:1040F000B0E0A0E0EEE7F0E20C94FD31E82FF0E054
:10410000E85CFD4FD490282F26952695269530E023
:10411000F901E852FD4F0491877010E0082E02C0AB
:10412000159507950A94E2F701701127F901E853F4
:10413000FD4FE490F12C082E02C0F594E7940A9408
:10414000E2F791E0E922FF24F901E854FD4FC49120
:10415000D0E002C0D595C7958A95E2F7C170DD27FA
:104160000115110519F081EE0E94B705E114F10463
:1041700019F086EE0E94B7058D2D0E94B906E11454
:10418000F10419F086EE0E9448060115110519F098
:1041900081EE0E944806CD2B19F08CE20E94B906F0
:1041A000CDB7DEB7E7E00C941932EF92FF920F9390
:1041B0001F93CF93DF93EC01162F0AE088818823A9
:1041C00009F454C0813009F04EC08981813099F4DE
:1041D0007E0122E0E20EF11C8A810E94B906E7010D
:1041E0002196812F815050F3EFE9FFE03197F1F7ED
:1041F00000C00000F7CF823041F47E0182E0E80E7B
:10420000F11C8A810E94B705EACF833041F47E0118
:10421000E2E0EE0EF11C8A810E944806E0CF843075
:1042200011F02196DDCF2A81229690E080E0AE0148
:104230004F5F5F4F2053330B2A30310548F0019711
:1042400078F2EFE9FFE03197F1F700C00000F7CF17
:10425000089FB001099F700D1124C901860F971F97
:104260002981EA01E4CF0E947820BACFCDB7DEB72A
:10427000E6E00C941A328FE891E00197F1F700C064
:10428000000008950E9478030895B0E0A0E0EBE4F8
:10429000F1E20C94FD318091350192E0811190E0C2
:1042A0009093240382E0282F291B209323039091CD
:1042B00035018093250390913501809322038091ED
:1042C000350181110CC087E98093710186EC8093E0
:1042D0006F0184E98093720186E68093700101E7A3
:1042E00011E0CFE6D1E063E771E0AE01D80121E053
:1042F00030E08D91E82FE295EF70F0E0D1A08F7063
:10430000790101C0EE0C8A95EAF79E2D90959D21CA
:1043100091A382A18E2982A3FA018191AF01E82F96
:10432000E295EF70F0E0D1A08F70790102C0EE0C41
:10433000FF1C8A95E2F79E2D90959D2191A382A165
:104340008E2982A36A177B07A1F60E943B21609108
:1043500025034AE253E0FA018E2F841B861728F0CA
:10436000CDB7DEB7E7E00C941932D8012D918D015D
:10437000A22FA295AF70B0E090968C9190E02F7034
:1043800002C0959587952A95E2F781709991A92F9A
:10439000A295AF70B0E090962C9130E09F7002C073
:1043A000359527959A95E2F790E020FD92E0892BCC
:1043B0008193D2CFCF92DF92FF920F931F93CF932F
:1043C000DF9310E000E084E0C82ED12C809125031B
:1043D000181748F0802FDF91CF911F910F91FF9018
:1043E000DF90CF900895C12FD0E0FE01EF58FE4F2F
:1043F0008081E82FE295EF70F0E0E0A1F0E08F70AF
:1044000002C0F595E7958A95E2F7E170DE01A159C2
:10441000BE4F4C91A42FA295AF70B0E090968C91B6
:1044200090E04F7002C0959587954A95E2F780FD20
:1044300044C080E08E2BDE01A65DBC4FEC919E2F28
:1044400093709817C1F1EE0FEE0FE82BEC93F090FC
:104450002403F10EEF70F0E0E150FE4FCA5DDC4F37
:1044600080819881890F888320E0843064F0EF2D6B
:10447000F0E0E25EFC4F80818F5F808360E08F2DF3
:104480000E94422121E088818D3F64F4EF2DF0E00D
:10449000E25EFC4F80818150808361E08F2D0E941D
:1044A000422121E08881082E000C990BB6010E9460
:1044B000D1318883022B1F5F89CF82E0BBCF40912F
:1044C000250350E06091240370E0625E7C4F0E94FF
:1044D00036320895B0E0A0E0E0E7F2E20C94FC315F
:1044E0006C01D0E080E090912203D91740F0811157
:1044F0000E943A0FCDB7DEB7E8E00C941832F09086
:104500002303FD0E0F2D10E0025E1C4FF601ED0F90
:10451000F11DC081F8019081C91BEC2E1E1444F0DE
:104520009C2FC7FD90E0C91BC1110DC0DF5FDBCF21
:10453000EA94F80180818F5F808360E08F2D0E9474
:10454000422181E0EBCFCF5FF801808181508083F1
:1045500061E08F2D0E94422181E0E6CF84E0089542
:1045600050E0440F551F9AE0699F400D511D1124E2
:1045700098E7899F400D511D1124CA01879608951F
:104580000F931F93CF93DF938430C8F46C30B8F44B
:104590004530A8F40E94B0228C010E943F32C82FFF
:1045A000D0E0DC2FCC27C80101960E943F329E014B
:1045B000282BC901DF91CF911F910F91089590E0B1
:1045C00080E0F8CF0F931F93CF93DF93122F032F29
:1045D000843078F46C3068F4453058F40E94B0228E
:1045E000EC01602F0E944D32612FCE0101960E9496
:1045F0004D32DF91CF911F910F910895B0E0A0E06F
:10460000E4E0F3E20C94FB319CEAC92E90E0D92E51
:10461000D0E0C0E07601B12C20C00E94270421E048
:1046200030E08C171D0641F03CF0F801EE0FFF1F43
:10463000EE0DFF1D25913491402F6B2D8C2F0E9484
:10464000E2220F5F1F4F0530110539F78AE0E80EAF
:10465000F11CB3948CE0B81619F010E000E0DDCF47
:10466000219688E7C80ED11CC430D10599F6CDB784
:10467000DEB7E9E00C941732EF92FF920F931F938D
:10468000CF93DF93EC018A017C01E60EF71ECE0189
:104690008796CE15DF0529F4CDB7DEB7E6E00C949A
:1046A0001A32C03E21E0D20740F40E943F32F801A6
:1046B00080830F5F1F4F2196EACFF8011082F9CF58
:1046C000B0E0A0E0E6E6F3E20C94FC317C016A0184
:1046D0008C01060F171FEC01CE018796C017D1077A
:1046E00029F4CDB7DEB7E8E00C941832C03E21E0E3
:1046F000D20740F4FE01EE19FF09EC0DFD1D6081AB
:104700000E944D322196E8CF462F843040F47C3011
:1047100030F4653020F4672F0E94C022089590E0A5
:1047200080E0089580E1089589EF91E00895EF9287
:10473000FF920F931F93CF93DF93EC018A017C01CB
:10474000E60EF71ECE01895F9D4FCE15DF0529F4D9
:10475000CDB7DEB7E6E00C941A32C93F21E0D207AC
:1047600040F40E943F32F80180830F5F1F4F219673
:10477000E9CFF8011082F9CFB0E0A0E0E2ECF3E27B
:104780000C94FC317C016A018C01060F171FEC01AF
:10479000CE01895F9D4FC017D10729F4CDB7DEB791
:1047A000E8E00C941832C93F21E0D20740F4FE0142
:1047B000EE19FF09EC0DFD1D60810E944D3221961E
:1047C000E7CFCF93DF93C7E0D2E060E0CE010E9455
:1047D0004D322196C11584E0D807B9F7DF91CF910A
:1047E0000895A4E0B0E0E7EFF3E20C94FD31F82E79
:1047F0008FE08F1548F18FEF93E00E943F328111D7
:1048000023C007E012E0F11023C019821A821B8234
:104810001C82DD24D39478018FEFE81AF80AC801CE
:104820000E943F3289831A82882371F09FEF980F8C
:104830009330D8F48A83D9820E5F1F4FC7010E943C
:104840003F328B83811112C02496E7E00C94193219
:10485000011584E01807C1F3C8010E943F3281119D
:1048600001C0FA940F5F1F4FCECF870160E0CE01E9
:1048700001960E94D520CFCFCF93DF93EB018631F5
:104880009C4511F50E94830D9A81992399F08A7AAB
:1048900091E009F490E090932E03811109C089E220
:1048A0000E945B0D0E94C40D80E0DF91CF910895BE
:1048B00085E3F6CF80912E03811104C089E20E9426
:1048C000630DF0CF85E3FBCF81E0EFCF0F931F9314
:1048D000CF93DF93C42FD22FFC0182818823C9F0AC
:1048E000409331030E94BA299093300380932F03A1
:1048F00080E28C0F883040F4C77081E001C0880FDF
:10490000CA95EAF70E94C206DF91CF911F910F91DD
:10491000089510913103141332C080912F039091A8
:1049200030030E94D229883C910548F5C0E2CD0FA2
:104930001D17B9F080E2810F883040F4177081E0D4
:1049400001C0880F1A95EAF70E94C906C83048F4DA
:1049500081E09D2F977001C0880F9A95EAF70E9419
:10496000C206802F0E94B906C83070F6D77081E069
:1049700001C0880FDA95EAF70E94C906C5CF80E228
:104980008C0F883008F6C77081E001C0880FCA9587
:10499000EAF7F2CF0F939C01CB01233F4CE534079C
:1049A00059F1A8F4283DFCE53F0701F1293D4CE50C
:1049B0003407D1F1273D3C4591F406E221EE41EE6A
:1049C00067ED7CE50E94662480E00F910895253F05
:1049D000FCE53F07E9F0B0F0263F3C45F9F0FC016B
:1049E0008281882339F110923103EFCF07E225EE5F
:1049F00045EE68ED7CE5E6CF06E221EE40EE63EFA2
:104A00007CE5E0CF07E225EE44EE64EF7CE5DACF0B
:104A100006E221EE42EE65EF7CE5D4CF07E225EE1B
:104A200046EE66EF7CE5CECF08E221E045EE69ED8B
:104A30007CE5C8CF81E0C9CF1092B9008CE08093AB
:104A4000B8000895B0E0A0E0E8E2F5E20C94F93196
:104A5000B82EEB010E94BA296C01EE24E394F12CEC
:104A6000C431D10560F025E0E22EF12CCF3FDC0708
:104A700031F0CE0164E170E00E94BD317B0184EA37
:104A8000A82E94E8992E1092BC00A092BC000E941F
:104A9000BA298C018091BC0087FF0DC08091B900BC
:104AA000887F8830F9F08091B900887F8031D1F01B
:104AB0000FEF1FEF08C0C8010E94D229E816F906BF
:104AC00048F70EEF1FEFCF3FDC07E9F2C6010E9467
:104AD000D229C817D907B8F6C801CDB7DEB7EBE0C1
:104AE0000C941532B092BB009092BC000E94BA297F
:104AF0008C018091BC0087FF0AC08091B900887F3B
:104B0000883111F08034A1F610E000E0E5CFC80153
:104B10000E94D229E816F90660F7D3CF0F931F93AE
:104B2000CF93DF93EB018093BB0084E88093BC00BC
:104B30000E94BA298C018091BC0087FF11C020918E
:104B4000B900287F81E090E0283211F490E080E005
:104B5000919581959109DF91CF911F910F910895C2
:104B6000CF3FDC0741F3C8010E94D229C817D907FB
:104B700010F78EEF9FEFEFCF0F931F93CF93DF933D
:104B8000EC0184EC8093BC000E94BA298C018091D6
:104B9000BC0087FF08C08091BB0090E0DF91CF91FF
:104BA0001F910F910895CF3FDC0789F3C8010E9440
:104BB000D229C817D90758F78EEF9FEFEFCF0F9381
:104BC0001F93CF93DF93EC0184E88093BC000E9495
:104BD000BA298C018091BC0087FF08C08091BB007E
:104BE00090E0DF91CF911F910F910895CF3FDC07A7
:104BF00089F3C8010E94D229C817D90758F78EEF48
:104C00009FEFEFCFB0E0A0E0E8E0F6E20C94FC31DB
:104C10006B018A017901B9010E942225E6010C0D80
:104C20001D1DC017D10711F097FF08C024E920937C
:104C3000BC00CDB7DEB7E8E00C941832B70189911B
:104C40000E948E25EECFB0E0A0E0E9E2F6E20C94FF
:104C5000FC31C62F6A017901B8010E94222597FD17
:104C60000CC0B8018C2F0E948E25E601EC0CFD1CB7
:104C7000CE15DF0511F097FF08C024E92093BC0092
:104C8000CDB7DEB7E8E00C941832B80189910E94E4
:104C90008E25EECFB0E0A0E0E0E5F6E20C94FC312A
:104CA000F82EE62EEA016901B8010E94222597FD3F
:104CB00015C0B8018E2D0E948E2597FD0FC0B8013A
:104CC0008F2D81600E942225F12CE12C21E0C21A57
:104CD000D108EC14FD04E0F497FF0DC024E9209303
:104CE000BC001816190614F490E080E0CDB7DEB7CA
:104CF000E8E00C941832C8010E94BC2597FD04C05E
:104D0000FE01EE0DFF1D80832FEFE21AF20AE1CFC4
:104D100097FDE4CFC8010E94DF2597FDDFCFCC0DC2
:104D2000DD1D8883DBCF84E98093BC0008958EE18C
:104D30004A9B02C08150E1F74A9BFECF08955A98E2
:104D400080E28A95F1F75A9A0895FC013BE03A9582
:104D5000F1F798E020E080E031E040E14A95F1F79A
:104D6000880F4A9B02C08160232742E04A95F1F7F1
:104D7000000040E14A95F1F7915079F790E19A955A
:104D8000F1F799B132E03A95F1F7000040E14A9528
:104D9000F1F792FB992790F992272081920F908347
:104DA0000895A1E0B0E0E7EDF6E20C94FE3119823F
:104DB0008C017C01E60EF11C0E151F0541F481E00B
:104DC0009981911180E02196E6E00C941A320E94BC
:104DD0009726CE0101960E94A526F80181938F01A6
:104DE000EBCF529A5A9A089552985A9AEA9AE9E65B
:104DF000F0E080818F7C808308956150770B91E093
:104E000001C0990F6A95EAF720E031E0911108C0DE
:104E1000222391F05A9A80E28A95F1F75A980895E0
:104E2000492F482339F05A9A232740E24A95F1F74F
:104E30009695ECCF5A98F9CF5A98EDCFFF920F93F1
:104E40001F93CF93DF93EC018C01060F111DC01748
:104E5000D10729F4CDB7DEB7E5E00C941B32F99009
:104E60000E949F2668E08F2D0E94FD26F0CF1F92A2
:104E70000F920FB60F9211240F931F932F933F930E
:104E80004F935F936F937F938F939F93AF93BF9352
:104E9000EF93FF93CF93DF930F92CDB7DEB71982D5
:104EA0000E949726CE0101960E94A526082F0695FE
:104EB00006950695282F22952570902F9570290F1D
:104EC000922F937026952695920F98279770898137
:104ED000982B09F05CC0063008F059C080E18A9533
:104EE000F1F75A9A529A82E08A95F1F700C05A98DF
:104EF00088E0089F80011124D801AA5CBE4F169655
:104F0000ED91FC9117973097A9F06091ED017091A8
:104F1000EE0114962D913C911597260F371F11968F
:104F20008D919C911297680F791F13964C9113974E
:104F30008C910995F801EA5CFE4F6381662351F07C
:104F40002091ED013091EE0184819581820F931FB4
:104F50000E941E270E949F2680E18A95F1F75A98A9
:104F600052985A9A80E18A95F1F7F801EA5CFE4F6F
:104F70006081662351F02091ED013091EE01818135
:104F80009281820F931F0E94D1260E9497260F9034
:104F9000DF91CF91FF91EF91BF91AF919F918F9151
:104FA0007F916F915F914F913F912F911F910F9141
:104FB0000F900FBE0F901F9018950F931F93CF93D4
:104FC000DF93EC0106970CF04CC0F894529A5A9873
:104FD00085E08A95F1F700009C2F969595708C2FAF
:104FE0008570980F892F83709695969523E0CC0F46
:104FF000DD1F2A95E1F7980F8E01092B0E949F264D
:1050000000C068E0802F0E94FD2680E18A95F1F7BC
:1050100052985A9A4A9B1EC087E090E04A991CC059
:10502000FE01EA5CFE4F63816623F9F02091ED01F9
:105030003091EE0184819581820F931F0E94D126C9
:10504000811113C0529A5A9A7894DF91CF911F918F
:105050000F91089500C0DECF019729F4529A5A9A11
:10506000789480E0F2CF00C0D9CF0E94972680E2EA
:105070008A95F1F75A98529A80E18A95F1F7CA5CBD
:10508000DE4F6881662351F02091ED013091EE01F1
:1050900089819A81820F931F0E941E270E949F265A
:1050A000789481E0D2CF90931F0280931E020895DE
:1050B000909338038093370308950E94551481110B
:1050C00003C0809132030895E0913703F0913803D3
:1050D000309729F00190F081E02D0995089580E046
:1050E0000895E0913703F0913803309721F0028062
:1050F000F381E02D09950895E0913703F09138038D
:10510000309739F022E0DC012C930480F581E02D0A
:1051100009950895209135033091360328173907F2
:1051200071F09093360380933503E0913703F0914B
:105130003803309721F00680F781E02D0995089516
:1051400020913303309134032817390771F090937D
:10515000340380933303E0913703F09138033097A1
:1051600021F00084F185E02D099508959C012E5FC2
:105170003F4FAC01485F5F4F80E02417350709F4CB
:105180000895F90191919F019923B9F38F5FF5CFAC
:10519000662349F0FC01329608962191261729F0E2
:1051A000E817F907D1F780E0089581E008959C01A0
:1051B000FC0132969FEF80E04191461751F09F3FEE
:1051C00019F4411101C0982F8F5F8630A9F79F3FD6
:1051D00009F40895290F311D97FD3A95F90162836D
:1051E0000895FC01329608962191261303C0DF0131
:1051F00011971C92E817F907B9F708950E94D7286C
:1052000008950E94F1280895029626E0FC0111926B
:105210002A95E9F7089546E050E00E94293221E0FE
:10522000892B09F420E0822F089508950E94152902
:105230000895811106C081E0809339030E941629E8
:10524000089582E0F9CF83E0809339030E94162904
:1052500008950E941929089581E0809339030E94DE
:10526000162908950E942C290895089508950E94F2
:1052700036290895089508950E9435290895CF93F9
:105280000E943A290E94D5130E943B29C0E08C2F2E
:105290000E947412811105C0CF5FCC30C1F7CF914D
:1052A000089581E0FCCF85B7806885BF85B78068A9
:1052B00085BF08951F921FB61F9211248F939F934D
:1052C000AF93BF9380913A03811113C08091700511
:1052D00090917105A0917205B09173054196A11D41
:1052E000B11D8093700590937105A0937205B093E2
:1052F0007305BF91AF919F918F911F901FBE1F901B
:10530000189580917805843031F10E94180510922B
:105310003A0388E190E020E40FB6F894A8958093D2
:1053200060000FBE2093600083B7817F846083BFDD
:1053300083B7816083BF7894889583B78E7F83BF5E
:105340000FB6F894A8958091600088618093600002
:10535000109260000FBE08950E9433090E9421053B
:10536000089582E084BD93E095BD9AEF97BD809348
:105370006E0008952FB7F894809170059091710593
:10538000A0917205B09173052FBF08952FB7F894BF
:10539000609170057091710580917205909173050F
:1053A0002FBF08959C014FB7F8948091700590919C
:1053B0007105A0917205B09173054FBF821B930BCD
:1053C0000895CF92DF92EF92FF922FB7F894C0909A
:1053D0007005D0907105E0907205F09073052FBFB5
:1053E000A7019601261B370B480B590BCA01B901BF
:1053F000FF90EF90DF90CF90089578941F921FB6A2
:105400001F9211248F939F93AF93BF938091700548
:1054100090917105A0917205B09173050196A11D3F
:10542000B11D8093700590937105A0937205B093A0
:105430007305BF91AF919F918F911F901FBE1F90D9
:10544000189587E797E7909301088093000888E113
:105450009AE00FB6F894A895809360000FBE9093E1
:105460006000FFCF88E19AE00FB6F894A89580938A
:1054700060000FBE90936000FFCF809146030895B7
:1054800008959C0184E08093E9009FEF8091E800FB
:10549000915085FD06C085ED8A95F1F700009111C8
:1054A000F5CF8091E80085FF0CC050E040E066E059
:1054B00070E0C9010E94D52C8091E8008E7780931E
:1054C000E8000895CF93DF93EC0181E08093E90039
:1054D0008FEF9091E800815095FD06C095ED9A956B
:1054E000F1F700008111F5CF8091E80085FF14C02D
:1054F00050E040E068E070E0CE010E94D52C809141
:10550000E8008E778093E80088E0FE01AEE3B3E028
:1055100001900D928A95E1F7DF91CF9108958093E4
:105520003B0370933D0360933C0380917805843086
:10553000F9F48093E9008FEF9091E800815095FD98
:1055400006C095ED9A95F1F700008111F5CF809195
:10555000E80085FF0DC050E040E063E070E08BE3C1
:1055600093E00E94D52C8091E8008E778093E8002C
:105570000895BC0184E00E948F2A0895BC0183E055
:105580000E948F2A0895CF93FC01603221F580910B
:105590007805843001F5C091E900CF702091EC00CE
:1055A000922F917020FD90E8C92B82E08093E90052
:1055B0008091E80080FF0CC050E040E060E270E0C5
:1055C000CF010E94D52C8091E8008E778093E8006F
:1055D000CF70C093E900CF91089580917705811134
:1055E00009C00E94B42E0E94112F8091E2008460B5
:1055F0008093E20008951092770508950E942C2967
:1056000008956091740581E0611101C080E00E94FD
:10561000232908959091780581E0943009F080E085
:10562000609174050E942929089542E061EC81E0AF
:105630000E94302E42E261EC84E00E94302E42E271
:1056400061EC82E00E94302E42E260EC83E00E9436
:10565000302E9091780581E0943009F080E06091DF
:1056600074050E941929089580917A05833009F400
:1056700063C030F48130E1F1823009F4A0C00895B4
:105680008A3009F48CC08B3009F471C0893009F07C
:1056900052C080917905813209F04DC080917D051D
:1056A00090917E05009719F0029709F044C080910F
:1056B000E800877F8093E8008091E80082FF37C090
:1056C0009091F3008091F200029731F48091F10003
:1056D000813011F0863021F48091F10080934603EF
:1056E0008091E8008B778093E8000E94642E23C0AD
:1056F00080917905813AF9F48091E800877F809361
:10570000E80080917D0590917E05892B61F468E029
:105710008EE393E070E00E94732D8091E8008B7718
:105720008093E800089560E090E080E0F3CF8091FE
:1057300078058111C1CF089580917905813AD9F713
:1057400080917D0590917E05892BA9F78091E800D5
:10575000877F8093E8008091E80080FFFCCF8091F4
:105760007F018093F1008091E8008E77BCCF80911B
:105770007905813201F780917D0590917E05892B15
:10578000D1F68091E800877F8093E8000E94642E24
:1057900080917B0580937F010E9433090895809159
:1057A0007905813241F68091E800877F8093E80097
:1057B0000E94642E80917C05809347030895809118
:1057C0007905813A09F0B7CF8091E800877F80930F
:1057D000E8008091E80080FFFCCF80914703C1CFB3
:1057E00084B7877F84BF0FB6F894A8958091600036
:1057F000886180936000109260000FBE80E890E0A6
:105800000FB6F89480936100909361000FBE0E94E0
:10581000322908950E94B42E0E94112FE2EEF0E08A
:1058200080818460808378940E949031089583E71A
:1058300091E00E945828089580917805853031F4D0
:1058400080917805853019F00E94AC2908950E9456
:10585000812980917605882399F30E943F29882326
:1058600079F30E94BF2C0E943309EACFA0E2B0E096
:10587000ECE3FCE20C94023280917805843009F567
:1058800083E08093E9008091E80082FF1AC0809154
:10589000E80090E085FF09C050E040E060E270E081
:1058A000CE0101960E94242D91E08091E8008B7733
:1058B0008093E800992329F060E2CE0101960E94CE
:1058C000291CA096E2E00C941E320E94682C0895D8
:1058D000292F33272330310521F168F42130310598
:1058E00009F443C02230310509F444C090E080E05F
:1058F00030E020E026C02132310551F1223231055D
:10590000A9F76330710590F7FB01EE0FFF1FEE5E04
:10591000FD4F20813181615F7D4FFB01808190E0EF
:1059200010C099278130910581F0009729F00297E6
:10593000E9F6E8EEF2E002C0E0E1F3E0849190E005
:105940009F01FA01318320830895EAEFF2E0F6CF58
:105950006330710558F6660F771FFB01E85EFD4F57
:105960002081318189E090E0ECCF82E190E02FE668
:1059700033E0E7CF8BE590E024E133E0E2CF80E154
:1059800089BD82E189BD09B400FEFDCF8091D800B8
:105990008F7D8093D8008091E00082608093E0004A
:1059A0008091E00081FDFCCF0895AF92BF92CF922D
:1059B000DF92FF920F931F93CF93DF936C01EB0164
:1059C0008A010E94832EF82E811123C00115110532
:1059D00039F0F80180819181C81BD90BC80ED91EFE
:1059E000B12CA12C2097A9F08091E80085FD22C060
:1059F0008091E8008E778093E80001151105A1F0F1
:105A0000F80180819181A80EB91EB182A08285E043
:105A1000F82E8F2DDF91CF911F910F91FF90DF9086
:105A2000CF90BF90AF9008950E94832E8823D1F22B
:105A3000F82EEFCFF60181916F018093F10021974D
:105A4000FFEFAF1ABF0ACECFAF92BF92CF92DF92D5
:105A5000FF920F931F93CF93DF936C01EB018A01A9
:105A60000E94832EF82E811123C00115110539F0F3
:105A7000F80180819181C81BD90BC80ED91EB12CA9
:105A8000A12C2097A9F08091E80085FD22C080918B
:105A9000E8008B778093E80001151105A1F0F8016B
:105AA00080819181A80EB91EB182A08285E0F82E76
:105AB0008F2DDF91CF911F910F91FF90DF90CF90AD
:105AC000BF90AF9008950E94832E8823D1F2F82EC4
:105AD000EFCF8091F100F60181936F012197FFEFE5
