:100000000C9498010C94B5010C94B5010C94561FF6
:100010000C94B5010C94B5010C94B5010C94B50188
:100020000C94B5010C94B5010C949E260C94722787
:100030000C9479210C94B5010C94B5010C94B50184
:100040000C94B5010C94B5010C94B5010C94B50158
:100050000C94B5010C941C220C94B5010C94B501C0
:100060000C94B5010C94B5010C94B5010C94B50138
:100070000C94B5010C94B5010C94B5010C94B50128
:100080000C94B5010C94B5010C94B5010C94B50118
:100090000C94B5010C94B5010C94B5010C94B50108
:1000A0000C94B5010C94B5010C94B5011700150022
:1000B00008001A0014000A000900070016000400D6
:1000C0000500190006001B001D002C41E200E300A2
:1000D000E000E100000000000000000000001C0043
:1000E00018000C00120013000B000D000E000F0092
:1000F0002800110010003600520037002C422A0060
:10010000500051004F0000000000000000000000FF
:100110002200210020001F001E00220221022002D6
:100120001F021E02670054005500560057002C4164
:100130002C002C0049002B000000000000000000F3
:1001400000002300240025002600270023022402AB
:10015000250226022702350089002F1230122D12A7
:100160002D002A00500051004F0000000000000048
:10017000000000003E003D003C003B003A0034001F
:100180003312330031001F02C85CC75CC65CC45C1C
:10019000C35C2D022C002C0049002B000000000045
:1001A0000000000000003F0040004100420043000A
:1001B0005000510052004F002E00C95CCA5C2F0055
:1001C000300031002C42E000E300E2002A00000091
:1001D000000000000000000000AE00AF00DA028165
:1001E000FFD9F1DB20A4A62EAF00A0C000A1C8005B
:1001F000AED580A81FD300408D14200010036300EB
:100200006F006F006C0036003400300000001403F3
:10021000740065006C007A006F003200300030001E
:10022000300000000403090409023B00020100A0A1
:10023000FA09040000010301010009211101000174
:1002400022400007058103080001090401000103A1
:10025000000000092111010001227B000705820333
:100260002000011201000200000008434D44060175
:10027000000102000105010902A10185020901A195
:100280000005091901290815002501950875018146
:10029000020501093009311581257F950275088114
:1002A0000609381581257F950175088106050C0A18
:1002B00038021581257F950175088106C0C00501AA
:1002C0000980A101850319012AB700150126B7008D
:1002D000950175108100C0050C0901A10185041963
:1002E000012AA002150126A002950175108100C007
:1002F00005010906A101050719E029E715002501F7
:10030000950875018102950175088101050719009D
:1003100029FF150026FF00950675088100050819BC
:10032000012905950575019102950175039101C09B
:1003300011241FBECFEFDAE0DEBFCDBF11E0A0E099
:10034000B1E0E0E0F4E502C005900D92A23CB107F7
:10035000D9F725E0A2ECB1E001C01D92A430B207AC
:10036000E1F70E94F0130C94E8290C94000081E05E
:10037000089581E008950E94B901089508950E94AA
:10038000BE010895A5E0B0E0E8ECF1E00C94682926
:1003900049835A833091C90189819A81311119C0E9
:1003A000662399F0222389F00E94F707182F682FFF
:1003B00089819A810E94D30769817A81812F0E9465
:1003C000800E2596E3E00C9484290E94E507182FFF
:1003D000F3CF0E94F70769817A81F1CFFC01262FC4
:1003E000408151816281738184810E94C20108959C
:1003F00081E00895CF93DF93EC0160E00E94EE016D
:10040000BE010E94BF01DF91CF9108950E940010AC
:1004100008950E940410089508950E949E060E9467
:100420000C022FEF84E39CE0215080409040E1F7E4
:1004300000C0000008950E940D020E94402208950D
:100440000E940D020E94512208950F931F93CF9393
:10045000DF938C0161E00E94EE01EC01B8010E9483
:10046000BB01811106C080E0DF91CF911F910F91F8
:100470000895B801CE010E94E91C8823A1F3B801B8
:10048000CE010E94ED1A882371F3B801CE010E94BB
:100490005B1C882341F3F8018281882361F0CB350E
:1004A000FDE5DF0701F158F4C115ECE5DE0791F039
:1004B000CF3DDC4591F0C8010E94B701D5CFCD35C5
:1004C0008DE5D80769F090F0C83ADD45A1F70E94A4
:1004D0002002C9CF0E941B02C6CF0E94B10CF7CFE9
:1004E0000E94EF0BE8CF0E94F90BE5CF0E94FD0BB5
:1004F000E2CF0E9456210E949A020E94951A0E9401
:10050000021708950E949E020E945B21089508959B
:100510000E948702089581E008950E948B02089549
:100520000895CF93C82F0E9488028C2F0E948D02BD
:10053000CF91089580E00E94910208950E947C204E
:100540000E9491020895CF930E947C20C82F809131
:10055000C4018C1779F0C093C4010E94E521609317
:10056000C5017093C6018093C7019093C8018C2F79
:100570000E949102CF910895ABE0B0E0E2ECF2E08E
:100580000C9469294F83588769877A878B87611113
:100590000E943A0B1E821D8285E0FE013796DE0125
:1005A000119601900D928A95E1F78C819D81892B9E
:1005B00061F449815A816B817C818D819E810E9489
:1005C000630A2B96E2E00C94852989819A8189231C
:1005D0008F3F79F3CE0101960E94F8018111E9CF96
:1005E000F0CFFC01808191810E9429080895A6E046
:1005F000B0E0EDEFF2E00C946729082F162F0E946F
:10060000701729834B835C836D837E83002369F09D
:10061000312B4981532F6B817C818D819E810E947A
:100620008B172696E4E00C94832910953123F1CFA3
:10063000CF93C82F8823C9F08238C9F40E947C2048
:1006400081FD13C089E30E94F20A0E945B0B2FEF29
:1006500087EE93E0215080409040E1F700C0000019
:1006600089E30E94FA0A0E945B0BCF9108958338B8
:10067000A1F40E947C2080FDF8CF83E50E94F20A5D
:100680000E945B0B2FEF81EE94E021508040904060
:10069000E1F700C0000083E5E4CF8438A1F40E94B4
:1006A0007C2082FDE2CF87E40E94F20A0E945B0B6D
:1006B0002FEF81EE94E0215080409040E1F700C0A0
:1006C000000087E4CECF8CEF8C0F813A90F46C2F32
:1006D00080910001909101010E94E720882329F078
:1006E0008C2F0E94FA0A0E945B0B8C2F0E94F20A48
:1006F000BACF80E28C0F883048F4C77081E001C027
:10070000880FCA95EAF70E941D0BADCFEBE5EC0F01
:10071000E33040F4F0E0E558FE4F808190E00E9425
:10072000A920A3CFE8E5EC0FE73150F4F0E0EE0F9D
:10073000FF1FE35BFE4F808191810E94BF2095CF18
:10074000CD3E08F492CF8C2F0E9474140E9447155E
:100750008CCF882309F455C0823879F40E947C201C
:1007600081FF4FC089E30E94F20A0E945B0B89E37C
:100770000E94FA0A0E945B0B0895833859F40E9484
:100780007C2080FF3EC083E50E94F20A0E945B0B42
:1007900083E5EECF843859F40E947C2082FF31C07B
:1007A00087E40E94F20A0E945B0B87E4E1CF9CEF92
:1007B000980F913AE8F290E2980F983050F48770D1
:1007C00091E001C0990F8A95EAF7892F0E94230BC7
:1007D000D1CF9BE5980F933028F490E080E00E9401
:1007E000A920089598E5980F973128F490E080E0CB
:1007F0000E94BF2008958D3E20F00E94CE140E94DA
:10080000471508951F93CF93DF93182FEB010E9494
:100810001803209739F4812F0E94A903DF91CF910B
:100820001F9108958FE99FE00197F1F700C0000044
:100830002197EFCF70E060E0893311F460E570E05C
:100840000E9402040895882321F00E941D0B0E943B
:100850005B0B0895882321F00E94230B0E945B0B01
:100860000895B0E0A0E0E7E3F4E00C9462296C01A5
:10087000D62FC72FFC011281F580F2949FE0F92258
:100880000E94130BE82E8823B9F0E12E1123A1F06A
:100890008C2F807F803421F080E28D0F8830D0F063
:1008A0008091D40282FF16C082E00E94BE0B0E949B
:1008B000130B91E0E82EE926BC2EB2948FE0B8220B
:1008C000FBE0FB1508F468C0EB2DF0E0E651F64DB7
:1008D0000C945329E12CF0CF0C2F0F70C07F11F036
:1008E0000295007F112399F0002359F080E28D0FCB
:1008F000883010F0D11107C0802F0E941D0B0E947C
:100900005B0B8D2F41C0802F0E942D0BF8CF8D2FB8
:100910000E94A903002309F43FC080E28D0F8830B4
:1009200010F0D11104C0802F0E94230B03C0802F30
:100930000E94330B0E945B0B2FC00C2F0F70C07FE7
:10094000C03211F00295007FDD2381F0D13009F42F
:1009500065C0112309F46FC0FF2009F465C0F601DA
:10096000858180FFCECF8F7085835EC08091D40259
:1009700082FD34C0112359F0002329F0802F0E94FA
:100980001D0B0E945B0B80E00E94180305C080E0F5
:100990000E94A9030111C7CF2B2D2850330B2430FF
:1009A000310520F40E947C200E949102EE2089F003
:1009B0000E940F0B80FD0DC0F60112820E94090BF0
:1009C0000E943107C6010E945E060E94090B0E9428
:1009D0004107CDB7DEB7E9E00C947E29112389F0F9
:1009E000F11006C00E943D0B802B0E942304D4CF3F
:1009F00021E0F212F7CF0E943D0B802B0E94440BA6
:100A0000CBCFF11006C00E94510B802F0E942A0408
:100A1000C3CF31E0F31609F4BFCFF5CF112331F086
:100A200085E08F1508F4B8CF802FDFCF94E09F15B5
:100A300008F4B2CFEACFFF2041F3D93349F4FFEFF6
:100A400027EE33E0F15020403040E1F700C00000D5
:100A50008D2F0E94A903A0CF8C2F86958695837039
:100A600069F0813009F098CF8D2F9C2F9370111170
:100A700002C090E080E00E94BF208ECF8D2F9C2F7F
:100A80009370111102C090E080E00E94A92084CFF1
:100A90008D2F112391F00E947414ED2FE15FFF0B55
:100AA000E830F10568F461E070E001C0660FEA9596
:100AB000EAF7812F0E94F7026FCF0E94CE14EDCF8C
:100AC0000E94471569CF8C2F8370A1F5111164CF57
:100AD0004D2F429546954770440F440F2D2F2F7090
:100AE00030E0042E02C0220F331F0A94E2F790E098
:100AF00080E0D4FF09C08FE090E002C0880F991F0A
:100B00004A95E2F780959095C695C695C370822B5D
:100B1000932BC23049F058F4C13019F00E94FF06FF
:100B20003BCF0E94F60638CF0E94080735CF0E94BF
:100B3000F30632CF8695112311F08C2F8170882314
:100B400009F42ACF4D2F429546954770440F440F24
:100B50002D2F2F7030E0042E02C0220F331F0A9475
:100B6000E2F790E080E0D4FF09C08FE090E002C09F
:100B7000880F991F4A95E2F780959095C695C6957E
:100B8000C370822B932BC23049F058F4C13019F056
:100B90000E946C0701CF0E946307FECE0E9475077A
:100BA000FBCE0E941707F8CECF70112329F08C2FAF
:100BB0000E9431078D2F19CF8D2F0E942A048C2F70
:100BC0000E944107E9CED23F51F160F4D03FB9F025
:100BD000D13F81F0112309F449C0F11092CE8C2F3E
:100BE0008F7121C0D33F11F1D43FA1F78091D4027E
:100BF00082FD26C08C2F8F71112311F314C0112395
:100C000049F0F4E0FF1508F4C7CE8C2F8F710E94D5
:100C10005307C2CE25E02F1508F4BECEF6CF8C2F99
:100C20008F711111CDCF0E943107B6CE112329F05B
:100C30008C2F8F710E942507AFCE0E942007ACCE6B
:100C4000112349F0CF718C2F0E94310763E08C2F64
:100C50000E94A00BA1CE81E00E94BE0B31E03F15A7
:100C600008F09ACE82E00E94BE0B96CEFF2059F08B
:100C7000D93309F0EDCE8FEF97EEE3E0815090404D
:100C8000E040E1F7E3CE8C2F8F719ACF0F931F9343
:100C9000CF93DF93EC01688179818A810E943408C7
:100CA0008C010E947E070E94F206B801CE010E94CC
:100CB0003104DF91CF911F910F910895CF93DF936E
:100CC000EC018B819C81892B29F088819981892372
:100CD0008F3F51F4DF91CF910895CE010E944606D7
:100CE000CE010E94FA01F6CFCE010E9425028111A9
:100CF000F4CF0E94130B882369F38A81882351F370
:100D00008091D40282FFE6CF82E00E94BE0BE2CF48
:100D100090E080E00E94A92090E080E00E94BF2047
:100D20000E943A0B0E945B0B0E9463150E944715BC
:100D300008950E94020B0E94880608950E942A0BC3
:100D40000E949906089592959F70963091F058F4FC
:100D5000925F9F70923058F4803F19F030F4883ED3
:100D600030F481E008959A5FF4CF843FD1F380E0BE
:100D70000895883EB0F3813FD1F7F3CFFC01838122
:100D80009481892B29F08081918189238F3F11F4EF
:100D900080E00895808191810E9429080E94A30625
:100DA0000895A5E0B0E0E7EDF6E00C9469292596FA
:100DB000E2E00C948529A6E0B0E0E1EEF6E00C94C8
:100DC00069292696E2E00C94852908950E94E5069B
:100DD00008950E94E6069093E9018093E8010E943D
:100DE0008806089508950E94E90608952091E80173
:100DF0003091E901822B932B0E94E90608952091FE
:100E0000E8013091E901822393230E94E9060895C5
:100E10002091E8013091E901822793270E94E90699
:100E200008950E94E50608950E94110708950E9402
:100E300014079093E7018093E6010E9488060895C5
:100E400090E080E00E941707089521E030E0A901BA
:100E500002C0440F551F8A95E2F7CA010E94170786
:100E6000089521E030E002C0220F331F8A95E2F797
:100E70008091E6019091E701822B932B0E94170746
:100E8000089521E030E002C0220F331F8A95E2F777
:100E9000209530958091E6019091E701822393237C
:100EA0000E941707089521E030E002C0220F331F8F
:100EB0008A95E2F78091E6019091E70182279327D6
:100EC0000E94170708952091E6013091E701822BD7
:100ED000932B0E94170708952091E6013091E701B6
:100EE000822393230E94170708952091E6013091F1
:100EF000E701822793270E94170708950895262F58
:100F0000277091E001C0990F2A95EAF723E07695C2
:100F100067952A95E1F7660F771F660F771FFA012D
:100F2000E60FF71F50E040E0682F70E08191DF018D
:100F300011979B01042E02C0369527950A94E2F77B
:100F4000217021952827292328272C934F5F5F4F55
:100F50004430510559F70895A82FA77023E09695BE
:100F600087952A95E1F7880F991F880F991FFB0134
:100F7000E80FF91F50E040E080E0219130E00A2EB8
:100F800002C0369527950A94E2F721703327042E84
:100F900001C0220F0A94EAF7822B4F5F5F4F443063
:100FA000510559F70895262F9A3070F4853060F472
:100FB000682F70E085E0989F600D711D11244AEC48
:100FC00051E0822F0E947F070895292F9A3068F4FC
:100FD000853058F490E06AEC71E035E0239F800D95
:100FE000911D11240E94AC07089580E00895B0E09F
:100FF000A0E0EDEFF7E00C9462297C010091E6019E
:101000001091E7018091E8019091E901082B192BDB
:10101000CFE0D0E0CC24C394D12CBC2EC6010C2E42
:1010200002C0880F991F0A94E2F780239123892B2D
:1010300049F4219790F7B12C8B2DCDB7DEB7E9E0BD
:101040000C947E29B7018C2F0E949B0E019789F387
:10105000F3CFCF93DF93EC010E94F707BE010E940C
:101060009B0EDF91CF9108951F93CF93DF93EB01F8
:101070009091C901992339F0CB010E942908DF9191
:10108000CF911F910895882369F0CB010E94F70743
:10109000182F682FCE010E94D307BE01812F0E9416
:1010A0009B0EEDCFCB010E94E507182FF6CF1F93C3
:1010B000CF93DF93C091EA0116E08091EB018C138E
:1010C00004C0DF91CF911F910895D0E01C9FF001E3
:1010D0001D9FF00D1124E451FE4F4081518162812A
:1010E0007381848195810E94DB062196C770E5CFCC
:1010F00040911C0250911D0260911E0270911F02CE
:1011000080912002909121020E94DB0608951F9396
:10111000CF93DF9380912102807F09F049C08091B5
:101120001E02882309F444C08091EA01C091EB01BA
:1011300060911C0270911D02A0911F02B0912002CB
:10114000D62FD72316E0C81799F190E0109711F029
:10115000DF3F19F401968770F6CF189F9001199F11
:10116000300D1124F901E451FE4F41814713F2CFB4
:1011700040814613EFCF42814111ECCF438154812E
:101180004A1B5B0B483C510528F7809121028F7068
:10119000806180932102F901EF50FE4F80818F70B2
:1011A000806180838CE192E00E945E060E94570875
:1011B000DF91CF911F910895A1E1B0E0E2EEF8E058
:1011C0000C9461298C0185E0F801DE011D960190E7
:1011D0000D928A95E1F7F801E2808CE1C82E82E059
:1011E000D82E60911F02709120026115710509F4DB
:1011F0004EC190911C0220911D02892F82238F3FA6
:1012000009F445C140815181A380B480F0901E0251
:10121000F501E61BF70BFF2009F4EAC080912102DB
:10122000382F307FE83CF10508F0A3C031116DC0C4
:10123000FE2C251316C0941314C0E11012C08F7039
:101240008061809321020E947808C6010E945E0698
:1012500080912102F80185838F2D6196EAE00C943C
:101260007D29A114B10429F0842F85238F3F09F033
:1012700027C180E0F82FF170DF2E80FF3CC0809105
:10128000EA012091EB0136E0821315C04D875E879D
:101290008D859E850E942908292F22952F70223046
:1012A000F0F0243018F59F70F1F0F8019581907FEF
:1012B000D1F4D12C1EC090E0389FF001399FF00D81
:1012C0001124E451FE4F6181651306C060816413EF
:1012D00003C06281E6120FC001968770D5CF9F7060
:1012E00011F0882331F3805E883018F3C8010E9422
:1012F0005E06FD2CB1CFEE2009F4AECF8091210225
:10130000816080932102F12CA7CF251306C094138E
:1013100004C0F801EE2009F487C0C8010E94BE068F
:10132000882319F1EE2009F180912102803270F0BA
:1013300020911C0230911D0238872F831986BB86AD
:10134000AA868C87CE0107960E945E0686E0F80189
:10135000ACE1B2E001900D928A95E1F70E94870816
:101360000E947808FF24F39477CFC8010E945E069C
:10137000F9CF311113C07A2DB98AA88A6E2D8989C7
:101380000E94D1068CE192E00E945E0686E0F601A2
:1013900011928A95E9F70E947808B5CF25130FC0FE
:1013A00094130DC0E1100BC0F8018583C8010E94A1
:1013B0005E0686E0F60111928A95E9F74DCFC801E5
:1013C0000E94BE06882389F2EE2079F280912102E4
:1013D000803208F4BBCF20911C0230911D023A8369
:1013E00029831B82BD82AC828E83CE010196ACCF55
:1013F000E83CF10508F03EC0FE2CEE2009F4B5CF24
:1014000025132AC0941328C08091210280FD1BC09F
:10141000982F907FC1F0F8018583903F31F0982F8D
:10142000907F905F8F70892B8583C8010E945E0634
:1014300086E0F801ACE1B2E001900D928A95E1F707
:101440000E94780809CF86E0F801ACE1B2E0019093
:101450000D928A95E1F700CFC8010E94BE06811166
:1014600075CF80912102816080932102C8010E9482
:101470005E06F2CE7A2DB98AA88A6E2D89890E94DD
:10148000D10686E0F60111928A95E9F7D9CFEE20D0
:1014900009F46BCFC8010E94BE06F82E882309F418
:1014A00064CF86E0F801ACE1B2E001900D928A953C
:1014B000E1F78CE192E00E94F1020E948708C0CF20
:1014C00081E08E25D7CEACE0B0E0E9E6FAE00C94FE
:1014D00068294F83588769877A878B879C87CE01D5
:1014E00007960E94DC08882369F08A859B85892BF2
:1014F00039F04F815885842F85238F3F09F06BC0C9
:1015000016E05FC086E0FE013796DE01119601907D
:101510000D928A95E1F78A859B85892B89F38F81C6
:10152000988589238F3F61F32091EB0130E0C90159
:101530000196877099274091EA014817190671F4BE
:101540000E949E061092EB011092EA0186E0ECE107
:10155000F2E0DF011D928A95E9F7D2CF96E0929FE3
:10156000D001939FB00D1124A451BE4FFE013196BE
:1015700001900D929A95E1F78093EB010E94570834
:10158000BFCF819FC001112484519E4F0E94DC086F
:101590008823E9F0E091EA011E9FF0011124E45153
:1015A000FE4F4081518162817381848195810E94C7
:1015B000DB068091EA0190E001968770992780937D
:1015C000EA018091EA019091EB018913DACF2C9620
:1015D000E3E00C94842969857A858B859C850E943B
:1015E000DB068ECF682F80910001909101010E944F
:1015F0001D210895682F80910001909101010E94A2
:101600002021089580910001909101010E942321E1
:10161000089580912A0285958595859508958091F4
:101620002A028770089590912A02977081E009F448
:1016300080E0089580913502089590913502892BBC
:101640008093350208958095909135029823909368
:101650003502089510923502089590913402892B35
:10166000809334020895809590913402982390934A
:101670003402089510923402089580912B02089547
:1016800008950E94400B08959091D40292FF08C0E3
:1016900090912B02981721F080932B020E94410B0E
:1016A000089580912B02882329F010922B0280E06C
:1016B0000E94410B0895CF93DF93E0910001F091D8
:1016C0000101809135028083E0910001F0910101D8
:1016D000808190913402892B808390912B029923F1
:1016E00081F0E0910001F09101018081892B8083DC
:1016F00080910001909101010E94D52081110E94EA
:10170000510BC0910001D091010148E050E062E22C
:1017100072E0CE010E949029892B59F088E0FE01E9
:10172000A2E2B2E001900D928A95E1F7CE010E940B
:101730009020DF91CF91089508950E949C0B089509
:101740009091D40292FF11C098E0899F90011124DA
:10175000622B60932A020E94310780912A028595AC
:10176000859585950E949D0B08950E9431070895E7
:1017700010922A0280E00E949D0B089590912A0207
:101780008095892380932A02282F277091F4282F8F
:10179000082E000C330B9217130659F09091D402C7
:1017A00092FF07C08595859585950E9441070E9407
:1017B000B80B08959091D40292FB222720F92817A4
:1017C00069F080FB92F99093D4028091D3029091BA
:1017D000D4020E942B0C82E00E94BE0B08958091DF
:1017E000D40282FB882780F991E089270E94DA0BD6
:1017F000089581E00E94DA0B089580E00E94DA0BE0
:1018000008956FEF7FEF90E080E00E94D229089565
:1018100090E080E00E94AE2921E0883E9E4F09F0D2
:1018200020E0822F089582E090E00E94A62908958A
:1018300083E090E00E94A6290895CF9384E090E091
:101840000E94A629C82F82E290E00E94A629982F24
:101850008C2FCF910895CF93C92F682F84E090E00B
:101860000E94B4296C2F82E290E00E94B429CF91AB
:101870000895AB01BC018FE090E00E94C629089555
:10188000AB01BC0183E190E00E94C629089560E0AD
:1018900070E0CB010E94400C089560E070E0CB0145
:1018A0000E94390C0E94470C089568EE7EEF90E08C
:1018B00080E00E94D22960E082E090E00E94B4299A
:1018C00060E083E090E00E94B4291092E901109258
:1018D000E80160E084E090E00E94B42964E082E2E4
:1018E00090E00E94B42960E085E090E00E94B42975
:1018F00060E086E090E00E94B4296FEF87E090E01E
:101900000E94B42940E050E0BA0188E090E00E94D3
:10191000C62960E08DE090E00E94B42940E050E0EC
:10192000BA0188E190E00E94C62960E087E190E07A
:101930000E94B42940E050E0BA018CE190E00E949E
:10194000C62970E060E080E290E00E94D22940E089
:1019500050E0BA0188E190E00E94C6290E944D0C37
:1019600008950E94550C0895682F8EE090E00E9423
:10197000B42908950E94E5216093460270934702BE
:10198000809348029093490260934202709343020D
:1019900080934402909345020895089508950E940B
:1019A000CE0C089508950E94D20C089585EC9FE016
:1019B0000E9472200E94CD0C0E94CF0C08950E94BC
:1019C000EC110895089508950E94E20C0E94E30C22
:1019D00008950E94E10F0E94900208950E94D02174
:1019E0000E94850F0E9407120E940E110E94E90CAE
:1019F0000E94BF1880E00E941A190E9411120E94D2
:101A0000DA160E94D30C0895AAE0B0E0EAE0FDE007
:101A10000C9461290E946C1188E3A82E82E0B82EF4
:101A2000750110E0F70101917F01812F0E940710DD
:101A30001F5F1A3009F441C00817A1F380914A02D0
:101A400081FD0E940D100E94DF0CC82E10E0812F36
:101A50000E940710082FF50181915F01081731F1ED
:101A6000D02ED826F12CEE24E3948D2D8E21B1F0CA
:101A7000CC20A1F0FE821F8391E0802F8E2109F4FB
:101A800090E098870E94D9218160782F9A87898772
:101A90004E815F8168858A850E94BC02F394EE0CBA
:101AA000F5E0FF12E2CFF501319700831F5F1A3096
:101AB00071F60E94BA0C11E021C00813BFCF0E943A
:101AC000D9218C01809136029091370208171907AD
:101AD000A1F08FEF89838A831B820E94D9218160C4
:101AE000782F9D838C8349815A816B818D810E94DF
:101AF000BC02109337020093360210E00E94EC11F2
:101B00000E94B51A11110E9479190E94A0150E9415
:101B100002170E94A3022A96EAE00C947D29CF9333
:101B2000DF930E94A00EEC01811521E5920708F0D9
:101B300042C0811530E5930708F09FC0883E9105AB
:101B400030F5803E910508F094C0883A910588F4FC
:101B5000853A910508F086C08130910509F489C065
:101B6000009709F486C0049708F083C0D0E0C0E075
:101B700080C08F3B9105D0F7C85AD0E0CC0FDD1F55
:101B8000C258DE4F0990D881C02DD46472C081152F
:101B900040E2940750F4C11581E0D80708F069C00D
:101BA000CD3ED10518F3D06564C081159044F0F2A4
:101BB000DF70D06A5EC0811535E5930718F5811591
:101BC00044E5940708F085C0C11583E5D80708F0FF
:101BD0006CC0C11522E5D20708F462C0CE01837043
:101BE000992721E030E002C0220F331F8A95E2F7E7
:101BF000C695C69580E2C89FE0011124C22BD32B65
:101C0000DC6837C0811539E59307A8F4811548E5EC
:101C1000940708F063C0C11586E5D80708F0A6CF81
:101C20008C2F0E94420FC82FD0E0DC2FCC27CC276E
:101C3000DF71D0621EC081152AE5920708F453C0F7
:101C400090568115904208F091CF8D2F8F710E9490
:101C5000420F90E0982F882788279F719C012C2B9A
:101C6000E901E7CFC55AD0E0C455DE4FC881D0E0C6
:101C7000D064CE01DF91CF9108958370992721E040
:101C800030E002C0220F331F8A95E2F7C695C69551
:101C900040E2C49FE0011124C22BD32BDD68E9CFC1
:101CA000DC2FCC27C16FD06AE4CFCE018370992797
:101CB00021E030E002C0220F331F8A95E2F7C6957B
:101CC000C69540E2C49FE0011124C22BD32BDA68F1
:101CD000D0CFD82FCC27C46FD06ACBCFD82FCC276A
:101CE000C06FD06AC6CF8F700E94420F34E0D69585
:101CF000C7953A95E1F7CF709C2FEC01D069B9CF29
:101D0000972F7A30A8F4653098F470E025E0929F20
:101D1000600D711D1124FB0192E3899FE00DF11DFF
:101D20001124EE0FFF1FE455FF4F85919491089504
:101D300080E090E008950E94800E0E948F0D08952B
:101D400082389105B9F1B0F48133910509F47DC071
:101D500048F48932910509F46DC08A32910509F47D
:101D60007BC008958533910509F45FC089339105DF
:101D700009F10895833E9105D9F138F4803E91052B
:101D800029F1823E910579F10895863E9105D9F1B8
:101D9000873E910509F43EC0843E910541F52091AE
:101DA000D40221FF24C08091D30284FD19C087EEA4
:101DB00090E008952091D302237009F05AC0209139
:101DC000D40223FF14C089E290E008952091D30249
:101DD00020FD38C03091D40230FF09C024FF43C039
:101DE00090E080E008952091D30222FDF7CF08957E
:101DF0002091D30222FD3AC03091D40230FD39C087
:101E000024FFF5CFEDCF2091D30223FFF0CF24FDA7
:101E1000E7CFCDCF2091D30223FD2EC03091D40245
:101E200031FFEECF84EE90E008952091D30225FF9C
:101E3000DECFC9CF2091D30225FD21C02091D4024D
:101E400023FFD5CF89E390E0D2CF2091D30226FFA4
:101E5000CECF8AE290E008952091D30226FFC7CF2B
:101E600081E390E0089583EE90E0089582EE90E0A3
:101E7000089580EE90E0089586EE90E0089585E361
:101E800090E008959091D30292FF06C0282F287108
:101E90002830F9F4877F846093FF06C0282F2871CB
:101EA0002831F1F4877E84612091D40220FF06C09E
:101EB000382F38713830D9F4877F816021FF06C010
:101EC000282F28712831D1F4877E816194FD877E87
:101ED0000895282F24712430F9F68B7F8860DCCF99
:101EE000282F2471243101F78B7E8861DDCF382FB4
:101EF0003171313019F78E7F8860E0CF282F217142
:101F0000213121F78E7E8861E1CF1092CF021092AD
:101F1000D0021092D1021092D2020895CF92DF9295
:101F2000EF92FF926B017C010E94EC1181110EC0B7
:101F30000E94E521C61AD70AE80AF90AC092CF0220
:101F4000D092D002E092D102F092D202FF90EF90B4
:101F5000DF90CF9008950F931F930E94EC11882378
:101F600029F00E94E5211F910F9108950E94E5211B
:101F70000091CF021091D0022091D1023091D20273
:101F8000600F711F821F931FEECF80E008950E94A3
:101F9000010C08950E946C118FE39CE90197F1F701
:101FA00000C000000E946C1180E00E94071080FFBA
:101FB00004C00E94C70F0E94402208950E94CA0FC9
:101FC00008950E94080C811102C00E94B10C0E9469
:101FD000130C80934A020E941D0C9093D4028093AC
:101FE000D3020E94DE0F0E94180C90E00E94F306BC
:101FF0008091E6019091E7010E94140708950895E9
:102000000E94FF0F089508950E9403100895E82F7D
:10201000F0E0E052FD4F80810895089580EA8A95AE
:10202000F1F7089500C008950E940E1008950895D4
:102030000E9417100895A5E0B0E0E1E2F0E10C94F1
:1020400065290E94EC11F82E6091EA02882309F4B8
:1020500040C085E0E82E8E010F5F1F4FF8018E2DE6
:1020600011928A95E9F7862F90E0B80180529D4F32
:102070000E941F128823B9F08091D50290E045E0BC
:1020800050E0B80180529D4F0E94902921E020939A
:102090004B02892B91F4F12C0E9409028F2D259679
:1020A000E6E00C94812980914B028823A1F3F8018A
:1020B0001192EA94E9F710924B02A091D502B0E098
:1020C000A052BD4F85E0F80101900D928A95E1F78D
:1020D000E3CF70E060527D4F8091D50290E0805256
:1020E0009D4F0E94A6120E941810D8CFF894E82F96
:1020F000E295EF70F0E031A1282F2F7081E090E0A1
:1021000001C0880F2A95EAF7982F9095932391A301
:1021100092A1892B82A378940895CF93DF93C2E094
:10212000D1E089918F3F11F00E94761081E0C73095
:10213000D807B9F7C7E0D1E089918F3F11F00E942D
:10214000761081E0CC30D807B9F7DF91CF910895B0
:10215000B0E0A0E0EEEAF0E10C9463297C01162FD8
:10216000042FC62FD0E0CE5FDE4F28812F3F09F429
:102170004CC0F894E22FE295EF70F0E031A12F709F
:1021800081E090E001C0880F2A95EAF7932F982B01
:1021900091A392A18095892382A378940E94121022
:1021A00087E0C82E81E0D82EF701A7014B5F5F4F73
:1021B000F12CE02EE094D6019D916D0181919F015B
:1021C000215031099F3F31F1692F62956F7070E0A6
:1021D000DB0190966C9170E09F7002C075956795D9
:1021E0009A95E2F760FD16C0802BD9018C93FF24ED
:1021F000F394E417F507F9F688818F3F11F00E94F8
:1022000076106F2D812F0E941410CDB7DEB7E8E055
:102210000C947F298E21D9018C93EBCFAAE0B0E0FA
:10222000E4E1F1E10C94692980910C01811130C045
:1022300085E0E3E4F1E0DE01169601900D928A95C7
:10224000E1F78E81809307018F8180930801888553
:1022500080930901898580930A018A8580930B0107
:1022600085E0E8E4F1E0DE01119601900D928A9597
:10227000E1F78981809302018A81809303018B8138
:10228000809304018C81809305018D8180930601E8
:1022900080910C0195E0811190E09093EA0285E035
:1022A000891B8093D5020E948D108AE0E0EEF2E057
:1022B000DF01982F1D929A95E9F7E6EDF2E0DF0134
:1022C0001D928A95E9F785E00E94AE110E940602F0
:1022D0002A96E2E00C948529AAE0B0E0E2E7F1E179
:1022E0000C9465298E010F5F1F4F8AE0F80111924F
:1022F0008A95E9F7F12CEE24E3944E2D6F2DC80159
:102300000E94A810F394EE0CF5E0FF12F6CF4AE01D
:1023100050E0B80186ED92E00E94902921E00097FC
:1023200009F420E0892B41F08AE0F801A6EDB2E043
:1023300001900D928A95E1F76091EA0270E0605297
:102340007D4F45E086ED92E00E94AF11182F0E946C
:102350001B10812B2A96E6E00C9481290895CF92D8
:10236000DF92EF92FF920F931F93CF936C017B014B
:10237000042F222349F081E080934E020E94D9214C
:1023800090934D0280934C02C0914E02C1110AC03D
:10239000C0E08C2FCF911F910F91FF90EF90DF90B5
:1023A000CF90089580914C0290914D020E94F121AE
:1023B000059770F310E0A801B601C7010E949029AB
:1023C000892B41F0A801B601C7010E949D291092F6
:1023D0004E02DFCFC0E0FBCF80915102811107C0D8
:1023E0000E941E29882351F081E08093510281E0F0
:1023F00090915102913009F080E0089582E080933D
:1024000051020E941929F3CF0E94EC1108950E94F5
:10241000041280930C010E94EC1181110E9455124C
:1024200008950E94EC11811102C00E945812089573
:1024300081E0909152029A3008F080E008950F9365
:102440001F93CF93DF93EC018B01809152028A306E
:10245000B8F4B801CE010E94A312C82F811122C086
:10246000809152028F3FB9F40E94D921909350027B
:1024700080934F028C2FDF91CF911F910F91089580
:1024800080914F02909150020E94F121843F91402F
:1024900000F7C0E0EFCF8F5F809352028A3020F7C1
:1024A000C1E0E8CF10925202E5CF0E94101F0895BC
:1024B0000E94131F0895B0E0A0E0E1E6F2E10C9461
:1024C00064297901C82F880FDD0B41155105A9F04A
:1024D000FE0193E0EE0FFF1F9A95E1F7E35FFE4FD9
:1024E000818192818D5A9D4F208130E042175307A0
:1024F00008F49A01A9010E949D29CE010E94FC1FA7
:10250000D82E8823D1F001151105B9F083E0CC0F46
:10251000DD1F8A95E1F7FE01E35FFE4F438150E046
:102520000417150708F4A801C35FDE4F6C817D8195
:102530006D5A7D4FC7010E949D298D2DCDB7DEB705
:10254000E7E00C9480290E94951308950E94AC1333
:102550000895A4E0B0E0EFEAF2E10C9467296091FD
:102560006A0270916B0280916C0290916D020E94E0
:10257000002211E0643671058105910518F10E9471
:10258000AB0F6E5F7F4F8F4F9F4F69837A838B8333
:102590009C8310E000E030E020E044E050E0BE0129
:1025A0006F5F7F4F82E00E945B12182F882351F0EB
:1025B0000E94E52160936A0270936B0280936C0223
:1025C00090936D02812F2496E4E00C948329B0E06F
:1025D000A0E0EDEEF2E10C9461297C015B016A015F
:1025E0000E94181201E010E0882311F00AE010E0C8
:1025F000C1E0D0E0B501C701F6010995811104C021
:1026000021960C171D072CF4CDB7DEB7EAE00C9429
:102610007D29CC9F9001CD9F300D300D112490E08D
:1026200080E045E34A95F1F7000001968217930791
:10263000C1F7E0CFA6E0B0E0E0E2F3E10C9461295D
:102640007B01C090AF01D090B00101E010E09E018D
:102650002A5F3F4F50E040E070E060E080E00E9481
:102660005B12182F882309F448C056018FEFA81A6F
:10267000B80A609166027091670280916802909139
:1026800069020E940022643671058105910568F196
:1026900005E010E09E012F5F3F4F50E040E070E00A
:1026A00060E081E00E945B12D82E65E070E0C50119
:1026B0000E94C01811E09E81981310E01D2141F185
:1026C0000E94E5216093660270936702809368021E
:1026D0009093690285E0FE013196A1E6B2E0019097
:1026E0000D928A95E1F711E013C065E070E0C50135
:1026F0000E94C0189E818913CBCF85E0F6013196E8
:10270000DE01119601900D928A95E1F71111E2CF49
:1027100085E0E1E6F2E0D70101900D928A95E1F7BC
:10272000812F2696EAE00C947D290F931F93CF9377
:10273000DF93EC018B014AE153E10E94E712882309
:1027400031F049EA52E1B801CE010E94E712DF916F
:10275000CF911F910F9108950F931F93CF93DF9304
:10276000C091AF01D091B001CE01019625E0FB01EF
:10277000DC0101900D922A95E1F765E070E00E947E
:10278000C01888836E817F818885998500915D025C
:1027900010915E0220915F02309160026017710714
:1027A0008207930751F060935D0270935E028093FD
:1027B0005F02909360020E948E0FDF91CF911F9174
:1027C0000F9108950E94F4230E94EE0C0E940124B0
:1027D00008950E9406240E94040D0E94202408955A
:1027E0000E9472210E94DA230E94D60C0E94E213FA
:1027F0000E94E9130E94E40CFBCF8091740280FFD9
:102800000DC060912A0170E0660F771F6038710576
:1028100070F56115710569F1862F089581FF07C074
:1028200060912A0184E0689FB0011124EFCF60918C
:102830002A0182FD0AC0809173028823A9F02091A9
:10284000290160912A01821710F088E0ECCF869F61
:10285000C001112433E0880F991F3A95E1F7622FE8
:1028600070E00E943F29D2CF68E070E0D5CF8FE7BB
:10287000089581E008958091740280FF0CC06091FA
:10288000260170E0759567957595679561157105D9
:1028900049F1862F089581FF06C06091260170E0FE
:1028A00075956795F3CF6091260182FD0BC09091DD
:1028B00072029923A1F0609125018091260196175B
:1028C00038F0682F70E06038710500F38FE70895E5
:1028D000899FC001112470E00E943F29F4CF61E07C
:1028E00070E0D7CF81E008958D3E31F40E94FD1352
:1028F00081958093780208958E3E19F40E94FD130D
:10290000F8CF8F3E31F40E94FD13819580937702BA
:102910000895803F19F40E94FD13F8CF893F29F4F0
:102920000E943B148093790208958A3F21F40E940B
:102930003B148195F7CF8B3F31F40E943B14819576
:1029400080937A0208958C3F19F40E943B14F8CFCB
:102950009FE0980F983070F4815F990B21E030E090
:1029600001C0220F8A95EAF780917602822B80932C
:10297000760208958D3F31F48091740281608093D6
:10298000740208958E3F21F4809174028260F7CF23
:102990008F3FB9F7809174028460F1CF4091770244
:1029A0008D3E59F48091780287FF0DC01092780215
:1029B00041110BC01092730208C08E3E81F48091C9
:1029C000780218169CF3442381F08091790290914B
:1029D0007A02892B09F05AC01092720208958F3E34
:1029E00049F447FFF0CF109277028091780281116D
:1029F000ECCFE0CF803F19F41416ACF3E4CF909104
:102A00007902893F29F41916F4F610927902DBCF86
:102A10008A3F19F497FFD7CFF8CF90917A028B3F76
:102A200029F497FFD0CF10927A02CDCF8C3F19F4C2
:102A30001916CCF3C8CF9FE0980F983090F4815FBF
:102A4000990B21E030E0B90102C0660F771F8A952B
:102A5000E2F7CB01809590917602892380937602EC
:102A6000B2CF8D3F31F4809174028E7F80937402D7
:102A7000AACF8E3F21F4809174028D7FF7CF8F3FD4
:102A800009F0A1CF809174028B7FF0CF08950E944E
:102A9000D9219C019091770280917802982B21F0A6
:102AA00030937102209370029091790280917A02A2
:102AB000982B21F030936F0220936E0285E792E00D
:102AC0000E949B20089586E0E5E7F2E0DF011D9279
:102AD0008A95E9F7109273021092720210927402B2
:102AE0000895A6E0B0E0E7E7F5E10C94692986E0F7
:102AF000E5E7F2E0DE01119601900D928A95E1F78B
:102B000029813A814B815C816D817E8180E090E0FA
:102B10002696E2E00C948529FC01828181110EC089
:102B2000838181110BC08481811108C091E085816E
:102B3000811101C090E0892F8170089581E0FCCF60
:102B4000A6E0B0E0E6EAF5E10C94682986E0E5E766
:102B5000F2E0DE01119601900D928A95E1F7109254
:102B60007702109278021092790210927A028B8189
:102B70009C81892B89F080917002909171020E9452
:102B8000F121AC01909173029923C9F180912B013D
:102B90008417150608F440C08D819E81892B91F021
:102BA00080916E0290916F020E94F121AC01909190
:102BB0007202992309F471C08091270184171506C8
:102BC00008F479C0BE016F5F7F4F85E792E00E94F5
:102BD0002A21811105C085E792E00E948C158111A0
:102BE0000E94471586E0FE013196A5E7B2E001900C
:102BF0000D928A95E1F72696E3E00C9484292091C2
:102C00002C018AE0289F900111242417350720F613
:102C10009F5F9093730202C09F3FD1F71B811123E6
:102C200059F00E94FD139FEF11160CF491E0899F5B
:102C3000802D1124809377021C81112359F00E946A
:102C4000FD139FEF11160CF491E0899F802D112444
:102C50008093780230917702332309F49DCF20913D
:102C60007802222309F498CF45EB3403C0011124E4
:102C7000992359F09093770245EB24039001112496
:102C8000332339F03093780287CF81E08093770245
:102C9000F3CF81E0809378027FCF209128018AE0F2
:102CA000289F900111242417350708F08BCF9F5FD0
:102CB0009093720202C09F3FD1F71D81112359F0FA
:102CC0000E943B149FEF11160CF491E0899F802D18
:102CD0001124809379021E81112359F00E943B1424
:102CE0009FEF11160CF491E0899F802D11248093A1
:102CF0007A0230917902332309F464CF20917A0269
:102D0000222309F45FCF45EB3403C001112499233A
:102D100059F09093790245EB240390011124332359
:102D200039F030937A024ECF81E080937902F3CF6D
:102D300081E080937A0246CF08950895ACE0B0E038
:102D4000E4EAF6E10C9469294F83588769877A870A
:102D50008B879C8786E0FE013796DE0111960190F5
:102D60000D928A95E1F729813A814B815C816D81D1
:102D70007E8180E090E02C96E2E00C948529ACE026
:102D8000B0E0E5ECF6E10C9469290E949E1680E023
:102D900090E02C96E2E00C94852921E030E001C01F
:102DA000220F4A95EAF7662311F0822B08952095A9
:102DB00082230895E091B101F091B20109950E943A
:102DC0009C160E949D1608956BE772E081E892E0E0
:102DD0000E942A21882321F081E892E00E949B2012
:102DE0001092830210928402109285021092860241
:102DF00086E0E1E8F2E0ABE7B2E001900D928A955F
:102E0000E1F70895A2E1B0E0E8E0F7E10C94692968
:102E1000E091B301F091B40140918102509182029E
:102E20006091830270918402809185029091860264
:102E3000099520938102309382024093830250933C
:102E40008402609385027093860286E0E1E8F2E0F6
:102E5000DE011D9601900D928A95E1F786E0FE0154
:102E60003D96DE01119601900D928A95E1F786E07C
:102E7000FE013196DE01179601900D928A95E1F7D9
:102E800086E0FE013796A1E8B2E001900D928A95A6
:102E9000E1F740918102509182026091830270912A
:102EA000840280918502909186020E94BF16209331
:102EB0008102309382024093830250938402609394
:102EC0008502709386020E947115E1E8F2E081812B
:102ED000832B81830E94E4166296E2E00C9485299C
:102EE000A6E0B0E0E6E7F7E10C94692986E0E1E8C6
:102EF000F2E0DE01119601900D928A95E1F72981A9
:102F00003A814B815C816D817E8180E090E02696E4
:102F1000E2E00C948529A6E0B0E0E1E9F7E10C9449
:102F2000692949835A836B837C838D839E8386E0E2
:102F3000FE013196A1E8B2E001900D928A95E1F789
:102F40002696E2E00C948529FC012081318120380D
:102F5000310534F02F573109318320838FE70895ED
:102F600020388FEF380734F421583F4F31832083C6
:102F700080E80895822F118210820895A1E1B0E0C7
:102F8000E4ECF7E10C9466294C87888B998B152F1C
:102F9000F62E072FCE01079625E0FC0111922A9507
:102FA000E9F720918D022A3008F03FC00E94821874
:102FB000892B09F060C010928D028B8540E087FD5F
:102FC00052C060E0812F0E94CD16182F80918B0295
:102FD00090918C02009709F040C045E06F81888590
:102FE0000E9499182091890230918A02820F931FC2
:102FF00090938A028093890245E069858A850E94C0
:1030000099182091870230918802820F931F909324
:1030100088028093870289E892E00E94A417F82E24
:1030200087E892E00E94A417082F1D87FE860F876D
:1030300086E0FE013C96DE01119601900D928A9584
:10304000E1F729813A814B815C816D817E8180E04D
:1030500090E06196E5E00C948229019790938C02B0
:1030600080938B02E2CF61E0812F0E94CD16182F52
:1030700084E190E0F3CF80918D028F5F80938D0289
:10308000D4CF80912D0190912E012DE7AC01249F8A
:10309000C001259F900D112408959C01893F910541
:1030A00038F481E090E090932E0180932D010895F3
:1030B000EDE7F0E0BF010E942B29A901481B590B45
:1030C000CA01BF010E942B2970932E0160932D012C
:1030D0000895A4E0B0E0EFE6F8E10C946729898355
:1030E0006A834B832C8304E610E024E030E0AE01D9
:1030F0004F5F5F4F60E084E10E94421E2496E4E04F
:103100000C9483290F931F9304E610E025E030E030
:10311000AC0164E084E10E94691E1F910F91089543
:103120000E943B1D20E040E060E080E00E946918C2
:103130000895681708F5861B682F21E0469FA001B7
:103140001124649FF001659FF00D112440912D0121
:1031500050912E01E49FC001E59F900DF49F900DCA
:103160001124880F892F881F990B9195222319F01C
:103170009195819591090895681B20E0DFCF08950E
:10318000FC01680F791F8FEF91E36E177F0709F439
:1031900008952191822728E030E087FF06C0880F3C
:1031A000892721503109C9F7F0CF880FFACFB0E055
:1031B000A0E0EDEDF8E10C9463296C017B0164E67D
:1031C00070E088E70E94411DEC0197FD12C010E0FD
:1031D00000E0F601E00FF11F849164E670E00E94C8
:1031E000AD1DEC01892B29F40F5F1F4F0E151F0534
:1031F00081F70E94B21ECE01CDB7DEB7E8E00C9495
:103200007F2908950E9401190895EBEEF2E080E015
:1032100092E0DF019C011D9221503040E1F7F093D4
:10322000F204E093F1048FEF9FEF9093B402809348
:10323000B30208950E9401190E9402198093AF02FF
:1032400080FD0FC080E88093AE020E943B1D6DE0C0
:1032500070E08FEE91E00E94D718892B21F080E07A
:10326000089580E2F0CF8091AF0263E070E081FDCD
:1032700026C08CEE91E00E94D718892B81F76DE073
:1032800070E08CED91E00E94D718892B41F70E94E5
:10329000E521605A75418F4F9F4F6093ED04709305
:1032A000EE048093EF049093F0040E94051981E0EE
:1032B0008093B2028093B1021092B002089589EE19
:1032C00091E0D9CF2091AE0236E0839FC001112456
:1032D000629F800D911D1124811522E0920714F048
:1032E00090E080E085519D4F9093F2048093F1042B
:1032F00008958091B202811103C08091B1020895B6
:103300000E94E521605A75418F4F9F4F6093ED04F5
:103310007093EE048093EF049093F0048091B102D7
:103320008111EBCF62E070E08AED91E00E94D71846
:10333000892B19F781E08093B102DFCF2F923F9262
:103340005F926F927F928F929F92AF92BF92CF9235
:10335000DF92EF92FF920F931F93CF93DF938091B1
:10336000B202882369F02091B3023091B402211592
:10337000310531F08091B00261E070E0882399F06E
:10338000DF91CF911F910F91FF90EF90DF90CF9041
:10339000BF90AF909F908F907F906F905F903F9085
:1033A0002F9008958F5F082F10E01B01082E02C098
:1033B000220C331C0A94E2F7A90142215321452B28
:1033C00089F39091AF0290FD44C08295880F80767A
:1033D000809331019801369527953695279520934E
:1033E0003401815E809332011092350124E630E091
:1033F00047E050E06FE271E088E70E94211E892BD0
:1034000009F0BECFA80125E0440F551F2A95E1F72A
:103410008091AF0280FD2BC045515D4F04E610E066
:1034200020E230E060E488E70E94421E892B09F028
:10343000A7CF0E947919E101C095D0958091B30280
:103440009091B402C823D923D093B402C093B3029D
:1034500097CF880F880F880F809331011092340125
:10346000895F8093320183E080933501BFCFEEE81E
:10347000F2E080E2DF011D928A95E9F7ADEBB1E061
:1034800009EB11E081ECC82E81E0D82E97E0592E8F
:10349000772473948D91E80129918E01240F352FA3
:1034A000311D25513D4FE82FF0E0E257FD4F90E0F0
:1034B00080E0652C681A872C082E01C0880C0A94BD
:1034C000EAF77901A12CE701B9907E01B820662DB9
:1034D0006A196770962E062E000C770BDB2D01C043
:1034E000DD0F9A94EAF771956195710967707727F6
:1034F00001C0B6946A95EAF7BD2A6081962E9B2892
:103500009082A39468E0A612DECF019631968830AF
:10351000910579F6CA16DB0609F0BCCF04E610E087
:1035200020E230E04EE852E07DCF8091B1029091F0
:10353000B202911103C091E089270895882369F0B0
:1035400062E070E088ED91E00E94D718892B19F0B5
:103550008091B10208951092B1028091B102EBCF37
:1035600081E008950E94B01A08950F931F938091EF
:10357000B202882379F18091EB049091EC040E94CF
:10358000F121C29760F00E94D9219093EC048093BE
:10359000EB0460E080E00E9462190E94B21A0E946F
:1035A0009E198091B1028823A9F00E94E521009123
:1035B000ED041091EE042091EF043091F004601BB3
:1035C000710B820B930B6F3F7F4F8F4F9F4710F410
:1035D0000E94951A1F910F910895CF93DF93EC01EC
:1035E000FB018281882309F464C1C430FDE5DF0753
:1035F000E0F5CB3F9CE5D90730F49E0122503C45D5
:1036000024313105D8F50E941D0C9093D40280938B
:10361000D302C231ECE5DE0709F41FC108F06EC029
:10362000C9308CE5D80709F4F2C008F03FC0C530B6
:10363000ECE5DE0709F4DBC058F5C3308CE5D807AC
:1036400009F4CDC008F0CFC08091D3028160C230B0
:10365000DC4509F4AEC08091D3029091D4020E945F
:103660002B0C0E949E0680E009C0C63AEDE5DE07FD
:1036700051F238F4C2369DE5D90729F2DF91CF9196
:1036800008959E012E5A3D4523303105B8F7BBCF32
:103690008091D3028062C730FCE5DF0709F489C05E
:1036A00008F4B1C08091D302806483C0CD309CE522
:1036B000D90709F4BAC070F48091D3028E7FCB3061
:1036C000FCE5DF0709F475C008F4A7C08091D302B8
:1036D0008D7F6FC0CF309CE5D90709F4B6C008F4E0
:1036E000A8C0C031FCE5DF0709F4B3C0C131DC4537
:1036F00009F0B1CF8091D3028F7B5BC0C1159DE5EE
:10370000D90709F4B4C098F5CB3FFCE5DF0709F40D
:1037100072C0B8F4C4319CE5D90709F4B6C008F406
:10372000A2C0C531DC4509F096CF8091D30282FB5F
:10373000992790F921E0922790FB82F990FB83F979
:1037400038C0CD3F8CE5D80709F477C008F457C0DE
:10375000CE3FECE5DE0709F474C08091D4028360AB
:10376000CF3FDC4509F077CF8093D40274CFC236C7
:103770008DE5D80709F496C068F4C230EDE5DE07A0
:1037800009F48CC008F477C0C330DD4509F063CF7D
:1037900080E085C0CE3A9DE5D907E9F068F49091C4
:1037A000D302892F8E7F90FF8160C63ADD4509F0F4
:1037B00052CF8093D3024FCFCF3A8DE5D80789F10E
:1037C000C03BDD4509F047CF9091D402892F877F18
:1037D00093FF8860C9CF8091D4028860C5CF809163
:1037E000D3028260E6CF8091D3028460E2CF8091E1
:1037F000D3028860DECF8091D4028160B5CF809102
:10380000D4028260B1CF8091D3028061D2CF0E9476
:103810009E068091D3028068CCCF8091D3028C60C9
:10382000C8CF8091D402877F9FCF8091D3028B7FB6
:10383000C0CF8091D302877FBCCF8091D4028E7F8E
:1038400093CF8091D4028D7F8FCF8091D3028F7ED2
:10385000B0CF8091D3028F7DACCF0E949E06809125
:10386000D3028F77A6CF8091D302837FA2CF80919E
:10387000D4028C7F79CF8091D402982F909591704B
:103880008E7F892B90FB81F96FCF0E949E069091CD
:10389000D302892F97FB87F980588BCF81E00E9454
:1038A000B40CD9CE9091D302892F8F7E94FF806182
:1038B00080CF81E0E3CECF93DF93EB0186319C454F
:1038C00011F50E941A0B9A81992399F08A7A91E056
:1038D00009F490E09093B502811109C089E20E9439
:1038E000F20A0E945B0B80E0DF91CF91089585E39F
:1038F000F6CF8091B502811104C089E20E94FA0AD4
:10390000F0CF85E3FBCF81E0EFCF0F931F93CF93F1
:10391000DF93C42FD22FFC0182818823C9F040930A
:10392000B8020E94D9219093B7028093B60280E238
:103930008C0F883040F4C77081E001C0880FCA95B1
:10394000EAF70E942304DF91CF911F910F91089510
:103950001091B802141332C08091B6029091B70250
:103960000E94F121883C910548F5C0E2CD0F1D175A
:10397000B9F080E2810F883040F4177081E001C017
:10398000880F1A95EAF70E942A04C83048F481E0AB
:103990009D2F977001C0880F9A95EAF70E94230423
:1039A000802F0E941A04C83070F6D77081E001C0E1
:1039B000880FDA95EAF70E942A04C5CF80E28C0FBF
:1039C000883008F6C77081E001C0880FCA95EAF711
:1039D000F2CF0F939C01CB01243F4CE5340759F102
:1039E000A8F4293DFCE53F0701F12A3D4CE53407E9
:1039F000D1F1283D3C4591F406E221EE41EE68ED1F
:103A00007CE50E94851C80E00F910895263FFCE52F
:103A10003F07E9F0B0F0273F3C45F9F0FC01828117
:103A2000882339F11092B802EFCF07E225EE45EE78
:103A300069ED7CE5E6CF06E221EE40EE64EF7CE541
:103A4000E0CF07E225EE44EE65EF7CE5DACF06E253
:103A500021EE42EE66EF7CE5D4CF07E225EE46EE9E
:103A600067EF7CE5CECF08E221E045EE6AED7CE52C
:103A7000C8CF81E0C9CF1092B9008CE08093B80024
:103A80000895B0E0A0E0E7E4FDE10C946029B82ED1
:103A9000EB010E94D9216C01EE24E394F12CC43196
:103AA000D10560F025E0E22EF12CCF3FDC0731F0AC
:103AB000CE0164E170E00E942B297B0184EAA82EEC
:103AC00094E8992E1092BC00A092BC000E94D921CB
:103AD0008C018091BC0087FF0DC08091B900887F68
:103AE0008830F9F08091B900887F8031D1F00FEFF4
:103AF0001FEF08C0C8010E94F121E816F90648F737
:103B00000EEF1FEFCF3FDC07E9F2C6010E94F12163
:103B1000C817D907B8F6C801CDB7DEB7EBE00C94EB
:103B20007C29B092BB009092BC000E94D9218C01EC
:103B30008091BC0087FF0AC08091B900887F8831DE
:103B400011F08034A1F610E000E0E5CFC8010E943A
:103B5000F121E816F90660F7D3CF0F931F93CF93A7
:103B6000DF93EB018093BB0084E88093BC000E944C
:103B7000D9218C018091BC0087FF11C02091B90030
:103B8000287F81E090E0283211F490E080E0919568
:103B900081959109DF91CF911F910F910895CF3FAA
:103BA000DC0741F3C8010E94F121C817D90710F7BB
:103BB0008EEF9FEFEFCF0F931F93CF93DF93EC0127
:103BC00084EC8093BC000E94D9218C018091BC00C0
:103BD00087FF08C08091BB0090E0DF91CF911F91DB
:103BE0000F910895CF3FDC0789F3C8010E94F121AE
:103BF000C817D90758F78EEF9FEFEFCF0F931F939A
:103C0000CF93DF93EC0184E88093BC000E94D9211C
:103C10008C018091BC0087FF08C08091BB0090E0C0
:103C2000DF91CF911F910F910895CF3FDC0789F36A
:103C3000C8010E94F121C817D90758F78EEF9FEFEE
:103C4000EFCFB0E0A0E0E7E2FEE10C9463296B0166
:103C50008A017901B9010E94411DE6010C0D1D1D6B
:103C6000C017D10711F097FF08C024E92093BC00CA
:103C7000CDB7DEB7E8E00C947F29B70189910E94A7
:103C8000AD1DEECFB0E0A0E0E8E4FEE10C946329C6
:103C9000C62F6A017901B8010E94411D97FD0CC031
:103CA000B8018C2F0E94AD1DE601EC0CFD1CCE1559
:103CB000DF0511F097FF08C024E92093BC00CDB7C1
:103CC000DEB7E8E00C947F29B80189910E94AD1D10
:103CD000EECFB0E0A0E0EFE6FEE10C946329F82E11
:103CE000E62EEA016901B8010E94411D97FD15C049
:103CF000B8018E2D0E94AD1D97FD0FC0B8018F2D0C
:103D000081600E94411DF12CE12C21E0C21AD108F2
:103D1000EC14FD04E0F497FF0DC024E92093BC00EF
:103D20001816190614F490E080E0CDB7DEB7E8E08D
:103D30000C947F29C8010E94DB1D97FD04C0FE0181
:103D4000EE0DFF1D80832FEFE21AF20AE1CF97FDFF
:103D5000E4CFC8010E94FE1D97FDDFCFCC0DDD1D15
:103D60008883DBCF84E98093BC0008958EE14A9B71
:103D700002C08150E1F74A9BFECF08955A9880E235
:103D80008A95F1F75A9A0895FC013BE03A95F1F7CC
:103D900098E020E080E031E040E14A95F1F7880FBB
:103DA0004A9B02C08160232742E04A95F1F7000058
:103DB00040E14A95F1F7915079F790E19A95F1F742
:103DC00099B132E03A95F1F7000040E14A95F1F7F8
:103DD00092FB992790F992272081920F9083089562
:103DE000A1E0B0E0E6EFFEE10C94652919828C01B8
:103DF0007C01E60EF11C0E151F0541F481E099814E
:103E0000911180E02196E6E00C9481290E94B61E73
:103E1000CE0101960E94C41EF80181938F01EBCF61
:103E2000529A5A9A089552985A9AEA9AE9E6F0E014
:103E300080818F7C808308956150770B91E001C071
:103E4000990F6A95EAF720E031E0911108C022232A
:103E500091F05A9A80E28A95F1F75A980895492F7D
:103E6000482339F05A9A232740E24A95F1F796956C
:103E7000ECCF5A98F9CF5A98EDCFFF920F931F933A
:103E8000CF93DF93EC018C01060F111DC017D107F2
:103E900029F4CDB7DEB7E5E00C948229F9900E94B1
:103EA000BE1E68E08F2D0E941C1FF0CF1F920F9244
:103EB0000FB60F9211240F931F932F933F934F939D
:103EC0005F936F937F938F939F93AF93BF93EF9382
:103ED000FF93CF93DF930F92CDB7DEB719820E9485
:103EE000B61ECE0101960E94C41E082F06950695A7
:103EF0000695282F22952570902F9570290F922FC7
:103F0000937026952695920F982797708981982B04
:103F100009F05CC0043008F059C080E18A95F1F7DF
:103F20005A9A529A82E08A95F1F700C05A9888E02E
:103F3000089F80011124D801A35FBE4F1696ED9112
:103F4000FC9117973097A9F06091AF017091B00183
:103F500014962D913C911597260F371F11968D9130
:103F60009C911297680F791F13964C9113978C911F
:103F70000995F801E35FFE4F6381662351F02091BC
:103F8000AF013091B00184819581820F931F0E940F
:103F90003D1F0E94BE1E80E18A95F1F75A98529803
:103FA0005A9A80E18A95F1F7F801E35FFE4F60814C
:103FB000662351F02091AF013091B001818192814F
:103FC000820F931F0E94F01E0E94B61E0F90DF9179
:103FD000CF91FF91EF91BF91AF919F918F917F9181
:103FE0006F915F914F913F912F911F910F910F9082
:103FF0000FBE0F901F9018950F931F93CF93DF93D1
:10400000EC0104970CF04CC0F894529A5A9885E051
:104010008A95F1F700009C2F969595708C2F8570EE
:10402000980F892F83709695969523E0CC0FDD1F0E
:104030002A95E1F7980F8E01092B0E94BE1E00C041
:1040400068E0802F0E941C1F80E18A95F1F752984A
:104050005A9A4A9B1EC087E090E04A991CC0FE0114
:10406000E35FFE4F63816623F9F02091AF01309149
:10407000B00184819581820F931F0E94F01E8111EF
:1040800013C0529A5A9A7894DF91CF911F910F9151
:10409000089500C0DECF019729F4529A5A9A789475
:1040A00080E0F2CF00C0D9CF0E94B61E80E28A9590
:1040B000F1F75A98529A80E18A95F1F7C35FDE4F83
:1040C0006881662351F02091AF013091B001898160
:1040D0009A81820F931F0E943D1F0E94BE1E7894FA
:1040E00081E0D2CF9093C3018093C2010895909351
:1040F000BF028093BE0208950E94EC11811103C09B
:104100008091B9020895E091BE02F091BF0230970C
:1041100029F00190F081E02D0995089580E008953F
:10412000E091BE02F091BF02309721F00280F3814E
:10413000E02D09950895E091BE02F091BF023097FD
:1041400039F022E0DC012C930480F581E02D099503
:1041500008952091BC023091BD022817390771F0F3
:104160009093BD028093BC02E091BE02F091BF0229
:10417000309721F00680F781E02D09950895209170
:10418000BA023091BB022817390771F09093BB0235
:104190008093BA02E091BE02F091BF02309721F005
:1041A0000084F185E02D099508959C012E5F3F4F15
:1041B000AC01485F5F4F80E02417350709F408958C
:1041C000F90191919F019923B9F38F5FF5CF662390
:1041D00049F0FC01329608962191261729F0E8173C
:1041E000F907D1F780E0089581E008959C01FC0172
:1041F00032969FEF80E04191461751F09F3F19F4AE
:10420000411101C0982F8F5F8630A9F79F3F09F4B5
:104210000895290F311D97FD3A95F901628308959C
:10422000FC01329608962191261303C0DF011197F5
:104230001C92E817F907B9F708950E94F62008952F
:104240000E9410210895029626E0FC0111922A9501
:10425000E9F7089546E050E00E94902921E0892B7B
:1042600009F420E0822F089508950E9434210895D2
:10427000811106C081E08093C0020E94352108951B
:1042800082E0F9CF83E08093C0020E943521089537
:104290000E943821089581E08093C0020E94352158
:1042A00008950E944B210895089508950E94552174
:1042B0000895089508950E9454210895CF930E946F
:1042C00059210E946C110E945A21C0E08C2F0E943B
:1042D0000710811105C0CF5FCA30C1F7CF91089593
:1042E00081E0FCCF85B7806885BF85B7806885BFD2
:1042F00008951F921FB61F9211248F939F93AF931F
:10430000BF938091C102811113C08091F3049091F9
:10431000F404A091F504B091F6044196A11DB11DDD
:104320008093F3049093F404A093F504B093F604FF
:10433000BF91AF919F918F911F901FBE1F901895B5
:104340008091FB04843031F10E9479021092C10205
:1043500088E190E020E40FB6F894A895809360007F
:104360000FBE2093600083B7817F846083BF83B7D3
:10437000816083BF7894889583B78E7F83BF0FB6A3
:10438000F894A895809160008861809360001092F5
:1043900060000FBE08950E949E060E94820208954A
:1043A00082E084BD93E095BD9AEF97BD80936E0047
:1043B00008952FB7F8948091F3049091F404A0919C
:1043C000F504B091F6042FBF08952FB7F8946091CB
:1043D000F3047091F4048091F5049091F6042FBFDA
:1043E00008959C014FB7F8948091F3049091F404E0
:1043F000A091F504B091F6044FBF821B930B089572
:10440000CF92DF92EF92FF922FB7F894C090F3040F
:10441000D090F404E090F504F090F6042FBFA701CB
:104420009601261B370B480B590BCA01B901FF90A7
:10443000EF90DF90CF90089578941F921FB61F924F
:1044400011248F939F93AF93BF938091F304909126
:10445000F404A091F504B091F6040196A11DB11DDC
:104460008093F3049093F404A093F504B093F604BE
:10447000BF91AF919F918F911F901FBE1F90189574
:1044800087E797E7909301088093000888E19AE016
:104490000FB6F894A895809360000FBE90936000CB
:1044A000FFCF88E19AE00FB6F894A895809360005A
:1044B0000FBE90936000FFCF8091CD0208950895C4
:1044C0009C0182E08093E9009FEF8091E800915089
:1044D00085FD06C085ED8A95F1F700009111F5CFB5
:1044E0008091E80085FF0CC050E040E066E070E09D
:1044F000C9010E9492248091E8008E778093E800A1
:104500000895CF93DF93EC0181E08093E9008FEF72
:104510009091E800815095FD06C095ED9A95F1F7D0
:1045200000008111F5CF8091E80085FF14C050E0B4
:1045300040E068E070E0CE010E9492248091E800A3
:104540008E778093E80088E0FE01A5ECB2E0019050
:104550000D928A95E1F7DF91CF9108958093C20281
:104560007093C4026093C3028091FB04843001F510
:1045700082E08093E9008FEF9091E800815095FDF3
:1045800006C095ED9A95F1F700008111F5CF809165
:10459000E80085FF0DC050E040E063E070E082EC91
:1045A00092E00E9492248091E8008E778093E80048
:1045B0000895BC0184E00E94AE220895BC0183E00E
:1045C0000E94AE2208958091FA04811109C00E94D0
:1045D00022260E947F268091E20084608093E20080
:1045E00008951092FA0408950E944B210895609155
:1045F000F70481E0611101C080E00E94422108952A
:104600009091FB0481E0943009F080E06091F70420
:104610000E944821089542E061EC81E00E949E25BD
:1046200042E261EC82E00E949E259091FB0481E0D1
:10463000943009F080E06091F7040E9438210895D9
:104640008091FD04833009F461C030F48130D1F1F0
:10465000823009F49EC008958A3009F48AC08B30F4
:1046600009F46FC0893009F050C08091FC04813298
:1046700009F04BC08091000590910105029708F068
:1046800044C08091E800877F8093E8008091E80033
:1046900082FF37C09091F3008091F200029731F4CD
:1046A0008091F100813011F0863021F48091F10089
:1046B0008093CD028091E8008B778093E8000E9480
:1046C000D22523C08091FC04813AF9F48091E8005E
:1046D000877F8093E8008091000590910105892BE8
:1046E00061F468E085EC92E070E00E94E124809142
:1046F000E8008B778093E800089560E090E080E028
:10470000F3CF8091FB048111C1CF08958091FC0407
:10471000813AD9F78091000590910105892BA9F77D
:104720008091E800877F8093E8008091E80080FF17
:10473000FCCF809142018093F1008091E8008E7758
:10474000BCCF8091FC04813201F7809100059091EB
:104750000105892BD1F68091E800877F8093E800DE
:104760000E94D2258091FE04809342010E949E0601
:1047700008958091FC04813241F68091E800877FA2
:104780008093E8000E94D2258091FF048093CE029E
:1047900008958091FC04813A09F0B7CF8091E80038
:1047A000877F8093E8008091E80080FFFCCF8091B4
:1047B000CE02C1CF84B7877F84BF0FB6F894A89587
:1047C00080916000886180936000109260000FBE4D
:1047D00080E890E00FB6F8948093610090936100B8
:1047E0000FBE0E94512108950E9422260E947F261A
:1047F000E2EEF0E080818460808378940E94FE285D
:10480000089586E391E00E94772008958091FB044B
:10481000853031F48091FB04853019F00E94CB2162
:1048200008950E94A0218091F904882399F30E94A1
:104830005E21882379F30E947C240E949E06EACFA1
:1048400008950E9424240895292F33272330310509
:1048500019F168F42130310509F444C022303105E2
:1048600009F445C090E080E030E020E025C021322E
:10487000310549F122323105A9F780E490E020EFBB
:1048800032E061157105C1F08BE790E025E732E079
:104890006130710589F0E6CF99278130910581F06B
:1048A000009729F00297F1F6ECEFF1E002C0E4E2A4
:1048B000F2E0849190E09F01FA0131832083089512
:1048C000EEE0F2E0F6CF89E090E02AE332E0611515
:1048D000710591F389E090E023E532E061307105E4
:1048E00059F3C0CF82E190E023E632E0E5CF8BE3DD
:1048F00090E028E232E0E0CF80E189BD82E189BD2D
:1049000009B400FEFDCF8091D8008F7D8093D80040
:104910008091E00082608093E0008091E00081FD62
:10492000FCCF0895AF92BF92CF92DF92FF920F9388
:104930001F93CF93DF936C01EB018A010E94F12555
:10494000F82E811123C00115110539F0F80180817D
:104950009181C81BD90BC80ED91EB12CA12C209750
:10496000A9F08091E80085FD22C08091E8008E7753
:104970008093E80001151105A1F0F8018081918173
:10498000A80EB91EB182A08285E0F82E8F2DDF918E
:10499000CF911F910F91FF90DF90CF90BF90AF907C
:1049A00008950E94F1258823D1F2F82EEFCFF60169
:1049B00081916F018093F1002197FFEFAF1ABF0A39
:1049C000CECFFC01809102059091030586179707D1
:1049D000A0F06115710529F49091E8009E779093FD
:1049E000E80090E06115710551F4911108C08091C3
:1049F000E80082FF34C080E00895BC01F2CF8091CE
:104A0000FB048823C1F18530C1F18091E80083FD6A
:104A100030C08091E80082FDEACF8091E80080FFFD
:104A2000E1CF8091F3002091F200382F61157105DC
:104A300019F02830310558F091E02830310509F09F
:104A400090E02091E8002E772093E800CBCF819171
:104A50008093F100615071092F5F3F4FE7CF809144
:104A6000FB04882341F0853041F08091E80083FF0A
:104A7000BECF81E0089582E0089583E00895FC01AF
:104A8000809102059091030586179707A0F06115A4
:104A9000710529F48091E8008E778093E80090E01A
:104AA0006115710551F4911108C08091E80082FFF1
:104AB00035C080E00895BC01F2CF8091FB048823CB
:104AC000C9F18530C9F18091E80083FD31C0809142
:104AD000E80082FDEACF8091E80080FFE1CF80917D
:104AE000F3002091F200382F6115710519F028307C
:104AF000310558F091E02830310509F090E08091BF
:104B0000E8008E778093E800CBCF84918093F1000A
:104B10003196615071092F5F3F4FE6CF8091FB04C2
:104B2000882341F0853041F08091E80083FFBDCFBC
:104B300081E0089582E0089583E00895982F9730EA
:104B400028F08F708093E90081E008959093E90048
:104B5000242F762F50E0981731F07091EC002091BF
:104B6000ED005091F00021FD02C09F5FE8CF309131
:104B7000EB003E7F3093EB003091ED003D7F3093B2
:104B8000ED003091EB0031603093EB007093EC005E
:104B90002093ED005093F0002091EE0027FDE5CF2B
:104BA00080E008958091FC0487FF13C08091E800A5
:104BB00082FF06C08091E8008B778093E80004C0F4
:104BC0008091FB048111F2CF08958091FB0488232A
:104BD000D9F38091E80080FFF8CF8091E8008E77CC
:104BE000ECCF2091E4003091E50095E6A9012091F9
:104BF000EC00822F817020FF06C08091E80080FFCA
:104C000006C080E008952091E80022FD1AC080913E
:104C1000FB04882389F0853089F08091EB0085FDC5
:104C20000FC02091E4003091E50042175307F9F2DC
:104C30009150E1F684E0089582E0089583E00895BC
:104C400081E008950E9491260E949926E0EEF0E00E
:104C5000808181608083E8EDF0E080818F778083C0
:104C600019BCA7EDB0E08C918E7F8C9380818F7EF4
:104C700080831092FA0408950F931F93CF93DF93CC
:104C80000E9491260E949926C8EDD0E088818F77F6
:104C9000888388818068888388818F7D888319BC18
:104CA0001092FB041092F7041092F9041092F80489
:104CB00000EE10E0F80180818B7F80838881816025
:104CC000888342E060E080E00E949E25E1EEF0E013
:104CD00080818E7F8083E2EEF0E08081816080833E
:104CE000808188608083F80180818E7F80838881C5
:104CF00080618883DF91CF911F910F910895E8ED36
:104D0000F0E080818F7E8083E7EDF0E0808181603C
:104D1000808384E082BF81E08093FA040E943C2675
:104D20000895E8EDF0E080818E7F80831092E200AC
:104D300008951092DA001092E10008951F920F92E8
:104D40000FB60F9211242F933F934F935F936F935E
:104D50007F938F939F93AF93BF93EF93FF93809134
:104D6000E10082FF0BC08091E20082FF07C08091CA
:104D7000E1008B7F8093E1000E94FD288091DA00A2
:104D800080FF19C08091D80080FF15C08091DA00A3
:104D90008E7F8093DA008091D90080FF96C080E1F9
:104DA00089BD82E189BD09B400FEFDCF81E0809319
:104DB000FB040E94E3228091E10080FF19C08091F2
:104DC000E20080FF15C08091E2008E7F8093E200B8
:104DD0008091E20080618093E2008091D80080623F
:104DE0008093D80019BC85E08093FB040E94F722D1
:104DF0008091E10084FF2BC08091E20084FF27C0F6
:104E000080E189BD82E189BD89B5982F917080FFCD
:104E1000FBCF8091D8008F7D8093D8008091E100F6
:104E20008F7E8093E1008091E2008F7E8093E2008C
:104E30008091E20081608093E2008091F7048823F2
:104E400009F449C084E08093FB040E940023809110
:104E5000E10083FF29C08091E20083FF25C080919B
:104E6000E100877F8093E10082E08093FB04109251
:104E7000F7048091E1008E7F8093E1008091E20051
:104E80008E7F8093E2008091E20080618093E20057
:104E900042E060E080E00E949E258091F000886002
:104EA0008093F0000E94F422FF91EF91BF91AF91A7
:104EB0009F918F917F916F915F914F913F912F9132
:104EC0000F900FBE0F901F90189519BC1092FB0405
:104ED0000E94F12270CF8091E30087FD93E09093D0
:104EE000FB04B3CF1F920F920FB60F9211242F9392
:104EF0003F934F935F936F937F938F939F93AF9362
:104F0000BF93CF93DF93EF93FF93D091E900DF70CE
:104F10008091EC00C82FC17080FDC0E81092E900BC
:104F20008091F000877F8093F00078940E94B627EC
:104F30001092E9008091F00088608093F000CD2B02
:104F4000CF70C093E900FF91EF91DF91CF91BF91B6
:104F5000AF919F918F917F916F915F914F913F9111
:104F60002F910F900FBE0F901F901895AAE2B0E0FE
:104F7000ECEBF7E20C9468298CEF94E02091F100BF
:104F8000FC012193CF01F5E084309F07B9F70E941F
:104F900020238091E80083FF1EC18091FC04909142
:104FA000FD049A3008F017C1E92FF0E0EA50F64D01
:104FB0000C945329803899F0823809F00CC1809103
:104FC00000058F70873008F006C18093E90080915A
:104FD000EB0085FB882780F91092E90006C08091DC
:104FE000F8049091F904911182609091E800977F04
:104FF0009093E8008093F1001092F1008091E80016
:105000008E77E5C0882309F4D3C0823009F0E3C06D
:105010008091FE048111D6C0809100058F702FEF22
:10502000280F263008F0D7C08093E9002091EB00CC
:1050300020FFC8C0933031F48091EB0080628093F0
:10504000EB00C0C09091EB0090619093EB0021E0E9
:1050500030E001C0220F8A95EAF72093EA0010920F
:10506000EA008091EB008860EACF8111B4C0109112
:10507000FE041F778091E3008078812B8093E3000A
:105080008091E800877F8093E8000E94D22580917C
:10509000E80080FFFCCF8091E30080688093E3000C
:1050A00082E0111183E08093FB0495C08058823028
:1050B00008F091C08091FE049091FF048C3D23E0A4
:1050C0009207A1F583E08A838AE289834FB7F89437
:1050D000DE01139620E03EE051E2E32FF0E0509332
:1050E0005700E49120FF03C0E295EF703F5FEF703F
:1050F0008E2F90E0EA30C0F0C7968D939D932F5F7E
:10510000243159F74FBF8091E800877F8093E800F2
:105110006AE270E0CE0101960E94E1248091E800ED
:105120008B778093E80057C0C096E7CF6091000569
:1051300070910105AE014F5F5F4F0E942124BC01B9
:10514000892B09F448C09091E800977F9093E8007C
:1051500089819A810E943F25E1CF8038E1F58091D5
:10516000E800877F8093E8008091F7048093F10046
:1051700045CF811130C09091FE04923060F580914E
:10518000E800877F8093E8009093F7040E94D2257F
:105190008091F704882311F084E005C08091E3003A
:1051A00087FDFACF81E08093FB040E940B2313C09C
:1051B0008091FE04813079F481E0933009F080E041
:1051C0008093F9041092E9008091E800877F809332
:1051D000E8000E94D2258091E80083FF0AC08091F8
:1051E000E800877F8093E8008091EB0080628093E5
:1051F000EB00AA96E3E00C9484290895CF93809164
:10520000FB048823A1F0C091E900CF709091EC00DD
:10521000892F817090FD80E8C82B1092E900809161
:10522000E80083FD0E94B627CF70C093E900CF91BC
:1052300008950E9422261092FB040895E8EDF0E004
:105240008081806180838AE18A95F1F700C0809136
:10525000D90081700895AA1BBB1B51E107C0AA1F8A
:10526000BB1FA617B70710F0A61BB70B881F991F07
:105270005A95A9F780959095BC01CD01089597FBAB
:10528000072E16F4009407D077FD09D00E942B2931
:1052900007FC05D03EF4909581959F4F0895709539
:1052A00061957F4F0895EE0FFF1F0590F491E02D5B
:1052B00009942F923F924F925F926F927F928F92BA
:1052C0009F92AF92BF92CF92DF92EF92FF920F9395
:1052D0001F93CF93DF93CDB7DEB7CA1BDB0B0FB69F
:1052E000F894DEBF0FBECDBF09942A88398848885C
:1052F0005F846E847D848C849B84AA84B984C884F2
:10530000DF80EE80FD800C811B81AA81B981CE0FE8
:10531000D11D0FB6F894DEBF0FBECDBFED010895CD
:10532000FB01DC0104C08D910190801921F44150F2
:105330005040C8F7881B990B0895FB01DC0102C09F
:1053400001900D9241505040D8F70895F999FECF41
:1053500092BD81BDF89A992780B50895A8E1B0E083
:1053600042E050E00C94DA29262FF999FECF92BD45
:1053700081BDF89A019700B4021639F01FBA20BD1A
:105380000FB6F894FA9AF99A0FBE08950396272F4C
:105390000E94B5290E94B429252F0E94B529242FE7
:1053A0000C94B5290196272F0E94B5290C94B42995
:1053B000DC01CB01FC01F999FECF06C0F2BDE1BDD5
:1053C000F89A319600B40D9241505040B8F70895C4
:1053D000F894FFCF6C046C049D049D042C054805D3
:1053E000CC04CC046305D405E305E305DA270228E1
:1053F000EB280228EB2835285628EB28AD28B928B9
:105400002C02323633F6F5353431F7F40100000062
:10541000010000000000000005010000000406007B
:105420000000000000280850011E0A14018000003E
:1054300021007F2200035C2281226022DE22D92209
:105440005F2201353431F7F4323633F6F5E200E904
:1054500000EA00B500B600B700CD008301CC008A99
:10546000019201940121022302240225022602272F
:10547000022A02B300B4006F007000818283E20050
:10548000E900EA00B500B600B700CD008301CC000A
:105490008A0192019401210223022402250226029C
:1054A00027022A02B300B4006F0070008182835388
:1054B000029018BE174D184118000810181810084F
:0254C0000000EA
:00000001FF
