:100000000C942F020C944C020C944C020C94B124CE
:100010000C944C020C944C020C944C020C944C0228
:100020000C944C020C944C020C94AA2C0C947E2D33
:100030000C94D4260C944C020C944C020C944C025C
:100040000C944C020C944C020C944C020C944C02F8
:100050000C944C020C9477270C944C020C944C0298
:100060000C944C020C944C020C944C020C944C02D8
:100070000C944C020C944C020C944C020C944C02C8
:100080000C944C020C944C020C944C020C944C02B8
:100090000C944C020C944C020C944C020C944C02A8
:1000A0000C944C020C944C020C944C02170015005A
:1000B00008001A0014000A000900070016000400D6
:1000C0000500190006001B001D002C41E200E300A2
:1000D000E000E1000000000000000000000000005F
:1000E00000000000000000001C0018000C001200BE
:1000F00013000B000D000E000F002800110010006F
:100100003600520037002C422A00500051004F00A8
:1001100000000000000000000000000000000000DF
:10012000000000002200210020001F001E0022020B
:10013000210220021F021E026700540055005600D3
:1001400057002C412C002C0049002B00000000001F
:10015000000000000000000000000000000000009F
:100160002300240025002600270023022402250264
:1001700026022702350089002F1230122D122C4240
:10018000E000E300E2002A000000000000000000A0
:100190000000000000000000000000003E003D00E4
:1001A0003C003B003A0034003312330031001F02A0
:1001B000C75CC65CC55CC35CC25C2C412C002C00D7
:1001C00049002B00000000000000000000000000BB
:1001D00000000000000000003F004000410042001D
:1001E00043005000510052004F002E00C85CC95C13
:1001F0002F00300031002C42E000E300E2002A0032
:1002000000000000000000000000000000000000EE
:100210000000000000AE00AF00DA0281FFD9F1DB80
:1002200020A4A62EAF00A0C000A1C800AED580A813
:100230001FD300408D1420000000000000000000CB
:100240002A2B280000000000000000000000000031
:1002500000000029000000002C1E3420212224343C
:100260002627252E362D3738271E1F20212223240E
:1002700025263333362E37381F0405060708090AAA
:100280000B0C0D0E0F101112131415161718191A46
:100290001B1C1D2F3130232D350405060708090AC4
:1002A0000B0C0D0E0F101112131415161718191A26
:1002B0001B1C1D2F3130354C0000000000000000D9
:1002C000000000000000000000000000000000002E
:1002D0000000000000000000000000007E0F00D4BD
:1002E000FFFFFFC700000078100363006F006F007E
:1002F0006C00360034003400000014037400650004
:100300006C007A006F0032003000300030000000D6
:100310000403090409025B00030100A0FA090400B8
:100320000001030101000921110100012240000721
:10033000058103080001090401000203000000090F
:10034000211101000122220007058203200001077C
:100350000503032000010904020001030000000955
:100360002111010001227B000705840320000112F6
:1003700001000200000008434D4406010001020094
:10038000010660FF0961A1010962150026FF0095C1
:1003900020750881020963150026FF009520750865
:1003A0009102C005010902A10185020901A1000510
:1003B0000919012908150025019508750181020513
:1003C00001093009311581257F95027508810609DB
:1003D000381581257F950175088106050C0A3802BC
:1003E0001581257F950175088106C0C0050109802A
:1003F000A101850319012AB700150126B70095014F
:1004000075108100C0050C0901A101850419012A9C
:10041000A002150126A002950175108100C00501FA
:100420000906A101050719E029E71500250195082E
:10043000750181029501750881010507190029FFE1
:10044000150026FF00950675088100050819012989
:1004500005950575019102950175039101C011245F
:100460001FBECFEFDAE0DEBFCDBF11E0A0E0B1E00C
:10047000ECE4F0E602C005900D92AA3FB107D9F76F
:1004800025E0AAEFB1E001C01D92A234B207E1F766
:100490000E948D150C94FB2F0C940000A5E0B0E099
:1004A000E4E5F2E00C947C2F6B837C838D838C815C
:1004B0009D81892B21F0CA0189238F3F31F480E08F
:1004C00081702596E2E00C94982F8B81F9CF4091B2
:1004D00023015091240160912501709126018091A2
:1004E00027010E944E028823A1F0109225010E944C
:1004F00034278160782F90932701809326014091C3
:1005000023015091240160912501809127010E94CF
:10051000AC0440911E0150911F0160912001709127
:100520002101809122010E944E028823A1F01092A5
:1005300020010E9434278160782F909322018093BC
:10054000210140911E0150911F0160912001809175
:1005500022010E94AC044091190150911A0160914E
:100560001B0170911C0180911D010E944E02882385
:10057000A1F010921B010E9434278160782F909384
:100580001D0180931C014091190150911A01609145
:100590001B0180911D010E94AC04409114015091F7
:1005A00015016091160170911701809118010E9448
:1005B0004E028823A1F0109216010E943427816018
:1005C000782F909318018093170140911401509156
:1005D000150160911601809118010E94AC044091B0
:1005E0000F015091100160911101709112018091E1
:1005F00013010E944E028823A1F0109211010E9463
:1006000034278160782F90931301809312014091D9
:100610000F015091100160911101809113010E940E
:10062000AC0440910A0150910B0160910C01709152
:100630000D0180910E010E944E028823A1F01092BC
:100640000C010E9434278160782F90930E018093D3
:100650000D0140910A0150910B0160910C018091B4
:100660000E010E94AC044091050150910601609179
:10067000070170910801809109010E944E028823B0
:10068000A1F0109207010E9434278160782F909387
:100690000901809308014091050150910601609184
:1006A0000701809109010E94AC0440910001509122
:1006B00001016091020170910301809104010E9487
:1006C0004E028823A1F0109202010E94342781601B
:1006D000782F909304018093030140910001509181
:1006E000010160910201809104010E94AC0408950F
:1006F00083E0089581E0089581E008950E947C03DD
:10070000089508950E9481030895A5E0B0E0EBE804
:10071000F3E00C947B2F49835A8330910102898145
:100720009A81311119C0662399F0222389F00E9421
:10073000B609182F682F89819A810E9492096981D0
:100740007A81812F0E94FE202596E3E00C94972F5A
:100750000E94A409182FF3CF0E94B60969817A81FB
:10076000F1CFFC01262F4081518162817381848108
:100770000E948503089581E00895CF93DF93EC01F3
:1007800060E00E94B103BE010E948203DF91CF911D
:100790000895E1E0F0E0DF0102C0AA0FBB1F6A95F7
:1007A000E2F7BD01DF0102C0AA0FBB1F4A95E2F7C5
:1007B0006A2B01C0EE0F2A95EAF7962F982396131D
:1007C00002C08E2B0895E0958E230895242F462F86
:1007D000682F80911A020E94C9030E94F2080895AE
:1007E0000E94A21108950E94A511089508950E94E3
:1007F00084080E94F6032FEF84E39CE021508040A0
:100800009040E1F700C0000008950E94F7030E94A5
:100810009B2708950E94F7030E94AC2708950F9329
:100820001F93CF93DF938C0161E00E94B103EC0131
:10083000B8010E94DA1A811106C080E0DF91CF91E1
:100840001F910F910895B801CE010E947E03882365
:10085000A1F3B801CE010E944422882371F3B801AC
:10086000CE010E94F71D882341F3B801CE010E94FA
:10087000B621882311F3F8018281882361F0CA35FB
:10088000FDE5DF0701F158F4C115ECE5DE0791F055
:10089000CE3DDC4591F0C8010E947A03CFCFCC3524
:1008A0008DE5D80769F090F0C73ADD45A1F70E94C1
:1008B0000A04C3CF0E940504C0CF0E946F0EF7CF79
:1008C0000E94A90DE8CF0E94B30DE5CF0E94B70D9D
:1008D000E2CF0E94B1260E948A040E949F1D0E94BE
:1008E0009F1808950E948E040E94B62608950895C8
:1008F0000E947704089581E008950E947B04089582
:100900000895CF93C82F0E9478048C2F0E947D04F5
:10091000CF91089580E00E94810408950E94D72518
:100920000E9481040895CF930E94D725C82F8091FB
:10093000FC018C1779F0C093FC010E944027609362
:10094000FD017093FE018093FF01909300028C2FB4
:100950000E948104CF910895ABE0B0E0E2EBF4E0B7
:100960000C947C2F4F83588769877A878B87611116
:100970000E94F40C1E821D8285E0FE013796DE0186
:10098000119601900D928A95E1F78C819D81892BBA
:1009900061F449815A816B817C818D819E810E94A5
:1009A0001D0C2B96E2E00C94982F89819A81892363
:1009B0008F3F79F3CE0101960E94BB038111E9CFED
:1009C000F0CFFC01808191810E94E3090895A6E0A7
:1009D000B0E0EDEEF4E00C947A2F082F162F0E9471
:1009E000261929834B835C836D837E83002369F002
:1009F000312B4981532F6B817C818D819E810E9497
:100A000041192696E4E00C94962F10953123F1CFEE
:100A1000CF93C82F8823C9F08238C9F40E94D72504
:100A200081FD13C089E30E94AC0C0E94150D2FEFCD
:100A300087EE93E0215080409040E1F700C0000035
:100A400089E30E94B40C0E94150DCF91089583385C
:100A5000A1F40E94D72580FDF8CF83E50E94AC0C5D
:100A60000E94150D2FEF81EE94E0215080409040C0
:100A7000E1F700C0000083E5E4CF8438A1F40E94D0
:100A8000D72582FDE2CF87E40E94AC0C0E94150DB1
:100A90002FEF81EE94E0215080409040E1F700C0BC
:100AA000000087E4CECF8CEF8C0F813A90F46C2F4E
:100AB00080912801909129010E944226882329F0E3
:100AC0008C2F0E94B40C0E94150D8C2F0E94AC0C30
:100AD000BACF80E28C0F883048F4C77081E001C043
:100AE000880FCA95EAF70E94D70CADCFEBE5EC0F63
:100AF000E33040F4F0E0EB55FE4F808190E00E943F
:100B00000426A3CFE8E5EC0FE73150F4F0E0EE0F58
:100B1000FF1FE958FE4F808191810E941A2695CFD0
:100B2000C03F08F492CF8C2F0E9411160E94E41649
:100B30008CCF882309F455C0823879F40E94D725D8
:100B400081FF4FC089E30E94AC0C0E94150D89E320
:100B50000E94B40C0E94150D0895833859F40E9428
:100B6000D72580FF3EC083E50E94AC0C0E94150D86
:100B700083E5EECF843859F40E94D72582FF31C037
:100B800087E40E94AC0C0E94150D87E4E1CF9CEF36
:100B9000980F913AE8F290E2980F983050F48770ED
:100BA00091E001C0990F8A95EAF7892F0E94DD0C28
:100BB000D1CF9BE5980F933028F490E080E00E941D
:100BC0000426089598E5980F973128F490E080E086
:100BD0000E941A260895803F20F00E946B160E9402
:100BE000E41608951F93CF93DF93182FEB010E9413
:100BF0000805209739F4812F0E949905DF91CF9144
:100C00001F9108958FE99FE00197F1F700C0000060
:100C10002197EFCF70E060E0893311F460E570E078
:100C20000E94F2050895882321F00E94D70C0E94AB
:100C3000150D0895882321F00E94DD0C0E94150DEA
:100C40000895B0E0A0E0E7E2F6E00C94752F6C01A7
:100C5000D62FC72FFC011281F580F2949FE0F92274
:100C60000E94CD0CE82E8823B9F0E12E1123A1F0CB
:100C70008C2F807F803421F080E28D0F8830D0F07F
:100C800080910E0382FF16C082E00E94780D0E94C0
:100C9000CD0C91E0E82EE926BC2EB2948FE0B8226C
:100CA000FBE0FB1508F468C0EB2DF0E0E350F04DDD
:100CB0000C945F2FE12CF0CF0C2F0F70C07F11F040
:100CC0000295007F112399F0002359F080E28D0FE7
:100CD000883010F0D11107C0802F0E94D70C0E94DD
:100CE000150D8D2F41C0802F0E94E70CF8CF8D2F5E
:100CF0000E949905002309F43FC080E28D0F8830DF
:100D000010F0D11104C0802F0E94DD0C03C0802F91
:100D10000E94ED0C0E94150D2FC00C2F0F70C07F8C
:100D2000C03211F00295007FDD2381F0D13009F44B
:100D300065C0112309F46FC0FF2009F465C0F601F6
:100D4000858180FFCECF8F7085835EC080910E033A
:100D500082FD34C0112359F0002329F0802F0E9416
:100D6000D70C0E94150D80E00E94080505C080E0A8
:100D70000E9499050111C7CF2B2D2850330B243029
:100D8000310520F40E94D7250E948104EE2089F0CD
:100D90000E94C90C80FD0DC0F60112820E94C30C96
:100DA0000E940609C6010E9444080E94C30C0E94CA
:100DB0001209CDB7DEB7E9E00C94912F112389F029
:100DC000F11006C00E94F70C802B0E941306D4CFAE
:100DD00021E0F212F7CF0E94F70C802B0E94FE0C4C
:100DE000CBCFF11006C00E940B0D802F0E941A0677
:100DF000C3CF31E0F31609F4BFCFF5CF112331F0A3
:100E000085E08F1508F4B8CF802FDFCF94E09F15D1
:100E100008F4B2CFEACFFF2041F3D93349F4FFEF12
:100E200027EE33E0F15020403040E1F700C00000F1
:100E30008D2F0E949905A0CF8C2F86958695837063
:100E400069F0813009F098CF8D2F9C2F937011118C
:100E500002C090E080E00E941A268ECF8D2F9C2F3A
:100E60009370111102C090E080E00E94042684CFAC
:100E70008D2F112391F00E941116ED2FE45FFF0BCF
:100E8000E530F10568F461E070E001C0660FEA95B5
:100E9000EAF7812F0E94E7046FCF0E946B16EDCF17
:100EA0000E94E41669CF8C2F837079F5111164CFFD
:100EB0004D2F429546954770440F440F8D2F8F70EC
:100EC000042E01C0880F0A94EAF72D2F2071D4FF59
:100ED00007C02FE030E001C0220F4A95EAF72095C5
:100EE000C695C695C370822BC23049F058F4C13004
:100EF00019F00E94E00840CF0E94DA083DCF0E941E
:100F0000E6083ACF0E94D70837CF8695112311F013
:100F10008C2F8170882309F42FCF4D2F4295469551
:100F20004770440F440F8D2F8F70042E01C0880F1F
:100F30000A94EAF72D2F2071D4FF07C02FE030E08C
:100F400001C0220F4A95EAF72095C695C695C37051
:100F5000822BC23049F058F4C13019F00E94310997
:100F60000BCF0E942B0908CF0E94370905CF0E94A2
:100F7000F20802CFCF70112329F08C2F0E940609AE
:100F80008D2F23CF8D2F0E941A068C2F0E941209BD
:100F9000F3CED23F51F160F4D03FB9F0D13F81F0B0
:100FA000112309F449C0F1109CCE8C2F8F7121C000
:100FB000D33F11F1D43FA1F780910E0382FD26C0EB
:100FC0008C2F8F71112311F314C0112349F0F4E019
:100FD000FF1508F4D1CE8C2F8F710E941F09CCCE43
:100FE00025E02F1508F4C8CEF6CF8C2F8F71111184
:100FF000CDCF0E940609C0CE112329F08C2F8F710E
:101000000E94FD08B9CE0E94F908B6CE112349F01E
:10101000CF718C2F0E94060963E08C2F0E945A0D1D
:10102000ABCE81E00E94780D31E03F1508F0A4CEF0
:1010300082E00E94780DA0CEFF2059F0D93309F04C
:10104000F7CE8FEF97EEE3E081509040E040E1F77C
:10105000EDCE8C2F8F719ACF0F931F93CF93DF9389
:10106000EC01688179818A810E94EE098C010E94DD
:101070003D090E94D608B801CE010E942106DF91E9
:10108000CF911F910F910895CF93DF93EC018B8146
:101090009C81892B29F08881998189238F3F51F484
:1010A000DF91CF910895CE010E942C08CE010E94BD
:1010B000BD03F6CFCE010E940F048111F4CF0E9430
:1010C000CD0C882369F38A81882351F380910E0324
:1010D00082FFE6CF82E00E94780DE2CF90E080E0D0
:1010E0000E94042690E080E00E941A260E94F40CE0
:1010F0000E94150D0E9400170E94E41608950E9498
:10110000BC0C0E946E0808950E94E40C0E947F08A7
:10111000089592959F70963091F058F4925F9F7069
:10112000923058F4803F19F030F4883E30F481E07A
:1011300008959A5FF4CF843FD1F380E00895883E0C
:10114000B0F3813FD1F7F3CFFC0183819481892BE8
:1011500029F08081918189238F3F11F480E00895E7
:10116000808191810E94E3090E9489080895A5E089
:10117000B0E0EDEBF8E00C947C2F2596E2E00C94C7
:10118000982FA6E0B0E0E7ECF8E00C947C2F2696D0
:10119000E2E00C94982F08950E94CB0808950E94D5
:1011A000CC0880931B020E946E08089508950E9447
:1011B000CF08089590911B02892B0E94CF080895B3
:1011C00090911B0289230E94CF08089590911B02E1
:1011D00089270E94CF0808950E94CB0808950E9495
:1011E000EC0808950E94EF0880931A020E946E088E
:1011F000089580E00E94F208089591E001C0990FDF
:101200008A95EAF7892F0E94F208089521E030E0DC
:1012100001C0220F8A95EAF780911A02822B0E9460
:10122000F208089521E030E001C0220F8A95EAF724
:10123000209580911A0282230E94F208089521E0ED
:1012400030E001C0220F8A95EAF780911A028227C6
:101250000E94F208089590911A02892B0E94F208C8
:10126000089590911A0289230E94F208089590919E
:101270001A0289270E94F20808950895262F2770E0
:1012800091E001C0990F2A95EAF723E076956795DA
:101290002A95E1F7FB01EE0FFF1FE60FF71FE40FA2
:1012A000F51F50E040E0682F70E08191DF01119759
:1012B0009B01042E02C0369527950A94E2F721700F
:1012C00021952827292328272C934F5F5F4F4330F0
:1012D000510559F70895A82FA77023E09695879593
:1012E0002A95E1F7FC01EE0FFF1FE80FF91FE60F4B
:1012F000F71F50E040E080E0219130E00A2E02C06C
:10130000369527950A94E2F721703327042E01C001
:10131000220F0A94EAF7822B4F5F5F4F433051054B
:1013200059F70895262F9C3070F4853060F4682FAB
:1013300070E085E0989F600D711D112442E052E03D
:10134000822F0E943E090895292F9C3068F4853031
:1013500058F490E062E072E035E0239F800D911D2B
:1013600011240E946B09089580E00895CF92DF92C6
:10137000FF920F931F93CF93DF936C0100911A029A
:1013800080911B02082BC7E0D0E010E0FC2EC801C2
:101390000C2E02C0959587950A94E2F780FD0CC04B
:1013A0002197A0F7F12C8F2DDF91CF911F910F91F5
:1013B000FF90DF90CF900895B6018C2F0E944010CF
:1013C000019771F3F0CFCF93DF93EC010E94B60940
:1013D000BE010E944010DF91CF9108951F93CF93DB
:1013E000DF93EB0190910102992339F0CB010E9428
:1013F000E309DF91CF911F910895882369F0CB0114
:101400000E94B609182F682FCE010E949209BE01D2
:10141000812F0E944010EDCFCB010E94A409182F0C
:10142000F6CF1F93CF93DF93C0911C0216E08091FB
:101430001D028C1304C0DF91CF911F910895D0E05D
:101440001C9FF0011D9FF00D1124E25EFD4F4081B5
:10145000518162817381848195810E94C1082196A6
:10146000C770E5CF40914E0250914F0260915002FB
:101470007091510280915202909153020E94C108D2
:1014800008951F93CF93DF9380915302807F09F0DB
:1014900049C080915002882309F444C080911C0205
:1014A000C0911D0260914E0270914F02A0915102B5
:1014B000B0915202D62FD72316E0C81799F190E0C9
:1014C000109711F0DF3F19F401968770F6CF189F3F
:1014D0009001199F300D1124F901E25EFD4F418109
:1014E0004713F2CF40814613EFCF42814111ECCF39
:1014F000438154814A1B5B0B483C510528F780917E
:1015000053028F70806180935302F901ED5DFD4FAE
:1015100080818F70806180838EE492E00E94440815
:101520000E94110ADF91CF911F910895A1E1B0E0CF
:10153000ECE9FAE00C94742F8C0185E0F801DE01EF
:101540001D9601900D928A95E1F7F801E2808EE4F4
:10155000C82E82E0D82E609151027091520261151E
:10156000710509F44EC190914E0220914F02892FCE
:1015700082238F3F09F445C140815181A380B4800B
:10158000F0905002F501E61BF70BFF2009F4EAC0CA
:1015900080915302382F307FE83CF10508F0A3C05A
:1015A00031116DC0FE2C251316C0941314C0E11028
:1015B00012C08F708061809353020E94320AC6016C
:1015C0000E94440880915302F80185838F2D619613
:1015D000EAE00C94902FA114B10429F0842F852304
:1015E0008F3F09F027C180E0F82FF170DF2E80FFD8
:1015F0003CC080911C0220911D0236E0821315C070
:101600004D875E878D859E850E94E309292F22954F
:101610002F702230F0F0243018F59F70F1F0F801AF
:101620009581907FD1F4D12C1EC090E0389FF001BD
:10163000399FF00D1124E25EFD4F6181651306C0F4
:101640006081641303C06281E6120FC00196877047
:10165000D5CF9F7011F0882331F3805E883018F366
:10166000C8010E944408FD2CB1CFEE2009F4AECF92
:1016700080915302816080935302F12CA7CF2513F0
:1016800006C0941304C0F801EE2009F487C0C80115
:101690000E94A408882319F1EE2009F180915302D9
:1016A000803270F020914E0230914F0238872F83A4
:1016B0001986BB86AA868C87CE0107960E944408AD
:1016C00086E0F801AEE4B2E001900D928A95E1F770
:1016D0000E94410A0E94320AFF24F39477CFC80186
:1016E0000E944408F9CF311113C07A2DB98AA88A13
:1016F0006E2D89890E94B7088EE492E00E9444080A
:1017000086E0F60111928A95E9F70E94320AB5CF78
:1017100025130FC094130DC0E1100BC0F801858391
:10172000C8010E94440886E0F60111928A95E9F703
:101730004DCFC8010E94A408882389F2EE2079F2D7
:1017400080915302803208F4BBCF20914E02309139
:101750004F023A8329831B82BD82AC828E83CE01E5
:101760000196ACCFE83CF10508F03EC0FE2CEE201F
:1017700009F4B5CF25132AC0941328C080915302D1
:1017800080FD1BC0982F907FC1F0F8018583903FAA
:1017900031F0982F907F905F8F70892B8583C801DF
:1017A0000E94440886E0F801AEE4B2E001900D9298
:1017B0008A95E1F70E94320A09CF86E0F801AEE48B
:1017C000B2E001900D928A95E1F700CFC8010E9426
:1017D000A408811175CF80915302816080935302D8
:1017E000C8010E944408F2CE7A2DB98AA88A6E2DCB
:1017F00089890E94B70886E0F60111928A95E9F777
:10180000D9CFEE2009F46BCFC8010E94A408F82EAE
:10181000882309F464CF86E0F801AEE4B2E00190D9
:101820000D928A95E1F78EE492E00E94E1040E9415
:10183000410AC0CF81E08E25D7CEACE0B0E0E3E234
:10184000FCE00C947B2F4F83588769877A878B87BE
:101850009C87CE0107960E94960A882369F08A85A4
:101860009B85892B39F04F815885842F85238F3FA5
:1018700009F06BC016E05FC086E0FE013796DE011E
:10188000119601900D928A95E1F78A859B85892BA7
:1018900089F38F81988589238F3F61F320911D0201
:1018A00030E0C90101968770992740911C024817C2
:1018B000190671F40E94840810921D0210921C02F5
:1018C00086E0EEE4F2E0DF011D928A95E9F7D2CFDF
:1018D00096E0929FD001939FB00D1124A25EBD4F60
:1018E000FE01319601900D929A95E1F780931D02C9
:1018F0000E94110ABFCF819FC0011124825E9D4FBB
:101900000E94960A8823E9F0E0911C021E9FF001D4
:101910001124E25EFD4F4081518162817381848197
:1019200095810E94C10880911C0290E00196877009
:10193000992780931C0280911C0290911D028913AB
:10194000DACF2C96E3E00C94972F69857A858B8506
:101950009C850E94C1088ECF682F809128019091AC
:1019600029010E9478260895682F8091280190917E
:1019700029010E947B2608958091280190912901D8
:101980000E947E26089580915C02859585958595B7
:10199000089580915C028770089590915C02977021
:1019A00081E009F480E008958091670208959091A4
:1019B0006702892B80936702089580959091670252
:1019C000982390936702089510926702089590916A
:1019D0006602892B80936602089580959091660235
:1019E000982390936602089510926602089580915C
:1019F0005D02089508950E94FA0C089590910E03D7
:101A000092FF08C090915D02981721F080935D02CB
:101A10000E94FB0C089580915D02882329F01092AA
:101A20005D0280E00E94FB0C0895CF93DF93E0916C
:101A30002801F0912901809167028083E0912801BB
:101A4000F0912901808190916602892B8083909189
:101A50005D02992381F0E0912801F09129018081B4
:101A6000892B808380912801909129010E94302642
:101A700081110E940B0DC0912801D091290148E0ED
:101A800050E064E572E0CE010E94A32F892B59F04B
:101A900088E0FE01A4E5B2E001900D928A95E1F79D
:101AA000CE010E94EB25DF91CF91089508950E9409
:101AB000560D089590910E0392FF11C098E0899FF2
:101AC00090011124622B60935C020E9406098091B0
:101AD0005C028595859585950E94570D08950E9415
:101AE0000609089510925C0280E00E94570D089547
:101AF00090915C028095892380935C02282F277047
:101B000091F4282F082E000C330B9217130659F06E
:101B100090910E0392FF07C08595859585950E944B
:101B200012090E94720D089590910E0392FB2227D4
:101B300020F9281769F080FB92F990930E038091A9
:101B40000D0390910E030E94E60D82E00E94780D35
:101B5000089580910E0382FB882780F991E0892700
:101B60000E94940D089581E00E94940D089580E0F4
:101B70000E94940D08956FEF7FEF90E080E00E9447
:101B8000E52F089590E080E00E94C12F883E9E4F8F
:101B900019F40E94751A089580E0089582E090E09B
:101BA0000E94B92F089583E090E00E94B92F089514
:101BB000CF9384E090E00E94B92FC82F82E290E09A
:101BC0000E94B92F982F8C2FCF910895CF93C92FB2
:101BD000682F84E090E00E94C72F6C2F82E290E093
:101BE0000E94C72FCF910895AB01BC018FE090E018
:101BF0000E94D92F0895AB01BC0183E190E00E94BF
:101C0000D92F089560E070E0CB010E94FB0D08958C
:101C100060E070E0CB010E94F40D0E94020E089576
:101C200068EE7EEF90E080E00E94E52F60E082E0C9
:101C300090E00E94C72F60E083E090E00E94C72FF1
:101C400010921B0260E084E090E00E94C72F64E0E5
:101C500082E290E00E94C72F60E085E090E00E9461
:101C6000C72F60E086E090E00E94C72F6FEF87E00B
:101C700090E00E94C72F40E050E0BA0188E090E079
:101C80000E94D92F60E08DE090E00E94C72F40E0D5
:101C900050E0BA0188E190E00E94D92F60E087E12E
:101CA00090E00E94C72F40E050E0BA018CE190E044
:101CB0000E94D92F70E060E080E290E00E94E52F62
:101CC00040E050E0BA0188E190E00E94D92F80E026
:101CD0000E948E1A0E94BD1A0E94080E08950E944A
:101CE000100E0895682F8EE090E00E94C72F08958F
:101CF0000E94402760937A0270937B0280937C025B
:101D000090937D02609376027093770280937802BD
:101D1000909379020895089508950E948C0E089575
:101D200008950E94900E08958AE691E10E94CD25C3
:101D30000E948B0E0E948D0E08950E9489130895B3
:101D4000089508950E94A00E0E94A10E08950E9479
:101D500086110E94800408950E942B270E942A1158
:101D60000E94CD1A0E94A4130E94AF120E94A70ED7
:101D70000E94C91B80E00E94241C0E94AE130E9496
:101D800077180E94910E0895AAE0B0E0EAECFEE018
:101D90000C94742F0E9409138AE6A82E82E0B82EB4
:101DA000750110E0F70101917F01812F0E94A811B8
:101DB0001F5F1C3009F441C00817A1F380917E0217
:101DC00081FD0E94AE110E949D0EC82E10E0812F51
:101DD0000E94A811082FF50181915F01081731F1C8
:101DE000D02ED826F12CEE24E3948D2D8E21B1F047
:101DF000CC20A1F0FE821F8391E0802F8E2109F478
:101E000090E098870E9434278160782F9A8789878D
:101E10004E815F8168858A850E94AC04F394EE0C44
:101E2000F5E0FF12E2CFF501319700831F5F1C3010
:101E300071F60E94780E11E021C00813BFCF0E94F6
:101E400034278C0180916802909169020817190764
:101E5000A1F08FEF89838A831B820E9434278160DF
:101E6000782F9D838C8349815A816B818D810E945B
:101E7000AC04109369020093680210E00E94891379
:101E80000E94BF1D11110E94831C0E943D170E94D9
:101E90009F180E9493042A96EAE00C94902FCF9307
:101EA000DF930E944510EC01811521E5920708F0AF
:101EB00042C0811530E5930708F09FC0883E910528
:101EC00030F5803E910508F094C0883A910588F479
:101ED000853A910508F086C08130910509F489C0E2
:101EE000009709F486C0049708F083C0D0E0C0E0F2
:101EF00080C08F3B9105D0F7C85AD0E0CC0FDD1FD2
:101F0000C855DE4F0990D881C02DD46472C08115A8
:101F100040E2940750F4C11581E0D80708F069C089
:101F2000C03FD10518F3D06564C081159044F0F22C
:101F3000DF70D06A5EC0811535E5930718F581150D
:101F400044E5940708F085C0C11583E5D80708F07B
:101F50006CC0C11522E5D20708F462C0CE018370BF
:101F6000992721E030E002C0220F331F8A95E2F763
:101F7000C695C69580E2C89FE0011124C22BD32BE1
:101F8000DC6837C0811539E59307A8F4811548E569
:101F9000940708F063C0C11586E5D80708F0A6CFFE
:101FA0008C2F0E94E710C82FD0E0DC2FCC27CC2745
:101FB000DF71D0621EC081152AE5920708F453C074
:101FC00090568115904208F091CF8D2F8F710E940D
:101FD000E71090E0982F882788279F719C012C2B71
:101FE000E901E7CFC55AD0E0CA52DE4FC881D0E040
:101FF000D064CE01DF91CF9108958370992721E0BD
:1020000030E002C0220F331F8A95E2F7C695C695CD
:1020100040E2C49FE0011124C22BD32BDD68E9CF3D
:10202000DC2FCC27C16FD06AE4CFCE018370992713
:1020300021E030E002C0220F331F8A95E2F7C695F7
:10204000C69540E2C49FE0011124C22BD32BDA686D
:10205000D0CFD82FCC27C46FD06ACBCFD82FCC27E6
:10206000C06FD06AC6CF8F700E94E71034E0D6955B
:10207000C7953A95E1F7CF709C2FEC01D069B9CFA5
:102080000E94FE200E944F0F089582389105B9F1F9
:10209000B0F48133910509F47DC048F4893291058B
:1020A00009F46DC08A32910509F47BC00895853327
:1020B000910509F45FC08933910509F10895833EC4
:1020C0009105D9F138F4803E910529F1823E9105C0
:1020D00079F10895863E9105D9F1873E910509F47D
:1020E0003EC0843E910541F520910E0321FF24C09E
:1020F00080910D0384FD19C087EE90E00895209132
:102100000D03237009F05AC020910E0323FF14C061
:1021100089E290E0089520910D0320FD38C03091B0
:102120000E0330FF09C024FF43C090E080E0089513
:1021300020910D0322FDF7CF089520910D0322FD7C
:102140003AC030910E0330FD39C024FFF5CFEDCFFA
:1021500020910D0323FFF0CF24FDE7CFCDCF2091B9
:102160000D0323FD2EC030910E0331FFEECF84EE20
:1021700090E0089520910D0325FFDECFC9CF209177
:102180000D0325FD21C020910E0323FFD5CF89E348
:1021900090E0D2CF20910D0326FFCECF8AE290E0CF
:1021A000089520910D0326FFC7CF81E390E00895A5
:1021B00083EE90E0089582EE90E0089580EE90E046
:1021C000089586EE90E0089585E390E0089590915B
:1021D0000D0392FF06C0282F28712830F9F4877F5D
:1021E000846093FF06C0282F28712831F1F4877E80
:1021F000846120910E0320FF06C0382F38713830DB
:10220000D9F4877F816021FF06C0282F28712831EB
:10221000D1F4877E816194FD877E0895282F2471F3
:102220002430F9F68B7F8860DCCF282F247124318D
:1022300001F78B7E8861DDCF382F3171313019F78E
:102240008E7F8860E0CF282F2171213121F78E7E8B
:102250008861E1CF1092090310920A0310920B03D8
:1022600010920C030895CF92DF92EF92FF926B01D0
:102270007C010E94891381110EC00E944027C61A5A
:10228000D70AE80AF90AC0920903D0920A03E09239
:102290000B03F0920C03FF90EF90DF90CF90089526
:1022A0000F931F930E948913882329F00E944027CF
:1022B0001F910F9108950E944027009109031091EA
:1022C0000A0320910B0330910C03600F711F821FD2
:1022D000931FEECF80E008950E94BB0D08950E94E9
:1022E00009138FE39CE90197F1F700C000000E94F9
:1022F000091380E00E94A81180FF04C00E946C11A5
:102300000E949B2708950E946F1108950E94C20D9C
:10231000811102C00E946F0E0E94CE0D80937E023A
:102320000E94D80D90930E0380930D030E94831199
:102330000E94D30D0E94D70880911A020E94EF08D4
:10234000089508950E94A11108950E9467020895BA
:10235000E82FF0E0E45EFC4F80810895089580EA64
:102360008A95F1F7089500C008950E94AF1108956D
:1023700008950E94B8110895A6E0B0E0E2ECF1E102
:102380000C94782F0E948913F82E609128038823DB
:1023900009F440C086E0E82E8E010F5F1F4FF80160
:1023A0008E2D11928A95E9F7862F90E0B801845E10
:1023B0009C4F0E94BC138823B9F080910F0390E0DA
:1023C00046E050E0B801845E9C4F0E94A32F21E0BC
:1023D00020937F02892B91F4F12C0E94F3038F2D1F
:1023E0002696E6E00C94942F80917F028823A1F337
:1023F000F8011192EA94E9F710927F02A0910F037D
:10240000B0E0A45EBC4F86E0F80101900D928A9581
:10241000E1F7E3CF70E0645E7C4F80910F0390E0C2
:10242000845E9C4F0E9443140E94B911D8CFF89447
:10243000E82FE295EF70F0E031A1282F2F7081E0B6
:1024400090E001C0880F2A95EAF7982F9095932382
:1024500091A392A1892B82A378940895CF93DF93BF
:10246000CAE2D1E089918F3F11F00E94171281E0FA
:10247000CF32D807B9F7CFE2D1E089918F3F11F081
:102480000E94171281E0C533D807B9F7DF91CF91C9
:102490000895B0E0A0E0EFE4F2E10C94762F7C0127
:1024A000162F042FC62FD0E0C65DDE4F28812F3FA8
:1024B00009F44CC0F894E22FE295EF70F0E031A1FE
:1024C0002F7081E090E001C0880F2A95EAF7932FE2
:1024D000982B91A392A18095892382A378940E943E
:1024E000B3118FE2C82E81E0D82EF701A7014A5F11
:1024F0005F4FF12CE02EE094D6019D916D0181910A
:102500009F01215031099F3F31F1692F62956F7012
:1025100070E0DB0190966C9170E09F7002C0759541
:1025200067959A95E2F760FD16C0802BD9018C93D0
:10253000FF24F394E417F507F9F688818F3F11F033
:102540000E9417126F2D812F0E94B511CDB7DEB7F3
:10255000E8E00C94922F8E21D9018C93EBCFABE065
:10256000B0E0E5EBF2E10C947C2F80913501811114
:102570002CC086E0ECE6F1E0DE01119601900D92B0
:102580008A95E1F7FE013196AFE2B1E0CE01079600
:1025900021912D93E817F907D9F785E0E2E7F1E0FB
:1025A000DE01179601900D928A95E1F78F81809355
:1025B0002A01888580932B01898580932C018A8547
:1025C00080932D018B8580932E018091350196E0BB
:1025D000811190E09093280386E0891B80930F037C
:1025E0000E942E128CE0ECE1F3E0DF01982F1D92A7
:1025F0009A95E9F7E0E1F3E0DF011D928A95E9F7AA
:1026000086E00E944B130E94F0032B96E2E00C94AC
:10261000982FACE0B0E0EFE0F3E10C94782F8E015E
:102620000F5F1F4F8CE0F80111928A95E9F7F12CAA
:10263000EE24E3944E2D6F2DC8010E944912F394AD
:10264000EE0CF5E0FF12F6CF4CE050E0B80180E16F
:1026500093E00E94A32F21E0009709F420E0892B4A
:1026600041F08CE0F801A0E1B3E001900D928A9571
:10267000E1F76091280370E0645E7C4F46E080E102
:1026800093E00E944C13182F0E94BC11812B2C96B2
:10269000E6E00C94942F0895CF92DF92EF92FF9290
:1026A0000F931F93CF936C017B01042F222349F0DA
:1026B00081E0809382020E9434279093810280936C
:1026C0008002C0918202C1110AC0C0E08C2FCF915C
:1026D0001F910F91FF90EF90DF90CF900895809120
:1026E0008002909181020E944C27059770F310E0C0
:1026F000A801B601C7010E94A32F892B41F0A801B0
:10270000B601C7010E94B02F10928202DFCFC0E055
:10271000FBCF80918502811107C00E942A2F882358
:1027200051F081E08093850281E0909185029130A3
:1027300009F080E0089582E0809385020E94252FB1
:10274000F3CF0E94891308950E94A113809335014D
:102750000E94891381110E94F21308950E94891327
:10276000811102C00E94F513089581E090918602C4
:102770009A3008F080E008950F931F93CF93DF9372
:10278000EC018B01809186028A30B8F4B801CE0149
:102790000E944014C82F811122C0809186028F3F71
:1027A000B9F40E94342790938402809383028C2F83
:1027B000DF91CF911F910F910895809183029091A5
:1027C00084020E944C27843F914000F7C0E0EFCF85
:1027D0008F5F809386028A3020F7C1E0E8CF1092A5
:1027E0008602E5CF0E946B2408950E946E2408950E
:1027F000B0E0A0E0EEEFF3E10C94772F7901C82F61
:10280000880FDD0B41155105A9F0FE0193E0EE0F95
:10281000FF1F9A95E1F7EA5CFE4F8181928189570B
:102820009D4F208130E04217530708F49A01A90117
:102830000E94B02FCE010E945725D82E8823D1F0B8
:1028400001151105B9F083E0CC0FDD1F8A95E1F782
:10285000FE01EA5CFE4F438150E00417150708F4BF
:10286000A801CA5CDE4F6C817D8169577D4FC7012D
:102870000E94B02F8D2DCDB7DEB7E7E00C94932FDB
:102880000E94321508950E9449150895A4E0B0E011
:10289000ECE4F4E10C947A2F6091A0027091A10213
:1028A0008091A2029091A3020E945B2711E06436FE
:1028B00071058105910518F10E9450116E5F7F4FDF
:1028C0008F4F9F4F69837A838B839C8310E000E056
:1028D00030E020E044E050E0BE016F5F7F4F82E0D7
:1028E0000E94F813182F882351F00E94402760930C
:1028F000A0027093A1028093A2029093A302812F61
:102900002496E4E00C94962FB0E0A0E0EAE8F4E12D
:102910000C94742F7C015B016A010E94B51301E0E5
:1029200010E0882311F00AE010E0C1E0D0E0B5012A
:10293000C701F6010995811104C021960C171D07E6
:102940002CF4CDB7DEB7EAE00C94902FCC9F900129
:10295000CD9F300D300D112490E080E045E34A9585
:10296000F1F70000019682179307C1F7E0CFA7E0C7
:10297000B0E0EDEBF4E10C94742F7B01C090D90131
:10298000D090DA0101E010E09E01295F3F4F50E056
:1029900040E070E060E080E00E94F813182F882388
:1029A00009F448C056018FEFA81AB80A60919C023A
:1029B00070919D0280919E0290919F020E945B27E0
:1029C000643671058105910568F106E010E09E010D
:1029D0002F5F3F4F50E040E070E060E081E00E94F8
:1029E000F813D82E66E070E0C5010E94CA1B11E002
:1029F0009F81981310E01D2141F10E9440276093B0
:102A00009C0270939D0280939E0290939F0286E0A9
:102A1000FE013196A6E9B2E001900D928A95E1F7A8
:102A200011E013C066E070E0C5010E94CA1B9F81DF
:102A30008913CBCF86E0F6013196DE011196019025
:102A40000D928A95E1F71111E2CF86E0E6E9F2E016
:102A5000D70101900D928A95E1F7812F2796EAE040
:102A60000C94902F0F931F93CF93DF93EC018B0166
:102A700047EB54E10E948414882331F046E454E18A
:102A8000B801CE010E948414DF91CF911F910F9164
:102A900008950F931F93CF93DF93C091D901D091E5
:102AA000DA01CE01019626E0FB01DC0101900D92D6
:102AB0002A95E1F766E070E00E94CA1B88836F8167
:102AC000788589859A8500919202109193022091D0
:102AD000940230919502601771078207930751F0B5
:102AE0006093920270939302809394029093950264
:102AF0000E943311DF91CF911F910F9108950E9491
:102B000084290E94AC0E0E94912908950E94962962
:102B10000E94C40E0E94B02908950E94CD260E94F2
:102B20006A290E94940E0E947F150E9486150E94B9
:102B3000A20EFBCF8091AA0280FF0DC060915301CD
:102B400070E0660F771F6038710570F561157105CB
:102B500069F1862F089581FF07C06091530184E0D9
:102B6000689FB0011124EFCF6091530182FD0AC02C
:102B70008091A9028823A9F020915201609153010C
:102B8000821710F088E0ECCF869FC001112433E05B
:102B9000880F991F3A95E1F7622F70E00E944B2F42
:102BA000D2CF68E070E0D5CF8FE7089581E0089537
:102BB0008091AA0280FF0CC060914F0170E0759572
:102BC0006795759567956115710549F1862F08958B
:102BD00081FF06C060914F0170E075956795F3CF56
:102BE00060914F0182FD0BC09091A8029923A1F042
:102BF00060914E0180914F01961738F0682F70E078
:102C00006038710500F38FE70895899FC001112492
:102C100070E00E944B2FF4CF61E070E0D7CF81E0ED
:102C20000895803F31F40E949A1581958093AE02F9
:102C30000895813F19F40E949A15F8CF823F31F42C
:102C40000E949A1581958093AD020895833F19F4EF
:102C50000E949A15F8CF893F29F40E94D8158093D5
:102C6000AF0208958A3F21F40E94D8158195F7CFCD
:102C70008B3F31F40E94D81581958093B00208955E
:102C80008C3F19F40E94D815F8CF9CE0980F95302E
:102C900070F4845F990B21E030E001C0220F8A9527
:102CA000EAF78091AC02822B8093AC0208958D3FAD
:102CB00031F48091AA0281608093AA0208958E3F28
:102CC00021F48091AA028260F7CF8F3FB9F78091FB
:102CD000AA028460F1CF4091AD02803F59F4809107
:102CE000AE0287FF0DC01092AE0241110BC01092D0
:102CF000A90208C0813F81F48091AE0218169CF3AE
:102D0000442381F08091AF029091B002892B09F0A9
:102D10005AC01092A8020895823F49F447FFF0CFAD
:102D20001092AD028091AE028111ECCFE0CF833FD3
:102D300019F41416ACF3E4CF9091AF02893F29F453
:102D40001916F4F61092AF02DBCF8A3F19F497FF01
:102D5000D7CFF8CF9091B0028B3F29F497FFD0CF17
:102D60001092B002CDCF8C3F19F41916CCF3C8CF16
:102D70009CE0980F953090F4845F990B21E030E04F
:102D8000B90102C0660F771F8A95E2F7CB018095E3
:102D90009091AC0289238093AC02B2CF8D3F31F485
:102DA0008091AA028E7F8093AA02AACF8E3F21F43F
:102DB0008091AA028D7FF7CF8F3F09F0A1CF80913C
:102DC000AA028B7FF0CF08950E9434279C01909136
:102DD000AD028091AE02982B21F03093A702209390
:102DE000A6029091AF028091B002982B21F030930F
:102DF000A5022093A4028BEA92E00E94F625089592
:102E000086E0EBEAF2E0DF011D928A95E9F7109285
:102E1000A9021092A8021092AA020895A6E0B0E0BA
:102E2000E4E1F7E10C947C2F86E0EBEAF2E0DE01CE
:102E3000119601900D928A95E1F729813A814B8193
:102E40005C816D817E8180E090E02696E2E00C94CA
:102E5000982FFC01828181110EC0838181110BC0EA
:102E60008481811108C091E08581811101C090E0C9
:102E7000892F8170089581E0FCCFA6E0B0E0E3E403
:102E8000F7E10C947B2F86E0EBEAF2E0DE0111968D
:102E900001900D928A95E1F71092AD021092AE0268
:102EA0001092AF021092B0028B819C81892B89F025
:102EB0008091A6029091A7020E944C27AC019091AC
:102EC000A9029923C9F1809154018417150608F4C9
:102ED00040C08D819E81892B91F08091A4029091B8
:102EE000A5020E944C27AC019091A802992309F4F5
:102EF00071C0809150018417150608F479C0BE0195
:102F00006F5F7F4F8BEA92E00E948526811105C09A
:102F10008BEA92E00E94291781110E94E41686E054
:102F2000FE013196ABEAB2E001900D928A95E1F78D
:102F30002696E3E00C94972F209155018AE0289F74
:102F4000900111242417350720F69F5F9093A90262
:102F500002C09F3FD1F71B81112359F00E949A159F
:102F60009FEF11160CF491E0899F802D112480931E
:102F7000AD021C81112359F00E949A159FEF111682
:102F80000CF491E0899F802D11248093AE02309142
:102F9000AD02332309F49DCF2091AE02222309F420
:102FA00098CF45EB3403C0011124992359F0909335
:102FB000AD0245EB240390011124332339F0309303
:102FC000AE0287CF81E08093AD02F3CF81E08093A2
:102FD000AE027FCF209151018AE0289F90011124F9
:102FE0002417350708F08BCF9F5F9093A80202C08B
:102FF0009F3FD1F71D81112359F00E94D8159FEFF3
:1030000011160CF491E0899F802D11248093AF025A
:103010001E81112359F00E94D8159FEF11160CF450
:1030200091E0899F802D11248093B0023091AF02EE
:10303000332309F464CF2091B002222309F45FCF37
:1030400045EB3403C0011124992359F09093AF024A
:1030500045EB240390011124332339F03093B0025F
:103060004ECF81E08093AF02F3CF81E08093B00236
:1030700046CF08950895ACE0B0E0E1E4F8E10C94A7
:103080007C2F4F83588769877A878B879C8786E058
:10309000FE013796DE01119601900D928A95E1F7B7
:1030A00029813A814B815C816D817E8180E090E055
:1030B0002C96E2E00C94982FACE0B0E0E2E6F8E168
:1030C0000C947C2F0E943B1880E090E02C96E2E06C
:1030D0000C94982F21E030E001C0220F4A95EAF7C6
:1030E000662311F0822B0895209582230895E091A4
:1030F000DB01F091DC0109950E9439180E943A1811
:10310000089565EB72E08BEB92E00E9485268823A0
:1031100021F08BEB92E00E94F6251092BD021092F6
:10312000BE021092BF021092C00286E0EBEBF2E00A
:10313000A5EBB2E001900D928A95E1F70895A2E126
:10314000B0E0E5EAF8E10C947C2F6091B102709157
:10315000B2028091B3029091B4020E945B27672B68
:10316000682B692B09F46EC00E9440276093B1025E
:103170007093B2028093B3029093B402E091DD01A8
:10318000F091DE014091BB025091BC026091BD0202
:103190007091BE028091BF029091C0020995209368
:1031A000BB023093BC024093BD025093BE026093B9
:1031B000BF027093C00286E0EBEBF2E0DE011D96E9
:1031C00001900D928A95E1F786E0FE013D96DE01C1
:1031D000119601900D928A95E1F786E0FE013196F5
:1031E000DE01179601900D928A95E1F786E0FE01C7
:1031F0003796ABEBB2E001900D928A95E1F74091E2
:10320000BB025091BC026091BD027091BE028091E0
:10321000BF029091C0020E945C182093BB023093C1
:10322000BC024093BD025093BE026093BF027093F4
:10323000C0020E940E178091BC02832B8093BC02B7
:103240000E9481186296E2E00C94982FA6E0B0E00C
:10325000ECE2F9E10C947C2F86E0EBEBF2E0DE018E
:10326000119601900D928A95E1F729813A814B815F
:103270005C816D817E8180E090E02696E2E00C9496
:10328000982FA6E0B0E0E7E4F9E10C947C2F4983A5
:103290005A836B837C838D839E8386E0FE01319607
:1032A000ABEBB2E001900D928A95E1F72696E2E051
:1032B0000C94982FFC01208131812038310534F0A5
:1032C0002F573109318320838FE7089520388FEFFE
:1032D000380734F421583F4F3183208380E8089524
:1032E000822F118210820895A1E1B0E0EAE7F9E1AE
:1032F0000C94792F4C87888B998B152FF62E072FDE
:10330000CE01079625E0FC0111922A95E9F720915C
:10331000C7022A3008F03FC00E94381A892B09F0F2
:1033200060C01092C7028B8540E087FD52C060E00C
:10333000812F0E946A18182F8091C5029091C602B1
:10334000009709F040C046E06F8188850E944F1ABF
:103350002091C3023091C402820F931F9093C40244
:103360008093C30246E069858A850E944F1A2091A6
:10337000C1023091C202820F931F9093C2028093C8
:10338000C10283EC92E00E945A19F82E81EC92E07F
:103390000E945A19082F1D87FE860F8786E0FE01BE
:1033A0003C96DE01119601900D928A95E1F72981F4
:1033B0003A814B815C816D817E8180E090E06196F5
:1033C000E5E00C94952F01979093C6028093C50277
:1033D000E2CF61E0812F0E946A18182F84E190E00B
:1033E000F3CF8091C7028F5F8093C702D4CF8091C3
:1033F0005601909157012DE7AC01249FC001259FF4
:10340000900D112408959C01893F910538F481E0C5
:1034100090E090935701809356010895EDE7F0E016
:10342000BF010E94372FA901481B590BCA01BF01D8
:103430000E94372F70935701609356010895A4E0BE
:10344000B0E0E5E2FAE10C947A2F89836A834B833A
:103450002C8304E610E024E030E0AE014F5F5F4FC4
:1034600060E084E10E949D232496E4E00C94962F72
:103470000F931F9304E610E025E030E0AC0164E018
:1034800084E10E94C4231F910F9108950E94962207
:1034900020E040E060E080E00E941F1A0895681775
:1034A00008F5861B682F21E0469FA0011124649F28
:1034B000F001659FF00D1124409156015091570184
:1034C000E49FC001E59F900DF49F900D1124880F9B
:1034D000892F881F990B9195222319F09195819539
:1034E00091090895681B20E0DFCF83E290E00E94FD
:1034F000B92F823289F484E290E00E94B92F8231A0
:1035000059F485E290E00E94B92F91E0893209F0E8
:1035100090E0892F8170089580E0FCCFCF93C82F71
:103520006FEF811162E283E290E00E94C72F6FEF9C
:10353000C11162E184E290E00E94C72F6FEFC111D8
:1035400069E285E290E00E94C72FCF910895089527
:1035500086E290E00E94B92F682F70E090E080E052
:1035600008950895CF93C62F0E94B11A6C2F86E25A
:1035700090E00E94C72FCF91089580E00E948E1A9C
:1035800060E070E0CB010E94B21A0E9478200E9495
:103590005B2181E00E948E1A08950E94A71A0E9462
:1035A000A81A0E94B11A0E94751A811102C00E94C5
:1035B000BD1A0895CF93FB01C281CC2309F19C0170
:1035C00022513F452031310520F582510E946B2167
:1035D000C0E08C2FCF91089581E00E94060943E05E
:1035E00062E081E00E94E603F3CF81E00E941209CD
:1035F00043E062E081E00E94E603EBCF82E0F6CF99
:103600008031FFE59F0789F381319F45B9F3C1E020
:10361000E0CF8031EFE59E07F9F281319F45C9F691
:1036200082E0DBCF2FEFFC0120830895EF92FF9221
:103630000F931F93CF93DF93EC01062FE881E150A6
:10364000E33108F05DC0F0E0E75FFF4C0C945F2FC2
:1036500019828AE08A83602FCE010E943D28CDB76F
:10366000DEB7E6E00C94942F8981823069F08330D4
:1036700071F08130D9F40E9440270E94652F6A833F
:103680007B838C839D83E7CF0E94A81AF6CF7E01AF
:1036900082E0E80EF11C10E0812F0E94A811F701D2
:1036A00081937F011F5F1C30B9F7D5CF602FCE010A
:1036B0000E94121BD0CF89818230C1F76A817B8141
:1036C0008C819D810E94652F0E94B21AC4CF4B81CC
:1036D0006A8189810E943A209827892798279D83AB
:1036E0008C83B9CF2C813D813227232732274B8110
:1036F0006A8189810E945C20AECF0E947820ABCF86
:103700008FEF8883A8CF0E940C218983A4CF0E94C9
:103710000E219827892798279A8389839CCF6B81CC
:1037200070E089819A81AE014C5F5F4F98278927AD
:1037300098270E9411218FCF6B8170E089819A8137
:10374000AE014C5F5F4F9827892798270E9436214A
:1037500082CF0E945B217FCF0E942820D6CF6B8131
:1037600070E089819A81AE014C5F5F4F982789276D
:1037700098270E94B6206FCF6B8170E089819A8173
:10378000AE014C5F5F4F9827892798270E94DA2067
:1037900062CF0895FC01680F791F8FEF91E36E17D8
:1037A0007F0709F408952191822728E030E087FF00
:1037B00006C0880F892721503109C9F7F0CF880F3B
:1037C000FACFB0E0A0E0E7EEFBE10C94762F6C01BD
:1037D0007B0164E670E088E70E949C22EC0197FD83
:1037E00012C010E000E0F601E00FF11F849164E6E2
:1037F00070E00E940823EC01892B29F40F5F1F4F12
:103800000E151F0581F70E940D24CE01CDB7DEB73E
:10381000E8E00C94922F08950E940B1C0895E9E2B1
:10382000F3E080E092E0DF019C011D9221503040E6
:10383000E1F7F0933005E0932F058FEF9FEF909322
:10384000EE028093ED0208950E940B1C0E940C1C56
:103850008093E90280FD0FC080E88093E8020E9417
:1038600096226DE070E08BE292E00E94E11B892BD2
:1038700021F080E0089580E2F0CF8091E90263E0DA
:1038800070E081FD26C088E292E00E94E11B892B56
:1038900081F76DE070E088E192E00E94E11B892BE6
:1038A00041F70E944027605A75418F4F9F4F6093A8
:1038B0002B0570932C0580932D0590932E050E9467
:1038C0000F1C81E08093EC028093EB021092EA02DD
:1038D000089585E292E0D9CF2091E80236E0839FF7
:1038E000C0011124629F800D911D1124811522E0D9
:1038F000920714F090E080E0875D9C4F9093300534
:1039000080932F0508958091EC02811103C080916E
:10391000EB0208950E944027605A75418F4F9F4FD8
:1039200060932B0570932C0580932D0590932E05A5
:103930008091EB028111EBCF62E070E086E192E0D2
:103940000E94E11B892B19F781E08093EB02DFCF06
:103950002F923F925F926F927F928F929F92AF923F
:10396000BF92CF92DF92EF92FF920F931F93CF936C
:10397000DF938091EC02882369F02091ED02309171
:10398000EE022115310531F08091EA0261E070E02C
:10399000882399F0DF91CF911F910F91FF90EF90C5
:1039A000DF90CF90BF90AF909F908F907F906F905F
:1039B0005F903F902F9008958F5F082F10E01B01BC
:1039C000082E02C0220C331C0A94E2F7A9014221FE
:1039D0005321452B89F39091E90290FD44C08295D3
:1039E000880F807680935A019801369527953695F1
:1039F000279520935D01815E80935B0110925E01AB
:103A000024E630E047E050E068E571E088E70E9496
:103A10007C23892B09F0BECFA80125E0440F551F58
:103A20002A95E1F78091E90280FD2BC0475D5C4F4C
:103A300004E610E020E230E060E488E70E949D2385
:103A4000892B09F0A7CF0E94831CE101C095D09576
:103A50008091ED029091EE02C823D923D093EE021B
:103A6000C093ED0297CF880F880F880F80935A017B
:103A700010925D01895F80935B0183E080935E011A
:103A8000BFCFE8ECF2E080E2DF011D928A95E9F712
:103A9000A7EEB1E003EE11E08BEEC82E81E0D82E48
:103AA00097E0592E772473948D91E80129918E0126
:103AB000240F352F311D275D3C4FE82FF0E0E853F0
:103AC000FD4F90E080E0652C681A872C082E01C01D
:103AD000880C0A94EAF77901A12CE701B9907E01DC
:103AE000B820662D6A196770962E062E000C770B8B
:103AF000DB2D01C0DD0F9A94EAF77195619571098C
:103B00006770772701C0B6946A95EAF7BD2A60818D
:103B1000962E9B289082A39468E0A612DECF019691
:103B200031968830910579F6CA16DB0609F0BCCFCC
:103B300004E610E020E230E048EC52E07DCF8091D6
:103B4000EB029091EC02911103C091E08927089556
:103B5000882369F062E070E084E192E00E94E11B5A
:103B6000892B19F08091EB0208951092EB0280915D
:103B7000EB02EBCF81E008950E94BA1D08950F93E8
:103B80001F938091EC02882379F18091290590910F
:103B90002A050E944C27C29760F00E943427909318
:103BA0002A058093290560E080E00E946C1C0E9439
:103BB000BC1D0E94A81C8091EB028823A9F00E94E2
:103BC000402700912B0510912C0520912D05309157
:103BD0002E05601B710B820B930B6F3F7F4F8F4F36
:103BE0009F4710F40E949F1D1F910F910895CF933E
:103BF000DF93EC01FB018281882309F464C1C330A7
:103C0000FDE5DF07E0F5CA3F9CE5D90730F49E01EA
:103C100022503C4524313105D8F50E94D80D9093AF
:103C20000E0380930D03C231ECE5DE0709F41FC1DA
:103C300008F06EC0C9308CE5D80709F4F2C008F06E
:103C40003FC0C530ECE5DE0709F4DBC058F5C330F2
:103C50008CE5D80709F4CDC008F0CFC080910D03E2
:103C60008160C230DC4509F4AEC080910D039091B3
:103C70000E030E94E60D0E94840880E009C0C53A48
:103C8000EDE5DE0751F238F4C1369DE5D90729F29A
:103C9000DF91CF9108959E012D5A3D452330310586
:103CA000B8F7BBCF80910D038062C730FCE5DF071A
:103CB00009F489C008F4B1C080910D03806483C009
:103CC000CD309CE5D90709F4BAC070F480910D039A
:103CD0008E7FCB30FCE5DF0709F475C008F4A7C080
:103CE00080910D038D7F6FC0CF309CE5D90709F41B
:103CF000B6C008F4A8C0C031FCE5DF0709F4B3C0C2
:103D0000C131DC4509F0B1CF80910D038F7B5BC0E1
:103D1000CF3F9CE5D90709F4B4C098F5CA3FFCE54C
:103D2000DF0709F472C0B8F4C4319CE5D90709F47F
:103D3000B6C008F4A2C0C531DC4509F096CF809129
:103D40000D0382FB992790F921E0922790FB82F9DD
:103D500090FB83F938C0CC3F8CE5D80709F477C0D5
:103D600008F457C0CD3FECE5DE0709F474C080913C
:103D70000E038360CE3FDC4509F077CF80930E03BE
:103D800074CFC1368DE5D80709F496C068F4C13008
:103D9000EDE5DE0709F48CC008F477C0C230DD45DC
:103DA00009F063CF80E085C0CD3A9DE5D907E9F001
:103DB00068F490910D03892F8E7F90FF8160C53A42
:103DC000DD4509F052CF80930D034FCFCE3A8DE5FC
:103DD000D80789F1CF3ADD4509F047CF90910E031E
:103DE000892F877F93FF8860C9CF80910E038860F9
:103DF000C5CF80910D038260E6CF80910D03846072
:103E0000E2CF80910D038860DECF80910E03816048
:103E1000B5CF80910E038260B1CF80910D03806198
:103E2000D2CF0E94840880910D038068CCCF80910E
:103E30000D038C60C8CF80910E03877F9FCF809148
:103E40000D038B7FC0CF80910D03877FBCCF809106
:103E50000E038E7F93CF80910E038D7F8FCF809145
:103E60000D038F7EB0CF80910D038F7DACCF0E946C
:103E7000840880910D038F77A6CF80910D03837FF7
:103E8000A2CF80910E038C7F79CF80910E03982F63
:103E9000909591708E7F892B90FB81F96FCF0E9456
:103EA000840890910D03892F97FB87F980588BCF59
:103EB00081E00E94720ED9CE90910D03892F8F7EE2
:103EC00094FF806180CF81E0E3CEB0E0A0E0EBE63C
:103ED000FFE10C94772FE82FF0E0E85CFD4FD490E1
:103EE000282F26952695269530E0F901E852FD4FBA
:103EF0000491877010E0082E02C0159507950A946A
:103F0000E2F701701127F901E853FD4FE490F12C1D
:103F1000082E02C0F594E7940A94E2F791E0E922B2
:103F2000FF24F901E854FD4FC491D0E002C0D595BB
:103F3000C7958A95E2F7C170DD270115110519F0C3
:103F400081EE0E940805E114F10419F086EE0E944A
:103F500008058D2D0E940A06E114F10419F086EE81
:103F60000E9499050115110519F081EE0E9499052D
:103F7000CD2B19F08CE20E940A06CDB7DEB7E7E040
:103F80000C94932FEF92FF920F931F93CF93DF9395
:103F9000EC01162F0AE08881882309F454C081308F
:103FA00009F04EC08981813099F47E0122E0E20E51
:103FB000F11C8A810E940A06E7012196812F815017
:103FC00050F3EFE9FFE03197F1F700C00000F7CFC1
:103FD000823041F47E0182E0E80EF11C8A810E9469
:103FE0000805EACF833041F47E01E2E0EE0EF11CD9
:103FF0008A810E949905E0CF843011F02196DDCFAF
:104000002A81229690E080E0AE014F5F5F4F2053FF
:10401000330B2A30310548F0019778F2EFE9FFE0E1
:104020003197F1F700C00000F7CF089FB001099F5A
:10403000700D1124C901860F971F2981EA01E4CF71
:104040000E94651FBACFCDB7DEB7E6E00C94942F7F
:1040500084E0089550E0440F551F9AE0699F400D99
:10406000511D112498E7899F400D511D1124CA014B
:10407000879608950F931F93CF93DF938430C8F4EE
:104080006C30B8F44530A8F40E942A208C010E94BC
:10409000B92FC82FD0E0DC2FCC27C80101960E9491
:1040A000B92F9E01282BC901DF91CF911F910F914C
:1040B000089590E080E0F8CF0F931F93CF93DF93A4
:1040C000122F032F843078F46C3068F4453058F4A4
:1040D0000E942A20EC01602F0E94C72F612FCE0181
:1040E00001960E94C72FDF91CF911F910F910895E4
:1040F000B0E0A0E0EEE7F0E20C94752F9CEAC92E48
:1041000090E0D92ED0E0C0E07601B12C20C00E9412
:10411000780321E030E08C171D0641F03CF0F801F7
:10412000EE0FFF1FEE0DFF1D25913491402F6B2DDB
:104130008C2F0E945C200F5F1F4F0530110539F74F
:104140008AE0E80EF11CB3948CE0B81619F010E088
:1041500000E0DDCF219688E7C80ED11CC430D10520
:1041600099F6CDB7DEB7E9E00C94912FEF92FF926C
:104170000F931F93CF93DF93EC018A017C01E60E2E
:10418000F71ECE018796CE15DF0529F4CDB7DEB731
:10419000E6E00C94942FC03E21E0D20740F40E9448
:1041A000B92FF80180830F5F1F4F2196EACFF801E6
:1041B0001082F9CFB0E0A0E0E0EEF0E20C94762FB0
:1041C0007C016A018C01060F171FEC01CE01879656
:1041D000C017D10729F4CDB7DEB7E8E00C94922FD1
:1041E000C03E21E0D20740F4FE01EE19FF09EC0DBC
:1041F000FD1D60810E94C72F2196E8CF462F843095
:1042000040F47C3030F4653020F4672F0E943A206F
:10421000089590E080E0089580E1089589EF91E0AD
:104220000895EF92FF920F931F93CF93DF93EC01CA
:104230008A017C01E60EF71ECE01895F9D4FCE15E7
:10424000DF0529F4CDB7DEB7E6E00C94942FC93F23
:1042500021E0D20740F40E94B92FF80180830F5F5C
:104260001F4F2196E9CFF8011082F9CFB0E0A0E00E
:10427000ECE3F1E20C94762F7C016A018C01060FCD
:10428000171FEC01CE01895F9D4FC017D10729F49C
:10429000CDB7DEB7E8E00C94922FC93F21E0D207FA
:1042A00040F4FE01EE19FF09EC0DFD1D60810E9436
:1042B000C72F2196E7CFCF93DF93C7E0D2E060E02E
:1042C000CE010E94C72F2196C11584E0D807B9F707
:1042D000DF91CF910895A4E0B0E0E1E7F1E20C9422
:1042E000772FF82E8FE08F1548F18FEF93E00E9423
:1042F000B92F811123C007E012E0F11023C0198209
:104300001A821B821C82DD24D39478018FEFE81A75
:10431000F80AC8010E94B92F89831A82882371F094
:104320009FEF980F9330D8F48A83D9820E5F1F4F86
:10433000C7010E94B92F8B83811112C02496E7E038
:104340000C94932F011584E01807C1F3C8010E9453
:10435000B92F811101C0FA940F5F1F4FCECF870193
:1043600060E0CE0101960E94C21FCFCFCF93DF93B2
:10437000EB0186319C4511F50E94D40C9A8199235A
:1043800099F08A7A91E009F490E09093EF0281111C
:1043900009C089E20E94AC0C0E94150D80E0DF91FB
:1043A000CF91089585E3F6CF8091EF02811104C08B
:1043B00089E20E94B40CF0CF85E3FBCF81E0EFCF20
:1043C0000F931F93CF93DF93C42FD22FFC018281D1
:1043D0008823C9F04093F2020E9434279093F1029F
:1043E0008093F00280E28C0F883040F4C77081E047
:1043F00001C0880FCA95EAF70E941306DF91CF919A
:104400001F910F9108951091F202141332C0809100
:10441000F0029091F1020E944C27883C910548F5EA
:10442000C0E2CD0F1D17B9F080E2810F883040F453
:10443000177081E001C0880F1A95EAF70E941A06EA
:10444000C83048F481E09D2F977001C0880F9A957D
:10445000EAF70E941306802F0E940A06C83070F601
:10446000D77081E001C0880FDA95EAF70E941A063A
:10447000C5CF80E28C0F883008F6C77081E001C09C
:10448000880FCA95EAF7F2CF0F939C01CB01233F27
:104490004CE5340759F1A8F4283DFCE53F0701F14C
:1044A000293D4CE53407D1F1273D3C4591F406E226
:1044B00021EE41EE67ED7CE50E94E02180E00F9166
:1044C0000895253FFCE53F07E9F0B0F0263F3C4565
:1044D000F9F0FC018281882339F11092F202EFCFCA
:1044E00007E225EE45EE68ED7CE5E6CF06E221EE3B
:1044F00040EE63EF7CE5E0CF07E225EE44EE64EFAB
:104500007CE5DACF06E221EE42EE65EF7CE5D4CF22
:1045100007E225EE46EE66EF7CE5CECF08E221E02D
:1045200045EE69ED7CE5C8CF81E0C9CF1092B900B6
:104530008CE08093B8000895B0E0A0E0E2EAF2E2F7
:104540000C94732FB82EEB010E9434276C01EE24DB
:10455000E394F12CC431D10560F025E0E22EF12C7A
:10456000CF3FDC0731F0CE0164E170E00E94372FCD
:104570007B0184EAA82E94E8992E1092BC00A092A8
:10458000BC000E9434278C018091BC0087FF0DC0C5
:104590008091B900887F8830F9F08091B900887FD8
:1045A0008031D1F00FEF1FEF08C0C8010E944C27E7
:1045B000E816F90648F70EEF1FEFCF3FDC07E9F2E8
:1045C000C6010E944C27C817D907B8F6C801CDB755
:1045D000DEB7EBE00C948F2FB092BB009092BC0042
:1045E0000E9434278C018091BC0087FF0AC0809113
:1045F000B900887F883111F08034A1F610E000E026
:10460000E5CFC8010E944C27E816F90660F7D3CF22
:104610000F931F93CF93DF93EB018093BB0084E84C
:104620008093BC000E9434278C018091BC0087FFDE
:1046300011C02091B900287F81E090E0283211F468
:1046400090E080E0919581959109DF91CF911F9144
:104650000F910895CF3FDC0741F3C8010E944C271A
:10466000C817D90710F78EEF9FEFEFCF0F931F9367
:10467000CF93DF93EC0184EC8093BC000E9434273D
:104680008C018091BC0087FF08C08091BB0090E046
:10469000DF91CF911F910F910895CF3FDC0789F3F0
:1046A000C8010E944C27C817D90758F78EEF9FEF13
:1046B000EFCF0F931F93CF93DF93EC0184E88093A8
:1046C000BC000E9434278C018091BC0087FF08C089
:1046D0008091BB0090E0DF91CF911F910F910895E1
:1046E000CF3FDC0789F3C8010E944C27C817D907C0
:1046F00058F78EEF9FEFEFCFB0E0A0E0E2E8F3E2F3
:104700000C94762F6B018A017901B9010E949C22D9
:10471000E6010C0D1D1DC017D10711F097FF08C051
:1047200024E92093BC00CDB7DEB7E8E00C94922FCB
:10473000B70189910E940823EECFB0E0A0E0E3EA40
:10474000F3E20C94762FC62F6A017901B8010E941A
:104750009C2297FD0CC0B8018C2F0E940823E60113
:10476000EC0CFD1CCE15DF0511F097FF08C024E905
:104770002093BC00CDB7DEB7E8E00C94922FB801CF
:1047800089910E940823EECFB0E0A0E0EAECF3E2CA
:104790000C94762FF82EE62EEA016901B8010E94EA
:1047A0009C2297FD15C0B8018E2D0E94082397FD0D
:1047B0000FC0B8018F2D81600E949C22F12CE12C4A
:1047C00021E0C21AD108EC14FD04E0F497FF0DC0FB
:1047D00024E92093BC001816190614F490E080E038
:1047E000CDB7DEB7E8E00C94922FC8010E943623C3
:1047F00097FD04C0FE01EE0DFF1D80832FEFE21A2E
:10480000F20AE1CF97FDE4CFC8010E94592397FD3A
:10481000DFCFCC0DDD1D8883DBCF84E98093BC0026
:1048200008958EE14A9B02C08150E1F74A9BFECF7A
:1048300008955A9880E28A95F1F75A9A0895FC01F2
:104840003BE03A95F1F798E020E080E031E040E18C
:104850004A95F1F7880F4A9B02C08160232742E006
:104860004A95F1F7000040E14A95F1F7915079F748
:1048700090E19A95F1F799B132E03A95F1F700009D
:1048800040E14A95F1F792FB992790F99227208110
:10489000920F90830895A1E0B0E0E1E5F4E20C947A
:1048A000782F19828C017C01E60EF11C0E151F0574
:1048B00041F481E09981911180E02196E6E00C9429
:1048C000942F0E941124CE0101960E941F24F8010A
:1048D00081938F01EBCF529A5A9A089552985A9A1F
:1048E000EA9AE9E6F0E080818F7C80830895615048
:1048F000770B91E001C0990F6A95EAF720E031E06B
:10490000911108C0222391F05A9A80E28A95F1F71A
:104910005A980895492F482339F05A9A232740E29C
:104920004A95F1F79695ECCF5A98F9CF5A98EDCF72
:10493000FF920F931F93CF93DF93EC018C01060F2F
:10494000111DC017D10729F4CDB7DEB7E5E00C94EF
:10495000952FF9900E94192468E08F2D0E947724EA
:10496000F0CF1F920F920FB60F9211240F931F9347
:104970002F933F934F935F936F937F938F939F9367
:10498000AF93BF93EF93FF93CF93DF930F92CDB786
:10499000DEB719820E941124CE0101960E941F24C5
:1049A000082F069506950695282F22952570902F9D
:1049B0009570290F922F937026952695920F982720
:1049C00097708981982B09F05CC0043008F059C0B9
:1049D00080E18A95F1F75A9A529A82E08A95F1F726
:1049E00000C05A9888E0089F80011124D801AA5C71
:1049F000BE4F1696ED91FC9117973097A9F06091F4
:104A0000D9017091DA0114962D913C911597260FDA
:104A1000371F11968D919C911297680F791F1396ED
:104A20004C9113978C910995F801EA5CFE4F6381D4
:104A3000662351F02091D9013091DA01848195816A
:104A4000820F931F0E9498240E94192480E18A9566
:104A5000F1F75A9852985A9A80E18A95F1F7F8013D
:104A6000EA5CFE4F6081662351F02091D9013091BC
:104A7000DA0181819281820F931F0E944B240E9450
:104A800011240F90DF91CF91FF91EF91BF91AF91E2
:104A90009F918F917F916F915F914F913F912F9156
:104AA0001F910F910F900FBE0F901F9018950F93AD
:104AB0001F93CF93DF93EC0104970CF04CC0F89454
:104AC000529A5A9885E08A95F1F700009C2F9695A6
:104AD00095708C2F8570980F892F83709695969579
:104AE00023E0CC0FDD1F2A95E1F7980F8E01092BEB
:104AF0000E94192400C068E0802F0E94772480E182
:104B00008A95F1F752985A9A4A9B1EC087E090E026
:104B10004A991CC0FE01EA5CFE4F63816623F9F0EE
:104B20002091D9013091DA0184819581820F931F00
:104B30000E944B24811113C0529A5A9A7894DF91A3
:104B4000CF911F910F91089500C0DECF019729F4F6
:104B5000529A5A9A789480E0F2CF00C0D9CF0E943E
:104B6000112480E28A95F1F75A98529A80E18A9549
:104B7000F1F7CA5CDE4F6881662351F02091D901BC
:104B80003091DA0189819A81820F931F0E949824C3
:104B90000E941924789481E0D2CF9093FB018093F6
:104BA000FA0108959093F9028093F80208950E9403
:104BB0008913811103C08091F3020895E091F802F6
:104BC000F091F902309729F00190F081E02D0995DC
:104BD000089580E00895E091F802F091F90230978D
:104BE00021F00280F381E02D09950895E091F8020B
:104BF000F091F902309739F022E0DC012C93048027
:104C0000F581E02D099508952091F6023091F70283
:104C10002817390771F09093F7028093F602E0911C
:104C2000F802F091F902309721F00680F781E02D2B
:104C3000099508952091F4023091F502281739075B
:104C400071F09093F5028093F402E091F802F091F4
:104C5000F902309721F00084F185E02D099508953F
:104C60009C012E5F3F4FAC01485F5F4F80E02417EF
:104C7000350709F40895F90191919F019923B9F33A
:104C80008F5FF5CF662349F0FC013296089621919B
:104C9000261729F0E817F907D1F780E0089581E099
:104CA00008959C01FC0132969FEF80E041914617E8
:104CB00051F09F3F19F4411101C0982F8F5F86304A
:104CC000A9F79F3F09F40895290F311D97FD3A95E3
:104CD000F90162830895FC0132960896219126130A
:104CE00003C0DF0111971C92E817F907B9F708957F
:104CF0000E94512608950E946B260895029626E090
:104D0000FC0111922A95E9F7089546E050E00E94CF
:104D1000A32F21E0892B09F420E0822F0895089524
:104D20000E948F260895811106C081E08093FA02C7
:104D30000E949026089582E0F9CF83E08093FA02E2
:104D40000E94902608950E949326089581E0809302
:104D5000FA020E94902608950E94A62608950895BA
:104D600008950E94B0260895089508950E94AF26E0
:104D70000895CF930E94B4260E9409130E94B5267D
:104D8000C0E08C2F0E94A811811105C0CF5FCC30EC
:104D9000C1F7CF91089581E0FCCF85B7806885BFCA
:104DA00085B7806885BF08951F921FB61F92112492
:104DB0008F939F93AF93BF938091FB02811113C098
:104DC0008091310590913205A0913305B091340561
:104DD0004196A11DB11D8093310590933205A0939A
:104DE0003305B0933405BF91AF919F918F911F9080
:104DF0001FBE1F90189580913905843031F10E94B3
:104E000069041092FB0288E190E020E40FB6F89468
:104E1000A895809360000FBE2093600083B7817FC8
:104E2000846083BF83B7816083BF7894889583B79C
:104E30008E7F83BF0FB6F894A8958091600088613B
:104E400080936000109260000FBE08950E94840855
:104E50000E947204089582E084BD93E095BD9AEFAC
:104E600097BD80936E0008952FB7F8948091310517
:104E700090913205A0913305B09134052FBF08956C
:104E80002FB7F89460913105709132058091330508
:104E9000909134052FBF08959C014FB7F8948091ED
:104EA000310590913205A0913305B09134054FBF83
:104EB000821B930B0895CF92DF92EF92FF922FB750
:104EC000F894C0903105D0903205E0903305F09011
:104ED00034052FBFA7019601261B370B480B590B32
:104EE000CA01B901FF90EF90DF90CF9008957894B8
:104EF0001F921FB61F9211248F939F93AF93BF935E
:104F00008091310590913205A0913305B09134051F
:104F10000196A11DB11D8093310590933205A09398
:104F20003305B0933405BF91AF919F918F911F903E
:104F30001FBE1F90189587E797E79093010880930D
:104F4000000888E19AE00FB6F894A8958093600075
:104F50000FBE90936000FFCF88E19AE00FB6F894FF
:104F6000A895809360000FBE90936000FFCF809162
:104F70000703089508959C0184E08093E9009FEF62
:104F80008091E800915085FD06C085ED8A95F1F786
:104F900000009111F5CF8091E80085FF0CC050E032
:104FA00040E066E070E0C9010E944F2A8091E8006D
:104FB0008E778093E8000895CF93DF93EC0181E032
:104FC0008093E9008FEF9091E800815095FD06C035
:104FD00095ED9A95F1F700008111F5CF8091E800E9
:104FE00085FF14C050E040E068E070E0CE010E9410
:104FF0004F2A8091E8008E778093E80088E0FE01D8
:10500000AFEFB2E001900D928A95E1F7DF91CF9179
:1050100008958093FC027093FE026093FD028091DC
:1050200039058430F9F48093E9008FEF9091E8001E
:10503000815095FD06C095ED9A95F1F7000081111C
:10504000F5CF8091E80085FF0DC050E040E063E0BF
:1050500070E08CEF92E00E944F2A8091E8008E77FA
:105060008093E8000895BC0184E00E940928089517
:10507000BC0183E00E9409280895CF93FC016032AF
:1050800021F580913905843001F5C091E900CF7098
:105090002091EC00922F917020FD90E8C92B82E0C6
:1050A0008093E9008091E80080FF0CC050E040E070
:1050B00060E270E0CF010E944F2A8091E8008E7775
:1050C0008093E800CF70C093E900CF91089580915C
:1050D0003805811109C00E942E2C0E948B2C8091D2
:1050E000E20084608093E2000895109238050895EC
:1050F0000E94A62608956091350581E0611101C0E6
:1051000080E00E949D2608959091390581E09430B9
:1051100009F080E0609135050E94A326089542E0E1
:1051200061EC81E00E94AA2B42E261EC84E00E94E3
:10513000AA2B42E261EC82E00E94AA2B42E260ECE0
:1051400083E00E94AA2B9091390581E0943009F008
:1051500080E0609135050E949326089580913B057B
:10516000833009F463C030F48130E1F1823009F416
:10517000A0C008958A3009F48CC08B3009F471C046
:10518000893009F052C080913A05813209F04DC052
:1051900080913E0590913F05009719F0029709F024
:1051A00044C08091E800877F8093E8008091E80008
:1051B00082FF37C09091F3008091F200029731F4A2
:1051C0008091F100813011F0863021F48091F1005E
:1051D000809307038091E8008B778093E8000E941A
:1051E000DE2B23C080913A05813AF9F48091E800E2
:1051F000877F8093E80080913E0590913F05892B41
:1052000061F468E08FEF92E070E00E94ED2A8091F7
:10521000E8008B778093E800089560E090E080E0FC
:10522000F3CF809139058111C1CF089580913A055E
:10523000813AD9F780913E0590913F05892BA9F7D6
:105240008091E800877F8093E8008091E80080FFEC
:10525000FCCF80916B018093F1008091E8008E7704
:10526000BCCF80913A05813201F780913E05909143
:105270003F05892BD1F68091E800877F8093E80075
:105280000E94DE2B80913C0580936B010E94840874
:10529000089580913A05813241F68091E800877F38
:1052A0008093E8000E94DE2B80913D0580930803E7
:1052B000089580913A05813A09F0B7CF8091E800CE
:1052C000877F8093E8008091E80080FFFCCF809189
:1052D0000803C1CF84B7877F84BF0FB6F894A89521
:1052E00080916000886180936000109260000FBE22
:1052F00080E890E00FB6F89480936100909361008D
:105300000FBE0E94AC2608950E942E2C0E948B2C6A
:10531000E2EEF0E080818460808378940E940A2F1E
:1053200008958FE591E00E94D22508958091390576
:10533000853031F480913905853019F00E94262797
:1053400008950E94FB2680913705882399F30E94D7
:10535000B926882379F30E94392A0E948408EACF6B
:10536000A0E2B0E0E6EBF9E20C947C2F80913905E5
:10537000843009F583E08093E9008091E80082FFA2
:105380001AC08091E80090E085FF09C050E040E03D
:1053900060E270E0CE0101960E949E2A91E0809129
:1053A000E8008B778093E800992329F060E2CE0132
:1053B00001960E94161BA096E2E00C94982F0E9482
:1053C000E2290895292F33272330310521F168F48C
:1053D0002130310509F443C02230310509F444C0BD
:1053E00090E080E030E020E026C02132310551F12C
:1053F00022323105A9F76330710590F7FB01EE0FFA
:10540000FF1FE251FE4F2081318165517E4FFB012C
:10541000808190E010C099278130910581F000973C
:1054200029F00297E9F6E8EEF2E002C0E0E1F3E0ED
:10543000849190E09F01FA01318320830895EAEF7F
:10544000F2E0F6CF6330710558F6660F771FFB0167
:10545000EC50FE4F2081318189E090E0ECCF82E179
:1054600090E02FE633E0E7CF8BE590E024E133E0F6
:10547000E2CF80E189BD82E189BD09B400FEFDCFA4
:105480008091D8008F7D8093D8008091E000826069
:105490008093E0008091E00081FDFCCF0895AF9201
:1054A000BF92CF92DF92FF920F931F93CF93DF9320
:1054B0006C01EB018A010E94FD2BF82E811123C0A3
:1054C0000115110539F0F80180819181C81BD90BB4
:1054D000C80ED91EB12CA12C2097A9F08091E8000C
:1054E00085FD22C08091E8008E778093E800011549
:1054F0001105A1F0F80180819181A80EB91EB18239
:10550000A08285E0F82E8F2DDF91CF911F910F9112
:10551000FF90DF90CF90BF90AF9008950E94FD2B39
:105520008823D1F2F82EEFCFF60181916F0180939D
:10553000F1002197FFEFAF1ABF0ACECFAF92BF9213
:10554000CF92DF92FF920F931F93CF93DF936C0163
:10555000EB018A010E94FD2BF82E811123C0011559
:10556000110539F0F80180819181C81BD90BC80E53
:10557000D91EB12CA12C2097A9F08091E80085FDBF
:1055800022C08091E8008B778093E8000115110517
:10559000A1F0F80180819181A80EB91EB182A0828C
:1055A00085E0F82E8F2DDF91CF911F910F91FF9005
:1055B000DF90CF90BF90AF9008950E94FD2B88237D
:1055C000D1F2F82EEFCF8091F100F60181936F01B7
:1055D0002197FFEFAF1ABF0ACECFFC0180914005A3
:1055E0009091410586179707A0F06115710529F480
:1055F0009091E8009E779093E80090E06115710526
:1056000051F4911108C08091E80082FF34C080E01D
:105610000895BC01F2CF809139058823C1F185300E
:10562000C1F18091E80083FD30C08091E80082FDE7
:10563000EACF8091E80080FFE1CF8091F3002091D4
:10564000F200382F6115710519F02830310558F036
:1056500091E02830310509F090E02091E8002E77A4
:105660002093E800CBCF81918093F10061507109C4
:105670002F5F3F4FE7CF80913905882341F0853078
:1056800041F08091E80083FFBECF81E0089582E081
:10569000089583E00895FC018091400590914105B3
:1056A00086179707A0F06115710529F48091E8002D
:1056B0008E778093E80090E06115710551F49111A7
:1056C00008C08091E80082FF35C080E00895BC01E9
:1056D000F2CF809139058823C9F18530C9F18091D5
:1056E000E80083FD31C08091E80082FDEACF80911F
:1056F000E80080FFE1CF8091F3002091F200382F85
:105700006115710519F02830310558F091E0283005
:10571000310509F090E08091E8008E778093E800F1
:10572000CBCF84918093F1003196615071092F5F46
:105730003F4FE6CF80913905882341F0853041F015
:105740008091E80083FFBDCF81E0089582E0089555
:1057500083E00895982F973028F08F708093E900A8
:1057600081E008959093E900242F762F50E0981758
:1057700031F07091EC002091ED005091F00021FD8E
:1057800002C09F5FE8CF3091EB003E7F3093EB008B
:105790003091ED003D7F3093ED003091EB003160B2
:1057A0003093EB007093EC002093ED005093F000E9
:1057B0002091EE0027FDE5CF80E0089580913A0525
:1057C00087FF13C08091E80082FF06C08091E80047
:1057D0008B778093E80004C0809139058111F2CF66
:1057E0000895809139058823D9F38091E80080FFDE
:1057F000F8CF8091E8008E77ECCF2091E4003091D3
:10580000E50095E6A9012091EC00822F817020FF30
:1058100006C08091E80080FF06C080E008952091D6
:10582000E80022FD1AC080913905882389F085306F
:1058300089F08091EB0085FD0FC02091E40030914C
:10584000E50042175307F9F29150E1F684E008951C
:1058500082E0089583E0089581E008950E949D2CE0
:105860000E94A52CE0EEF0E0808181608083E8ED6D
:10587000F0E080818F77808319BCA7EDB0E08C9138
:105880008E7F8C9380818F7E80831092380508955F
:105890000F931F93CF93DF930E949D2C0E94A52C02
:1058A000C8EDD0E088818F7788838881806888837D
:1058B00088818F7D888319BC109239051092350537
:1058C000109237051092360500EE10E0F801808145
:1058D0008B7F808388818160888342E060E080E004
:1058E0000E94AA2BE1EEF0E080818E7F8083E2EEC1
:1058F000F0E0808181608083808188608083F8010E
:1059000080818E7F8083888180618883DF91CF91C1
:105910001F910F910895E8EDF0E080818F7E8083E4
:10592000E7EDF0E080818160808384E082BF81E0E8
:10593000809338050E94482C0895E8EDF0E08081BE
:105940008E7F80831092E20008951092DA00109208
:10595000E10008951F920F920FB60F9211242F931A
:105960003F934F935F936F937F938F939F93AF93E7
:10597000BF93EF93FF938091E10082FF0BC0809172
:10598000E20082FF07C08091E1008B7F8093E100FD
:105990000E94092F8091DA0080FF19C08091D80001
:1059A00080FF15C08091DA008E7F8093DA008091AD
:1059B000D90080FF96C080E189BD82E189BD09B42C
:1059C00000FEFDCF81E0809339050E946728809119
:1059D000E10080FF19C08091E20080FF15C0809136
:1059E000E2008E7F8093E2008091E20080618093EC
:1059F000E2008091D80080628093D80019BC85E0D5
:105A0000809339050E947B288091E10084FF2BC0A0
:105A10008091E20084FF27C080E189BD82E189BDD9
:105A200089B5982F917080FFFBCF8091D8008F7D32
:105A30008093D8008091E1008F7E8093E100809177
:105A4000E2008F7E8093E2008091E200816080938B
:105A5000E20080913505882309F449C084E08093F1
:105A600039050E9484288091E10083FF29C080913C
:105A7000E20083FF25C08091E100877F8093E100F1
:105A800082E080933905109235058091E1008E7F88
:105A90008093E1008091E2008E7F8093E20080910C
:105AA000E20080618093E20042E060E080E00E94DA
:105AB000AA2B8091F00088608093F0000E947828E3
:105AC000FF91EF91BF91AF919F918F917F916F91D6
:105AD0005F914F913F912F910F900FBE0F901F90AC
